:1000000035C400005DC400005BC4000059C400009A
:1000100057C4000055C4000053C4000051C4000080
:100020004FC400004DC400000C94F9420C94764378
:1000300047C4000045C4000043C4000041C40000A0
:100040003FC400003DC400003BC4000039C40000B0
:1000500037C4000035C4000033C400000C9458427B
:100060002FC400000C94B4450C94DF450C9410464A
:1000700027C4000025C4000023C4000021C40000E0
:100080000C94021B1DC400001BC4000019C4000016
:1000900017C4000015C4000000100000003000006C
:1000A0000050000000700000008000000080000090
:1000B00000800000198D1900339933004DA64D00C2
:1000C00066B3660080C0800099CC9900B3D9B300B4
:1000D000CCE6CC00E6F2E60000000000003E5B4FFC
:1000E0005B3E3E6B4F6B3E1C3E7C3E1C183C7E3C98
:1000F000181C577D571C1C5E7F5E1C00183C1800A6
:10010000FFE7C3E7FF0018241800FFE7DBE7FF3035
:10011000483A060E2629792926407F050507407FA3
:1001200005253F5A3CE73C5A7F3E1C1C08081C1C16
:100130003E7F14227F22145F5F005F5F06097F010C
:100140007F006689956A606060606094A2FFA294F7
:1001500008047E040810207E201008082A1C0808C5
:100160001C2A08081E101010100C1E0C1E0C303813
:100170003E3830060E3E0E06000000000000005F14
:1001800000000007000700147F147F14242A7F2A30
:1001900012231308646236495620500008070300F2
:1001A000001C2241000041221C002A1C7F1C2A083E
:1001B000083E0808008070300008080808080000A1
:1001C00060600020100804023E5149453E00427F15
:1001D000400072494949462141494D331814127F64
:1001E0001027454545393C4A494931412111090704
:1001F0003649494936464949291E00001400000085
:100200004034000000081422411414141414004156
:1002100022140802015909063E415D594E7C121113
:10022000127C7F494949363E414141227F4141414B
:100230003E7F494949417F090909013E41415173C6
:100240007F0808087F00417F41002040413F017F37
:10025000081422417F404040407F021C027F7F04FF
:1002600008107F3E4141413E7F090909063E415148
:10027000215E7F09192946264949493203017F0138
:10028000033F4040403F1F2040201F3F4038403F39
:10029000631408146303047804036159494D43004F
:1002A0007F4141410204081020004141417F040286
:1002B000010204404040404000030708002054541D
:1002C00078407F28444438384444442838444428FB
:1002D0007F385454541800087E090218A4A49C784E
:1002E0007F0804047800447D40002040403D007FAA
:1002F0001028440000417F40007C047804787C088A
:100300000404783844444438FC182424181824245D
:1003100018FC7C08040408485454542404043F4442
:10032000243C4040207C1C2040201C3C4030403C71
:1003300044281028444C9090907C4464544C4400D1
:100340000836410000007700000041360800020135
:100350000204023C2623263C1EA1A161123A404021
:10036000207A38545455592155557941225454789E
:1003700042215554784020545579400C1E52721237
:1003800039555555593954545459395554545800C0
:1003900000457C410002457D420001457C407D12C4
:1003A00011127DF0282528F07C5455450020545426
:1003B0007C547C0A097F4932494949323A444444D1
:1003C0003A324A4848303A4141217A3A424020780C
:1003D000009DA0A07D3D4242423D3D4040403D3C0D
:1003E00024FF2424487E4943662B2FFC2F2BFF0932
:1003F00029F620C0887E0903205454794100004426
:100400007D413048484A32384040227A007A0A0A10
:10041000727D0D19317D2629292F28262929292683
:1004200030484D4020380808080808080808382FC8
:1004300010C8ACBA2F102834FA00007B0000081452
:100440002A142222142A14085500550055AA55AA28
:1004500055AAFF55FF55FF000000FF00101010FFC8
:1004600000141414FF001010FF00FF1010F010F023
:10047000141414FC001414F700FF0000FF00FF1414
:1004800014F404FC141417101F10101F101F141460
:10049000141F00101010F0000000001F10101010AA
:1004A0001F10101010F010000000FF10101010109E
:1004B00010101010FF10000000FF140000FF00FFDC
:1004C00000001F10170000FC04F414141710171478
:1004D00014F404F40000FF00F7141414141414149A
:1004E000F700F7141414171410101F101F1414140D
:1004F000F4141010F010F000001F101F0000001F77
:1005000014000000FC140000F010F01010FF10FFA9
:10051000141414FF141010101F00000000F010FF3E
:10052000FFFFFFFFF0F0F0F0F0FFFFFF0000000022
:1005300000FFFF0F0F0F0F0F3844443844FC4A4AA6
:100540004A347E02020606027E027E02635549415B
:10055000633844443C04407E201E2006027E020292
:1005600099A5E7A5991C2A492A1C4C7201724C30A6
:100570004A4D4D303048784830BC625A463D3E497D
:100580004949007E0101017E2A2A2A2A2A44445F21
:10059000444440514A444040444A51400000FF0115
:1005A00003E080FF000008086B6B08361236243623
:1005B000060F090F06000018180000001010003088
:1005C00040FF0101001F01011E00191D1712003C10
:1005D0003C3C3C000000000000010203040506084A
:1005E000090A0B0D0E1012131517191B1D202225B9
:1005F000272A2D3033373A3E4145494D52565B5FED
:1006000064696E74797F858B91979DA4ABB2B9C0F4
:10061000C7CFD6DEE6EEF7FF000102030507090BA0
:100620000E1114181D22282E363D464F59646F7C3A
:100630008997A6B6C7D9EBFFAB0055007C008400B4
:100640004B00B5001B00E5000017E8000047B800AC
:100650000077AB0000ABAB000055AB000022DD0023
:100660000E00F2003E00C20071008F00A1005F008A
:10067000D0002F00F90700000000FF00000000007C
:100680000055AB000000000000ABAB000000000014
:1006900000FF00000000000055AB0000000000005B
:1006A000FF00000000000000AB005500000000004B
:1006B0005500AB00000000000000FF00002AD5003C
:1006C0000055AB00007FAB0000ABAB0000D556007F
:1006D00000FF00002AD5000055AB0000AA5600001C
:1006E000FF000000D5002A00AB00550081007F000C
:1006F0005500AB002B00D500FF0000008B00000070
:100700008B0000008B0000008B0000008B000000BD
:100710008B0000008B000000FF0000008B00000039
:10072000EBCE8700EBCE8700E6D8AD00FFFFFF00E1
:10073000E6D8AD00EBCE870001290229042908295B
:100740001029202940298029012C022C012602266B
:10075000042608261026202640268026402C802CA1
:100760000123022304230823102320234023802372
:10077000012002200420082010202020402080207A
:10078000102C202C012F022F042F082F102F202F88
:10079000402F802F000100004508120002000002D7
:1007A000084300030000FE070401030904E40718DE
:1007B00002030904CC071603030904BE070C0C034B
:1007C00031003200330034003500000016035500BC
:1007D0005300420020005300650072006900610070
:1007E0006C00000018035400650065006E00730083
:1007F00079006400750069006E006F00000004035A
:10080000090409024300020100C03209040000018A
:100810000202010005240010010524010001042446
:1008200002060524060001070582030800400904AA
:100830000100020A0000000705030240000007054E
:1008400084024000001201000202000020C0168352
:10085000047202010203010001C10201803601811C
:100860003600DC2ED43D2E46F348572F11241FBEF0
:10087000CFEFD0E2DEBFCDBF19E0A0E0B1E0E2E310
:10088000FAE900E00BBF02C007900D92A435B10752
:10089000D9F720E1A4E5B9E001C01D92A93DB20756
:1008A000E1F714E0C5E3D4E004C02197FE010E9403
:1008B000224CC133D107C9F70E943F460C940D4D1D
:1008C0009FCBFC01858596850895CF93DF9300D05B
:1008D00000D000D0CDB7DEB7AB011C821D821E82D6
:1008E000DC01ED91FC910190F081E02D19821A82DA
:1008F0001B829E012F5F3F4FBE016C5F7F4F0995AA
:1009000026960FB6F894DEBF0FBECDBFDF91CF9114
:1009100008956731710508F0EFC0FB01EE56FB4FFB
:100920000C94224CA904B404BC04C904D404DB0410
:10093000E204E904F304FD04070511051B05250580
:100940002F0537053F0546054D0554055E0568052D
:10095000720504978330910508F0CEC084529B4FF6
:10096000FC01808190E0089502978630910508F09F
:10097000C3C08A529B4FF4CF01978331910508F091
:10098000BBC0880F991FFC01E055FB4F808191810E
:10099000089501978531910508F0AEC0880F991F21
:1009A000FC01EA57FB4FF2CF8431910508F0A4C057
:1009B0008E589B4FD5CF8431910508F09DC0825A47
:1009C0009B4FCECF8F30910508F096C0815B9B4F37
:1009D000C7CF8F30910508F08FC0880F991FFC0199
:1009E000EF5CFB4FD3CF8F30910508F085C0880FA7
:1009F000991FFC01ED5EFB4FC9CF8F30910508F0C8
:100A00007BC0880F991FFC01EB50FC4FBFCF8F308C
:100A1000910508F071C0880F991FFC01E952FC4F45
:100A2000B5CF8F30910508F067C0880F991FFC0182
:100A3000E754FC4FABCF8F30910508F05DC0880FB5
:100A4000991FFC01E556FC4FA1CF8F30910508F0AE
:100A500053C0880F991FFC01E358FC4F97CF0197B3
:100A60008E30910508F048C081599C4F79CF02978C
:100A70008131910508F040C0825A9C4F71CF019797
:100A800082319105C8F5845B9C4F6ACF0197833111
:100A9000910590F5875C9C4F63CF01978431910558
:100AA00058F58B5D9C4F5CCF01978331910520F504
:100AB000880F991FFC01E150FD4F68CF02978730E6
:100AC0009105D0F4880F991FFC01EF50FD4F5ECFC8
:100AD00003978530910580F4880F991FFC01E95137
:100AE000FD4F54CF04978330910530F4880F991F40
:100AF000FC01EF51FD4F4ACF8CE291E0089580E96F
:100B000091E008953A9A0895FB0101900020E9F7D9
:100B10003197AF01461B570BDC01ED91FC91028030
:100B2000F381E02D0994F0CF0F931F93CF93DF93C0
:100B3000EC01462F50E070E060E020E00E94EB46C0
:100B40008C01CE010E94D146800F911FDF91CF9181
:100B50001F910F9108950F931F93DC01AC01405D2D
:100B60005F4FFB0105911591259134912C931196BE
:100B70001C93119712960C9312976C5F7F4F1396EC
:100B8000A417B50771F71F910F910895FC016081BB
:100B90000C941C3CFC0140810C94AC3CDC01ED91BC
:100BA000FC9102A0F3A1E02D70E060E0099424E044
:100BB00030E040E050E061E070E080E090E00E94D2
:100BC00025496230710531F06330710531F090E0F4
:100BD00080E008958FE790E008958FEF90E008950A
:100BE00027E030E040E050E061E070E080E090E03D
:100BF0000E942549615071096730710540F4660F04
:100C0000771FFB01ED52FD4F80819181089590E0A7
:100C100080E0089529E030E040E050E061E070E0DD
:100C200080E090E00E9425496150710967307105AC
:100C300040F4660F771FFB01EB53FD4F80819181DC
:100C4000089590E080E008950F931F93CF93DF9372
:100C50008C01C62F80912A0A81110EC061E08DE3BC
:100C600090E10E94443D1093070100930601C09358
:100C7000290A81E080932A0A8091E3099091E4098E
:100C8000892B49F494DF8093E70991DF8093E6098B
:100C90008EDF8093E509C091E509D091E6091091B6
:100CA000E70926E131E040E050E060E070E0CB0190
:100CB0000E942549FB01EE0FFF1FE60FF71FE25CC4
:100CC000F54F1083D183C28323E030E040E050E051
:100CD00060E070E0CB010E9425496130710581051B
:100CE000910599F426E131E040E050E060E070E0E9
:100CF000CB010E942549FB01EE0FFF1FE60FF71FF6
:100D0000E25CF54F1082118212828DE390E13EDFAA
:100D10008091300A9091310A88399A43F0F010920C
:100D2000310A1092300A84E00E9400410E94064974
:100D30008091E3099091E40901968430910591F046
:100D40009093E4098093E30932DF8093E7092FDF72
:100D50008093E6092CDF8093E509DF91CF911F9105
:100D60000F91089581E090E0EBCFDF92EF92FF9238
:100D70000F931F93CF93DF937C01062FC42F809195
:100D80002A0A81110EC061E08DE390E10E94443D8A
:100D9000F0920701E0920601C093290A81E0809356
:100DA0002A0A60E08DE390E10E94443D8FEF80933A
:100DB0003D10D0E0C0E010E0C017D107DCF4F7DE52
:100DC000F82EF5DEE82EF3DED82E26E131E040E005
:100DD00050E060E070E0CB010E942549FB01EE0F7E
:100DE000FF1FE60FF71FE25CF54FD082E182F2822F
:100DF0002196E2CF8DE390E1DF91CF911F910F918A
:100E0000FF90EF90DF90C2CECF92DF92FF920F93D0
:100E10001F93CF93DF9300D01F92CDB7DEB76C0145
:100E2000F62E8A0180912A0A811112C061E08DE3B9
:100E300090E10E94443DD0920701C0920601F092D9
:100E4000290A81E080932A0A1093310A0093300A1C
:100E50008091300A9091310A8017910778F11092B1
:100E6000310A1092300AA3DE8093E709A0DE809356
:100E7000E6099DDE8093E5099091E70991110FC085
:100E80009091E60991110BC0811109C090DE809309
:100E9000E7098DDE8093E6098ADE8093E50980917B
:100EA000E5099091E6092091E70929839A838B83CC
:100EB000BE016F5F7F4F8DE390E16CDE0F900F906E
:100EC0000F90DF91CF911F910F91FF90DF90CF9006
:100ED0000895AF92BF92CF92DF92EF92FF920F935D
:100EE0001F93CF93DF9300D01F92CDB7DEB75C0185
:100EF000F62E6A01122F80912A0A811112C061E038
:100F00008DE390E10E94443DB0920701A09206015A
:100F1000F092290A81E080932A0AD092310AC09285
:100F2000300A8091300A9091310A8C159D0598F015
:100F30001092310A1092300A8091330A8823C9F046
:100F400019830A83EB82BE016F5F7F4F8DE390E1CF
:100F500021DE1092330A0F900F900F90DF91CF9106
:100F60001F910F91FF90EF90DF90CF90BF90AF90C7
:100F7000089519821A821B82BE016F5F7F4F8DE335
:100F800090E108DE81E08093330AE5CFEF92FF9293
:100F90000F931F93CF938C01C62F80912A0A811142
:100FA0000EC061E08DE390E10E94443D1093070183
:100FB00000930601C093290A81E080932A0A60E029
:100FC0008DE390E10E94443D20911C0A6091210A2A
:100FD0007091220A80912C1090912D10211151C0F6
:100FE0006F5F7F4F7093220A6093210A6C31710505
:100FF0001CF021E020931C0ADC01ED91FC9104A07F
:10100000F5A1E02DE12C58EFF52E07E110E09B0152
:1010100050E040E0099580912C1090912D10609146
:10102000210A7091220A61507109DC01ED91FC9155
:1010300004A0F5A1E02DEE24EA94FE2C9B0150E0E3
:1010400040E0099580912C1090912D106091210A1B
:101050007091220A62507109DC01ED91FC9104A0AB
:10106000F5A1E02DE12CB8EFFB2E9B0150E040E014
:1010700009958DE390E1CF911F910F91FF90EF9033
:1010800085CD615071097093220A6093210A6B3FEC
:10109000BFEF7B0714F410921C0ADC01ED91FC9168
:1010A00004A0F5A1E02DEE24EA94FE2C07E110E067
:1010B0009B0150E040E0099580912C1090912D10FB
:1010C0006091210A7091220A61507109DC01ED9151
:1010D000FC9104A0F5A1E02DE12C38EFF32E9B014B
:1010E00050E040E0099580912C1090912D10609176
:1010F000210A7091220A62507109DC01ED91FC9184
:1011000004A0F5A1E02DEE24EA94FE2CAECF8F9240
:101110009F92AF92BF92CF92DF92EF92FF920F9386
:101120001F93CF93DF937C01EB01142F80912A0A48
:10113000811118C061E08DE390E10E94443DF0927E
:101140000701E09206011093290A81E080932A0AA0
:1011500047DD90933C0A80933B0A42DD90933A0A24
:101160008093390A1C161D06ACF48091300A9091C8
:10117000310A8C179D0770F01092310A1092300AD4
:101180002FDD90933C0A80933B0A2ADD90933A0A24
:101190008093390A8091210A9091220A01968A301F
:1011A00091050CF0FCC09093220A8093210A60E024
:1011B0008DE390E10E94443D80912C1090912D1080
:1011C0004091210A5091220AE0903B0AF0903C0A9B
:1011D0009A01265F3F4F6AE0A62EB12CB501641B31
:1011E000750BDC01ED91FC9104A0F5A1E02D06E169
:1011F00010E050E040E0099580912C1090912D1066
:101200004091210A5091220AE090390AF0903A0A5E
:101210009A01255F3F4F7BE0872E912CB401641B20
:10122000750BDC01ED91FC9104A0F5A1E02D50E0DF
:1012300040E0099580912C1090912D104091210A49
:101240005091220AE0903B0AF0903C0AE6E1CE2E53
:10125000D12C041B150B4F5F5F4FDC01ED91FC910E
:1012600004A0F5A1E02D25E130E070E060E00995F3
:1012700080912C1090912D104091210A5091220ABA
:10128000E090390AF0903A0AC5E1D0E08E01041BE3
:10129000150BDC01ED91FC9104A0F5A1E02D25E1F9
:1012A00030E070E060E0099580912C1090912D1055
:1012B0004091210A5091220AE0903B0AF0903C0AAA
:1012C0008401041B150B455F5F4FDC01ED91FC9120
:1012D00004A0F5A1E02D25E130E070E060E0099583
:1012E00080912C1090912D104091210A5091220A4A
:1012F000E090390AF0903A0A8501041B150B465F0D
:101300005F4FDC01ED91FC9104A0F5A1E02D25E1FA
:1013100030E070E060E0099580912C1090912D10E4
:101320006091210A7091220AE0903B0AF0903C0AF9
:101330009601261B370BDC01ED91FC9104A0F5A171
:10134000E02D10E000E046E150E0099580912C107E
:1013500090912D106091210A7091220AE090390A33
:10136000F0903A0A9E01261B370B61507109DC018F
:10137000ED91FC9104A0F5A1E02D46E150E0099526
:101380008DE390E1DF91CF911F910F91FF90EF904E
:10139000DF90CF90BF90AF909F908F90F7CB10923F
:1013A000220A1092210A03CF462F70E060E0AFCEF0
:1013B0000F931F93CF938C01C62F80912A0A81111E
:1013C0000EC061E08DE390E10E94443D109307015F
:1013D00000930601C093290A81E080932A0A60E005
:1013E0008DE390E10E94443D8DE390E1CF911F9108
:1013F0000F91CCCB8F929F92AF92BF92CF92DF9200
:10140000EF92FF920F931F93CF93DF937C01162FE0
:10141000EA0180912A0A811112C061E08DE390E116
:101420000E94443DF0920701E09206011093290AC0
:1014300081E080932A0AD093310AC093300A8091C8
:10144000300A9091310A8C179D07E0F11092310A11
:101450001092300AC0912C10D0912D10DBDB8C0142
:101460002AE030E040E050E063E070E080E090E0AF
:101470000E9425494B0126E130E040E050E060E069
:1014800070E0CB010E9425496B0125E130E040E08E
:1014900050E060E070E0CB010E9425499401A60174
:1014A000CE010E9462348DE390E1DF91CF911F91D4
:1014B0000F91FF90EF90DF90CF90BF90AF909F90F3
:1014C0008F9064CBDF91CF911F910F91FF90EF90A0
:1014D000DF90CF90BF90AF909F908F900895CF9264
:1014E000DF92EF92FF920F931F93CF93DF936C01E4
:1014F000F62EEA0180912A0A811112C061E08DE383
:1015000090E10E94443DD0920701C0920601F09202
:10151000290A81E080932A0AD093310AC093300AC5
:101520008091300A9091310A8C179D0708F472C09F
:101530001092310A1092300A25E130E040E050E08C
:1015400060E070E0CB010E942549C62F25E130E024
:1015500040E050E060E070E0CB010E942549C62EDB
:101560003FDB90933C0A80933B0A60E08DE390E17F
:101570000E94443D80912C1090912D10D12CD0E0F0
:10158000E0903B0AF0903C0A960121503109BE01DF
:1015900061507109DC01ED91FC9104A0F5A1E02DF1
:1015A00006E110E050E040E0099580912C10909108
:1015B0002D10E0903B0AF0903C0ADC01ED91FC918B
:1015C00004A0F5A1E02D960150E040E0BE01099590
:1015D00080912C1090912D10E0903B0AF0903C0AE5
:1015E00096012F5F3F4FBE016F5F7F4FDC01ED9192
:1015F000FC9104A0F5A1E02D50E040E009958DE3B9
:1016000090E1DF91CF911F910F91FF90EF90DF90CC
:10161000CF90BCCADF91CF911F910F91FF90EF90B7
:10162000DF90CF900895CF92DF92EF92FF920F93C9
:101630001F93CF93DF938C01C62F80912A0A8111CB
:101640000EC061E08DE390E10E94443D10930701DC
:1016500000930601C093290A81E080932A0A60E082
:101660008DE390E10E94443D80911A0A90911B0AFB
:101670008230910509F459C07CF4009739F1019743
:10168000E1F18DE390E1DF91CF911F910F91FF90F8
:10169000EF90DF90CF907ACA8430910509F49AC018
:1016A0000CF472C0059769F78091210A9091220A83
:1016B00001979093220A8093210A181619060CF4B8
:1016C0009DC010921B0A10921A0A12C08091210A22
:1016D0009091220A01969093220A8093210A4A97B8
:1016E0000CF461C081E090E090931B0A80931A0A89
:1016F0001092220A1092210AC4CF8091210A90915F
:10170000220A01969093220A8093210A0C9714F1E1
:1017100082E090E090931B0A80931A0A8CE090E09C
:101720009093220A8093210AACCF8091210A909154
:10173000220A01979093220A8093210A181619060B
:101740004CF083E090E090931B0A80931A0A89E1A1
:1017500090E0E6CFC0912C10D0912D10E881F98156
:10176000C4A0D5A03DDA4091210A5091220A06E199
:1017700010E0041B150B7C0130E020E069E170E013
:10178000CE01F60109957DCF8091210A9091220A20
:1017900001979093220A8093210A181619061CF0CB
:1017A00084E090E0A1CFC0912C10D0912D10E88161
:1017B000F981C4A0D5A014DA6091210A7091220A9F
:1017C00029E130E0261B370B7C0106E110E050E0F8
:1017D00040E0D6CF8091210A9091220A0196909301
:1017E000220A8093210A0B974CF085E090E09093B9
:1017F0001B0A80931A0A8AE090E092CFC0912C10C5
:10180000D0912D10E881F981C4A0D5A0E9D94091EB
:10181000210A5091220A06E110E0041B150B7C01FD
:1018200029E130E070E060E0ABCFCF92DF92EF9241
:10183000FF920F931F93CF93DF938C01C62F80915C
:101840002A0A81110EC061E08DE390E10E94443DBF
:101850001093070100930601C093290A81E0809349
:101860002A0A60E08DE390E10E94443D80911C0AC9
:10187000E091210AF091220A811108C1E930F105B5
:1018800028F5EB5BF34F0C94224C4E0C800C990C1A
:10189000B20CCB0CE40CFC0C150D2E0DC9EDD7E0F1
:1018A00005E718E0E990F99082D9D82E80D9C82EA2
:1018B0007ED9F701EE0FFF1FEE0DFF1DE25CF54F25
:1018C0008083C182D2820C171D0761F78DE390E1FE
:1018D0005DD98091210A9091220A01969093220A63
:1018E0008093210A09971CF081E080931C0ADF9104
:1018F000CF911F910F91FF90EF90DF90CF900895BF
:10190000CDE4D7E009ED17E0E990F99050D9D82E51
:101910004ED9C82E4CD9F701EE0FFF1FEE0DFF1D5B
:10192000E25CF54F8083C182D2820C171D0761F7FC
:10193000CDCFC1EED6E00DE417E0E990F99037D9AC
:10194000D82E35D9C82E33D9F701EE0FFF1FEE0D73
:10195000FF1DE25CF54F8083C182D2820C171D0708
:1019600061F7B4CFC7E9D6E001EE16E0E990F9904F
:101970001ED9D82E1CD9C82E1AD9F701EE0FFF1F79
:10198000EE0DFF1DE25CF54F8083C182D2820C1701
:101990001D0761F79BCFC7E5D6E007E916E0E990A0
:1019A000F99005D9D82E03D9C82E01D9F701EE0F29
:1019B000FF1FEE0DFF1DE25CF54F8083C182D282D6
:1019C0000C171D0761F782CFCBE1D6E00991199181
:1019D000EED8F82EECD8E82EEAD8F801EE0FFF1F6B
:1019E000E00FF11FE25CF54F8083E182F28286E036
:1019F000C735D80759F76ACFC5EED5E00BE116E039
:101A0000E990F990D4D8D82ED2D8C82ED0D8F701E2
:101A1000EE0FFF1FEE0DFF1DE25CF54F8083C182CC
:101A2000D2820C171D0761F751CFC1EBD5E005EE4F
:101A300015E0E990F990BBD8D82EB9D8C82EB7D800
:101A4000F701EE0FFF1FEE0DFF1DE25CF54F8083E7
:101A5000C182D2820C171D0761F738CFC1E8D5E0EB
:101A600009911991A4D8F82EA2D8E82EA0D8F8018F
:101A7000EE0FFF1FE00FF11FE25CF54F8083E18264
:101A8000F28285E0C13BD80759F720CFE930F10554
:101A900020F5E35BF24F0C94224C560D800D980D0F
:101AA000B00DC80DE00DFB0D160E310EC9EDD7E0DF
:101AB000099119917CD8F82E7AD8E82E78D8F801B7
:101AC000EE0FFF1FE00FF11FE25CF54F8083E18214
:101AD000F28288E0C537D80759F78DE390E156D8F0
:101AE0008091210A9091220A01979093220A809373
:101AF000210A181619060CF4FACE10921C0AF7CE19
:101B0000CDE4D7E00991199152D8F82E50D8E82E9B
:101B10004ED8F801EE0FFF1FE00FF11FE25CF54F0A
:101B20008083E182F28287E0C93DD80759F7D5CF9B
:101B3000C1EED6E0099119913AD8F82E38D8E82E9E
:101B400036D8F801EE0FFF1FE00FF11FE25CF54FF2
:101B50008083E182F28287E0CD34D80759F7BDCF88
:101B6000C7E9D6E00991199122D8F82E20D8E82E9D
:101B70001ED8F801EE0FFF1FE00FF11FE25CF54FDA
:101B80008083E182F28286E0C13ED80759F7A5CF73
:101B9000C7E5D6E0099119910AD8F82E08D8E82EA1
:101BA00006D8F801EE0FFF1FE00FF11FE25CF54FC2
:101BB0008083E182F28286E0C739D80759F78DCF5A
:101BC000CBE1D6E0099119910E94D705F82E0E9429
:101BD000D705E82E0E94D705F801EE0FFF1FE00F92
:101BE000F11FE25CF54F8083E182F28286E0C73527
:101BF000D80741F772CFC5EED5E0099119910E943F
:101C0000D705F82E0E94D705E82E0E94D705F801C7
:101C1000EE0FFF1FE00FF11FE25CF54F8083E182C2
:101C2000F28286E0CB31D80741F757CFC1EBD5E040
:101C3000099119910E94D705F82E0E94D705E82E28
:101C40000E94D705F801EE0FFF1FE00FF11FE25CC5
:101C5000F54F8083E182F28285E0C53ED80741F7E7
:101C60003CCFC1E8D5E0099119910E94D705F82E23
:101C70000E94D705E82E0E94D705F801EE0FFF1F3E
:101C8000E00FF11FE25CF54F8083E182F28285E094
:101C9000C13BD80741F721CFAF92BF92CF92DF92DD
:101CA000EF92FF920F93CF93DF937C015B016A0168
:101CB000E90180912A0A811126C061E08DE390E15B
:101CC0000E94443DB0920701A09206010093290AA8
:101CD00081E080932A0AD092310AC092300A84E1CE
:101CE00090E09093050180930401D70114962D9103
:101CF0003C9146E0429FC001439F900D1124909378
:101D00001E0A80931D0A8091300A9091310A8C1529
:101D10009D0508F468C01092310A1092300A85E0DF
:101D200080933D1080912C1090912D100E94CE0533
:101D300080912C1090912D10FC01168A61E00E9478
:101D4000A83780912C1090912D10DC01ED91FC9121
:101D5000008CF18DE02D60E0099580910401909157
:101D600005010197909305018093040120911D0ABC
:101D700030911E0A3195219531098217930734F469
:101D800084E190E090930501809304010E942B4A26
:101D900080912C1090912D100E94CE05E0912C1076
:101DA000F0912D1080910401909105019487838713
:101DB0008DE090E096878587D28BC18BD08BC787CB
:101DC000B701CF010E947C4680912C1090912D107C
:101DD000DF91CF910F91FF90EF90DF90CF90BF9068
:101DE000AF900C94C737DF91CF910F91FF90EF9098
:101DF000DF90CF90BF90AF9008950F931F93CF9334
:101E0000DF938C01C62F80912A0A81110EC061E0F8
:101E10008DE390E10E94443D109307010093060179
:101E2000C093290A81E080932A0A8091300A909118
:101E3000310A843F914008F4B1C01092310A1092E7
:101E4000300A8FE080933D1080912C1090912D10DE
:101E50000E94CE0580912C1090912D10DC01569699
:101E60001C9261E00E94A83780912C1090912D1057
:101E7000DC01ED91FC91008CF18DE02D60E0099585
:101E80000E942B4A80912C1090912D100E94CE051B
:101E9000C0912C10D0912D101C861B8683E090E001
:101EA0009E878D870E94F0059A8B898B988B8F87F0
:101EB00069E171E080912C1090912D100E949305A2
:101EC000C0912C10D0912D101C861B8688E090E0CC
:101ED0009E878D870E94F0059A8B898B988B8F87C0
:101EE0006BE171E080912C1090912D100E94930570
:101EF000C0912C10D0912D1084E090E09C878B87AE
:101F00000DE010E01E870D870E94F0059A8B898BEB
:101F1000988B8F876BE171E080912C1090912D1040
:101F20000E949305C0912C10D0912D108AE090E072
:101F30009C878B878EE090E09E878D870E94F005BE
:101F40009A8B898B988B8F876DE171E080912C1033
:101F500090912D100E949305C0912C10D0912D10BE
:101F60008FE090E09C878B871E870D870E94F0058D
:101F70009A8B898B988B8F8760E671E080912C100B
:101F800090912D100E94930580912C1090912D100E
:101F9000DF91CF911F910F910C94C737DF91CF91B3
:101FA0001F910F9108958F929F92AF92BF92CF92FF
:101FB000DF92EF920F931F93CF93DF93EC015B01BE
:101FC0006A01490180912A0A811116C061E08DE3FE
:101FD00090E10E94443D9092070180920601E092B8
:101FE000290A81E080932A0A1092E2091092E109FD
:101FF000D092310AC092300A8091300A9091310A11
:102000008C159D0508F45BC01092310A1092300ABD
:102010008091E1099091E209A816B9060CF44FC02D
:1020200085E080933D1080912C1090912D100E949E
:10203000CE0580912C1090912D10DC0156961C92AB
:1020400061E00E94A83780912C1090912D10DC0146
:10205000ED91FC91008CF18DE02D60E009950E94DE
:102060002B4AE0912C10F0912D1082E090E09487A3
:1020700083878DE090E096878587128B018B108B8C
:1020800007878091E1099091E20927E0289FB0013C
:10209000299F700D11246C0F7D1FCF010E947C467B
:1020A00080912C1090912D100E94C7378091E109EA
:1020B0009091E20901969093E2098093E109DF9102
:1020C000CF911F910F91EF90DF90CF90BF90AF9085
:1020D0009F908F900895BF92CF92DF92EF92FF92E0
:1020E0000F931F93CF93DF9300D01F92CDB7DEB72E
:1020F0000AEE19E08AE1E82E8AE0F82E95E0C92E72
:1021000098E0D92EBB24BA9420910801309109019E
:102110002C9DC0012D9D900D3C9D900D1124875E3E
:10212000994C8C9D90018D9D300D9C9D300D1124FE
:10213000275E394C3093090120930801230F29832E
:10214000BA82890F8B83B801CE0101960E94D73DD8
:102150000D5F1F4FE016F106B9F60F900F900F902C
:10216000DF91CF911F910F91FF90EF90DF90CF9073
:10217000BF900895CF93DF9300D01F92CDB7DEB705
:1021800019821A821B82AE014F5F5F4F60E170E0DF
:102190008AEE99E00E94B63AEAEEF9E08FEF80838A
:1021A00081838283848785878687808F818F828FD2
:1021B00084A385A386A30F900F900F90DF91CF91FA
:1021C00008951F93CF93DF93CDB7DEB7E6970FB691
:1021D000F894DEBF0FBECDBF80EC89831FEF1A835A
:1021E0001B83BE016C5C7F4FCE0101960E94D73DE0
:1021F00080E689831A831B83BE016F5C7F4FCE010B
:1022000001960E94D73D59A959834AA94A833BA9FF
:102210003B835C834D833E831F82188619861A8612
:102220001B861C862CA92D879DA99E878EA98F872A
:10223000288B998B8A8B1B8A1C8A1D8A1E8A1F8A6F
:10224000188E598F4A8F3B8F5C8F4D8F3E8F1F8E1C
:1022500018A219A21AA21BA21CA22DA39EA38FA38F
:1022600028A799A78AA71BA61CA61DA61EA61FA65F
:1022700018AA40E350E0BE016F5F7F4F8AEE99E0FD
:102280000E94A33EE6960FB6F894DEBF0FBECDBF08
:10229000DF91CF911F910895DF92EF92FF920F93FC
:1022A0001F93CF93DF9300D01F92CDB7DEB7D82E08
:1022B0008EE3E82E8AE0F82E0091E8091091E909F2
:1022C0002FEF4D2D6AEE79E0CE0101960E94CB3AB8
:1022D0008981F70180838A8181838B818283F3E006
:1022E000DF0E83E0E80EF11CE0E8EE16EDE0FE06FE
:1022F00019F70F900F900F90DF91CF911F910F91D1
:10230000FF90EF90DF9008950F931F93CF93DF938B
:102310008C01C62FD42F80912A0A811143C061E01D
:102320008DE390E10E94443D109307010093060164
:10233000D093290A81E080932A0ACC3008F032C079
:10234000EC2FF0E0EA55FE4E0C94224CB211B9117C
:10235000C011C311CB11CD11EA11EC11EF11F21123
:10236000F511F81168EB76E08AEE99E00E94AB0572
:102370000BC068E776E08AEE99E00E94AB050EC0DC
:1023800068E776E0F1CF1DDF81E090E09093E90906
:102390008093E80907C09FDEF7CFECDE1092E909D1
:1023A0001092E8098091210A9091220A0196893EB3
:1023B00023E0920704F59093220A8093210A8091EA
:1023C000210A6ADF8DE390E1DF91CF911F910F9198
:1023D0000C94C605CFDED8CF68EF76E0C5CF68E3B2
:1023E00076E0C2CF61E475E0C6CF61E475E0BCCFB2
:1023F00068E970E0B9CF1092220A1092210ADFCF6B
:10240000DC016031710508F052C0FB01E65FFD4E52
:102410000C94224C57121A121A12251229122D123C
:102420003112351239123D124112451249124B1226
:102430004F12511281E08C9399E111969C93119760
:1024400012968C931297CD01089581E08C9398E2B7
:10245000F4CF81E08C9390E5F0CF81E08C9398E706
:10246000ECCF81E08C9396E9E8CF81E08C9398ECF7
:10247000E4CF85E08C939FEFE0CF8AE08C9394EBE0
:10248000DCCF8AE08C9390EAD8CF84E18C939CE8EF
:10249000D4CF8EE1E3CF82E38C9394E6CECF84E673
:1024A000E1CF84EB8C9311968C931197C9CF1C923A
:1024B00011961C92119712961C921297C4CFCF922C
:1024C000DF92EF92FF920F931F93CF93DF9300D091
:1024D0001F92CDB7DEB77C01162F80912A0A811199
:1024E0001EC061E08DE390E10E94443DF09207013F
:1024F000E09206011093290A81E080932A0A109243
:10250000220A1092210A8BE190E09093200A809396
:102510001F0A84E690E09093310A8093300A8091FC
:10252000300A9091310A8436910508F4CEC3109296
:10253000310A1092300AE090210AF090220A00E15C
:1025400010E0F7FC1CC0015011090230110514F411
:1025500010E000E0C0902C10D0902D10B801CE01FA
:1025600001964EDF9E012F5F3F4FA70170E060E0B4
:10257000C6010E94813A81E0E81AF108E2CF009199
:10258000210A1091220A0451110960E1E62EF12C72
:102590000C3E8FEF1807ECF081E0E81AF10882E0BA
:1025A000E816F10414F4F12CE12CC0902C10D0901A
:1025B0002D10B701CE01019623DF9E012F5F3F4F03
:1025C000A80162E070E0C6010E94813A0150110941
:1025D000DFCF0091210A1091220A0F50110950E11A
:1025E000E52EF12C013F8FEF1807ECF081E0E81A9F
:1025F000F10882E0E816F10414F4F12CE12CC0900B
:102600002C10D0902D10B701CE010196F9DE9E015D
:102610002F5F3F4FA80164E070E0C6010E94813A3D
:1026200001501109DFCF0091210A1091220A0850B0
:10263000110940E1E42EF12C083F8FEF1807ECF070
:1026400081E0E81AF10882E0E816F10414F4F12CB4
:10265000E12CC0902C10D0902D10B701CE01019626
:10266000CFDE9E012F5F3F4FA80166E070E0C601FC
:102670000E94813A01501109DFCFE090210AF090C9
:10268000220A00E110E0F7FC1CC0015011090230E1
:10269000110514F410E000E0C0902C10D0902D1023
:1026A000B801CE010196ACDE9E012F5F3F4FA7011E
:1026B00068E070E0C6010E94813A81E0E81AF10802
:1026C000E2CF0091210A1091220A0E50110930E147
:1026D000E32EF12C023F8FEF1807ECF081E0E81AAF
:1026E000F10882E0E816F10414F4F12CE12CC0901A
:1026F0002C10D0902D10B701CE01019681DE9E01E5
:102700002F5F3F4FA8016AE070E0C6010E94813A46
:1027100001501109DFCF0091210A1091220A0551C1
:10272000110920E1E22EF12C0B3E8FEF1807ECF09F
:1027300081E0E81AF10882E0E816F10414F4F12CC3
:10274000E12CC0902C10D0902D10B701CE01019635
:1027500057DE9E012F5F3F4FA8016CE070E0C6017D
:102760000E94813A01501109DFCF0091210A109196
:10277000220A0950110990E1E92EF12C073F8FEF51
:102780001807ECF081E0E81AF10882E0E816F1049D
:1027900014F4F12CE12CC0902C10D0902D10B70126
:1027A000CE0101962DDE9E012F5F3F4FA8016EE006
:1027B00070E0C6010E94813A01501109DFCF0091FB
:1027C000210A1091220A0150110980E1E82EF12C12
:1027D0000F3F8FEF1807ECF081E0E81AF10882E074
:1027E000E816F10414F4F12CE12CC0902C10D090D8
:1027F0002D10B701CE01019603DE9E012F5F3F4FE2
:10280000A80160E170E0C6010E94813A01501109FF
:10281000DFCF0091210A1091220A00511109B0E185
:10282000EB2EF12C003F8FEF1807ECF081E0E81A57
:10283000F10882E0E816F10414F4F12CE12CC090C8
:102840002C10D0902D10B701CE010196D9DD9E013C
:102850002F5F3F4FA80162E170E0C6010E94813AFC
:1028600001501109DFCF0091210A1091220A07516E
:102870001109A0E1EA2EF12C093E8FEF1807ECF0C8
:1028800081E0E81AF10882E0E816F10414F4F12C72
:10289000E12CC0902C10D0902D10B701CE010196E4
:1028A000AFDD9E012F5F3F4FA80164E170E0C601DC
:1028B0000E94813A01501109DFCF0091210A109145
:1028C000220A0B501109F0E1EF2EF12C053F8FEF9A
:1028D0001807ECF081E0E81AF10882E0E816F1044C
:1028E00014F4F12CE12CC0902C10D0902D10B701D5
:1028F000CE01019685DD9E012F5F3F4FA80166E165
:1029000070E0C6010E94813A01501109DFCFE090CA
:102910001F0AF090200A00E110E0F7FC1CC00150F3
:1029200011090230110514F410E000E0C0902C10E1
:10293000D0902D10B801CE01019662DD9E012F5F6F
:102940003F4FA70161E070E0C6010E94813A81E03B
:10295000E81AF108E2CF00911F0A1091200A0451F1
:102960001109E0E1EE2EF12C0C3E8FEF1807ECF090
:1029700081E0E81AF10882E0E816F10414F4F12C81
:10298000E12CC0902C10D0902D10B701CE010196F3
:1029900037DD9E012F5F3F4FA80163E070E0C60165
:1029A0000E94813A01501109DFCF00911F0A109156
:1029B000200A0F50110970E1E72EF12C013F8FEF33
:1029C0001807ECF081E0E81AF10882E0E816F1045B
:1029D00014F4F12CE12CC0902C10D0902D10B701E4
:1029E000CE0101960DDD9E012F5F3F4FA80165E0EE
:1029F00070E0C6010E94813A01501109DFCF0091B9
:102A00001F0A1091200A0850110960E1E62EF12CEE
:102A1000083F8FEF1807ECF081E0E81AF10882E038
:102A2000E816F10414F4F12CE12CC0902C10D09095
:102A30002D10B701CE010196E3DC9E012F5F3F4FC1
:102A4000A80167E070E0C6010E94813A01501109B7
:102A5000DFCFE0901F0AF090200A00E110E0F7FCC1
:102A60001CC0015011090230110514F410E000E0FF
:102A7000C0902C10D0902D10B801CE010196C0DC72
:102A80009E012F5F3F4FA70169E070E0C6010E94E1
:102A9000813A81E0E81AF108E2CF00911F0A109113
:102AA000200A0E50110950E1E52EF12C023F8FEF64
:102AB0001807ECF081E0E81AF10882E0E816F1046A
:102AC00014F4F12CE12CC0902C10D0902D10B701F3
:102AD000CE01019695DC9E012F5F3F4FA8016BE070
:102AE00070E0C6010E94813A01501109DFCF0091C8
:102AF0001F0A1091200A0551110940E1E42EF12C22
:102B00000B3E8FEF1807ECF081E0E81AF10882E045
:102B1000E816F10414F4F12CE12CC0902C10D090A4
:102B20002D10B701CE0101966BDC9E012F5F3F4F48
:102B3000A8016DE070E0C6010E94813A01501109C0
:102B4000DFCF00911F0A1091200A0950110930E1CE
:102B5000E32EF12C073F8FEF1807ECF081E0E81A25
:102B6000F10882E0E816F10414F4F12CE12CC09095
:102B70002C10D0902D10B701CE01019641DC9E01A2
:102B80002F5F3F4FA8016FE070E0C6010E94813ABD
:102B900001501109DFCF00911F0A1091200A015046
:102BA000110920E1E22EF12C0F3F8FEF1807ECF016
:102BB00081E0E81AF10882E0E816F10414F4F12C3F
:102BC000E12CC0902C10D0902D10B701CE010196B1
:102BD00017DC9E012F5F3F4FA80161E170E0C60145
:102BE0000E94813A01501109DFCF00911F0A109114
:102BF000200A0051110990E1E92EF12C003F8FEFDE
:102C00001807ECF081E0E81AF10882E0E816F10418
:102C100014F4F12CE12CC0902C10D0902D10B701A1
:102C2000CE010196EDDB9E012F5F3F4FA80163E1CE
:102C300070E0C6010E94813A01501109DFCF009176
:102C40001F0A1091200A0751110980E1E82EF12C8A
:102C5000093E8FEF1807ECF081E0E81AF10882E0F6
:102C6000E816F10414F4F12CE12CC0902C10D09053
:102C70002D10B701CE010196C3DB9E012F5F3F4FA0
:102C8000A80165E170E0C6010E94813A0150110976
:102C9000DFCF8DE390E10E94C6058091210A9091DB
:102CA000220A019689339105E4F49093220A8093D5
:102CB000210A80911F0A9091200A0196893391057B
:102CC000ACF49093200A80931F0A0F900F900F90FE
:102CD000DF91CF911F910F91FF90EF90DF90CF90F8
:102CE00008951092220A1092210AE3CF1092200A2E
:102CF00010921F0AEACFCF92DF92EF92FF920F93CA
:102D00001F93CF93DF9300D01F92CDB7DEB77C0126
:102D1000162F80912A0A81111EC061E08DE390E197
:102D20000E94443DF0920701E09206011093290AA7
:102D300081E080932A0A1092220A1092210A89E1E6
:102D400090E09093200A80931F0A84E690E090938D
:102D5000310A8093300A8091300A9091310A84368A
:102D6000910508F4FCC31092310A1092300A809148
:102D7000210A9091220A07E110E0081B190BB0E12B
:102D8000EB2EF12C07311105DCF481E0E81AF10893
:102D9000F7FE02C0F12CE12CC0902C10D0902D1029
:102DA000B701CE0101962CDB9E012F5F3F4F50E013
:102DB00040E0B801C6010E94813A0F5F1F4FE2CF89
:102DC0008091210A9091220A06E210E0081B190B5B
:102DD000A0E1EA2EF12C06321105DCF481E0E81ABC
:102DE000F108F7FE02C0F12CE12CC0902C10D0901D
:102DF0002D10B701CE01019603DB9E012F5F3F4FDF
:102E000042E050E0B801C6010E94813A0F5F1F4FB7
:102E1000E2CF8091210A9091220A0EE110E0081B76
:102E2000190BF0E1EF2EF12C0E311105DCF481E0ED
:102E3000E81AF108F7FE02C0F12CE12CC0902C102A
:102E4000D0902D10B701CE010196DADA9E012F5FE6
:102E50003F4F44E050E0B801C6010E94813A0F5F45
:102E60001F4FE2CF8091210A9091220A0BE210E0DD
:102E7000081B190BE0E1EE2EF12C0B321105DCF4EE
:102E800081E0E81AF108F7FE02C0F12CE12CC090B5
:102E90002C10D0902D10B701CE010196B1DA9E0111
:102EA0002F5F3F4F46E050E0B801C6010E94813AD3
:102EB0000F5F1F4FE2CF8091210A9091220A02E218
:102EC00010E0081B190B70E1E72EF12C02321105FE
:102ED000DCF481E0E81AF108F7FE02C0F12CE12CE5
:102EE000C0902C10D0902D10B701CE01019688DA39
:102EF0009E012F5F3F4F48E050E0B801C6010E949D
:102F0000813A0F5F1F4FE2CF8091210A9091220AF0
:102F10000BE110E0081B190B60E1E62EF12C0B31E0
:102F20001105DCF481E0E81AF108F7FE02C0F12C8B
:102F3000E12CC0902C10D0902D10B701CE0101963D
:102F40005FDA9E012F5F3F4F4AE050E0B801C601B3
:102F50000E94813A0F5F1F4FE2CF8091210A90912A
:102F6000220A04E210E0081B190B50E1E52EF12CB7
:102F700004321105DCF481E0E81AF108F7FE02C022
:102F8000F12CE12CC0902C10D0902D10B701CE0167
:102F9000019636DA9E012F5F3F4F4CE050E0B801BA
:102FA000C6010E94813A0F5F1F4FE2CF8091210A34
:102FB0009091220A0EE210E0081B190B40E1E42E6A
:102FC000F12C0E321105DCF481E0E81AF108F7FE6D
:102FD00002C0F12CE12CC0902C10D0902D10B70124
:102FE000CE0101960DDA9E012F5F3F4F4EE050E07B
:102FF000B801C6010E94813A0F5F1F4FE2CF809156
:10300000210A9091220A0EE110E0081B190B30E111
:10301000E32EF12C0E311105DCF481E0E81AF10801
:10302000F7FE02C0F12CE12CC0902C10D0902D1096
:10303000B701CE010196E4D99E012F5F3F4F40E1D9
:1030400050E0B801C6010E94813A0F5F1F4FE2CFE6
:103050008091210A9091220A0AE210E0081B190BC4
:1030600020E1E22EF12C0A321105DCF481E0E81AAD
:10307000F108F7FE02C0F12CE12CC0902C10D0908A
:103080002D10B701CE010196BBD99E012F5F3F4F96
:1030900042E150E0B801C6010E94813A0F5F1F4F24
:1030A000E2CF8091210A9091220A02E210E0081BEF
:1030B000190B90E1E92EF12C02321105DCF481E0CC
:1030C000E81AF108F7FE02C0F12CE12CC0902C1098
:1030D000D0902D10B701CE01019692D99E012F5F9D
:1030E0003F4F44E150E0B801C6010E94813A0F5FB2
:1030F0001F4FE2CF8091210A9091220A0CE110E04B
:10310000081B190B80E1E82EF12C0C311105DCF4C1
:1031100081E0E81AF108F7FE02C0F12CE12CC09022
:103120002C10D0902D10B701CE01019669D99E01C7
:103130002F5F3F4F46E150E0B801C6010E94813A3F
:103140000F5F1F4FE2CF80911F0A9091200A08E283
:1031500010E0081B190BB0E1EB2EF12C0832110521
:10316000DCF481E0E81AF108F7FE02C0F12CE12C52
:10317000C0902C10D0902D10B701CE01019640D9EF
:103180009E012F5F3F4F41E050E0B801C6010E9411
:10319000813A0F5F1F4FE2CF80911F0A9091200A62
:1031A0000AE110E0081B190BA0E1EA2EF12C0A310C
:1031B0001105DCF481E0E81AF108F7FE02C0F12CF9
:1031C000E12CC0902C10D0902D10B701CE010196AB
:1031D00017D99E012F5F3F4F43E050E0B801C60171
:1031E0000E94813A0F5F1F4FE2CF80911F0A90919A
:1031F000200A02E210E0081B190BF0E1EF2EF12C7F
:1032000002321105DCF481E0E81AF108F7FE02C091
:10321000F12CE12CC0902C10D0902D10B701CE01D4
:103220000196EED89E012F5F3F4F45E050E0B80178
:10323000C6010E94813A0F5F1F4FE2CF80911F0AA3
:103240009091200A00E210E0081B190BE0E1EE2E3D
:10325000F12C00321105DCF481E0E81AF108F7FEE8
:1032600002C0F12CE12CC0902C10D0902D10B70191
:10327000CE010196C5D89E012F5F3F4F47E050E039
:10328000B801C6010E94813A0F5F1F4FE2CF8091C3
:103290001F0A9091200A0DE110E0081B190B70E144
:1032A000E72EF12C0D311105DCF481E0E81AF1086C
:1032B000F7FE02C0F12CE12CC0902C10D0902D1004
:1032C000B701CE0101969CD89E012F5F3F4F49E088
:1032D00050E0B801C6010E94813A0F5F1F4FE2CF54
:1032E00080911F0A9091200A0AE210E0081B190B36
:1032F00060E1E62EF12C0A321105DCF481E0E81AD7
:10330000F108F7FE02C0F12CE12CC0902C10D090F7
:103310002D10B701CE01019673D89E012F5F3F4F4C
:103320004BE050E0B801C6010E94813A0F5F1F4F89
:10333000E2CF80911F0A9091200A0DE110E0081B56
:10334000190B50E1E52EF12C0D311105DCF481E073
:10335000E81AF108F7FE02C0F12CE12CC0902C1005
:10336000D0902D10B701CE0101964AD89E012F5F53
:103370003F4F4DE050E0B801C6010E94813A0F5F17
:103380001F4FE2CF80911F0A9091200A07E110E0C1
:10339000081B190B40E1E42EF12C07311105DCF478
:1033A00081E0E81AF108F7FE02C0F12CE12CC09090
:1033B0002C10D0902D10B701CE01019621D89E017E
:1033C0002F5F3F4F4FE050E0B801C6010E94813AA5
:1033D0000F5F1F4FE2CF80911F0A9091200A0FE1EB
:1033E00010E0081B190B30E1E32EF12C0F31110511
:1033F000E4F481E0E81AF108F7FE02C0F12CE12CB8
:10340000C0902C10D0902D10B701CE0101960E94D3
:1034100000129E012F5F3F4F41E150E0B801C6010D
:103420000E94813A0F5F1F4FE1CF80911F0A909158
:10343000200A05E210E0081B190B20E1E22EF12C16
:1034400005321105E4F481E0E81AF108F7FE02C044
:10345000F12CE12CC0902C10D0902D10B701CE0192
:1034600001960E9400129E012F5F3F4F43E150E002
:10347000B801C6010E94813A0F5F1F4FE1CF8091D2
:103480001F0A9091200A0CE110E0081B190B90E133
:10349000E92EF12C0C311105E4F481E0E81AF10871
:1034A000F7FE02C0F12CE12CC0902C10D0902D1012
:1034B000B701CE0101960E9400129E012F5F3F4F7F
:1034C00045E150E0B801C6010E94813A0F5F1F4FED
:1034D000E1CF80911F0A9091200A0BE210E0081BB7
:1034E000190B80E1E82EF12C0B321105E4F481E098
:1034F000E81AF108F7FE02C0F12CE12CC0902C1064
:10350000D0902D10B701CE0101960E9400129E01AD
:103510002F5F3F4F47E150E0B801C6010E94813A5A
:103520000F5F1F4FE1CF8DE390E10E94C6058091B0
:10353000210A9091220A01968D339105E4F490932B
:10354000220A8093210A80911F0A9091200A0196F5
:103550008D339105ACF49093200A80931F0A0F904D
:103560000F900F90DF91CF911F910F91FF90EF90EF
:10357000DF90CF9008951092220A1092210AE3CF93
:103580001092200A10921F0AEACF109290008BE04E
:10359000809391008AE698E1909399008093980037
:1035A00082E0809371000895CF93C82F8093280AFA
:1035B00010922A0A1092310A1092300A10922F0AA1
:1035C00010922E0A1092220A1092210A87E190E0AE
:1035D00090930501809304011092E4091092E3098D
:1035E0001092E0091092DF091092DE096FE171E09C
:1035F0008DEC90E10E9493056C2F8DEC90E1CF91C2
:103600000C9494051F920F920FB60F9211240BB6D3
:103610000F922F933F934F935F936F937F938F936B
:103620009F93AF93BF93EF93FF938091300A909154
:10363000310A49969093310A8093300A80912C0A7E
:1036400090912D0A499690932D0A80932C0A80918F
:103650002E0A90912F0A499690932F0A80932E0A52
:1036600091E090932B0A8BB120E482278BB92091B3
:103670002C0A30912D0A283E334030F010922D0A4A
:1036800010922C0A9093270A20912E0A30912F0A2B
:1036900080910601909107012817390718F0809151
:1036A000290A82DFFF91EF91BF91AF919F918F9196
:1036B0007F916F915F914F913F912F910F900BBE32
:1036C0000F900FBE0F901F901895CF93C82F809327
:1036D0003D0A62E371E08DEC90E10E9493056C2F4E
:1036E0008DEC90E10E94940580E0CF915DCFAF9288
:1036F000BF92CF92DF92EF92FF920F931F93CF93DF
:10370000DF9368EE73E080E090E00E9498424FEF14
:1037100060E470E088E590E10E947B45569A88E27B
:103720000E940041BC01990F880B990B1F921F92B8
:103730001F9228E72F93A12CB12C6501EE24EA9467
:1037400013E0F12E00E010E020E030E0A9010E943B
:1037500042496093340A82E391E00E944546EC01BD
:103760000AE027E130E046E150E06EE37AE00E94B3
:10377000AA37D0932D10C0932C10809155090F902B
:103780000F900F900F9081114DC085E599E00E9438
:103790004646892B09F446C01092600910925F09D1
:1037A0008FEF809363098093640980936509809308
:1037B0006609809367098093680981E080936909AD
:1037C00010926B0910926A091092620910926109B5
:1037D00080913B1090913C10892B31F48DE599E05C
:1037E00090933C1080933B10E0913910F0913A1087
:1037F000309721F08DE599E0958384838DE599E0FC
:1038000090933A108093391010926D0910926C09C0
:1038100083EE94E090935E0980935D0985E599E0DD
:103820000E944F4630E020E04AEF51E06EE37AE03C
:103830008DE599E00E949A3DFC018FEF868380EB35
:10384000878380EF808780912C1090912D100E94AB
:10385000213880912C1090912D102FE020933D1055
:10386000FC01168A69E874E00E94B03AF8948DDE93
:10387000789468EB76E08AEE99E00E94AB0581E0EF
:1038800090E09093E9098093E80980E0DF91CF917F
:103890001F910F91FF90EF90DF90CF90BF90AF906E
:1038A00014CFEF92FF920F931F938091280A8E31CD
:1038B00009F47EC040F58A3009F460C058F48823CA
:1038C00009F44BC0853009F451C01F910F91FF904E
:1038D000EF900895843109F45CC0893109F45DC02A
:1038E0008F3099F70E94D7057C010E94D7058C0183
:1038F0000E94D7059C0142E350E064E188E893E12F
:103900000E946907E2CF823309F470C098F48832CC
:1039100009F459C08D3209F460C08332B1F648EE23
:1039200053E068E288E99AE31F910F91FF90EF90CE
:103930000C94FA098C3309F462C0843609F468C027
:10394000873319F644EF51E06CE388E99AE31F915D
:103950000F91FF90EF900C946F0A65E088ED96ED63
:103960001F910F91FF90EF900C94C6076AE080E3DF
:1039700095E71F910F91FF90EF90BDC94FE060ED6B
:1039800077E088E99AE31F910F91FF90EF900C94F4
:10399000870869E188E99AE3E3CF40ED57E06EE1FB
:1039A00088E99AE31F910F91FF90EF900C94040720
:1039B000EE24EA94F12C0FEF10E02FEF30E042E319
:1039C00050E063E29BCF4DE265E088E99AE31F9106
:1039D0000F91FF90EF900C94B50662E380E197E2BF
:1039E0001F910F91FF90EF900C94150C67E380E10D
:1039F00097E21F910F91FF90EF900C94130B64E6E8
:103A000080E69AEE1F910F91FF90EF900C942406A0
:103A100060E08DE390E10E94443D80E01F910F91B2
:103A2000FF90EF9052CEEF92FF920F931F93CF93A0
:103A3000DF9300D000D000D01F92CDB7DEB78091C9
:103A4000280A893109F485C038F5853009F46DC03C
:103A500098F4882309F449C0823009F45EC027969F
:103A60000FB6F894DEBF0FBECDBFDF91CF911F918F
:103A70000F91FF90EF9008958F3009F45CC084316E
:103A800009F45FC08A3059F749EA51E06FE082E8F3
:103A900090E60E940407E3CF8D3209F474C070F4FD
:103AA000833209F45DC0883209F469C08E31B9F6F9
:103AB00063E28BE49EE60E942406D1CF873309F4AB
:103AC00067C0843609F468C0823349F60E94D7057E
:103AD0007C010E94D7058C010E94D7059C014BE414
:103AE00050E067E386E297E347C00E94F0057C015F
:103AF00065E471E0CE0101960E94EA4902E0970177
:103B00004BE450E06CE675E3CE0101960E944C0E4A
:103B1000CE0101960E948149A2CF45E068EB71E099
:103B200083E99BE10E9487089ACF6AE08BE49EE6D6
:103B30000E94C60794CF64E186E297E30E94D4090D
:103B40008ECF49EA51E069E18BE49EE60E946F0A5C
:103B500086CF4EE165E080E395E70E94B5067FCF12
:103B6000EE24EA94F12C0FEF10E02FEF30E04BE45D
:103B700050E068E289EC9DE00E94690770CF49EA55
:103B800051E06DE284CF42E365E088EB92E5E5CF5A
:103B900064E68FEF9FEF8FCF60E08DE390E10E94AE
:103BA000443D80E092DD5BCFEF92FF920F931F9335
:103BB000CF93DF9300D000D000D01F92CDB7DEB7F7
:103BC0008091280A823309F4E9C008F049C08431A1
:103BD00009F4C6C010F5853009F4B4C098F4882300
:103BE00009F492C0813009F4A7C027960FB6F89463
:103BF000DEBF0FBECDBFDF91CF911F910F91FF9020
:103C0000EF9008958A3009F4A5C08F3071F764E110
:103C100087EE90E40E94D809E8CF833209F4B6C059
:103C2000B0F4893109F4ACC08E31F9F60E94D705A1
:103C30007C010E94D7058C010E94D7059C0142E3BC
:103C400050E063E286E397E00E946907CECF8832B6
:103C500009F4A2C08D3249F662E38BE792E3DACF32
:103C6000863409F4B6C050F58A3309F4A4C098F438
:103C7000873309F498C0883309F0B7CF0E94D7057D
:103C80007C010E94D7058C010E94D7059C0142E36C
:103C900050E06AE3D7CF8C3309F493C0813409F044
:103CA000A4CFEE24EA94F12C0FEF10E02FEF30E0D8
:103CB00042E350E066E48CE69EE0C6CF853509F429
:103CC0009DC098F48B3409F493C0803509F08DCFF2
:103CD0000E94D7057C010E94D7058C010E94D70560
:103CE0009C0142E350E065E5E6CF8F3509F48DC0D5
:103CF000843609F496C08A3509F077CF42EC51E05A
:103D00006FE587EC9FE623C00E94F0057C0162E628
:103D100071E0CE0101960E94EA4901E0970144E674
:103D200050E06BE772E3CE0101960E944C0ECE018B
:103D300001960E94814959CF65E089ED9CE10E947E
:103D4000240653CF4DE953E06AE089ED9CE10E94DF
:103D5000FA094BCF6FE082E693E70E94C60745CF92
:103D60000E94F00559E1E52E8C0126E337E045E499
:103D700051E066E070E08EE699E00E94D30F35CF07
:103D800042EC51E06EE18BE792E3E1CF42EC51E08F
:103D900068E281EB99E3DBCF6DE2DDCF0E94F005B5
:103DA00047E3E42EE1CF42EC51E068E38BE792E396
:103DB0000E946F0A1ACF42EC51E06CE381EB99E369
:103DC000F7CF41E46AE377E086E89DE40E94870844
:103DD0000CCF0E94D7057C010E94D7058C010E9460
:103DE000D7059C0142E350E06BE480E797E12CCFDC
:103DF00040E56AE377E081EB99E3E8CF4AE565E0E7
:103E000082E693E70E94B506F0CE0E94F00529E015
:103E1000E22E8C0120E63AEE45E451E064E670E0E3
:103E2000AACF60E08DE390E10E94443D80E04DDC4C
:103E3000DCCEEF92FF920F931F93CF93DF9300D0CE
:103E400000D000D01F92CDB7DEB78091280A8E3106
:103E500009F49FC0F0F58A3009F47DC060F5823026
:103E600009F469C0853009F46EC0811117C00E9441
:103E7000F0057C0163E771E0CE0101960E94EA49FA
:103E800002E097014BE450E061E87EE2CE0101964A
:103E90000E944C0ECE0101960E94814927960FB6D2
:103EA000F894DEBF0FBECDBFDF91CF911F910F9170
:103EB000FF90EF900895843109F455C0893109F4D9
:103EC00058C08F3059F746EB53E064E189E79BE334
:103ED00037C0823309F472C0B8F4883209F461C083
:103EE0008D3209F464C08332C9F6EE24EA94F12CD1
:103EF0000FEF10E02FEF30E04BE450E068E289E78D
:103F00009BE30E946907CACF8C3309F45DC08436F5
:103F100009F460C0873311F60E94D7057C010E9426
:103F2000D7058C010E94D7059C014BE450E06CE35F
:103F300080EB9DE1E6CF46EB53E065E082E794E657
:103F40000E94FA09ABCF4BED51E06AE084E892EBB6
:103F50000E946F0AA3CF46EB53E06FE08BE097E738
:103F60000E9404079BCF4BED51E069E18BE097E79E
:103F7000EFCF0E94F0052EE1E22E8C012BE236E11C
:103F80004BED51E06AE070E088E999E00E94D30FC0
:103F900085CF43E26CE677E087EC90E60E948708E5
:103FA0007DCF48EB53E06DE289E79BE3D9CF42E355
:103FB00065E080EB9DE10E94B50670CF46EB53E0D3
:103FC00067E380EB9DE1CCCF64E68FEF9FEF0E942B
:103FD000240664CF60E08DE390E10E94443D80E0E0
:103FE00074DB5CCFEF92FF920F931F93CF93DF931D
:103FF00000D000D000D01F92CDB7DEB78091280A44
:104000008E3109F4AFC0A0F5853009F492C0B8F440
:10401000813009F487C008F46DC045E064E0823067
:1040200009F482C027960FB6F894DEBF0FBECDBF4D
:10403000DF91CF911F910F91FF90EF9008958F30F6
:1040400009F47BC040F48A3069F76FE086E09FE3B3
:104050000E94130BE7CF843109F473C044EF51E0A1
:104060006EE18931F9F686E09FE30E94FA09DACF22
:10407000873309F48FC0D0F4883209F478C050F443
:1040800044EF51E068E2833269F686E09FE30E94E4
:104090000407C8CF8D3209F477C0823319F647E39D
:1040A00067E08DEF9EE30E94B506BCCF813409F432
:1040B00075C090F48C3309F0B5CF0E94D7057C0110
:1040C0000E94D7058C010E94D7059C014BE450E06B
:1040D00061E484E49FE243C0863409F464C084361A
:1040E00009F0A0CF60E08DE390E10E94443D80E0C4
:1040F000ECDA98CF0E94F0057C016BE871E0CE010C
:1041000001960E94EA4901E097014BE450E06EE01D
:104110007DE3CE0101960E944C0ECE0101960E94D5
:10412000814980CF42E063E083E89FE10E948411EF
:1041300079CF44EF51E06AE096CF44EF51E064E17B
:10414000A4CF0E94D7057C010E94D7058C010E9454
:10415000D7059C014BE450E069E186E09FE30E94B3
:10416000690760CF43E264E086E09FE3DFCF0E940F
:10417000D7057C010E94D7058C010E94D7059C01C0
:104180004BE450E06DE2E9CF62E382E79FE10E94F9
:10419000C60748CF44EF51E06CE377CF46E46CE0CC
:1041A00089EB9FE080CF64E680E197E20E94D80926
:1041B00039CFEF92FF920F931F93CF93DF9300D0ED
:1041C00000D000D01F92CDB7DEB78091280A84318D
:1041D00009F475C048F5823009F45CC0A8F488235E
:1041E00009F440C042E063E0813009F47BC02796C7
:1041F0000FB6F894DEBF0FBECDBFDF91CF911F91F8
:104200000F91FF90EF9008958A3009F44AC08F30E3
:1042100009F44DC0853059F749EA51E06AE082EB74
:104220009CE60E94FA09E3CF883209F462C060F488
:104230008E3109F455C0833209F457C08931B9F67B
:1042400049EA51E06EE1EBCF863409F461C084366F
:1042500009F464C08D3259F662E389E596E30E9461
:10426000C607C5CF0E94F0057C0162EA71E0CE016D
:1042700001960E94EA4901E097014BE450E063EDAA
:104280007FE4CE0101960E944C0ECE0101960E9461
:104290008149ADCF45E064E082EB9CE60E94841149
:1042A000A6CF6FE082EB9CE60E94130BA0CF49EAF9
:1042B00051E064E189E596E30E94040798CF0E94EB
:1042C000D7057C010E94D7058C010E94D7059C016F
:1042D0004BE450E069E189E596E30E94690787CFE6
:1042E00043E264E089E596E3D9CF49EA51E068E228
:1042F000E1CF0E94D7057C010E94D7058C010E9466
:10430000D7059C014BE450E06DE28FEE93E4E5CFDE
:1043100064E680E197E20E94D80969CF60E08DE30E
:1043200090E10E94443D80E0D0D961CFEF92FF92AE
:104330000F931F93CF93DF9300D000D000D01F9234
:10434000CDB7DEB7E091280AE53608F081C0F0E08D
:10435000E455FE4D0C94224C112235223C22282299
:104360002822412249224F2255225B225D226522CA
:10437000762278227C227E2228222822822228224B
:104380009122282228222822282294222822982298
:1043900028229D2228229F222822A3222822A522E9
:1043A0002822A9222822B6222822B8222822BC228A
:1043B0002822BE222822C2222822CF222822D52229
:1043C0002822DB222822E3222822EA222822EE22A7
:1043D0002822F322282228222822282228222822C2
:1043E000282228222822282228222822282228227D
:1043F000282228222822282228222822282228226D
:10440000282228222822282228222822282228225C
:10441000282228222822282228222822282228224C
:10442000F7220E94F0057C0160EC71E0CE0101965C
:104430000E94EA4901E097014BE450E069E77EE21F
:10444000CE0101960E944C0ECE0101960E94814938
:1044500027960FB6F894DEBF0FBECDBFDF91CF9188
:104460001F910F91FF90EF90089542E067E083E580
:1044700090E20E948411ECCF45E066E086EA90E489
:10448000F8CF44EF51E066E086EA90E40E94FA0932
:10449000DFCF67E086E49EE10E94130BD9CF68E08E
:1044A0008EE096E00E94FD0ED3CF44EF51E069E02C
:1044B0008FE09AE007C06AE0F3CF44EF51E06BE091
:1044C0008CE19CE00E940407C3CF0E94D7057C01C9
:1044D0000E94D7058C010E94D7059C014BE450E057
:1044E0006CE086E49EE10E946907B2CF6DE0D8CF10
:1044F00044EF51E06EE0DCCF6FE0D2CF44EF51E00B
:1045000062E1DECF0E94D7057C010E94D7058C01B5
:104510000E94D7059C014BE450E064E183E590E202
:10452000E2CF49E168E0AACF44EF51E06BE1ACCFC4
:104530004DE164E086E49EE19CCF6FE1B1CF44EFB2
:1045400051E061E2B5CF63E2ABCF44EF51E065E209
:10455000B7CF0E94D7057C010E94D7058C010E942D
:10456000D7059C014BE450E067E2BBCF69E298CFEE
:1045700044EF51E06BE29CCF6DE292CF44EF51E00B
:104580006FE29ECF0E94D7057C010E94D7058C0167
:104590000E94D7059C014BE450E061E3BFCF63E389
:1045A00088EA98E40E945F1253CF65E386EA90E4BC
:1045B0000E94C6074DCF47E364EF71E083E590E2C8
:1045C0000E94870845CF49E367E083E590E20E94B7
:1045D000B5063ECF4BE36AEF70E0F0CF4DE36CE001
:1045E0008FE49EE1F4CF64E680E395E75BCF60E083
:1045F0008DE390E10E94443D80E067D829CFEF929F
:10460000FF920F931F93CF93DF9300D000D000D081
:104610001F92CDB7DEB78091280A833209F4F5C026
:1046200008F04BC0863109F4CCC018F58A3009F483
:10463000B8C098F4882309F494C0853009F4A9C05F
:1046400027960FB6F894DEBF0FBECDBFDF91CF9196
:104650001F910F91FF90EF9008958F3009F4A9C03A
:1046600046E164E0843161F78EEE94E30E948411A8
:10467000E7CF8C3109F4BBC0A0F4883109F4B2C093
:104680008A31F1F60E94D7057C010E94D7058C0182
:104690000E94D7059C0142E350E06CE188EE93E074
:1046A0009EC0803209F4AAC0823209F4ABC08E31B8
:1046B00039F64BED51E060E27FC08C3209F4BBC0AB
:1046C00018F5863209F4B0C098F4843209F4AAC00F
:1046D000853209F0B5CF0E94D7057C010E94D7052D
:1046E0008C010E94D7059C0142E350E066E2D6CFE0
:1046F000883209F49BC08A3209F0A2CF6CE284EAC6
:1047000098E30E945F129CCF823309F4A4C098F40E
:104710008E3209F49DC0803309F092CF0E94D705F4
:104720007C010E94D7058C010E94D7059C0142E3C1
:1047300050E062E3B3CF8C3309F490C0843609F4BF
:1047400093C0873309F07CCF0E94D7057C010E947B
:10475000D7058C010E94D7059C0142E350E06CE331
:104760009DCF0E94F0057C0169ED71E0CE010196BC
:104770000E94EA4905E0970142E350E06CE47DE1E4
:10478000CE0101960E944C0ECE0101960E948149F5
:1047900057CF4AE066EB73E083E79CE30E9487080B
:1047A0004FCF4BED51E06FE083E79CE30E94FA09A5
:1047B00047CF4BED51E064E183E79CE30E9404079F
:1047C0003FCF0E94D7057C010E94D7058C010E9433
:1047D000D7059C0142E350E068E185E897E00E943C
:1047E00069072ECF4AE163E084EA98E304C04EE112
:1047F00067E08AE59CE30E94B50622CF4BED51E0CD
:1048000062E2D2CF43E265E02FCF0E94D7057C0160
:104810000E94D7058C010E94D7059C0142E350E01D
:1048200064E2DBCF45E2DFCF48E2E2CF4AE262E07A
:1048300083E79CE31BCF0E94D7057C010E94D7052C
:104840008C010E94D7059C0142E350E06EE226CF26
:1048500040E365E0C9CF47E36AE0C6CF64E680E1A4
:1048600097E20E94D809ECCE60E08DE390E10E94CF
:10487000443D80E00E94651BE3CEEF92FF920F93D0
:104880001F93CF93DF9300D000D000D01F92CDB7FD
:10489000DEB78091280A8E3109F4B0C0A0F58530CA
:1048A00009F493C0B8F4813009F488C008F46EC0EC
:1048B00045E064E0823009F483C027960FB6F8948F
:1048C000DEBF0FBECDBFDF91CF911F910F91FF9043
:1048D000EF9008958F3009F47CC040F48A3069F776
:1048E0006FE086E09FE30E94130BE7CF843109F469
:1048F00074C044EF51E06EE18931F9F686E09FE340
:104900000E94FA09DACF873309F490C0D0F48832D4
:1049100009F479C050F444EF51E068E2833269F65B
:1049200086E09FE30E940407C8CF8D3209F478C067
:10493000823319F647E367E08DEF9EE30E94B506E8
:10494000BCCF813409F476C090F48C3309F0B5CF34
:104950000E94D7057C010E94D7058C010E94D705D3
:104960009C014BE450E061E484E49FE244C086345F
:1049700009F465C0843609F0A0CF60E08DE390E1D2
:104980000E94443D80E00E94651B97CF0E94F00585
:104990007C0161EF71E0CE0101960E94EA4901E0DD
:1049A00097014BE450E06EE07DE3CE0101960E945A
:1049B0004C0ECE0101960E9481497FCF42E063E018
:1049C00083E89FE10E94841178CF44EF51E06AE0D0
:1049D00095CF44EF51E064E1A3CF0E94D7057C015D
:1049E0000E94D7058C010E94D7059C014BE450E042
:1049F00069E186E09FE30E9469075FCF43E264E0DC
:104A000086E09FE3DFCF0E94D7057C010E94D70597
:104A10008C010E94D7059C014BE450E06DE2E9CF88
:104A200062E382E79FE10E94C60747CF44EF51E06F
:104A30006CE376CF46E46CE089EB9FE07FCF64E6E1
:104A400080E197E20E94D80938CFEF92FF920F934E
:104A50001F93CF93DF9300D000D000D01F92CDB72B
:104A6000DEB78091280A8E3109F4B0C0A0F58530F8
:104A700009F493C0B8F4813009F488C008F46EC01A
:104A800045E064E0823009F483C027960FB6F894BD
:104A9000DEBF0FBECDBFDF91CF911F910F91FF9071
:104AA000EF9008958F3009F47CC040F48A3069F7A4
:104AB0006FE086E09FE30E94130BE7CF843109F497
:104AC00074C044EF51E06EE18931F9F686E09FE36E
:104AD0000E94FA09DACF873309F490C0D0F4883203
:104AE00009F479C050F444EF51E068E2833269F68A
:104AF00086E09FE30E940407C8CF8D3209F478C096
:104B0000823319F647E367E08DEF9EE30E94B50616
:104B1000BCCF813409F476C090F48C3309F0B5CF62
:104B20000E94D7057C010E94D7058C010E94D70501
:104B30009C014BE450E061E484E49FE244C086348D
:104B400009F465C0843609F0A0CF60E08DE390E100
:104B50000E94443D80E00E94651B97CF0E94F005B3
:104B60007C0165E072E0CE0101960E94EA4901E015
:104B700097014BE450E06EE07DE3CE0101960E9488
:104B80004C0ECE0101960E9481497FCF42E063E046
:104B900083E89FE10E94841178CF44EF51E06AE0FE
:104BA00095CF44EF51E064E1A3CF0E94D7057C018B
:104BB0000E94D7058C010E94D7059C014BE450E070
:104BC00069E186E09FE30E9469075FCF43E264E00A
:104BD00086E09FE3DFCF0E94D7057C010E94D705C6
:104BE0008C010E94D7059C014BE450E06DE2E9CFB7
:104BF00062E382E79FE10E94C60747CF44EF51E09E
:104C00006CE376CF46E46CE089EB9FE07FCF64E60F
:104C100080E197E20E94D80938CFEF92FF920F937C
:104C20001F93CF93DF9300D000D000D01F92CDB759
:104C3000DEB78091280A8E3109F4B0C0A0F5853026
:104C400009F493C0B8F4813009F488C008F46EC048
:104C500045E064E0823009F483C027960FB6F894EB
:104C6000DEBF0FBECDBFDF91CF911F910F91FF909F
:104C7000EF9008958F3009F47CC040F48A3069F7D2
:104C80006FE086E09FE30E94130BE7CF843109F4C5
:104C900074C044EF51E06EE18931F9F686E09FE39C
:104CA0000E94FA09DACF873309F490C0D0F4883231
:104CB00009F479C050F444EF51E068E2833269F6B8
:104CC00086E09FE30E940407C8CF8D3209F478C0C4
:104CD000823319F647E367E08DEF9EE30E94B50645
:104CE000BCCF813409F476C090F48C3309F0B5CF91
:104CF0000E94D7057C010E94D7058C010E94D70530
:104D00009C014BE450E061E484E49FE244C08634BB
:104D100009F465C0843609F0A0CF60E08DE390E12E
:104D20000E94443D80E00E94651B97CF0E94F005E1
:104D30007C0163E272E0CE0101960E94EA4901E043
:104D400097014BE450E06EE07DE3CE0101960E94B6
:104D50004C0ECE0101960E9481497FCF42E063E074
:104D600083E89FE10E94841178CF44EF51E06AE02C
:104D700095CF44EF51E064E1A3CF0E94D7057C01B9
:104D80000E94D7058C010E94D7059C014BE450E09E
:104D900069E186E09FE30E9469075FCF43E264E038
:104DA00086E09FE3DFCF0E94D7057C010E94D705F4
:104DB0008C010E94D7059C014BE450E06DE2E9CFE5
:104DC00062E382E79FE10E94C60747CF44EF51E0CC
:104DD0006CE376CF46E46CE089EB9FE07FCF64E63E
:104DE00080E197E20E94D80938CFEF92FF920F93AB
:104DF0001F93CF93DF9300D000D000D01F92CDB788
:104E0000DEB78091280A8E3109F4B0C0A0F5853054
:104E100009F493C0B8F4813009F488C008F46EC076
:104E200045E064E0823009F483C027960FB6F89419
:104E3000DEBF0FBECDBFDF91CF911F910F91FF90CD
:104E4000EF9008958F3009F47CC040F48A3069F700
:104E50006FE086E09FE30E94130BE7CF843109F4F3
:104E600074C044EF51E06EE18931F9F686E09FE3CA
:104E70000E94FA09DACF873309F490C0D0F488325F
:104E800009F479C050F444EF51E068E2833269F6E6
:104E900086E09FE30E940407C8CF8D3209F478C0F2
:104EA000823319F647E367E08DEF9EE30E94B50673
:104EB000BCCF813409F476C090F48C3309F0B5CFBF
:104EC0000E94D7057C010E94D7058C010E94D7055E
:104ED0009C014BE450E061E484E49FE244C08634EA
:104EE00009F465C0843609F0A0CF60E08DE390E15D
:104EF0000E94443D80E00E94651B97CF0E94F00510
:104F00007C0165E372E0CE0101960E94EA4901E06E
:104F100097014BE450E06EE07DE3CE0101960E94E4
:104F20004C0ECE0101960E9481497FCF42E063E0A2
:104F300083E89FE10E94841178CF44EF51E06AE05A
:104F400095CF44EF51E064E1A3CF0E94D7057C01E7
:104F50000E94D7058C010E94D7059C014BE450E0CC
:104F600069E186E09FE30E9469075FCF43E264E066
:104F700086E09FE3DFCF0E94D7057C010E94D70522
:104F80008C010E94D7059C014BE450E06DE2E9CF13
:104F900062E382E79FE10E94C60747CF44EF51E0FA
:104FA0006CE376CF46E46CE089EB9FE07FCF64E66C
:104FB00080E197E20E94D80938CFEF92FF920F93D9
:104FC0001F93CF93DF9300D000D000D01F92CDB7B6
:104FD000DEB78091280A8E3109F4B0C0A0F5853083
:104FE00009F493C0B8F4813009F488C008F46EC0A5
:104FF00045E064E0823009F483C027960FB6F89448
:10500000DEBF0FBECDBFDF91CF911F910F91FF90FB
:10501000EF9008958F3009F47CC040F48A3069F72E
:105020006FE086E09FE30E94130BE7CF843109F421
:1050300074C044EF51E06EE18931F9F686E09FE3F8
:105040000E94FA09DACF873309F490C0D0F488328D
:1050500009F479C050F444EF51E068E2833269F614
:1050600086E09FE30E940407C8CF8D3209F478C020
:10507000823319F647E367E08DEF9EE30E94B506A1
:10508000BCCF813409F476C090F48C3309F0B5CFED
:105090000E94D7057C010E94D7058C010E94D7058C
:1050A0009C014BE450E061E484E49FE244C0863418
:1050B00009F465C0843609F0A0CF60E08DE390E18B
:1050C0000E94443D80E00E94651B97CF0E94F0053E
:1050D0007C016EE472E0CE0101960E94EA4901E093
:1050E00097014BE450E06EE07DE3CE0101960E9413
:1050F0004C0ECE0101960E9481497FCF42E063E0D1
:1051000083E89FE10E94841178CF44EF51E06AE088
:1051100095CF44EF51E064E1A3CF0E94D7057C0115
:105120000E94D7058C010E94D7059C014BE450E0FA
:1051300069E186E09FE30E9469075FCF43E264E094
:1051400086E09FE3DFCF0E94D7057C010E94D70550
:105150008C010E94D7059C014BE450E06DE2E9CF41
:1051600062E382E79FE10E94C60747CF44EF51E028
:105170006CE376CF46E46CE089EB9FE07FCF64E69A
:1051800080E197E20E94D80938CFEF92FF920F9307
:105190001F93CF93DF9300D000D000D01F92CDB7E4
:1051A000DEB78091280A8E3109F4B0C0A0F58530B1
:1051B00009F493C0B8F4813009F488C008F46EC0D3
:1051C00045E064E0823009F483C027960FB6F89476
:1051D000DEBF0FBECDBFDF91CF911F910F91FF902A
:1051E000EF9008958F3009F47CC040F48A3069F75D
:1051F0006FE086E09FE30E94130BE7CF843109F450
:1052000074C044EF51E06EE18931F9F686E09FE326
:105210000E94FA09DACF873309F490C0D0F48832BB
:1052200009F479C050F444EF51E068E2833269F642
:1052300086E09FE30E940407C8CF8D3209F478C04E
:10524000823319F647E367E08DEF9EE30E94B506CF
:10525000BCCF813409F476C090F48C3309F0B5CF1B
:105260000E94D7057C010E94D7058C010E94D705BA
:105270009C014BE450E061E484E49FE244C0863446
:1052800009F465C0843609F0A0CF60E08DE390E1B9
:105290000E94443D80E00E94651B97CF0E94F0056C
:1052A0007C0161E772E0CE0101960E94EA4901E0CB
:1052B00097014BE450E06EE07DE3CE0101960E9441
:1052C0004C0ECE0101960E9481497FCF42E063E0FF
:1052D00083E89FE10E94841178CF44EF51E06AE0B7
:1052E00095CF44EF51E064E1A3CF0E94D7057C0144
:1052F0000E94D7058C010E94D7059C014BE450E029
:1053000069E186E09FE30E9469075FCF43E264E0C2
:1053100086E09FE3DFCF0E94D7057C010E94D7057E
:105320008C010E94D7059C014BE450E06DE2E9CF6F
:1053300062E382E79FE10E94C60747CF44EF51E056
:105340006CE376CF46E46CE089EB9FE07FCF64E6C8
:1053500080E197E20E94D80938CFEF92FF920F9335
:105360001F93CF93DF9300D000D000D01F92CDB712
:10537000DEB78091280A8E3109F48AC080F58A3020
:1053800009F470C098F4882309F44EC0853009F4FC
:1053900063C027960FB6F894DEBF0FBECDBFDF9176
:1053A000CF911F910F91FF90EF900895843109F4F0
:1053B00061C0893109F464C08F3059F70E94D70564
:1053C0007C010E94D7058C010E94D7059C0142E315
:1053D00050E064E188E893E10E946907DACF823304
:1053E00009F46EC080F4883209F45DC08D3209F48E
:1053F00061C0833271F648EE53E068E288E99AE3CF
:105400000E94FA09C6CF8C3309F460C0843609F4CF
:1054100063C0873309F0BDCF44EF51E06CE388E906
:105420009AE30E946F0AB5CF0E94F0057C016AE8FA
:1054300072E0CE0101960E94EA4905E097014AE533
:1054400050E060E375E7CE0101960E944C0ECE015C
:1054500001960E9481499DCF6AE080E395E70E9412
:105460007B1697CF4FE060ED77E088E99AE30E94E2
:1054700087088FCF69E188E99AE30E94C60789CF40
:1054800040ED57E06EE188E99AE30E94040781CF7E
:10549000EE24EA94F12C0FEF10E02FEF30E042E31E
:1054A00050E063E297CF4DE265E088E99AE30E941D
:1054B000B5066FCF62E380E197E20E94150C69CFD9
:1054C00067E380E197E20E94130B63CF64E680E616
:1054D0009AEE0E9424065DCF60E08DE390E10E9489
:1054E000443D80E00E94651B54CFEF92FF920F93E2
:1054F0001F93CF93DF9300D000D000D01F92CDB781
:10550000DEB78091280A863409F4EDC008F053C054
:105510008E3109F4C2C028F58A3009F4A0C0A8F47D
:10552000882309F484C04AE06BE0853009F499C00F
:1055300027960FB6F894DEBF0FBECDBFDF91CF9197
:105540001F910F91FF90EF900895843109F48EC060
:10555000893109F49CC08F3059F74AE154E064E185
:105560003BC0823309F4A4C078F4883209F49BC0AC
:105570008D3209F49BC08332D9F648E265E088E6B3
:1055800092E40E94B506D4CF8C3309F499C08134DB
:1055900009F4A6C0873361F60E94D7057C010E94FA
:1055A000D7058C010E94D7059C0142E350E06CE3D3
:1055B00080E391E269C0893609F4C4C0E8F4853516
:1055C00009F499C060F48B3409F490C04AE154E0C6
:1055D00065E5803509F0ACCF84E391E26EC08F358C
:1055E00009F498C0843609F4A2C08A3509F0A0CF26
:1055F0004AE154E06FE5F0CF8D3709F4ADC058F4BF
:10560000833709F4A4C0883709F4A4C08E3609F0A2
:105610008FCF43E766C0873809F4A1C0883C09F4FE
:10562000A2C0823809F084CF47E866E08DC00E94AE
:10563000F0057C0168E972E0CE0101960E94EA491A
:1056400005E097014AE550E06FE075E5CE0101966F
:105650000E944C0ECE0101960E94814969CF4FE015
:1056600063E084E391E20E94841162CF0E94D70537
:105670007C010E94D7058C010E94D7059C0142E362
:1056800050E069E18EE09FE10E94690751CF6EE131
:105690008DE092E00E94D8094BCF63E28DE498E060
:1056A0000E94130B45CF4DE262E0DBCF42E3D8CF3F
:1056B0004AE154E067E380E391E20E94040738CFB7
:1056C0000E94F0057C016AEB72E0CE0101960E9417
:1056D000EA4901E4970149E150E06DE478E0B6CF92
:1056E00046E462E031C04BE464E02EC040E569E08E
:1056F0008FE592E4B8CF0E94D7057C010E94D705C0
:105700008C010E94D7059C0142E350E06AE584E3E6
:1057100091E2BACF0E94D7057C010E94D7058C0187
:105720000E94D7059C0142E350E064E6F0CF0E945E
:10573000F0057C016AEB72E0CE0101960E94EA4915
:1057400009E6C8CF4EE661E08AE291E21ACF48E767
:1057500063E0FACF4DE7C8CF42E865E0F5CF68ECEB
:1057600080E593EC97CF60E08DE390E10E94443DAB
:1057700080E00E94651BDCCE9F92AF92BF92CF92D9
:10578000DF92EF92FF920F931F93CF93DF93FC0171
:10579000C080D18028B1B22E6894B2F898B19B7FB6
:1057A00098B962858781062F081B802F078377852C
:1057B000A281B38135854485568599249394930EAF
:1057C0004F5F5F5FF680E084C185D385F60111816C
:1057D000A12C0A2D2A2D3A2D3181112788943111BF
:1057E000380F08F43FEF8195889490FC130F1795BC
:1057F000889491FC130F1795889492FC130F1795BA
:10580000889493FC130F1795889494FC130F1795A5
:10581000889495FC130F1795889496FC130F179591
:10582000889497FC130F17958894032F9110012FDC
:10583000860F102F002CB8B800C017FF98B9308120
:105840000027889400C000C0002C98B931113F0D8A
:1058500000C0002CB8B800C016FF98B908F43FEF9C
:10586000F194889400C000C0002C98B940FD030F4B
:1058700000C0002CB8B800C015FF98B907958894EF
:1058800041FD030F00C000C0002C98B90795889413
:1058900000C0002CB8B800C014FF98B942FD030F37
:1058A0000795889400C000C0002C98B943FD030FF1
:1058B00000C0002CB8B800C013FF98B907958894B1
:1058C00044FD030F00C000C0002C98B907958894D0
:1058D00000C0002CB8B800C012FF98B945FD030FF6
:1058E0000795889400C000C0002C98B946FD030FAE
:1058F00000C0002CB8B800C011FF98B90795889473
:1059000047FD030F00C000C0002C98B9079588948C
:1059100000C0002CB8B800C010FF98B9132F411177
:10592000102FFC0E00C000C0002C98B900C000C0B1
:10593000002CB8B800C017FF98B9328100278894AE
:1059400000C000C0002C98B931113E0D00C0002CE1
:10595000B8B800C016FF98B908F43FEFE70FF11D83
:1059600000C000C0002C98B950FD030F00C0002CEF
:10597000B8B800C015FF98B90795889451FD030F7A
:1059800000C000C0002C98B90795889400C0002C76
:10599000B8B800C014FF98B952FD030F079588945A
:1059A00000C000C0002C98B953FD030F00C0002CAC
:1059B000B8B800C013FF98B90795889454FD030F39
:1059C00000C000C0002C98B90795889400C0002C36
:1059D000B8B800C012FF98B955FD030F0795889419
:1059E00000C000C0002C98B956FD030F00C0002C69
:1059F000B8B800C011FF98B90795889457FD030FF8
:105A000000C000C0002C98B90795889400C0002CF5
:105A1000B8B800C010FF98B9132F5111102FE1949E
:105A200000C000C0002C98B9ED0E00C000C0B8B88E
:105A300000C017FF98B931810027889400C000C0CA
:105A4000002C98B93111380F00C0002CB8B800C034
:105A500016FF98B908F43FEF8195889400C000C004
:105A6000002C98B990FC030F00C0002CB8B800C0FF
:105A700015FF98B90795889491FC030F00C000C0EA
:105A8000002C98B90795889400C0002CB8B800C0C5
:105A900014FF98B992FC030F0795889400C000C0CA
:105AA000002C98B993FC030F00C0002CB8B800C0BC
:105AB00013FF98B90795889494FC030F00C000C0A9
:105AC000002C98B90795889400C0002CB8B800C085
:105AD00012FF98B995FC030F0795889400C000C089
