:10000000B5C30000DDC30000DBC30000D9C300009E
:10001000D7C30000D5C30000D3C30000D1C3000084
:10002000CFC30000CDC300000C949B2A0C94182B66
:10003000C7C30000C5C30000C3C30000C1C30000A4
:10004000BFC30000BDC30000BBC30000B9C30000B4
:10005000B7C30000B5C30000B3C300000C94FA2975
:10006000AFC300000C94562D0C94812D0C94B22D2E
:10007000A7C30000A5C30000A3C30000A1C30000E4
:100080000C94630F9DC300009BC3000099C3000044
:1000900097C3000095C3000000000000003E5B4FC6
:1000A0005B3E3E6B4F6B3E1C3E7C3E1C183C7E3CD8
:1000B000181C577D571C1C5E7F5E1C00183C1800E6
:1000C000FFE7C3E7FF0018241800FFE7DBE7FF3076
:1000D000483A060E2629792926407F050507407FE4
:1000E00005253F5A3CE73C5A7F3E1C1C08081C1C57
:1000F0003E7F14227F22145F5F005F5F06097F014D
:100100007F006689956A606060606094A2FFA29437
:1001100008047E040810207E201008082A1C080805
:100120001C2A08081E101010100C1E0C1E0C303853
:100130003E3830060E3E0E06000000000000005F54
:1001400000000007000700147F147F14242A7F2A70
:100150001223130864623649562050000807030032
:10016000001C2241000041221C002A1C7F1C2A087E
:10017000083E0808008070300008080808080000E1
:1001800060600020100804023E5149453E00427F55
:10019000400072494949462141494D331814127FA4
:1001A0001027454545393C4A494931412111090744
:1001B0003649494936464949291E000014000000C5
:1001C0004034000000081422411414141414004197
:1001D00022140802015909063E415D594E7C121154
:1001E000127C7F494949363E414141227F4141418C
:1001F0003E7F494949417F090909013E4141517307
:100200007F0808087F00417F41002040413F017F77
:10021000081422417F404040407F021C027F7F043F
:1002200008107F3E4141413E7F090909063E415188
:10023000215E7F09192946264949493203017F0178
:10024000033F4040403F1F2040201F3F4038403F79
:10025000631408146303047804036159494D43008F
:100260007F4141410204081020004141417F0402C6
:10027000010204404040404000030708002054545D
:1002800078407F284444383844444428384444283B
:100290007F385454541800087E090218A4A49C788E
:1002A0007F0804047800447D40002040403D007FEA
:1002B0001028440000417F40007C047804787C08CA
:1002C0000404783844444438FC182424181824249E
:1002D00018FC7C08040408485454542404043F4483
:1002E000243C4040207C1C2040201C3C4030403CB2
:1002F00044281028444C9090907C4464544C440012
:100300000836410000007700000041360800020175
:100310000204023C2623263C1EA1A161123A404061
:10032000207A3854545559215555794122545478DE
:1003300042215554784020545579400C1E52721277
:100340003955555559395454545939555454580000
:1003500000457C410002457D420001457C407D1204
:1003600011127DF0282528F07C5455450020545466
:100370007C547C0A097F4932494949323A44444411
:100380003A324A4848303A4141217A3A424020784C
:10039000009DA0A07D3D4242423D3D4040403D3C4D
:1003A00024FF2424487E4943662B2FFC2F2BFF0972
:1003B00029F620C0887E0903205454794100004466
:1003C0007D413048484A32384040227A007A0A0A51
:1003D000727D0D19317D2629292F282629292926C4
:1003E00030484D4020380808080808080808382F09
:1003F00010C8ACBA2F102834FA00007B0000081493
:100400002A142222142A14085500550055AA55AA68
:1004100055AAFF55FF55FF000000FF00101010FF08
:1004200000141414FF001010FF00FF1010F010F063
:10043000141414FC001414F700FF0000FF00FF1454
:1004400014F404FC141417101F10101F101F1414A0
:10045000141F00101010F0000000001F10101010EA
:100460001F10101010F010000000FF1010101010DE
:1004700010101010FF10000000FF140000FF00FF1C
:1004800000001F10170000FC04F4141417101714B8
:1004900014F404F40000FF00F714141414141414DA
:1004A000F700F7141414171410101F101F1414144D
:1004B000F4141010F010F000001F101F0000001FB7
:1004C00014000000FC140000F010F01010FF10FFEA
:1004D000141414FF141010101F00000000F010FF7F
:1004E000FFFFFFFFF0F0F0F0F0FFFFFF0000000063
:1004F00000FFFF0F0F0F0F0F3844443844FC4A4AE7
:100500004A347E02020606027E027E02635549419B
:10051000633844443C04407E201E2006027E0202D2
:1005200099A5E7A5991C2A492A1C4C7201724C30E6
:100530004A4D4D303048784830BC625A463D3E49BD
:100540004949007E0101017E2A2A2A2A2A44445F61
:10055000444440514A444040444A51400000FF0155
:1005600003E080FF000008086B6B08361236243663
:10057000060F090F060000181800000010100030C8
:1005800040FF0101001F01011E00191D1712003C50
:100590003C3C3C000000000000010203040506088A
:1005A000090A0B0D0E1012131517191B1D202225F9
:1005B000272A2D3033373A3E4145494D52565B5F2D
:1005C00064696E74797F858B91979DA4ABB2B9C035
:1005D000C7CFD6DEE6EEF7FF000102030507090BE1
:1005E0000E1114181D22282E363D464F59646F7C7B
:1005F0008997A6B6C7D9EBFF0000FF00002AD500F7
:100600000055AB00007FAB0000ABAB0000D556003F
:1006100000FF00002AD5000055AB0000AA560000DC
:10062000FF000000D5002A00AB00550081007F00CC
:100630005500AB002B00D500012902290429082907
:100640001029202940298029012C022C012602266C
:10065000042608261026202640268026402C802CA2
:100660000123022304230823102320234023802373
:10067000012002200420082010202020402080207B
:10068000102C202C012F022F042F082F102F202F89
:10069000402F802F000100004507120002000002D9
:1006A000074300030000FE060401030904E40618E2
:1006B00002030904CC061603030904BE060C0C034E
:1006C00031003200330034003500000016035500BD
:1006D0005300420020005300650072006900610071
:1006E0006C00000018035400650065006E00730084
:1006F00079006400750069006E006F00000004035B
:10070000090409024300020100C03209040000018B
:100710000202010005240010010524010001042447
:1007200002060524060001070582030800400904AB
:100730000100020A0000000705030240000007054F
:1007400084024000001201000202000020C0168353
:10075000047202010203010001C10201803601811D
:100760003600D9174D26D02D9530541811241FBEB0
:10077000CFEFD0E2DEBFCDBF17E0A0E0B1E0E6E70B
:10078000F9E600E00BBF02C007900D92A839B1074F
:10079000D9F72FE0A8E9B7E001C01D92A931B2074F
:1007A000E1F713E0C5EBD3E004C02197FE010E94FE
:1007B000C433C13BD107C9F70E94E12D0C94AF347B
:1007C0001FCCFC01858596850895CF93DF9300D0DB
:1007D00000D000D0CDB7DEB7AB011C821D821E82D7
:1007E000DC01ED91FC910190F081E02D19821A82DB
:1007F0001B829E012F5F3F4FBE016C5F7F4F0995AB
:1008000026960FB6F894DEBF0FBECDBFDF91CF9115
:1008100008956731710508F0EFC0FB01EE5EFB4FF4
:100820000C94C433290434043C04490454045B0488
:100830006204690473047D04870491049B04A50485
:10084000AF04B704BF04C604CD04D404DE04E80436
:10085000F20404978330910508F0CEC0805A9C4F73
:10086000FC01808190E0089502978630910508F0A0
:10087000C3C0865A9C4FF4CF01978331910508F08D
:10088000BBC0880F991FFC01EC5CFC4F80819181FB
:10089000089501978531910508F0AEC0880F991F22
:1008A000FC01E65FFC4FF2CF8431910508F0A4C053
:1008B0008A509D4FD5CF8431910508F09DC08E514F
:1008C0009D4FCECF8F30910508F096C08D529D4F31
:1008D000C7CF8F30910508F08FC0880F991FFC019A
:1008E000EB54FD4FD3CF8F30910508F085C0880FB2
:1008F000991FFC01E956FD4FC9CF8F30910508F0D3
:100900007BC0880F991FFC01E758FD4FBFCF8F3088
:10091000910508F071C0880F991FFC01E55AFD4F41
:10092000B5CF8F30910508F067C0880F991FFC0183
:10093000E35CFD4FABCF8F30910508F05DC0880FB1
:10094000991FFC01E15EFD4FA1CF8F30910508F0AA
:1009500053C0880F991FFC01EF5FFD4F97CF0197A0
:100960008E30910508F048C08D509E4F79CF029788
:100970008131910508F040C08E519E4F71CF019793
:1009800082319105C8F580539E4F6ACF019783311C
:10099000910590F583549E4F63CF01978431910563
:1009A00058F587559E4F5CCF01978331910520F50F
:1009B000880F991FFC01ED57FE4F68CF02978730D3
:1009C0009105D0F4880F991FFC01EB58FE4F5ECFC4
:1009D00003978530910580F4880F991FFC01E55934
:1009E000FE4F54CF04978330910530F4880F991F40
:1009F000FC01EB59FE4F4ACF8CE291E0089580E96B
:100A000091E008953A9A0895FB0101900020E9F7DA
:100A10003197AF01461B570BDC01ED91FC91028031
:100A2000F381E02D0994F0CF462F50E070E060E0B4
:100A300020E00C948D2E0F931F93CF93DF93EC0146
:100A4000F3DF8C01CE010E94732E800F911FDF9186
:100A5000CF911F910F9108950F931F93DC01AC016B
:100A6000405D5F4FFB0105911591259134912C93C9
:100A700011961C93119712960C9312976C5F7F4FEF
:100A80001396A417B50771F71F910F910895FC01F4
:100A900060810C949524FC0140810C942525DC0197
:100AA000ED91FC9102A0F3A1E02D70E060E00994CB
:100AB00024E030E040E050E061E070E080E090E071
:100AC0000E94C7306230710531F06330710531F03A
:100AD00090E080E008958FE790E008958FEF90E038
:100AE000089527E030E040E050E061E070E080E011
:100AF00090E00E94C730615071096730710540F481
:100B0000660F771FFB01E95AFE4F8081918108959E
:100B100090E080E0089529E030E040E050E061E0BE
:100B200070E080E090E00E94C7306150710967304A
:100B3000710540F4660F771FFB01E75BFE4F808174
:100B40009181089590E080E008950F931F93CF93D3
:100B5000DF938C01C62F80916A0881110EC061E07D
:100B60008DE79EE00E94BD251093070100930601CA
:100B7000C093690881E080936A088091270890916A
:100B80002808892B49F494DF80932B0891DF809308
:100B90002A088EDF80932908C0912908D0912A085D
:100BA00010912B0826E131E040E050E060E070E079
:100BB000CB010E94C730FB01EE0FFF1FE60FF71FAE
:100BC000E258F74F1083D183C28323E030E040E046
:100BD00050E060E070E0CB010E94C73061307105E9
:100BE0008105910599F426E131E040E050E060E0B4
:100BF00070E0CB010E94C730FB01EE0FFF1FE60F34
:100C0000F71FE258F74F1082118212828DE79EE0A3
:100C10003EDF809170089091710888399A43F0F016
:100C2000109271081092700884E00E94A2280E941D
:100C3000A83080912708909128080196843091056A
:100C400091F0909328088093270832DF80932B0837
:100C50002FDF80932A082CDF80932908DF91CF9122
:100C60001F910F91089581E090E0EBCF0F931F93B8
:100C7000CF93DF938C01C62F80916A0881110EC03B
:100C800061E08DE79EE00E94BD251093070100936F
:100C90000601C093690881E080936A0860E08DE7EF
:100CA0009EE00E94BD258FEF80937D0E01DFC82F4F
:100CB000FFDED82FFDDE182F26E131E040E050E0C6
:100CC00060E070E0CB010E94C730FB01EE0FFF1F18
:100CD000E60FF71FE258F74F1083D183C2838DE7E9
:100CE0009EE0DF91CF911F910F91D1CECF92DF92F5
:100CF000FF920F931F93CF93DF9300D01F92CDB736
:100D0000DEB76C01F62E8A0180916A08811112C04B
:100D100061E08DE79EE00E94BD25D0920701C09260
:100D20000601F092690881E080936A0810937108C7
:100D30000093700880917008909171088017910756
:100D400078F11092710810927008B2DE80932B082F
:100D5000AFDE80932A08ACDE8093290890912B089F
:100D600091110FC090912A0891110BC0811109C0F7
:100D70009FDE80932B089CDE80932A0899DE809367
:100D800029088091290890912A0820912B0829830D
:100D90009A838B83BE016F5F7F4F8DE79EE07BDE82
:100DA0000F900F900F90DF91CF911F910F91FF90B7
:100DB000DF90CF900895AF92BF92CF92DF92EF92E3
:100DC000FF920F931F93CF93DF9300D01F92CDB765
:100DD000DEB75C01F62E6A01122F80916A0881113C
:100DE00012C061E08DE79EE00E94BD25B092070130
:100DF000A0920601F092690881E080936A08D0927F
:100E00007108C092700880917008909171088C15DB
:100E10009D0598F0109271081092700880917308E7
:100E20008823C9F019830A83EB82BE016F5F7F4F6D
:100E30008DE79EE030DE109273080F900F900F90B8
:100E4000DF91CF911F910F91FF90EF90DF90CF90A6
:100E5000BF90AF90089519821A821B82BE016F5F06
:100E60007F4F8DE79EE017DE81E080937308E5CF2A
:100E7000EF92FF920F931F93CF938C01C62F809117
:100E80006A0881110EC061E08DE79EE00E94BD25D9
:100E90001093070100930601C093690881E08093D5
:100EA0006A0860916108709162089B012F5F3F4F53
:100EB0004091600880916C0E90916D0E411152C06E
:100EC0003093620820936108273131051CF021E03E
:100ED000209360089B012D5F3F4FDC01ED91FC9159
:100EE00000A0F1A1E02DE12C58EFF52E07E110E074
:100EF00050E040E0099580916C0E90916D0E6091EC
:100F00006108709162089B012F5F3F4FDC01ED91FA
:100F1000FC9100A0F1A1E02DEE24EA94FE2C50E01B
:100F200040E0099580916C0E90916D0E6091610882
:100F3000709162089B012250310965507109DC01F2
:100F4000ED91FC9100A0F1A1E02DF12CE12C50E0FD
:100F500040E009958DE79EE0CF911F910F91FF90A2
:100F6000EF9095CD615071097093620860936108AC
:100F70006E3FBFEF7B0714F410926008DC01ED9127
:100F8000FC9100A0F1A1E02DE12C48EFF42E07E147
:100F900010E050E040E0099580916C0E90916D0E4C
:100FA00060916108709162089B012C5F3F4F6E5FFA
:100FB0007F4FC5CF8F929F92AF92BF92CF92DF9219
:100FC000EF92FF920F931F93CF93DF937C01EB017E
:100FD000142F80916A08811118C061E08DE79EE0AE
:100FE0000E94BD25F0920701E09206011093690866
:100FF00081E080936A0875DD90937C0880937B087C
:1010000070DD90937A08809379081C161D06ACF465
:1010100080917008909171088C179D0770F0109264
:101020007108109270085DDD90937C0880937B08B6
:1010300058DD90937A0880937908809161089091A7
:10104000620801968A3091050CF0FCC0909362080A
:101050008093610860E08DE79EE00E94BD2580914D
:101060006C0E90916D0E4091610850916208E09075
:101070007B08F0907C089A01265F3F4F6AE0A62E1D
:10108000B12CB501641B750BDC01ED91FC9104A042
:10109000F5A1E02D06E110E050E040E009958091D7
:1010A0006C0E90916D0E4091610850916208E09035
:1010B0007908F0907A089A01255F3F4F7BE0872EF0
:1010C000912CB401641B750BDC01ED91FC9104A023
:1010D000F5A1E02D50E040E0099580916C0E9091D3
:1010E0006D0E4091610850916208E0907B08F0908D
:1010F0007C08E6E1CE2ED12C041B150B4F5F5F4F11
:10110000DC01ED91FC9104A0F5A1E02D25E130E09A
:1011100070E060E0099580916C0E90916D0E4091A9
:10112000610850916208E0907908F0907A08C5E172
:10113000D0E08E01041B150BDC01ED91FC9104A0A5
:10114000F5A1E02D25E130E070E060E009958091A7
:101150006C0E90916D0E4091610850916208E09084
:101160007B08F0907C088401041B150B455F5F4FE2
:10117000DC01ED91FC9104A0F5A1E02D25E130E02A
:1011800070E060E0099580916C0E90916D0E409139
:10119000610850916208E0907908F0907A08850122
:1011A000041B150B465F5F4FDC01ED91FC9104A021
:1011B000F5A1E02D25E130E070E060E00995809137
:1011C0006C0E90916D0E6091610870916208E090D4
:1011D0007B08F0907C089601261B370BDC01ED9113
:1011E000FC9104A0F5A1E02D10E000E046E150E004
:1011F000099580916C0E90916D0E609161087091CF
:101200006208E0907908F0907A089E01261B370B5F
:1012100061507109DC01ED91FC9104A0F5A1E02D74
:1012200046E150E009958DE79EE0DF91CF911F9157
:101230000F91FF90EF90DF90CF90BF90AF909F9075
:101240008F9025CC109262081092610803CF462F30
:1012500070E060E0AFCE0F931F93CF938C01C62F49
:1012600080916A0881110EC061E08DE79EE00E94C6
:10127000BD251093070100930601C093690881E022
:1012800080936A0860E08DE79EE00E94BD258DE7AF
:101290009EE0CF911F910F91FACB8F929F92AF92C8
:1012A000BF92CF92DF92EF92FF920F931F93CF9353
:1012B000DF937C01162FEA0180916A08811112C028
:1012C00061E08DE79EE00E94BD25F0920701E0926B
:1012D00006011093690881E080936A08D093710831
:1012E000C093700880917008909171088C179D07C9
:1012F000E0F11092710810927008C0916C0ED091BC
:101300006D0E09DC8C012AE030E040E050E063E043
:1013100070E080E090E00E94C7304B0126E130E0B1
:1013200040E050E060E070E0CB010E94C7306B010C
:1013300025E130E040E050E060E070E0CB010E9449
:10134000C7309401A601CE010E94561D8DE79EE094
:10135000DF91CF911F910F91FF90EF90DF90CF9091
:10136000BF90AF909F908F9092CBDF91CF911F91C4
:101370000F91FF90EF90DF90CF90BF90AF909F9034
:101380008F900895CF92DF92EF92FF920F931F9369
:10139000CF93DF936C01F62EEA0180916A088111E8
:1013A00012C061E08DE79EE00E94BD25D09207014A
:1013B000C0920601F092690881E080936A08D09398
:1013C0007108C093700880917008909171088C1713
:1013D0009D0708F472C0109271081092700825E100
:1013E00030E040E050E060E070E0CB010E94C730A8
:1013F000C62F25E130E040E050E060E070E0CB0136
:101400000E94C730C62E6DDB90937C0880937B08CA
:1014100060E08DE79EE00E94BD2580916C0E90916A
:101420006D0ED12CD0E0E0907B08F0907C08960106
:1014300021503109BE0161507109DC01ED91FC912F
:1014400004A0F5A1E02D06E110E050E040E0099590
:1014500080916C0E90916D0EE0907B08F0907C086E
:10146000DC01ED91FC9104A0F5A1E02D960150E086
:1014700040E0BE01099580916C0E90916D0EE09058
:101480007B08F0907C0896012F5F3F4FBE016F5F95
:101490007F4FDC01ED91FC9104A0F5A1E02D50E01F
:1014A00040E009958DE79EE0DF91CF911F910F916C
:1014B000FF90EF90DF90CF90EACADF91CF911F911C
:1014C0000F91FF90EF90DF90CF900895CF92DF9231
:1014D000EF92FF920F931F93CF93DF938C01C62F50
:1014E00080916A0881110EC061E08DE79EE00E9444
:1014F000BD251093070100930601C093690881E0A0
:1015000080936A0860E08DE79EE00E94BD2580918F
:101510005E0890915F088230910509F459C07CF40F
:10152000009739F10197E1F18DE79EE0DF91CF91CE
:101530001F910F91FF90EF90DF90CF90A8CA843059
:10154000910509F49AC00CF472C0059769F780916F
:1015500061089091620801979093620880936108F6
:10156000181619060CF49DC010925F0810925E08C0
:1015700012C0809161089091620801969093620870
:10158000809361084A970CF461C081E090E09093E9
:101590005F0880935E081092620810926108C4CFC1
:1015A00080916108909162080196909362088093FF
:1015B00061080C9714F182E090E090935F088093AB
:1015C0005E088CE090E09093620880936108ACCF55
:1015D00080916108909162080197909362088093CE
:1015E0006108181619064CF083E090E090935F08AC
:1015F00080935E0889E190E0E6CFC0916C0ED091B7
:101600006D0EE881F981C4A0D5A06BDA4091610824
:101610005091620806E110E0041B150B7C0130E0DC
:1016200020E069E170E0CE01F60109957DCF80915F
:101630006108909162080197909362088093610815
:10164000181619061CF084E090E0A1CFC0916C0E32
:10165000D0916D0EE881F981C4A0D5A042DA6091E5
:1016600061087091620829E130E0261B370B7C018C
:1016700006E110E050E040E0D6CF80916108909103
:101680006208019690936208809361080B974CF072
:1016900085E090E090935F0880935E088AE090E098
:1016A00092CFC0916C0ED0916D0EE881F981C4A0EB
:1016B000D5A017DA409161085091620806E110E068
:1016C000041B150B7C0129E130E070E060E0ABCF3A
:1016D000CF92DF92EF92FF920F931F93CF93DF93FE
:1016E0008C01C62F80916A0881110EC061E08DE7E0
:1016F0009EE00E94BD251093070100930601C09350
:10170000690881E080936A0860E08DE79EE00E94AE
:10171000BD2580916008E0916108F0916208811117
:1017200008C1E930F10528F5E856F44F0C94C433AC
:10173000A10BD30BEC0B050C1E0C370C4F0C680CDB
:10174000810CCDE1D6E009EB16E0E990F990B0D933
:10175000D82EAED9C82EACD9F701EE0FFF1FEE0D73
:10176000FF1DE258F74F8083C182D2820C171D07FC
:1017700061F78DE79EE08BD98091610890916208B6
:101780000196909362088093610809971CF081E0AC
:1017900080936008DF91CF911F910F91FF90EF90A0
:1017A000DF90CF900895C1E9D5E00DE116E0E99012
:1017B000F9907ED9D82E7CD9C82E7AD9F701EE0FB0
:1017C000FF1FEE0DFF1DE258F74F8083C182D282CA
:1017D0000C171D0761F7CDCFC5E2D5E001E915E093
:1017E000E990F99065D9D82E63D9C82E61D9F7014F
:1017F000EE0FFF1FEE0DFF1DE258F74F8083C182F1
:10180000D2820C171D0761F7B4CFCBEDD4E005E20F
:1018100015E0E990F9904CD9D82E4AD9C82E48D96C
:10182000F701EE0FFF1FEE0DFF1DE258F74F80830B
:10183000C182D2820C171D0761F79BCFCBE9D4E0A0
:101840000BED14E0E990F99033D9D82E31D9C82E98
:101850002FD9F701EE0FFF1FEE0DFF1DE258F74FD6
:101860008083C182D2820C171D0761F782CFCFE53A
:10187000D4E0099119911CD9F82E1AD9E82E18D95B
:10188000F801EE0FFF1FE00FF11FE258F74F8083C2
:10189000E182F28284E0CB39D80759F76ACFC9E2F6
:1018A000D4E00FE514E0E990F99002D9D82E00D9E0
:1018B000C82EFED8F701EE0FFF1FEE0DFF1DE258F8
:1018C000F74F8083C182D2820C171D0761F751CF79
:1018D000C5EFD3E009E214E0E990F990E9D8D82EF9
:1018E000E7D8C82EE5D8F701EE0FFF1FEE0DFF1D5C
:1018F000E258F74F8083C182D2820C171D0761F72F
:1019000038CFC5ECD3E009911991D2D8F82ED0D8B0
:10191000E82ECED8F801EE0FFF1FE00FF11FE258BE
:10192000F74F8083E182F28283E0C53FD80759F701
:1019300020CFE930F10520F5E056F34F0C94C43385
:10194000A90CD30CEB0C030D1B0D330D4B0D630DCC
:101950007E0DCDE1D6E009911991AAD8F82EA8D82C
:10196000E82EA6D8F801EE0FFF1FE00FF11FE25896
:10197000F74F8083E182F28286E0C93BD80759F7AE
:101980008DE79EE084D8809161089091620801976C
:101990009093620880936108181619060CF4FACE29
:1019A00010926008F7CEC1E9D5E00991199180D86D
:1019B000F82E7ED8E82E7CD8F801EE0FFF1FE00F3E
:1019C000F11FE258F74F8083E182F28286E0CD3149
:1019D000D80759F7D5CFC5E2D5E00991199168D854
:1019E000F82E66D8E82E64D8F801EE0FFF1FE00F3E
:1019F000F11FE258F74F8083E182F28285E0C1391E
:101A0000D80759F7BDCFCBEDD4E00991199150D843
:101A1000F82E4ED8E82E4CD8F801EE0FFF1FE00F3D
:101A2000F11FE258F74F8083E182F28285E0C532F0
:101A3000D80759F7A5CFCBE9D4E00991199138D847
:101A4000F82E36D8E82E34D8F801EE0FFF1FE00F3D
:101A5000F11FE258F74F8083E182F28284E0CB3DB0
:101A6000D80759F78DCFCFE5D4E00991199120D847
:101A7000F82E1ED8E82E1CD8F801EE0FFF1FE00F3D
:101A8000F11FE258F74F8083E182F28284E0CB3984
:101A9000D80759F775CFC9E2D4E00991199108D850
:101AA000F82E06D8E82E04D8F801EE0FFF1FE00F3D
:101AB000F11FE258F74F8083E182F28284E0CF3554
:101AC000D80759F75DCFC5EFD3E0099119910E946E
:101AD0005805F82E0E945805E82E0E945805F80176
:101AE000EE0FFF1FE00FF11FE258F74F8083E182F6
:101AF000F28284E0C932D80741F742CFC5ECD3E087
:101B0000099119910E945805F82E0E945805E82E57
:101B10000E945805F801EE0FFF1FE00FF11FE25879
:101B2000F74F8083E182F28283E0C53FD80741F717
:101B300027CFCF92DF92FF920F931F93CF93DF9324
:101B40008C016B01EA01F22E80916A0881111AC0A2
:101B500061E08DE79EE00E94BD25D0920701C09212
:101B60000601F092690881E080936A0884E690E0BB
:101B7000909371088093700887E190E0909305013D
:101B800080930401809170089091710884369105CA
:101B900008F45EC0109271081092700885E080937E
:101BA0007D0E80916C0E90916D0E0E944F0580917C
:101BB0006C0E90916D0EDC0156961C9261E00E94B5
:101BC0009C2080916C0E90916D0EDC01ED91FC914A
:101BD000008CF18DE02D60E00995809104019091D9
:101BE00005010197863ABFEF9B077CF190930501B1
:101BF000809304010E94CD3180916C0E90916D0E06
:101C00000E944F05E0916C0EF0916D0E80910401E1
:101C100090910501948783878DE090E09687858772
:101C2000D28BC18BD08BC787B801CF010E941E2EEB
:101C300080916C0E90916D0EDF91CF911F910F915D
:101C4000FF90DF90CF900C94BB2087E190E0CECF47
:101C5000DF91CF911F910F91FF90DF90CF9008956A
:101C60008F929F92AF92BF92CF92DF92EF920F939B
:101C70001F93CF93DF93EC015B016A0149018091CF
:101C80006A08811116C061E08DE79EE00E94BD25C3
:101C90009092070180920601E092690881E08093AA
:101CA0006A081092260810922508D0927108C092F6
:101CB000700880917008909171088C159D0508F44A
:101CC0005BC0109271081092700880912508909165
:101CD0002608A816B9060CF44FC085E080937D0E47
:101CE00080916C0E90916D0E0E944F0580916C0E4C
:101CF00090916D0EDC0156961C9261E00E949C2032
:101D000080916C0E90916D0EDC01ED91FC91008C38
:101D1000F18DE02D60E009950E94CD31E0916C0ECF
:101D2000F0916D0E82E090E0948783878DE090E0E3
:101D300096878587128B018B108B078780912508EA
:101D40009091260827E0289FB001299F700D11244B
:101D50006C0F7D1FCF010E941E2E80916C0E909102
:101D60006D0E0E94BB208091250890912608019657
:101D70009093260880932508DF91CF911F910F91B2
:101D8000EF90DF90CF90BF90AF909F908F9008958D
:101D9000DF92EF92FF920F931F93CF93DF9300D0C8
:101DA0001F92CDB7DEB7D82E8EE7E82E88E0F82E4A
:101DB00000912C0810912D0825E04D2D6EE278E061
:101DC000CE0101960E9444238981F70180838A8194
:101DD00081838B818283F3E0DF0E83E0E80EF11CC8
:101DE000E0ECEE16EBE0FE0619F70F900F900F9067
:101DF000DF91CF911F910F91FF90EF90DF900895A9
:101E0000CF93DF9300D01F92CDB7DEB719821A822D
:101E10001B82AE014F5F5F4F60E170E08EE298E0A1
:101E20000E942F23EEE2F8E08FEF8083818382838C
:101E3000848785878687808F818F828F84A385A3FF
:101E400086A30F900F900F90DF91CF9108950F937D
:101E50001F93CF938C01C42F80916A08811113C006
:101E600061E08DE79EE00E94BD251093070100937D
:101E70000601C093690881E080936A08C1DF10926F
:101E80002D0810922C0880916108909162080196AB
:101E900090936208809361087BDF8DE79EE0CF918D
:101EA0001F910F910C944705109290008BE0809346
:101EB00091008AE698E1909399008093980082E0DF
:101EC0008093710008951F920F920FB60F92112404
:101ED0002F933F938F939F938091700890917108F7
:101EE0004996909371088093700880916C08909146
:101EF0006D08499690936D0880936C0880916E08E8
:101F000090916F08499690936F0880936E0891E0C6
:101F100090936B088BB120E482278BB920916C08D9
:101F200030916D08283E334030F010926D081092C9
:101F30006C089093670820916E0830916F0880912B
:101F400006019091070128173907C0F080916908B0
:101F500080936808109271081092700810926F08B0
:101F600010926E08109262081092610887E190E06A
:101F7000909305018093040110926A089F918F91BC
:101F80003F912F910F900FBE0F901F9018951092B8
:101F900071081092700810926F0810926E081092DB
:101FA00028081092270810922408109223081092F3
:101FB0002208109262081092610880937D081092A6
:101FC000680810926A0867E171E08DE09FE00E9466
:101FD00004058DE09FE00C94732EAF92BF92CF92D8
:101FE000DF92EF92FF920F931F93CF93DF9368EEF0
:101FF00073E080E090E00E943A2A4FEF60E470E0E6
:1020000088E99EE00E941D2D569A88E20E94A2282F
:10201000BC01990F880B990B1F921F921F9228E702
:102020002F93A12CB12C6501EE24EA9413E0F12E3C
:1020300000E010E020E030E0A9010E94E43060936D
:10204000740882E391E00E94E72DEC010AE027E1A9
:1020500030E046E150E06EE778E00E949E20D093A9
:102060006D0EC0936C0E809199070F900F900F909A
:102070000F9081114DC089E997E00E94E82D892BCE
:1020800009F446C01092A4071092A3078FEF809323
:10209000A7078093A8078093A9078093AA07809336
:1020A000AB078093AC0781E08093AD071092AF0738
:1020B0001092AE071092A6071092A50780917B0E92
:1020C00090917C0E892B31F481EA97E090937C0EFD
:1020D00080937B0EE091790EF0917A0E309721F08B
:1020E00081EA97E09583848381EA97E090937A0E62
:1020F0008093790E1092B1071092B00787E693E0B3
:102100009093A2078093A10789E997E00E94F12D9F
:1021100030E020E04AEF51E06EE778E081EA97E0B6
:102120000E941326FC018FEF868380EB878380EF6C
:10213000808780916C0E90916D0E0E941521809188
:102140006C0E90916D0E25E020937D0EFC01168A99
:1021500069E074E00E942923F894A6DE789468EF81
:1021600075E08EE298E00E942C0581E090E090936B
:102170002D0880932C0880E0DF91CF911F910F9163
:10218000FF90EF90DF90CF90BF90AF9000CFEF9295
:10219000FF920F931F93CF93DF9300D000D000D016
:1021A0001F92CDB7DEB780916808863009F47CC0F5
:1021B00018F5823009F44CC090F48823D9F18130AD
:1021C00009F43EC027960FB6F894DEBF0FBECDBF10
:1021D000DF91CF911F910F91FF90EF900895843080
:1021E00009F45CC008F445C040ED57E066E088E9BA
:1021F0009AE30E947606E6CF893009F468C058F465
:10220000873009F45CC08830E9F669E088E99AE330
:102210000E943606D7CF8B3009F463C008F45CC047
:10222000843681F660E08DE79EE00E94BD2580E067
:10223000AEDEC8CF42E060E088E893E108DEC2CFBE
:1022400042E060EA7FE088E99AE30E94DA07BACFC9
:102250000E9458057C010E9458058C010E94580577
:102260009C0142E350E063E088E893E10E94DB06D2
:10227000A9CF0E9471058C0168E271E0CE01019640
:102280000E948C3124E0A80160E375E7CE0101963D
:1022900050DCCE0101960E94233194CF65E088E99D
:1022A0009AE30E9438078ECFEE24EA94F12C0FEFC8
:1022B00010E02FEF30E042E350E067E0D5CF48EE8A
:1022C00053E068E088E99AE30E944D097BCF6AE019
:1022D00080E197E2FDD976CF6BE080E197E2F6D816
:1022E00071CF44EF51E064E688E99AE34BD86ACFB6
:1022F000EF92FF920F931F9380916808863009F444
:1023000065C0E8F4823009F452C050F48823E9F142
:10231000813009F443C01F910F91FF90EF90089511
:10232000843009F448C064E0853080F166E080E3E1
:1023300095E71F910F91FF90EF900C94360689302E
:1023400009F45CC080F4873009F449C049EA51E0DF
:1023500069E0883001F782E890E61F910F91FF90C5
:10236000EF900C9476068B3009F45BC008F44AC0F9
:10237000843689F660E08DE79EE00E94BD2580E00E
:102380001F910F91FF90EF9002CE61E086E297E3FC
:102390001F910F91FF90EF900C94270962E08BE45E
:1023A0009EE61F910F91FF90EF900C94380749EA39
:1023B00051E063E0D0CF49EA51E065E08BE49EE66E
:1023C0001F910F91FF90EF900C94C20967E08BE48E
:1023D0009EE61F910F91FF90EF900C94A505EE24BF
:1023E000EA94F12C0FEF10E02FEF30E04BE450E0D7
:1023F00068E089EC9DE00E94DB068DCF6AE088EB07
:1024000092E597CF0E9458057C010E9458058C01E7
:102410000E9458059C014BE450E06BE086E297E394
:10242000EACF64E68FEF9FEFD4CFEF92FF920F9346
:102430001F9380916808873309F4D2C008F040C028
:10244000893109F4B0C018F58A3009F49AC058F4FB
:10245000882309F482C0853009F488C01F910F9148
:10246000FF90EF9008958F3009F494C08431B1F754
:102470000E94710559E1E52E8C0126E337E045E421
:1024800051E066E070E082EB97E0EADBE7CF88326C
:1024900009F4A0C058F48E3109F48BC08332F1F6F0
:1024A00042EC51E068E281EB99E365C08D3209F4BA
:1024B00093C0823399F60E94710547E3E42EDCCF86
:1024C0008B3409F4BDC028F58C3309F4A1C060F445
:1024D000883309F490C08A3309F0C0CF42EC51E050
:1024E0006CE381EB99E381C0813409F49CC08634AC
:1024F00009F0B4CF0E9458057C010E9458058C0158
:102500000E9458059C0142E350E06BE480E797E1AC
:102510005EC08A3509F4A7C078F4803509F496C006
:10252000853509F09BCF6AE582E693E71F910F910D
:10253000FF90EF900C9436068F3509F49AC08436DC
:1025400009F08CCF60E08DE79EE00E94BD2580E021
:102550001F910F91FF90EF901ACD65E084E59FE405
:102560001F910F91FF90EF900C94A5054DE953E05A
:102570006AE089ED9CE11F910F91FF90EF900C9420
:102580004D096FE082E693E71F910F91FF90EF9066
:102590000C94380764E187EE90E41F910F91FF904F
:1025A000EF900C942B0942EC51E06EE18BE792E343
:1025B000E2CF0E9458057C010E9458058C010E94C0
:1025C00058059C0142E350E063E286E397E00E94F5
:1025D000DB0644CF6DE2D6CF62E38BE792E3DDCF3B
:1025E00042EC51E068E38BE792E31F910F91FF907B
:1025F000EF900C94C2090E9458057C010E94580576
:102600008C010E9458059C0142E350E06AE3DDCF53
:1026100041E46AE377E086E89DE41F910F91FF9023
:10262000EF900C94DA07EE24EA94F12C0FEF10E00F
:102630002FEF30E042E350E066E48CE69EE0C7CF47
:1026400040E56AE377E081EB99E3E7CF0E94580524
:102650007C010E9458058C010E9458059C0142E3B0
:1026600050E065E5EACF42EC51E06FE587EC9FE68C
:1026700082CF0E94710529E0E22E8C0120E63AEE1D
:1026800045E451E064E670E0FECEEF92FF920F93D6
:102690001F9380916808863009F475C018F5823060
:1026A00009F45AC058F4882309F440C0813009F471
:1026B00048C01F910F91FF90EF900895843009F466
:1026C0005CC008F454C00E94710526E0E22E8C0123
:1026D0002BE236E14BED51E06AE070E08CED97E0E3
:1026E000BFDAE7CF8A3009F46EC070F4883009F49D
:1026F00064C008F453C06AE080EB9DE11F910F9124
:10270000FF90EF900C9436068C3009F471C008F4F9
:1027100060C0843671F660E08DE79EE00E94BD25C2
:1027200080E01F910F91FF90EF9031CC46EB53E08A
:1027300061E08BE097E71F910F91FF90EF900C9471
:102740004D094BED51E062E084E892EB1F910F914F
:10275000FF90EF900C94C20946EB53E063E08BE0EE
:1027600097E71F910F91FF90EF900C94760646EB40
:1027700053E064E089E79BE3DECF4BED51E065E099
:102780008BE097E7E3CF47E06CE677E087EC90E6F5
:102790001F910F91FF90EF900C94DA07EE24EA94CA
:1027A000F12C0FEF10E02FEF30E04BE450E068E049
:1027B00089E79BE30E94DB067CCF48EB53E069E0AE
:1027C00089E79BE3CECF46EB53E06BE080EB9DE1E6
:1027D000C8CF0E9458057C010E9458058C010E94B8
:1027E00058059C014BE450E06CE080EB9DE1E2CFAA
:1027F00064E68FEF9FEF1F910F91FF90EF900C9485
:10280000A505EF92FF920F931F9380916808833282
:1028100009F486C090F58F3009F471C088F48530D2
:1028200009F459C08A3009F461C0811121C065E002
:102830008AE89EE51F910F91FF90EF900C94380766
:10284000893109F467C08E3109F468C0843181F49C
:102850000E9458057C010E9458058C010E94580571
:102860009C014BE450E069E186E09FE30E94DB06B7
:102870001F910F91FF90EF900895873309F461C085
:10288000A8F48D3209F450C0823309F451C0883263
:1028900079F70E9458057C010E9458058C010E941E
:1028A00058059C014BE450E06DE2DECF863409F41C
:1028B0004CC0843609F452C08C33D1F60E945805BE
:1028C0007C010E9458058C010E9458059C014BE434
:1028D00050E066E4C9CF44EF51E06AE086E09FE350
:1028E0001F910F91FF90EF900C944D096FE086E0DF
:1028F0009FE31F910F91FF90EF900C94660A44EFB5
:1029000051E064E186E09FE31F910F91FF90EF900B
:102910000C94760644EF51E06EE1E0CF63E2E7CF3E
:1029200044EF51E068E2EECF62E383E89FE182CFBB
:1029300067E386E09FE31F910F91FF90EF900C9467
:10294000360644EF51E06CE3DDCF64E680E197E2C8
:102950001F910F91FF90EF900C942B0960E08DE791
:102960009EE00E94BD2580E01F910F91FF90EF90A7
:102970000ECB9F92AF92BF92CF92DF92EF92FF92D7
:102980000F931F93CF93DF93FC01C080D18028B1B8
:10299000B22E6894B2F898B19B7F98B9628587810E
:1029A000062F081B802F07837785A281B381358589
:1029B0004485568599249394930E4F5F5F5FF6800C
:1029C000E084C185D385F6011181A12C0A2D2A2D21
:1029D0003A2D3181112788943111380F08F43FEFD7
:1029E0008195889490FC130F1795889491FC130F90
:1029F0001795889492FC130F1795889493FC130FE6
:102A00001795889494FC130F1795889495FC130FD1
:102A10001795889496FC130F1795889497FC130FBD
:102A200017958894032F9110012F860F102F002CDB
:102A3000B8B800C017FF98B930810027889400C04B
:102A400000C0002C98B931113F0D00C0002CB8B85F
:102A500000C016FF98B908F43FEFF194889400C0C5
:102A600000C0002C98B940FD030F00C0002CB8B87E
:102A700000C015FF98B90795889441FD030F00C069
:102A800000C0002C98B90795889400C0002CB8B8F5
:102A900000C014FF98B942FD030F0795889400C049
:102AA00000C0002C98B943FD030F00C0002CB8B83B
:102AB00000C013FF98B90795889444FD030F00C028
:102AC00000C0002C98B90795889400C0002CB8B8B5
:102AD00000C012FF98B945FD030F0795889400C008
:102AE00000C0002C98B946FD030F00C0002CB8B8F8
:102AF00000C011FF98B90795889447FD030F00C0E7
:102B000000C0002C98B90795889400C0002CB8B874
:102B100000C010FF98B9132F4111102FFC0E00C0F8
:102B200000C0002C98B900C000C0002CB8B800C08C
:102B300017FF98B932810027889400C000C0002C8C
:102B400098B931113E0D00C0002CB8B800C016FF76
:102B500098B908F43FEFE70FF11D00C000C0002C4A
:102B600098B950FD030F00C0002CB8B800C015FF85
:102B700098B90795889451FD030F00C000C0002C40
:102B800098B90795889400C0002CB8B800C014FF0D
:102B900098B952FD030F0795889400C000C0002C1F
:102BA00098B953FD030F00C0002CB8B800C013FF44
:102BB00098B90795889454FD030F00C000C0002CFD
:102BC00098B90795889400C0002CB8B800C012FFCF
:102BD00098B955FD030F0795889400C000C0002CDC
:102BE00098B956FD030F00C0002CB8B800C011FF03
:102BF00098B90795889457FD030F00C000C0002CBA
:102C000098B90795889400C0002CB8B800C010FF90
:102C100098B9132F5111102FE19400C000C0002C5F
:102C200098B9ED0E00C000C0B8B800C017FF98B941
:102C300031810027889400C000C0002C98B9311160
:102C4000380F00C0002CB8B800C016FF98B908F4BF
:102C50003FEF8195889400C000C0002C98B990FC8B
:102C6000030F00C0002CB8B800C015FF98B9079535
:102C7000889491FC030F00C000C0002C98B9079500
:102C8000889400C0002CB8B800C014FF98B992FC1A
:102C9000030F0795889400C000C0002C98B993FCDE
:102CA000030F00C0002CB8B800C013FF98B90795F7
:102CB000889494FC030F00C000C0002C98B90795BD
:102CC000889400C0002CB8B800C012FF98B995FCD9
:102CD000030F0795889400C000C0002C98B996FC9B
:102CE000030F00C0002CB8B800C011FF98B90795B9
:102CF000889497FC030F00C000C0002C98B907957A
:102D0000889400C0002CB8B800C010FF98B9132FE9
:102D10009110102F860F00C000C0002C98B9119799
:102D200009F086CEDF91CF911F910F91FF90EF9028
:102D3000DF90CF90BF90AF909F9008950F931F9317
:102D4000CF93DF93EC018B010E945A2A2F8538899B
:102D5000621B730B6A307105B8F3F894C80109DE81
:102D6000F8014281538120EE31E0DA010E94DC3328
:102D7000DC01CB01F4E0B695A79597958795FA9578
:102D8000D1F730E020E0B901EAE94E9F040E611D61
:102D90005E9F600D711D1124650F711D860F971FB9
:102DA000A11DB11D893EF3E09F07A105B10508F4FF
:102DB00034C0885E9340A109B10942E0B695A79559
:102DC000979587954A95D1F747E0849F080E211D76
:102DD000949F200D311D1124290F311D60916E0E1D
:102DE00070E0860F971F820F931F40918D0E5091B8
:102DF0008E0E60918F0E7091900E292F3327420F07
:102E0000531F611D711D40938D0E50938E0E609364
:102E10008F0E7093900E80936E0E78940E945A2AB3
:102E2000788B6F87DF91CF911F910F9108950F934A
:102E30001F93CF93DF93209198072F5F322F377026
:102E40003093980720FF2BC020E831FD20643470B8
:102E500009F02062205FFC01EC01239600E011E004
:102E60006485662329F070E0C8010E9473336F5FA8
:102E70006187322F369F030E30E0311D112431114E
:102E800010C01682662311F0615061873196EC17ED
:102E9000FD0731F7DF91CF911F910F91089520E049
:102EA000D4CF31503683EECF0F931F93CF93DF9360
:102EB000CDB7DEB762970FB6F894DEBF0FBECDBFB9
:102EC0008C01F901DC011C968C917A8369835C8307
:102ED0004B835E834D8390819D8791819E879281F4
:102EE0009F878130E1F4CE010196A1DF188A1A8A0A
:102EF000198AD801ED91FC910484F585E02DBE017D
:102F00006F5F7F4FC801099562960FB6F894DEBFD8
:102F10000FBECDBFDF91CF911F910F9108951C86F9
:102F20001B861A86198618861F82E0CF0F931F937F
:102F3000CF93DF93CDB7DEB762970FB6F894DEBFBD
:102F40000FBECDBF8C01F901DC011C968C917A83F8
:102F500069835C834B835E834D8390819D879181E0
:102F60009E8792819F878130E9F4CE0101965FDFD1
:102F700083E0888B1A8A198AD801ED91FC91048428
:102F8000F585E02DBE016F5F7F4FC8010995629600
:102F90000FB6F894DEBF0FBECDBFDF91CF911F916A
:102FA0000F9108951C861B861A86198618861F8223
:102FB000DFCF0FB6F89480918D0E90918E0EA09178
:102FC0008F0EB091900E0FBE9093640880936308AB
:102FD0000E94580580932B080E94580580932A0868
:102FE0000E945805809329086FEB73E08CED97E001
:102FF0000E948C316AEB73E083EE97E00E948C3183
:1030000068EB73E08AEE97E00E948C3165EB73E029
:1030100081EF97E00E948C3160EB73E088EF97E0DE
:103020000E948C316CEA73E08FEF97E00E948C3144
:1030300066EA73E086E098E00E948C3163EA73E010
:103040008DE098E00E948C316EE973E084E198E0B5
:103050000E948C3169E973E08BE198E00E948C3129
:1030600064E973E082EB97E00E948C316DE873E0D5
:1030700089EB97E00E948C3164E873E080EC97E084
:103080000E948C3160E873E087EC97E00E948C31FD
:103090006CE773E08EEC97E00E948C3165E773E09B
:1030A00085ED97E00C948C31CF93DF93CCEDD7E096
:1030B0002797CE010E94233187E0C23BD807C1F792
:1030C000C2E2D8E02797CE010E94233187E0CC3DB1
:1030D000D807C1F7DF91CF91089588E99EE00E945B
:1030E000872C892BD9F088E99EE00E94BA2C809326
:1030F0007808682F8DE09FE00E941B05609178089A
:103100006F3F61F067FF11C06093770810927608F7
:10311000109275088DE09FE00E941B0588E99EE0F3
:103120000E94872C892BC9F6089580917608811119
:1031300037C060937608609177088DE09FE00E9429
:10314000140566E371E08DE09FE00E941305609135
:1031500076088DE09FE00E94140566E371E08DE043
:103160009FE00E941305609175088DE09FE00E942A
:103170001B0580917708893B89F680917608863116
:1031800069F680917508882349F20E94C70F68E3A9
:1031900071E08DE09FE00E94130560917508BACF41
:1031A000809175088111C7CF60937508C4CF8F9245
:1031B0009F92AF92BF92CF92DF92EF92FF920F93C6
:1031C0001F93CF9380916508882341F06091660832
:1031D0008DE09FE00E941B051092650880916708B2
:1031E000882339F0809172088F5F80937208109263
:1031F000670880917208882309F446C0C09174085A
:103200001092720888E20E94A228BC01990F880BD4
:10321000990B1F921F921F9228E72F93A12CB12C7C
:103220006501EE24EA9413E0F12E00E010E020E0C6
:1032300030E0A9010E94E4304B015C016C2F70E08A
:1032400090E080E00E94613223E333E343E35FE3F5
:103250000E94ED326B017C01C501B4010E94613214
:103260002AE939E949E95EE30E94ED329B01AC01AC
:10327000C701B6010E94CF310E94333260937408B7
:103280000F900F900F900F9080917408873670F117
:1032900024DF80916B08882371F085E080937D0E98
:1032A00080917D088230F1F090F48823B1F0813074
:1032B000B9F010926B08CF911F910F91FF90EF9092
:1032C000DF90CF90BF90AF909F908F900895833004
:1032D00059F0843071F795DAECCF0E94C710E9CF2E
:1032E00007D8E7CFA2D8E5CFD0D9E3CF60E08DE70C
:1032F0009EE00E94BD258DE79EE00E94470564EF99
:1033000071E080E090E00E943A2A85E080937D0E93
:103310008FEF80937E0810927F08109280088DE7CF
:103320009EE00E94470564EF71E080E090E0CF915D
:103330001F910F91FF90EF90DF90CF90BF90AF90D3
:103340009F908F900C943A2A90E080E00895089521
:103350002F923F924F925F926F927F928F929F92A5
:10336000AF92BF92CF92DF92EF92FF920F931F9393
:10337000CF93DF9300D000D000D0CDB7DEB73C01B3
:103380006A013E832D83FC82EB825801A41AB50AA0
:10339000B7FE03C0B194A194B1088D809E80861AB7
:1033A000970A97FE03C09194819491088A149B0414
:1033B0005CF0902F812F0D811E819D838E839C2D2B
:1033C0008D2D6B01692F782F0C151D055CF09D81EB
:1033D0008E817E836D83692F782F902F812F8601B8
:1033E000C92ED82E1601201A310A2B012D813E81BB
:1033F000421A530A57FE03C0519441945108710177
:1034000037FE03C03FEFE31AF30AF594E7948D818A
:103410009E81861797075CF5A1E0B0E0BA83A98387
:10342000C016D1064CF1D301ED91FC910484F585D1
:10343000E02D2B813C81A8016D817E818A149B0443
:103440001CF04D815E81B801C3010995E418F508AF
:10345000F7FE0AC02D813E8189819A81280F391F8C
:103460003E832D83E20CF31C0F5F1F4FD9CF2FEF4C
:103470003FEF3A832983D4CF26960FB6F894DEBF68
:103480000FBECDBFDF91CF911F910F91FF90EF90B5
:10349000DF90CF90BF90AF909F908F907F906F9074
:1034A0005F904F903F902F9008950895DC01ED912B
:1034B000FC910084F185E02D09940F931F93DC01AA
:1034C000ED91FC91048CF58DE02D09951F910F91E4
:1034D00008950F931F93DC01ED91FC91068CF78DFD
:1034E000E02D09951F910F910895EF92FF920F9390
:1034F0001F93DC01ED91FC9100A0F1A1E02D099555
:103500001F910F91FF90EF9008958F929F92AF922D
:10351000BF92CF92DF92EF92FF920F931F93CF93C0
:10352000DF93EC015B014A0169017801E881F981CF
:103530000284F385E02D0995C80CD91C8601015041
:103540001109E881F9810488F589E02D9501A4012C
:10355000B501CE010995E881F9810688F789E02D4A
:10356000CE01DF91CF911F910F91FF90EF90DF90EF
:10357000CF90BF90AF909F908F9009948F929F9221
:10358000AF92BF92CF92DF92EF92FF920F931F9371
:10359000CF93DF93EC015B014A016901E881F98176
:1035A0000284F385E02D099595012C0D3D1D2150D8
:1035B0003109E881F9810488F589E02D78018401D9
:1035C000A401B501CE010995E881F9810688F78942
:1035D000E02DCE01DF91CF911F910F91FF90EF90E1
:1035E000DF90CF90BF90AF909F908F9009944F92B3
:1035F0005F926F927F928F929F92AF92BF92CF9283
:10360000DF92EF92FF920F931F93CF93DF936C01A2
:103610002B015A0139014801DC01ED91FC91028432
:10362000F385E02D0995E201640C751CD601ED913E
:10363000FC91C615D7055CF40088F189E02D87015F
:103640009401A501BE01C60109952196EFCF068818
:10365000F789E02DC601DF91CF911F910F91FF9067
:10366000EF90DF90CF90BF90AF909F908F907F9022
:103670006F905F904F900994EF92FF920F931F937A
:10368000DC0119960D911C911A9717962D913C917A
:103690001897ED91FC9100A0F1A1E02D7B0150E085
:1036A00040E070E060E009951F910F91FF90EF906E
:1036B00008956F927F928F929F92AF92BF92CF9216
:1036C000DF92EF92FF920F931F93CF93DF93EC0162
:1036D0006B015A0139014801E881F9810284F385BF
:1036E000E02D0995E881F9810288F389E02D8701B1
:1036F0009301A501B601CE010995A501480D591DFB
:1037000041505109E881F9810288F389E02D930144
:10371000B601CE010995E881F9810088F189E02D93
:103720009401A501B601CE010995C60CD71CB601BE
:1037300061507109E881F9810088F189E02D9401D7
:10374000A501CE010995E881F9810688F789E02D68
:10375000CE01DF91CF911F910F91FF90EF90DF90FD
:10376000CF90BF90AF909F908F907F906F90099473
:1037700008956F927F928F929F92AF92BF92CF9255
:10378000DF92EF92FF920F931F93CF93DF935C0131
:10379000EB016A01490138018701DC01ED91FC91DF
:1037A0006217730719F5641675062CF0962D872D90
:1037B0003A01C92ED82E9601261937092F5F3F4F9F
:1037C000048CF58DE02DA301BE01C5010995DF91A3
:1037D000CF911F910F91FF90EF90DF90CF90BF900E
:1037E000AF909F908F907F906F90089546155705EA
:1037F00091F42617370724F0892D4B01C22FD82FBB
:103800009E01281939092F5F3F4F068CF78DE02D57
:10381000A601B401DACF0284F385E02D0995D50124
:10382000ED91FC910488F589E02D83019401A601B6
:10383000BE01C5010995D501ED91FC910688F78976
:10384000E02DC501DF91CF911F910F91FF90EF9077
:10385000DF90CF90BF90AF909F908F907F906F90B0
:103860000994FC016370658B838194812581368185
:10387000613039F0633029F0908787833287218760
:10388000089530872783928781870895FC011282EB
:103890008DEB96E0918380837483638356834583A5
:1038A0007087678352874187158A14861386168628
:1038B000158681E0848B838B2FEF3FEF328B218B3A
:1038C000308B2787868B178A118E108E08952F9242
:1038D0003F924F925F926F927F928F929F92AF92A0
:1038E000BF92CF92DF92EF92FF920F931F93CF93ED
:1038F000DF93CDB7DEB72E970FB6F894DEBF0FBEBD
:10390000CDBF5C012B015C834B833E872D87FE82FC
:10391000ED82160181E090E04C01821A930AC90100
:103920009195819591099C01220F331F3A83298338
:10393000C701019698878F83F12CE12C662463944C
:10394000712C902F9170998702700A87DA01119675
:10395000BC87AB872D853E85E216F3060CF08DC043
:10396000CD84DE8497FC0BC0690131E0C31AD10815
:1039700089819A8102969A838983880E991E9FEF86
:10398000E91AF90AA2E06A0E711C860C971CCE1483
:10399000DF04A4F1B985BB23B9F09601220F331FD0
:1039A0008F819885280F391FD501ED91FC910088F2
:1039B000F189E02D81014B815C814C195D09B201D7
:1039C0006E0D7F1DC5010995BA85BB23B9F096011F
:1039D000220F331F8F819885280F391FD501ED9154
:1039E000FC910088F189E02D81014B815C814C19AB
:1039F0005D09B2016E197F09C50109952D853E85C6
:103A00002C153D05B9F139853323C1F093012250BE
:103A100031098D819E81280F391FD501ED91FC91CF
:103A20000088F189E02D81014B855C854E195F0985
:103A30006D857E85640D751DC5010995BA85BB230D
:103A4000C9F09301225031098D819E81280F391FC1
:103A5000B201AD85BE856A1B7B0BD501ED91FC9152
:103A60000088F189E02D81014B855C854E195F0945
:103A7000C5010995DE86CD866DCF2E960FB6F894DA
:103A8000DEBF0FBECDBFDF91CF911F910F91FF9091
:103A9000EF90DF90CF90BF90AF909F908F907F90EE
:103AA0006F905F904F903F902F9008956F927F920C
:103AB0008F929F92AF92BF92CF92DF92EF92FF923E
:103AC0000F931F93CF93DF93EC014B013A01590100
:103AD0006801E881F9810284F385E02D099595015B
:103AE000220F331F2F5F3F4FA3014A195B09E88163
:103AF000F9810088F189E02DB401CE010995F12CFE
:103B0000E12C03E09501A301B401CE01E0DEE881E0
:103B1000F9810688F789E02DCE01DF91CF911F91C1
:103B20000F91FF90EF90DF90CF90BF90AF909F905C
:103B30008F907F906F9009942F923F924F925F9257
:103B40006F927F928F929F92AF92BF92CF92DF92AD
:103B5000EF92FF920F931F93CF93DF93CDB7DEB712
:103B60006A970FB6F894DEBF0FBECDBF9A8F898FCC
:103B70007A8369834A01D22E18870F833701BC2CC0
:103B8000DC0158962D913C9159972115310509F08A
:103B900015C117968D919C911897681779070CF0AD
:103BA000D7C119968D919C91481759070CF0D0C137
:103BB0004C2C512CB6E0CB9E600D711D11247C87DE
:103BC0006B87161617060CF0C3C1EA2DF0E0FA87D2
:103BD000E98793E0EE0FFF1F9A95E1F7F88BEF87E7
:103BE000CF01840F951F181619060CF0B1C1A98DCD
:103BF000BA8D57968C91811104C0BFEABD1508F4A7
:103C0000D394A98DBA8DED91FC9111970284F3851F
:103C1000E02DCD010995B5E0DB9EC0011124E981BD
:103C2000FA81FC83EB83312C212C9C0128563F4FD9
:103C3000388F2F8B4A2D50E05E8B4D8BEF89F88D9E
:103C4000E20DF31D44919E828D82D12CC12C69819D
:103C50007A81620D731D7A8B698B842F90E09C8B27
:103C60008B8BE98DFA8DA081B18140FF82C0F1E09C
:103C7000BF126FC0AF126DC01C96ED91FC912F81E9
:103C80003885A4014C0D5D1D69897A89898D9A8DCD
:103C90000995EB89FC89F595E7954E2F5FEFC51ADD
:103CA000D50A6D817E818D899E89680F791F7E83FB
:103CB0006D8398E0C916D10481F6AFEF2A1A3A0A4B
:103CC000EB81FC81E40DF51DFC83EB83F5E02F1601
:103CD000310409F0B3CF2F81388526153705B9F0A7
:103CE000A98DBA8DED91FC91B1E0BB1257C0AB121A
:103CF00055C069817A816B5F7F4F0088F189E02D23
:103D0000830128E030E0A401898D9A8D0995A98D61
:103D1000BA8DED91FC9111970688F789E02DCD01C0
:103D20006A960FB6F894DEBF0FBECDBFDF91CF917C
:103D30001F910F91FF90EF90DF90CF90BF90AF90C9
:103D40009F908F907F906F905F904F903F902F90BB
:103D500009941E96ED91FC91EF80F88409851A85EF
:103D600092014D815E816B817C81898D9A8D09954F
:103D700090CF2F8138852615370509F48ACF31E099
:103D8000B31207C0A31205C01C96ED91FC919301DC
:103D900078CF1E96ED91FC917301E0CF6B857C8509
:103DA000641975090684F785E02D73010F8518895C
:103DB0009201A401898D9A8D0995A9CFF9013496B4
:103DC0009491329745915491D91AB7E0DB9E400DFA
:103DD000511D1124F901259134913C8B2B8BFA0153
:103DE00025903490FA013296749031963491398B43
:103DF000329664903196449041E04C1518F04A1583
:103E000008F07FC0662D062C000C770B7C836B833B
:103E1000842D042C000C990B9E838D83A98DBA8D63
:103E2000ED91FC9111970284F385E02DCD01099568
:103E3000512CD12CC12CEA2DF0E0FA87E9872B2DEB
:103E400030E03C872B87A401440D511D47FC5A9557
:103E5000588F4F8B69817A81660D711D67FC7A9549
:103E60007E876D877989C71608F051CF2C2D30E0F9
:103E70004D815E81420F531FA985BA854A9FC001BB
:103E80004B9F900D5A9F900D1124FC01E80DF91DD8
:103E9000F88BEF87852D612C4F89588D420F531F6A
:103EA0005E8B4D8B671408F050C044244394480E39
:103EB000877041F4C1010196EB89FC89E20DF31D85
:103EC000D4901C01D7FE19C0A98DBA8DED91FC913B
:103ED000662D70E0B1E0BB1219C0AB1217C02D8582
:103EE0003E85620F731F0484F585E02D2F81388590
:103EF0004D895E89898D9A8D0995DD0C6394842D99
:103F0000D1CF1E821D821C821B8288CF4B815C8197
:103F1000640F751FAB85BC856A9FC0016B9F900DB8
:103F20007A9F900D112469817A81680F791F068428
:103F3000F785E02DEF80F88409851A859D014F856E
:103F40005889898D9A8D0995D8CF570CC3948ACFFB
:103F50006A960FB6F894DEBF0FBECDBFDF91CF914A
:103F60001F910F91FF90EF90DF90CF90BF90AF9097
:103F70009F908F907F906F905F904F903F902F9089
:103F800008958F929F92AF92CF92EF92FF920F93EC
:103F90001F93CF93DF93EC01262F888D998D009787
:103FA00009F050C06A30D1F41C861B868C8948E029
:103FB000849F900111248D859E85820F931F9E877B
:103FC0008D8781E090E0DF91CF911F910F91FF905D
:103FD000EF90CF90AF909F908F9008956D3089F3C0
:103FE000CB88AC888E898823C1F08B859C8536E090
:103FF000C39E800D911D11244F8158854817590784
:1040000064F44D855E851C861B8638E0A39EC00146
:104010001124840F951F9E878D87E988FA880F8564
:1040200018894D855E856B857C85CE0185DD2B8964
:104030008B859C8546E0249F800D911D11249C87D3
:104040008B87BFCF6A3069F41C861B86FC013696CD
:10405000E4912C898D859E85E29F800D911D112410
:10406000AECF6D3009F4ADCFFC01349634916317B7
:1040700008F4A7CF3196E491E61708F4A2CFFC012B
:10408000329685909490462F431B342F47E0349FFF
:10409000800C911C1124F401329634913196E491F4
:1040A0003323A1F1EE2391F1CB88F4013596E4910D
:1040B000AC884E89442301F10E2E000CFF0BE30F58
:1040C000F11DCE9EA001CF9E500D11246B857C85E5
:1040D000460F571F6F817885641775076CF44D85FF
:1040E0005E851C861B86FC013696E491AE9E400DD3
:1040F000511D11245E874D87E988FA880F8518893C
:104100004D855E856B857C85CE0116DDF401349688
:10411000E4912B898B859C85E29F800D911D112454
:104120008ECF611101C061E0FC01638B411101C0C0
:1041300041E0FC01448B0895462FF3CFFF920F938B
:104140001F93CF93DF93EC01F02E10E000E020D01E
:1041500089EE96E099838883FE01E65EFE4FF08249
:1041600031961082C45EDE4F1882DF91CF911F918D
:104170000F91FF9008958D5D9E4FDC01ED91FC91B4
:10418000309709F0099460917D0E8DE79EE0CDC3D4
:10419000AF92BF92CF92DF92EF92FF920F931F9355
:1041A000CF93DF93EC015B017A016901A901B701AB
:1041B0006DDB8CE497E099838883FE01E35EFE4F1C
:1041C000F182E0823296D182C082329680E197E21B
:1041D000918380833696118210823A9610823C97A2
:1041E000B182A08232971183008339971082319671
:1041F000108231961082C75DDE4FCE9CC001CF9CED
:10420000900DDE9C900D1124B0E0A0E0888399838E
:10421000AA83BB83DF91CF911F910F91FF90EF9005
:10422000DF90CF90BF90AF900895CF93DF93EC01D4
:1042300061E177E08DE09FE00E940405FE01E35E0E
:10424000FE4F4081518170E060E020E08DE09FE012
:104250000E948D2E60E377E08DE09FE00E940405D0
:10426000FE01E15EFE4F4081518170E060E020E0A0
:104270008DE09FE00E948D2E6AE377E08DE09FE065
:104280000E940405C75DDE4F488159816A817B81A8
:1042900020E08DE09FE00E948D2E8DE09FE0DF9179
:1042A000CF910C94732EFC01EF2FFF27E695E69536
:1042B000E695E852FA4F2491FC0135E0F695E79532
:1042C0003A95E1F7EF73FF27E856FA4F64918F7143
:1042D0009927FC01E852FA4FE49170E090E080E009
:1042E000982F872F762F6627822B6E2B08958F921B
:1042F0009F92AF92BF92CF92DF92EF92FF92CF93B5
:10430000DF93EC01CB01FE01EF5CFE4F2081222305
:1043100039F1349760817181828130E020E0C12CD5
:10432000D12C7601DE01A75DBE4FCB5DDE4F8D90B7
:104330009D90AD90BC901397C814D904EA04FB0477
:1043400088F4E881F981E20FF31F8083718362832F
:104350009FEFC91AD90AE90AF90A2D5F3F4FE7CF43
:10436000A2DFDBCFDF91CF91FF90EF90DF90CF9076
:10437000BF90AF909F908F9008956F927F929F9281
:10438000AF92BF92CF92DF92EF92FF920F931F9363
:10439000CF93DF93EC01CB018A0177FD0CC057FD71
:1043A0000AC02F813885621773072CF429853A8556
:1043B000421753079CF0C75DDE4F888199810197B2
:1043C000DF91CF911F910F91FF90EF90DF90CF90F1
:1043D000BF90AF909F907F906F9008952D8922306D
:1043E000D9F0233051F1213041F42B813C8121500F
:1043F0003109241B350B8B01C901FE01E95DFE4F1C
:104400000190F081E02D309709F1B801099550E055
:1044100040E0840F951FD4CF2B813C81215031097E
:10442000A901461B570BCA012D813E81215031093C
:10443000F901E01BF10B8F01E0CF2D813E8121506E
:104440003109261B370BCA018901D7CFFE01E65E71
:10445000FE4FD080FD2DF370CF2EFE01E55EFE4FA6
:10446000B08050E040E0BB2009F464C03296E080A8
:10447000F180B7010E945F339B01982EA92E3296DE
:1044800060807180C801B3010E945F33DB01582F47
:10449000492F892D9A2D052F142FD5FE06C04B2D9F
:1044A0004150550B421B530B9A01D4FE09C0AE017B
:1044B000445E5E4FFA0160816150770B6A1B7B0B93
:1044C000D6FC11C04B2D50E0B62FA72FB9012B2FD2
:1044D0003A2FD7FC0EC0249FD001259FB00D349FEA
:1044E000B00D112417C0DE01A45EBE4F4C9150E008
:1044F000F0CF20FFF0CFAD2DA095A370CA2E2F5F77
:104500003F4F249FD001259FB00D349FB00D112443
:10451000609570956A0F7B1FE69C9001E79C300DBB
:10452000F69C300D1124269FA001279F500D369F29
:10453000500D112498016C2D627059F0FE01E35E5C
:10454000FE4F6081718161507109FB01E81BF90B1D
:10455000CF01C0FE09C0FE01E15EFE4F2081318126
:1045600021503109201B310BD2FC13C0C35EDE4F3A
:1045700068817981F22FE32F9C018F2F9E2FD3FC2E
:104580000DC0869FF001879FF00D969FF00D1124BE
:1045900011C0C15EDE4F68817981F1CF80FFF1CF1C
:1045A0000196869FF001879FF00D969FF00D1124D4
:1045B00020953095CF01820F931F2BCF9F92AF9202
:1045C000BF92CF92DF92EF92FF920F931F93CF9300
:1045D000DF93EC0177FD2BC057FD29C08F819885B3
:1045E0006817790724F589859A8548175907FCF4D7
:1045F0006A017B01FE01EF5CFE4F8081882319F187
:104600003497B080A1809280FE01EB5DFE4F008167
:104610001181A601B701CE01B0DEFC01EE0FFF1F34
:10462000E80FF91FE00FF11F9082A182B282DF91A3
:10463000CF911F910F91FF90EF90DF90CF90BF909F
:10464000AF909F900895C9012EDEB62EA72E982E0A
:10465000DBCF895D9E4FFC01718360830895DA0191
:10466000FC0190E080E0861797076CF42C91208382
:1046700011962C911197218312962C9112972283D7
:1046800001963396F0CF08950F931F93CF93DF9346
:10469000FC01842F82958F704F70EB01A82FAA0F19
:1046A000A80FA60FB72FB11D442319F031E0012B3D
:1046B00009F430E06C9111965C91119712969C91DF
:1046C0001297332309F42AC08F3011F0ED0123969D
:1046D0004295407F742F7095679F060E60E0611DC4
:1046E0003881349F030E30E0311D630F579F050E54
:1046F00050E0511D3981349F030E30E0311D530FBE
:10470000392F379F030E30E0311D9A81792F749F26
:10471000070E70E0711D932F970F11242F3FC1F0EA
:104720002223F9F02F5F662321F0629F060E60E0DE
:10473000611D552321F0529F050E50E0511D992314
:1047400031F0392F329F030E30E0311D932F1124A9
:10475000608351839283CF01DF91CF911F910F919D
:10476000089590E050E060E0F3CF7F928F929F92A7
:10477000AF92BF92CF92DF92EF92FF920F931F936F
:10478000CF93DF93FC0169011082118212826623AC
:10479000B9F18A01C1E0D0E0862E912CB12CA12C78
:1047A000D8012D918D01222339F17E01B1E0EB1A60
:1047B000F108D601AE0DBF1D7C907720E9F030E006
:1047C00050E040E02F5F3F4F4F4F5F4FC501B401B6
:1047D0000E9450339B01AC01872D90E0B0E0A0E037
:1047E000BC01CD016F5F7F4F8F4F9F4F0E945033B1
:1047F000DF01AE0DBF1D8C932196C430D10581F62B
:10480000CF01DF91CF911F910F91FF90EF90DF903B
:10481000CF90BF90AF909F908F907F900895FC01B4
:104820008FEF808312821182148613868FEF9FEFA1
:10483000DC0187839087A187B2870895CF93DF93A8
:10484000C0917B0ED0917C0E209789F08A819B814C
:10485000009749F02D853E85A901440F551F420F51
:10486000531F60E01DD20C80DD81C02DEDCFDF91A4
:10487000CF910895CF92DF92EF92FF92CF93DF9383
:10488000EC012091730E3091740EC9010196909342
:10489000740E8093730E261737070CF43FC00FB6C3
:1048A000F89420918D0E30918E0E40918F0E509184
:1048B000900E0FBEE8EEF3E08E9FB0018F9F700D5B
:1048C0009E9F700D1124072E000C880B990BC09031
:1048D0006F0ED090700EE090710EF090720E2C1949
:1048E0003D094E095F090E9486333A83298310925D
:1048F000740E1092730E0FB6F89480918D0E9091F5
:104900008E0EA0918F0EB091900E0FBE80936F0E01
:104910009093700EA093710EB093720EDF91CF91B1
:10492000FF90EF90DF90CF9008958F929F92AF927B
:10493000BF92CF92DF92EF92FF920F931F93CF938C
:10494000DF9300D01F92CDB7DEB77C01D62ED70102
:1049500013960D911D912D913C91169701151105FE
:104960002105310591F0A6D58090750E9090760EB8
:10497000A090770EB090780E681979098A099B0982
:10498000601771078207930710F394D56093750E33
:104990007093760E8093770E9093780ED7011B96C6
:1049A000ED91FC911C97309749F017964D915D91D0
:1049B0006D917C911A978D2D0995D82E00917B0EC3
:1049C00010917C0E0115110561F1F801C484D70125
:1049D00011968D919C918436910508F41486D80126
:1049E000ED91FC91A280B3809801275F3F4FA80111
:1049F0004A5F5F4F6D2DCE010196B7DEF801458508
:104A00005685628173819E012F5F3F4FC801F5017A
:104A10000995D8011C96CC921C9714960D911C9167
:104A2000D1CF69E170E0C70125DF0F900F900F90A3
:104A3000DF91CF911F910F91FF90EF90DF90CF907A
:104A4000BF90AF909F908F9008954F925F926F921A
:104A50007F928F929F92AF92BF92CF92DF92EF920E
:104A6000FF920F931F93CF93DF9300D01F92CDB788
:104A7000DEB77C015B01D42ED70113960D911D91F9
:104A80002D913C911697011511052105310591F0E5
:104A900011D54090750E5090760E6090770E709004
:104AA000780E6419750986099709601771078207DE
:104AB000930710F3FFD46093750E7093760E809376
:104AC000770E9093780ED7011B96ED91FC911C9771
:104AD000309749F017964D915D916D917C911A97A1
:104AE0008D2D0995D82E00917B0E10917C0E01150D
:104AF000110559F1F801C484D70111968D919C914B
:104B00008436910508F41486D801ED91FC918080DB
:104B100091809801275F3F4FA8014A5F5F4F6D2D3D
:104B2000CE01019622DEF801458556859E012F5F54
:104B30003F4FB501C801F4010995D8011C96CC92EC
:104B40001C9714960D911C91D2CF69E170E0C701BA
:104B500091DE0F900F900F90DF91CF911F910F91E9
:104B6000FF90EF90DF90CF90BF90AF909F908F908D
:104B70007F906F905F904F9008950F931F93CF9306
:104B8000DF9300D01F92CDB7DEB78C01662341F0D2
:104B900019821A821B8240E0BE016F5F7F4F55DF92
:104BA000C8014CDE0F900F900F90DF91CF911F91B5
:104BB0000F910895CF93DF93EC014423F1F0611539
:104BC0007105C1F09B0150E040E060E472E48FE0C9
:104BD00090E00E94A8338B819C81AD81BE818217B9
:104BE0009307A407B50710F4DA01C9018B839C83EE
:104BF000AD83BE83DF91CF9108956115710571F08A
:104C00009B0150E040E060E472E48FE090E00E949D
:104C1000A8332B833C834D835E83ECCF1B821C82A5
:104C20001D821E82E7CFCF92DF92EF92FF920F9309
:104C30001F93CF93DF93EC016B017A0110E000E04A
:104C40001216130614F48A017901E881F9810480AF
:104C5000F581E02DCE010995C801880F991F080F35
:104C6000191FC00ED11EDB82CA82ED86FE86E88146
:104C7000F9810284F385E02DCE01099541E0BC0164
:104C80008DE79EE097DFCE01DF91CF911F910F91CD
:104C9000FF90EF90DF90CF9008958DE79EE0BFCD1D
:104CA000DC0140FF03C001C06D936D934250E0F7FB
:104CB0005040D0F708950F931F93CF93DF93823026
:104CC000910510F482E090E0E091170FF091180F39
:104CD00030E020E070E060E0D0E0C0E0B0E0A0E0D4
:104CE000309799F42115310509F44AC0281B390B76
:104CF00024303105D8F58A819B816115710589F1D0
:104D0000FB0193838283FE0111C0408151810281A6
:104D1000138148175907E0F04817590799F410977D
:104D200061F012960C93129713961C933296CF0152
:104D3000DF91CF911F910F9108950093170F10935A
:104D4000180FF4CF2115310551F04217530738F0F1
:104D5000A901DB019A01BD01DF01F801C1CFEF011B
:104D6000F9CF9093180F8093170FCDCFFE01E20F6C
:104D7000F31F819391932250310939832883D7CF30
:104D800020918A0E30918B0E232B41F420910A0141
:104D900030910B0130938B0E20938A0E20910801E5
:104DA000309109012115310541F42DB73EB74091ED
:104DB0000C0150910D01241B350BE0918A0EF091EE
:104DC0008B0EE217F307A0F42E1B3F0B28173907B1
:104DD00078F0AC014E5F5F4F2417350748F04E0F57
:104DE0005F1F50938B0E40938A0E819391939FCFB8
:104DF000F0E0E0E09CCFCF93DF930097E9F0FC0177
:104E0000329713821282A091170FB091180FED0103
:104E100030E020E01097A1F420813181820F931FB0
:104E200020918A0E30918B0E2817390709F061C046
:104E3000F0938B0EE0938A0EDF91CF910895EA01F3
:104E4000CE17DF07E8F54A815B819E0141155105C8
:104E5000B1F7E901FB83EA8349915991C40FD51F4A
:104E6000EC17FD0761F4808191810296840F951FF4
:104E7000E90199838883828193819B838A83F0E00F
:104E8000E0E012968D919C9113970097B9F52D91C2
:104E90003C911197CD010296820F931F20918A0EAB
:104EA00030918B0E2817390739F6309751F510924B
:104EB000180F1092170FB0938B0EA0938A0EBCCFD1
:104EC000D383C28340815181840F951FC817D907AE
:104ED00061F44E5F5F4F88819981480F591F51835C
:104EE00040838A819B81938382832115310509F058
:104EF000B0CFF093180FE093170F9ECFFD01DC01A8
:104F0000C0CF13821282D7CF4F925F926F927F925F
:104F10008F929F92AF92BF92CF92DF92EF92FF92C9
:104F20000F931F93CF93DF938C01009791F4CB01E4
:104F3000DF91CF911F910F91FF90EF90DF90CF9075
:104F4000BF90AF909F908F907F906F905F904F90A9
:104F5000B2CEFC01E60FF71F9C0122503109E21787
:104F6000F30708F4A5C0D901CD91DC911197C617BC
:104F7000D70718F1C530D10570F0CE010497861718
:104F8000970748F0C61BD70B2297C193D1936D9317
:104F90007C93CF0130DFC801DF91CF911F910F913A
:104FA000FF90EF90DF90CF90BF90AF909F908F9049
:104FB0007F906F905F904F9008955B01AC1ABD0A8F
:104FC0004C018C0E9D1EA091170FB091180F512C03
:104FD000412CF12CE12C109701F580918A0E9091D3
:104FE0008B0E8815990509F056C04616570608F02D
:104FF00052C08DB79EB740910C0150910D01841B9A
:10500000950BE817F90708F053C0F0938B0EE09367
:105010008A0EF90171836083BECF8D919C911197A7
:1050200012966C90129713967C901397A815B90559
:1050300059F56C0142E0C40ED11CCA14DB0420F106
:10504000AC014A195B09DA011296159780F0628269
:10505000738251834083D9016D937C93E114F104F1
:1050600071F0D7011396FC93EE93129794CF22968A
:105070008C0F9D1FF90191838083F301EFCFF09393
:10508000180FE093170F87CF4816590608F42C0124
:105090007D01D301A0CFCB010EDE7C01009741F052
:1050A000AE01B8010E948A34C801A5DE870173CF22
:1050B00010E000E070CF1DBA109268001CBC10BE5A
:1050C0001FBA10927A0010926E0010926F00109228
:1050D0007000109271001092C9001092BC0011B8BB
:1050E00014B817B81AB81DB810BA12B815B818B84D
:1050F0001BB81EB811BA0895F894E1E6F0E020E874
:105100002083108283E084BD85BDEEE6F0E08081DF
:105110008160808391E09093800082E080938100A1
:105120009093B0008093B100909390008093910091
:1051300086E880937A0020937B0010927E00D9D17C
:10514000789408959AED980F983010F1883060F4B3
:1051500090917E0021E030E0082E01C0220F0A94D9
:10516000EAF7922B90937E008F7190910E01892B1C
:1051700080937C0080917A00806480937A00809193
:105180007A0086FDFCCF8091780090917900089597
:10519000892FDECF8E3270F4E8E3F6E0880FE80F57
:1051A000F11D2591E491F0E09FB7F8948181822B65
:1051B00081839FBF0895EE3250F4EE0FE851F74D12
:1051C0000994EE3220F4EE0FEC5BF64D099408954D
:1051D000589AB6C0599AD0C05A9A08955B9A0895C1
:1051E0005C9A08955D9A08955E9A08955F9A08956D
:1051F000709A0895719A0895409A0895419A089571
:10520000429A0895439A0895449AC8C0459AC0C0E6
:10521000469AB8C0479A0895769A0895779A08955D
:10522000289A0895299A08952A9A08952B9A0895FC
:105230002C9A9CC02D9A88C02E9A8CC02F9A90C010
:10524000109A0895119A0895129A0895139A08953C
:10525000149A0895159A0895169A0895179A08951C
:10526000749A0895759A0895889A0895899A089568
:105270008A9A08958B9A08958C9A08958D9A089524
:105280008E9A08958F9A089558985AC0599874C064
:105290005A9808955B9808955C9808955D980895CC
:1052A0005E9808955F98089570980895719808958C
:1052B0004098089541980895429808954398089514
:1052C00044986CC0459864C046985CC0479808955F
:1052D00076980895779808952898089529980895BC
:1052E0002A9808952B9808952C9840C02D982CC08A
:1052F0002E9830C02F9834C01098089511980895B2
:10530000129808951398089514980895159808957B
:1053100016980895179808957498089575980895A3
:1053200088980895899808958A9808958B98089583
:105330008C9808958D9808958E9808958F98089563
:10534000E4B5EF7DE4BD0895E0918000EF77E09350
:1053500080000895E0918000EF7DE0938000089543
:10536000E0918000E77FE09380000895E091B00035
:10537000EF77E093B0000895E091B000EF7DE09307
:10538000B0000895E0919000EF77E09390000895C9
:10539000E0919000EF7DE09390000895E0919000FF
:1053A000E77FE09390000895F89484B7877F84BFE7
:1053B000809160008061809360001092600080E2C4
:1053C0009EE40197F1F781E08093E00080E2809312
:1053D000D80080E69AEE0197F1F76DDE0C9400FE9E
:1053E000FFCFF89468DE80E69AEE0197F1F70C940F
:1053F0000000FFCF8F938FB78F9380918C0E8D5FBE
:105400008D37D0F480938C0E80918D0E8F5F8093BA
:105410008D0ED8F080918E0E8F4F80938E0EA8F057
:1054200080918F0E8F4F80938F0E78F08091900E29
:105430008F4F8093900E09C08D5780938C0E809172
:105440008D0E8E5F80938D0E28F78091910E8C5F6C
:105450008093910E58F08091920E8F4F8093920E10
:1054600028F08091930E8F4F8093930E8F918FBF72
:105470008F911895CF92DF92EF92FF926B017C0192
:1054800019D09B01C114D104E104F10429F4FF9067
:10549000EF90DF90CF9008950DD0621B730B683EA4
:1054A000734080F381E0C81AD108E108F10828515F
:1054B0003C4FE8CF0FB6F89466B515B27091910ED7
:1054C0008091920E9091930E0FBE10FE05C06F3F1B
:1054D00019F07C5F8F4F9F4F11240024660F001C32
:1054E000660F001C702908958091E80080FFFCCFB2
:1054F00008958091D80087FF02C085FF1BC081E816
:105500008093D70080EA8093D80086E189BD09B4F2
:1055100000FEFDCF80E98093D8001092E000109249
:105520001B0F10921A0F1092190F1092E1008DE0CC
:105530008093E20008951F920F920FB60F921124EC
:105540000BB60F922F933F934F935F936F937F937D
:105550008F939F93AF93BF93EF93FF939091E1004D
:105560001092E10093FF11C01092E90081E0809356
:10557000EB001092EC0082E28093ED0088E08093D3
:10558000F00010921B0F1092190F92FF1DC0809116
:105590001B0F8823C9F08091970E882359F0815002
:1055A0008093970E811106C084E08093E9008AE31E
:1055B0008093E8008091960E882331F0815080938B
:1055C000960E811101C0F0DE90FF0CC080E1809347
:1055D000E20010921B0F81E080931A0F80EA809303
:1055E000D80019BC80911A0F882379F094FF0DC060
:1055F00086E189BD09B400FEFDCF80E98093D80023
:105600008DE08093E20010921A0FFF91EF91BF910D
:10561000AF919F918F917F916F915F914F913F914A
:105620002F910F900BBE0F900FBE0F901F901895EB
:105630001F920F920FB60F9211240BB60F92EF929A
:10564000FF920F931F932F933F934F935F936F930B
:105650007F938F939F93AF93BF93CF93DF93EF93FA
:10566000FF931092E9008091E80083FF20C0D09161
:10567000F100C091F100E090F100F090F100009194
:10568000F1001091F1002091F1003091F10082EFD2
:105690008093E800C63009F05BC0E4E9F6E085914C
:1056A0009591E816F90639F03596C150C1F781E2B7
:1056B0008093EB002BC0859195910817190711F085
:1056C0003396F3CF4591559184912F3F310519F0D1
:1056D00010F02FEF30E0821708F4282F3EEF809172
:1056E000E800982F9570D9F382FD10C0822F2132E7
:1056F00008F080E2982F911124C0922F981B892FD7
:105700003093E80091111BC02032C8F4FF91EF9153
:10571000DF91CF91BF91AF919F918F917F916F91C9
:105720005F914F913F912F911F910F91FF90EF90BB
:105730000F900BBE0F900FBE0F901F901895282F43
:10574000CECFFA0145914093F100AF019150D3CFF4
:10575000C53049F48EEF8093E800C6DE8E2D806858
:105760008093E300D3CFC93021F5D111A0CFE092CF
:105770001B0F1092190F1092970E8EEF8093E80076
:1057800081E0E7E5F7E08093E90095919093EB00E5
:10579000992331F095919093EC0095919093ED00C1
:1057A0008F5F853081F78EE18093EA001092EA00E6
:1057B000ADCFC83061F4D03809F079CF95DE809153
:1057C0001B0F8093F1008EEF8093E8009FCFC132D2
:1057D00079F4D13A09F06BCF87DEEFE0F1E0808118
:1057E0008093F100319681E0E631F807C1F7EBCF05
:1057F000C03209F047C0D13209F059CF8091E8009A
:1058000082FFFCCFEFE0F1E08091F10080833196E0
:1058100091E0E631F907C1F78BEF8093E8008EEF56
:105820008093E80030910F014091100180911101A7
:105830002091120190E0B0E0A0E0DC0199278827D8
:10584000942B832BB22B86389105A105B10521F449
:105850008FE08093960E5ACF86399105A105B10548
:1058600009F054CF84E08093E9009FEF8091EE002F
:10587000837009F4B6DD9093E8008091E80082FD22
:10588000FCCFF4CFC23239F4D13209F010CFE0921C
:10589000190F2ADE98CFC33221F4D13209F007CF95
:1058A000F8CFC11111C020DED23849F40093E900CD
:1058B000C091EB00C5FBCC27C0F91092E900C09362
:1058C000F1001092F1007FCF8C2F8D7F813009F095
:1058D000EECED23009F0EBCEEF2809F0E8CE0F770C
:1058E0008FEF800F863008F0E2CE8EEF8093E800D5
:1058F0000093E900C33009F4DACE89E18093EB002C
:1059000081E090E001C0880F0A95EAF74DCF5091F1
:10591000CC0E4091CB0E852F90E0242F30E0541711
:1059200018F0821B930B0895805C9F4FFACF509123
:10593000CC0E4091CB0E252F30E0842F90E0821BBF
:10594000930B541710F0879608950197089580914E
:10595000CC0EE091CB0E8E1751F0EF5FE03408F0E3
:10596000E0E0F0E0E353F14F808190E008958FEFA5
:105970009FEF08959091CC0E8091CB0E981779F0FF
:105980009091CB0E9F5F903408F090E0E92FF0E00B
:10599000E353F14F80819093CB0E90E008958FEF09
:1059A0009FEF08958091A00E8111FCCF0895209162
:1059B000C90023FD06C021E0FC01228390E080E0C5
:1059C0000895809116018F3F41F08091A00E8111C2
:1059D00004C0E0911601F0E0EEDB9091A20E809100
:1059E000A10E981304C08091C80085FD19C0809154
:1059F000A20E8F5F8832F8F49091A10E9817E1F310
:105A0000E82FF0E0ED55F14F608391E09093A00E08
:105A10008093A20E8091C90080628093C90008C063
:105A20008FB7F8946093CE0091E09093A00E8FBF53
:105A300081E090E0089580E0DFCF1F93CF93DF9364
:105A4000EB01142F409316014F3F29F0842FA2DB66
:105A5000E12FF0E0B6DBC0FF24C0C13080E1D80701
:105A600000F582E08093C8002197D093CD00C093C9
:105A7000CC008091C90083FD10C01092CC0E109212
:105A8000CB0E1092A20E1092A10E1092A00E86E0E4
:105A90008093CA0088ED8093C900DF91CF911F9158
:105AA00008951092C800D695C795DECF1F920F9229
:105AB0000FB60F9211240BB60F922F938F939F93D3
:105AC000EF93FF939091CE008091CC0E8F5F803446
:105AD00008F080E02091CB0E281739F0E82FF0E095
