:10000000F5C600001DC700001BC7000019C700008F
:1000100017C7000015C7000013C7000011C7000074
:100020000FC700000DC700000C94484A0C94C54A45
:1000300007C7000005C7000003C7000001C7000094
:10004000FFC60000FDC60000FBC60000F9C60000A8
:10005000F7C60000F5C60000F3C600000C94A749DF
:10006000EFC600000C94034D0C942E4D0C945F4D84
:10007000E7C60000E5C60000E3C60000E1C60000D8
:100080000C94B31BDDC60000DBC60000D9C600001F
:10009000D7C60000D5C600000010000000300000E8
:1000A0000050000000700000008000000080000090
:1000B00000800000198D1900339933004DA64D00C2
:1000C00066B3660080C0800099CC9900B3D9B300B4
:1000D000CCE6CC00E6F2E6000001000200030004DA
:1000E00000060008000A000F0101020203030404D5
:1000F000060608080A0A0F0F0100020003000400A8
:10010000060008000A000F0011002200330044001E
:1001100066008800AA00FF001000200030004000A8
:1001200060008000A000F0001001200230034004B5
:1001300060068008A00AF00F00010002000300041E
:1001400000060008000A000F1101220233034404D4
:1001500066068808AA0AFF0F11012202330355051B
:1001600077079909AA0AFF0F2202220233035505D5
:1001700077079909AA0AFF0F3303330333035505A1
:1001800077079909AA0AFF0F550555055505550525
:1001900077079909AA0AFF0F770777077707770785
:1001A00077079909AA0AFF0F9909990999099909E5
:1001B00099099909AA0AFF0FAA0AAA0AAA0AAA0A69
:1001C000AA0AAA0AAA0AFF0FFF0FFF0FFF0FFF0FCD
:1001D000FF0FFF0FFF0FFF0F0100020003000500DC
:1001E000070009000A000F000200020003000500DA
:1001F000070009000A000F000300030003000500C8
:10020000070009000A000F000500050005000500B1
:10021000070009000A000F00070007000700070099
:10022000070009000A000F00090009000900090081
:10023000090009000A000F000A000A000A000A006B
:100240000A000A000A000F000F000F000F000F0045
:100250000F000F000F000F001000200030005000B2
:1002600070009000A000F00020002000300050003E
:1002700070009000A000F00030003000300050000E
:1002800070009000A000F00050005000500050009E
:1002900070009000A000F00070007000700070000E
:1002A00070009000A000F00090009000900090007E
:1002B00090009000A000F000A000A000A000A0000E
:1002C000A000A000A000F000F000F000F000F0009E
:1002D000F000F000F000F000000100020003000553
:1002E00000070009000A000F0002000200030005D9
:1002F00000070009000A000F0003000300030005C7
:1003000000070009000A000F0005000500050005B0
:1003100000070009000A000F000700070007000798
:1003200000070009000A000F000900090009000980
:1003300000090009000A000F000A000A000A000A6A
:10034000000A000A000A000F000F000F000F000F44
:10035000000F000F000F000F00000002000000045B
:10036000000000080000000F00000102020003046A
:10037000040005080600070F080009020A000B0424
:100380000C000D080E000F0F0000110222003304B4
:10039000440055086600770F88009902AA00BB0444
:1003A000CC00DD08EE00FF0F00001002200030043A
:1003B000400050086000700F80009002A000B00460
:1003C000C000D008E000F00F0000000200000005AF
:1003D000000000080000000F000000000100010004
:1003E00002000200030003000400040005000500F1
:1003F00006000600070007000800080009000900C1
:100400000A000A000B000B000C000C000D000D0090
:100410000E000E000F000F00000000001000100082
:10042000200020003000300040004000500050000C
:1004300060006000700070008000800090009000FC
:10044000A000A000B000B000C000C000D000D000EC
:10045000E000E000F000F0000000000001000100FA
:100460000200020003000300040004000500050070
:100470000600060007000700080008000900090040
:100480000A000A000B000B000C000C000D000D0010
:100490000E000E000F000F00000000000001000120
:1004A0000002000200030003000400040005000530
:1004B0000006000600070007000800080009000900
:1004C000000A000A000B000B000C000C000D000DD0
:1004D000000E000E000F000F000F010003000500CA
:1004E00007000A000F0000002000210F2300250054
:1004F00027002A002F00200040004100430F450044
:1005000047004A004F004000600061006300650F33
:1005100067006A006F006000800081008300850032
:10052000870F8A008F008000A000A100A300A50013
:10053000A700AA0FAF00A000F000F100F300F50043
:10054000F700FA00FF0FF0000000010003000500B3
:1005500007000A000F00000FF000F000FF00FF008E
:100560000F000F00F000F000F000F000FF00FF00AF
:100570000F000F00F000F000F000F000FF00FF009F
:100580000F000F00F000F000F000F000FF00FF008F
:100590000F000F00F000F000F000F000FF00FF007F
:1005A0000F000F00F000F000F000F000FF00FF006F
:1005B0000F000F00F000F000F000F000FF00FF005F
:1005C0000F000F00F000F000F000F000FF00FF004F
:1005D0000F000F00F000F000000000000F000F00FF
:1005E0000F000F000000000000000F0000000000DE
:1005F000000000000F0000000F000000000F0000CE
:100600000000000F00000F000F00000000000000BD
:100610000000000000000F000F000000F0000000CC
:100620000000F00000000F000F0000000000F400C8
:10063000F300000000000F0000000F0000000000A9
:10064000000000000F000000000000000F000F007D
:100650000F000F000000000000000000003E5B4F94
:100660005B3E3E6B4F6B3E1C3E7C3E1C183C7E3C12
:10067000181C577D571C1C5E7F5E1C00183C180020
:10068000FFE7C3E7FF0018241800FFE7DBE7FF30B0
:10069000483A060E2629792926407F050507407F1E
:1006A00005253F5A3CE73C5A7F3E1C1C08081C1C91
:1006B0003E7F14227F22145F5F005F5F06097F0187
:1006C0007F006689956A606060606094A2FFA29472
:1006D00008047E040810207E201008082A1C080840
:1006E0001C2A08081E101010100C1E0C1E0C30388E
:1006F0003E3830060E3E0E06000000000000005F8F
:1007000000000007000700147F147F14242A7F2AAA
:10071000122313086462364956205000080703006C
:10072000001C2241000041221C002A1C7F1C2A08B8
:10073000083E08080080703000080808080800001B
:1007400060600020100804023E5149453E00427F8F
:10075000400072494949462141494D331814127FDE
:100760001027454545393C4A49493141211109077E
:100770003649494936464949291E000014000000FF
:1007800040340000000814224114141414140041D1
:1007900022140802015909063E415D594E7C12118E
:1007A000127C7F494949363E414141227F414141C6
:1007B0003E7F494949417F090909013E4141517341
:1007C0007F0808087F00417F41002040413F017FB2
:1007D000081422417F404040407F021C027F7F047A
:1007E00008107F3E4141413E7F090909063E4151C3
:1007F000215E7F09192946264949493203017F01B3
:10080000033F4040403F1F2040201F3F4038403FB3
:10081000631408146303047804036159494D4300C9
:100820007F4141410204081020004141417F040200
:100830000102044040404040000307080020545497
:1008400078407F2844443838444444283844442875
:100850007F385454541800087E090218A4A49C78C8
:100860007F0804047800447D40002040403D007F24
:100870001028440000417F40007C047804787C0804
:100880000404783844444438FC18242418182424D8
:1008900018FC7C08040408485454542404043F44BD
:1008A000243C4040207C1C2040201C3C4030403CEC
:1008B00044281028444C9090907C4464544C44004C
:1008C00008364100000077000000413608000201B0
:1008D0000204023C2623263C1EA1A161123A40409C
:1008E000207A385454555921555579412254547819
:1008F00042215554784020545579400C1E527212B2
:10090000395555555939545454593955545458003A
:1009100000457C410002457D420001457C407D123E
:1009200011127DF0282528F07C54554500205454A0
:100930007C547C0A097F4932494949323A4444444B
:100940003A324A4848303A4141217A3A4240207886
:10095000009DA0A07D3D4242423D3D4040403D3C87
:1009600024FF2424487E4943662B2FFC2F2BFF09AC
:1009700029F620C0887E09032054547941000044A0
:100980007D413048484A32384040227A007A0A0A8B
:10099000727D0D19317D2629292F282629292926FE
:1009A00030484D4020380808080808080808382F43
:1009B00010C8ACBA2F102834FA00007B00000814CD
:1009C0002A142222142A14085500550055AA55AAA3
:1009D00055AAFF55FF55FF000000FF00101010FF43
:1009E00000141414FF001010FF00FF1010F010F09E
:1009F000141414FC001414F700FF0000FF00FF148F
:100A000014F404FC141417101F10101F101F1414DA
:100A1000141F00101010F0000000001F1010101024
:100A20001F10101010F010000000FF101010101018
:100A300010101010FF10000000FF140000FF00FF56
:100A400000001F10170000FC04F4141417101714F2
:100A500014F404F40000FF00F71414141414141414
:100A6000F700F7141414171410101F101F14141487
:100A7000F4141010F010F000001F101F0000001FF1
:100A800014000000FC140000F010F01010FF10FF24
:100A9000141414FF141010101F00000000F010FFB9
:100AA000FFFFFFFFF0F0F0F0F0FFFFFF000000009D
:100AB00000FFFF0F0F0F0F0F3844443844FC4A4A21
:100AC0004A347E02020606027E027E0263554941D6
:100AD000633844443C04407E201E2006027E02020D
:100AE00099A5E7A5991C2A492A1C4C7201724C3021
:100AF0004A4D4D303048784830BC625A463D3E49F8
:100B00004949007E0101017E2A2A2A2A2A44445F9B
:100B1000444440514A444040444A51400000FF018F
:100B200003E080FF000008086B6B0836123624369D
:100B3000060F090F06000018180000001010003002
:100B400040FF0101001F01011E00191D1712003C8A
:100B50003C3C3C00000000000001020304050608C4
:100B6000090A0B0D0E1012131517191B1D20222533
:100B7000272A2D3033373A3E4145494D52565B5F67
:100B800064696E74797F858B91979DA4ABB2B9C06F
:100B9000C7CFD6DEE6EEF7FF000102030507090B1B
:100BA0000E1114181D22282E363D464F59646F7CB5
:100BB0008997A6B6C7D9EBFFAB0055007C0084002F
:100BC0004B00B5001B00E5000017E8000047B80027
:100BD0000077AB0000ABAB000055AB000022DD009E
:100BE0000E00F2003E00C20071008F00A1005F0005
:100BF000D0002F00F90700000000FF0000000000F7
:100C00000055AB000000000000ABAB00000000008E
:100C100000FF00000000000055AB000000000000D5
:100C2000FF00000000000000AB00550000000000C5
:100C30005500AB00000000000000FF00002AD500B6
:100C40000055AB00007FAB0000ABAB0000D55600F9
:100C500000FF00002AD5000055AB0000AA56000096
:100C6000FF000000D5002A00AB00550081007F0086
:100C70005500AB002B00D500FF0000008B000000EA
:100C80008B0000008B0000008B0000008B00000038
:100C90008B0000008B000000FF0000008B000000B4
:100CA000EBCE8700EBCE8700E6D8AD00FFFFFF005C
:100CB000E6D8AD00EBCE87000129022904290829D6
:100CC0001029202940298029012C022C01260226E6
:100CD000042608261026202640268026402C802C1C
:100CE00001230223042308231023202340238023ED
:100CF00001200220042008201020202040208020F5
:100D0000102C202C012F022F042F082F102F202F02
:100D1000402F802F00010000C50D1200020000824C
:100D20000D43000300007E0D0401030904640D1847
:100D3000020309044C0D16030309043E0D0C0C03B9
:100D40003100320033003400350000001603550036
:100D500053004200200053006500720069006100EA
:100D60006C00000018035400650065006E007300FD
:100D700079006400750069006E006F0000000403D4
:100D8000090409024300020100C032090400000105
:100D900002020100052400100105240100010424C1
:100DA0000206052406000107058203080040090425
:100DB0000100020A000000070503024000000705C9
:100DC00084024000001201000202000020C01683CD
:100DD000047202010203010001C102018036018197
:100DE0003600A53523457D4D4250203611241FBEC7
:100DF000CFEFD0E2DEBFCDBF19E0A0E0B1E0E2EC82
:100E0000F8EA00E00BBF02C007900D92A43FB107C3
:100E1000D9F721E1A4EFB9E001C01D92A838B207CB
:100E2000E1F716E0C5EFD6E004C02197FE010E946D
:100E30006A53C13FD107C9F70E948E4D0C94555497
:100E4000DFC8FC01858596850895CF93DF9300D098
:100E500000D000D0CDB7DEB7AB011C821D821E8250
:100E6000DC01ED91FC910190F081E02D19821A8254
:100E70001B829E012F5F3F4FBE016C5F7F4F099524
:100E800026960FB6F894DEBF0FBECDBFDF91CF918F
:100E900008956731710508F0EFC0FB01EE5AF84F75
:100EA0000C946A53690774077C07890794079B07AA
:100EB000A207A907B307BD07C707D107DB07E507E7
:100EC000EF07F707FF0706080D0814081E08280893
:100ED000320804978330910508F0CEC084589A4FA9
:100EE000FC01808190E0089502978630910508F01A
:100EF000C3C08A589A4FF4CF01978331910508F007
:100F0000BBC0880F991FFC01E05BFA4F8081918183
:100F1000089501978531910508F0AEC0880F991F9B
:100F2000FC01EA5DFA4FF2CF8431910508F0A4C0CC
:100F30008E5E9A4FD5CF8431910508F09DC08250C6
:100F40009B4FCECF8F30910508F096C081519B4FBB
:100F5000C7CF8F30910508F08FC0880F991FFC0113
:100F6000EF52FB4FD3CF8F30910508F085C0880F2B
:100F7000991FFC01ED54FB4FC9CF8F30910508F04C
:100F80007BC0880F991FFC01EB56FB4FBFCF8F3002
:100F9000910508F071C0880F991FFC01E958FB4FBB
:100FA000B5CF8F30910508F067C0880F991FFC01FD
:100FB000E75AFB4FABCF8F30910508F05DC0880F2B
:100FC000991FFC01E55CFB4FA1CF8F30910508F024
:100FD00053C0880F991FFC01E35EFB4F97CF019729
:100FE0008E30910508F048C0815F9B4F79CF029702
:100FF0008131910508F040C082509C4F71CF01971C
:1010000082319105C8F584519C4F6ACF0197833195
:10101000910590F587529C4F63CF019784319105DC
:1010200058F58B539C4F5CCF01978331910520F588
:10103000880F991FFC01E156FC4F68CF029787305B
:101040009105D0F4880F991FFC01EF56FC4F5ECF3D
:1010500003978530910580F4880F991FFC01E957AB
:10106000FC4F54CF04978330910530F4880F991FBB
:10107000FC01EF57FC4F4ACF8CE291E0089580E9E4
:1010800091E008953A9A0895FB0101900020E9F754
:101090003197AF01461B570BDC01ED91FC910280AB
:1010A000F381E02D0994F0CF0F931F93CF93DF933B
:1010B000EC01EADF8C01CE010E94204E800F911FCF
:1010C000DF91CF911F910F9108950F931F93CF93AD
:1010D000DF93EC01462F50E070E060E020E00E94DA
:1010E0003A4E8C01CE010E94204E800F911FDF915D
:1010F000CF911F910F9108950F931F93DC01AC01C5
:10110000405D5F4FFB0105911591259134912C9322
:1011100011961C93119712960C9312976C5F7F4F48
:101120001396A417B50771F71F910F910895FC014D
:1011300060810C946B43FC0140810C94FB43DC0107
:10114000ED91FC9102A0F3A1E02D70E060E0099424
:101150002F923F924F925F926F927F928F929F92C7
:10116000AF92BF92CF92DF92EF92FF920F931F93B5
:10117000CF93DF93CDB7DEB72C970FB6F894DEBFD1
:101180000FBECDBF9C838B837E836D8358874F8337
:101190002901380180918C0A409E9001419E300DBA
:1011A000509E300D11243A832983811114C08CE89C
:1011B0009AE00E94954D892B71F089819A81880F60
:1011C000991F0E9408469093950A8093940A8CE890
:1011D0009AE00E949E4D912C812C89819A818815DC
:1011E000990509F46AC01401220C331CEF81F885BB
:1011F000E20DF31D259134913B872A87632F6F7091
:1012000070E090E080E01F921F921F923FE13F93B9
:10121000A12CB12C65011FE0E12EF12C00E010E0C3
:1012200020E030E0A9010E948A5069876A857B85A9
:1012300034E0769567953A95E1F76F7070E090E04D
:1012400080E01F921F921F922FE32F9320E030E047
:10125000A9010E948A506C873A853F70632F70E025
:1012600090E080E01F921F921F922FE12F9320E0C9
:1012700030E0A9010E948A50E091940AF091950A09
:10128000E20DF31D70E0762F6627770F770F770F4B
:101290002C8530E2239FC0011124680F791F398506
:1012A000630F711D718360838FEF881A980A0FB6E0
:1012B000F894DEBF0FBECDBF90CF2091940A30913D
:1012C000950A730182014D815E816B817C818091E1
:1012D000DB109091DC100E947C3B2C960FB6F894AA
:1012E000DEBF0FBECDBFDF91CF911F910F91FF9059
:1012F000EF90DF90CF90BF90AF909F908F907F90B6
:101300006F905F904F903F902F9008950F931F9391
:1013100090E8899FA001112448525F4F6091880A8C
:101320007091890A08E010E028E030E080918A0A94
:1013300090918B0A0DDF80918A0A90918B0A089612
:101340008631910528F590938B0A80938A0A8091C3
:101350008A0A90918B0A892B49F48091880A90918E
:10136000890A08969093890A8093880A8091880A4E
:101370009091890A479720F01092890A1092880A62
:101380008091DB109091DC101F910F910C94163F0F
:1013900010928B0A10928A0ADACF24E030E040E003
:1013A00050E061E070E080E090E00E946D506230BB
:1013B000710531F06330710531F090E080E00895FF
:1013C0008FE790E008958FEF90E0089527E030E0F8
:1013D00040E050E061E070E080E090E00E946D50FD
:1013E000615071096730710540F4660F771FFB018A
:1013F000ED58FC4F80819181089590E080E0089540
:1014000029E030E040E050E061E070E080E090E012
:101410000E946D50615071096730710540F4660F8C
:10142000771FFB01EB59FC4F80819181089590E07B
:1014300080E00895EF92FF920F931F93CF93DF9375
:101440007C01162FEA018091D90A811112C061E056
:101450008CEE90E10E949344F0920701E092060125
:101460001093D80A81E08093D90A1092840A1092CE
:10147000830A8091830A9091840A892B49F48DDF35
:101480008093870A8ADF8093860A87DF8093850AA4
:101490001091850A0091860AF090870A26E131E0D2
:1014A00040E050E060E070E0CB010E946D50FB0135
:1014B000EE0FFF1FE60FF71FE351F54FF082018398
:1014C000128323E030E040E050E060E070E0CB01C8
:1014D0000E946D50613071058105910599F426E1F6
:1014E00031E040E050E060E070E0CB010E946D50E0
:1014F000FB01EE0FFF1FE60FF71FE351F54F1082C0
:10150000118212828CEE90E112DE8091DF0A9091BE
:10151000E00A8C179D07D0F01092E00A1092DF0AC3
:101520008091830A9091840A019684309105A9F0F4
:101530009093840A8093830A8091830A9091840A0D
:101540008130910569F429DF8093850ADF91CF917D
:101550001F910F91FF90EF90089581E090E0E8CF08
:101560008230910521F419DF8093860AEFCF03972B
:1015700069F713DF8093870AE9CFCF92DF92EF926A
:10158000FF920F931F93CF93DF936C01D62F142FED
:10159000C22F8091D90A811110C061E08CEE90E1D8
:1015A0000E949344D0920701C09206011093D80A7A
:1015B00081E08093D90AD093C80A8091DF0A909184
:1015C000E00A8E159F0590F01092E00A1092DF0A53
:1015D000CC2361F02091C80A422F4C0F5527551F8C
:1015E000041715061CF02C0F2093C80A60E08CEE3F
:1015F00090E10E9493448FEF8093EC10D0E0C0E024
:101600008091C80A8C171D06E1F0DCF0C6DE182FA9
:10161000C4DE082FC2DEF82E26E131E040E050E0C3
:1016200060E070E0CB010E946D50FB01EE0FFF1FE8
:10163000E60FF71FE351F54FF082018312832196E5
:10164000DFCF8CEE90E1DF91CF911F910F91FF9052
:10165000EF90DF90CF906BCDEF92FF920F93F12C34
:10166000E12C00E020E089DF0F91FF90EF900895DA
:10167000CF92DF92FF920F931F93CF93DF9300D00F
:101680001F92CDB7DEB76C01F62E8A018091D90A80
:10169000811112C061E08CEE90E10E949344D092DF
:1016A0000701C0920601F092D80A81E08093D90A1E
:1016B0001093E00A0093DF0A8091DF0A9091E00A1C
:1016C0008017910778F11092E00A1092DF0A65DE28
:1016D0008093870A62DE8093860A5FDE8093850AA4
:1016E0009091870A91110FC09091860A91110BC0B9
:1016F000811109C052DE8093870A4FDE8093860AEB
:101700004CDE8093850A8091850A9091860A20910B
:10171000870A29839A838B83BE016F5F7F4F8CEE8C
:1017200090E109DD0F900F900F90DF91CF911F9105
:101730000F91FF90DF90CF900895AF92BF92CF921C
:10174000DF92EF92FF920F931F93CF93DF9300D01E
:101750001F92CDB7DEB75C01F62E6A01122F809181
:10176000D90A811112C061E08CEE90E10E9493448D
:10177000B0920701A0920601F092D80A81E080930E
:10178000D90AD092E00AC092DF0A8091DF0A9091D4
:10179000E00A8C159D0598F01092E00A1092DF0A7D
:1017A0008091E20A8823C9F019830A83EB82BE0183
:1017B0006F5F7F4F8CEE90E1BEDC1092E20A0F90DB
:1017C0000F900F90DF91CF911F910F91FF90EF90AD
:1017D000DF90CF90BF90AF90089519821A821B823C
:1017E000BE016F5F7F4F8CEE90E1A5DC81E08093BE
:1017F000E20AE5CFEF92FF920F931F93CF93DF930F
:101800007C01162FEA018091D90A81110EC061E096
:101810008CEE90E10E949344F0920701E092060161
:101820001093D80A81E08093D90A8091DF0A9091C1
:10183000E00A8C179D0708F4ADC01092E00A1092E0
:10184000DF0A60E08CEE90E10E9493442091CB0A85
:101850006091D00A7091D10A8091DB109091DC10D8
:10186000211152C06F5F7F4F7093D10A6093D00AED
:101870006C3171051CF021E02093CB0ADC01ED9165
:10188000FC9104A0F5A1E02DE12C58EFF52E07E125
:1018900010E09B0150E040E009958091DB109091B1
:1018A000DC106091D00A7091D10A61507109DC019D
:1018B000ED91FC9104A0F5A1E02DEE24EA94FE2C1C
:1018C0009B0150E040E009958091DB109091DC1085
:1018D0006091D00A7091D10A62507109DC01ED91DA
:1018E000FC9104A0F5A1E02DE12CB8EFFB2E9B01AB
:1018F00050E040E009958CEE90E1DF91CF911F918F
:101900000F91FF90EF9013CC615071097093D10A41
:101910006093D00A6B3FBFEF7B0714F41092CB0AA1
:10192000DC01ED91FC9104A0F5A1E02DEE24EA94F8
:10193000FE2C07E110E09B0150E040E0099580910A
:10194000DB109091DC106091D00A7091D10A615047
:101950007109DC01ED91FC9104A0F5A1E02DE12CD1
:1019600038EFF32E9B0150E040E009958091DB10A9
:101970009091DC106091D00A7091D10A6250710987
:10198000DC01ED91FC9104A0F5A1E02DEE24EA9498
:10199000FE2CADCFDF91CF911F910F91FF90EF9073
:1019A000089550E040E026CF8F929F92AF92BF9271
:1019B000CF92DF92EF92FF920F931F93CF93DF931B
:1019C0007C01EB01142F8091D90A811118C061E0CC
:1019D0008CEE90E10E949344F0920701E0920601A0
:1019E0001093D80A81E08093D90AF0DC9093EB0A37
:1019F0008093EA0AEBDC9093E90A8093E80A1C16CC
:101A00001D06ACF48091DF0A9091E00A8C179D07C7
:101A100070F01092E00A1092DF0AD8DC9093EB0A83
:101A20008093EA0AD3DC9093E90A8093E80A8091D4
:101A3000D00A9091D10A01968A3091050CF0FCC031
:101A40009093D10A8093D00A60E08CEE90E10E94DE
:101A500093448091DB109091DC104091D00A50911A
:101A6000D10AE090EA0AF090EB0A9A01265F3F4F14
:101A70006AE0A62EB12CB501641B750BDC01ED915B
:101A8000FC9104A0F5A1E02D06E110E050E040E05B
:101A900009958091DB109091DC104091D00A509113
:101AA000D10AE090E80AF090E90A9A01255F3F4FD9
:101AB0007BE0872E912CB401641B750BDC01ED914A
:101AC000FC9104A0F5A1E02D50E040E00995809143
:101AD000DB109091DC104091D00A5091D10AE09037
:101AE000EA0AF090EB0AE6E1CE2ED12C041B150B8E
:101AF0004F5F5F4FDC01ED91FC9104A0F5A1E02D5B
:101B000025E130E070E060E009958091DB10909174
:101B1000DC104091D00A5091D10AE090E80AF09090
:101B2000E90AC5E1D0E08E01041B150BDC01ED9143
:101B3000FC9104A0F5A1E02D25E130E070E060E02B
:101B400009958091DB109091DC104091D00A509162
:101B5000D10AE090EA0AF090EB0A8401041B150B0D
:101B6000455F5F4FDC01ED91FC9104A0F5A1E02DF4
:101B700025E130E070E060E009958091DB10909104
:101B8000DC104091D00A5091D10AE090E80AF09020
:101B9000E90A8501041B150B465F5F4FDC01ED91DF
:101BA000FC9104A0F5A1E02D25E130E070E060E0BB
:101BB00009958091DB109091DC106091D00A7091B2
:101BC000D10AE090EA0AF090EB0A9601261B370B47
:101BD000DC01ED91FC9104A0F5A1E02D10E000E006
:101BE00046E150E009958091DB109091DC10609106
:101BF000D00A7091D10AE090E80AF090E90A9E01BB
:101C0000261B370B61507109DC01ED91FC9104A09A
:101C1000F5A1E02D46E150E009958CEE90E1DF91D1
:101C2000CF911F910F91FF90EF90DF90CF90BF90D9
:101C3000AF909F908F907BCA1092D10A1092D00AD9
:101C400003CF0F931F93CF938C01C62F8091D90A96
:101C500081110EC061E08CEE90E10E9493441093DC
:101C6000070100930601C093D80A81E08093D90A46
:101C700060E08CEE90E10E9493448CEE90E1CF9175
:101C80001F910F9154CA8F929F92AF92BF92CF92A1
:101C9000DF92EF92FF920F931F93CF93DF937C011C
:101CA000062FEA01122F8091D90A811112C061E03A
:101CB0008CEE90E10E949344F0920701E0920601BD
:101CC0000093D80A81E08093D90AD093E00AC093A8
:101CD000DF0A8091DF0A9091E00A8C179D0708F4D3
:101CE0004DC01092E00A1092DF0A112309F444C09B
:101CF00060E08CEE90E10E94934468DB9093EB0AE5
:101D00008093EA0AC091DB10D091DC100091EA0ABE
:101D10001091EB0A2AE030E040E050E063E070E030
:101D200080E090E00E946D504B0126E130E040E001
:101D300050E060E070E0CB010E946D506B0125E146
:101D400030E040E050E060E070E0CB010E946D5078
:101D50009401A601CE010E94363B8CEE90E1DF910A
:101D6000CF911F910F91FF90EF90DF90CF90BF9098
:101D7000AF909F908F90DBC943DBC0CFDF91CF91B5
:101D80001F910F91FF90EF90DF90CF90BF90AF9099
:101D90009F908F90089521E076CFCF92DF92EF92BF
:101DA000FF920F931F93CF93DF936C01E62EEA010E
:101DB000F22E8091D90A811112C061E08CEE90E17F
:101DC0000E949344D0920701C0920601E092D80A83
:101DD00081E08093D90AD093E00AC093DF0A809112
:101DE000DF0A9091E00A8C179D0708F477C01092E3
:101DF000E00A1092DF0A25E130E040E050E060E0C8
:101E000070E0CB010E946D50C62F25E130E040E02C
:101E100050E060E070E0CB010E946D50C62EFF20C4
:101E200009F45AC060E08CEE90E10E949344CEDA4F
:101E30009093EB0A8093EA0A8091DB109091DC107A
:101E4000D12CD0E0E090EA0AF090EB0A9601215004
:101E50003109BE0161507109DC01ED91FC9104A0D2
:101E6000F5A1E02D06E110E050E040E009958091F9
:101E7000DB109091DC10E090EA0AF090EB0ADC01B4
:101E8000ED91FC9104A0F5A1E02D960150E040E019
:101E9000BE0109958091DB109091DC10E090EA0A78
:101EA000F090EB0A96012F5F3F4FBE016F5F7F4FAF
:101EB000DC01ED91FC9104A0F5A1E02D50E040E0A3
:101EC00009958CEE90E1DF91CF911F910F91FF90DA
:101ED000EF90DF90CF902BC993DAAACFDF91CF910B
:101EE0001F910F91FF90EF90DF90CF90089521E028
:101EF00054CFCF92DF92EF92FF920F931F93CF9325
:101F0000DF938C01C62F8091D90A81110EC061E048
:101F10008CEE90E10E949344109307010093060118
:101F2000C093D80A81E08093D90A60E08CEE90E1FA
:101F30000E9493448091C90A9091CA0A8230910507
:101F400009F459C07CF4009739F10197E1F18CEE66
:101F500090E1DF91CF911F910F91FF90EF90DF9073
:101F6000CF90E5C88430910509F49AC00CF472C092
:101F7000059769F78091D00A9091D10A01979093C3
:101F8000D10A8093D00A181619060CF49DC010923D
:101F9000CA0A1092C90A12C08091D00A9091D10A3F
:101FA00001969093D10A8093D00A4A970CF461C0AD
:101FB00081E090E09093CA0A8093C90A1092D10AF6
:101FC0001092D00AC4CF8091D00A9091D10A019684
:101FD0009093D10A8093D00A0C9714F182E090E09C
:101FE0009093CA0A8093C90A8CE090E09093D10A3A
:101FF0008093D00AACCF8091D00A9091D10A0197FA
:102000009093D10A8093D00A181619064CF083E0F9
:1020100090E09093CA0A8093C90A89E190E0E6CFE4
:10202000C091DB10D091DC10E881F981C4A0D5A06B
:10203000CDD94091D00A5091D10A06E110E0041B9D
:10204000150B7C0130E020E069E170E0CE01F60183
:1020500009957DCF8091D00A9091D10A01979093F4
:10206000D10A8093D00A181619061CF084E090E07B
:10207000A1CFC091DB10D091DC10E881F981C4A020
:10208000D5A0A4D96091D00A7091D10A29E130E09D
:10209000261B370B7C0106E110E050E040E0D6CF74
:1020A0008091D00A9091D10A01969093D10A8093A1
:1020B000D00A0B974CF085E090E09093CA0A809389
:1020C000C90A8AE090E092CFC091DB10D091DC1079
:1020D000E881F981C4A0D5A079D94091D00A509166
:1020E000D10A06E110E0041B150B7C0129E130E068
:1020F00070E060E0ABCFCF92DF92EF92FF920F9350
:102100001F93CF93DF938C01C62F8091D90A811141
:102110000EC061E08CEE90E10E94934410930701A1
:1021200000930601C093D80A81E08093D90A60E049
:102130008CEE90E10E9493448091CB0AE091D00A0A
:10214000F091D10A811109C1E930F10528F5E55571
:10215000FF4E0C946A53B410E7100011191132119C
:102160004B1163117C119511C9E7D8E005E119E025
:10217000E990F99012D9D82E10D9C82E0ED9F701AE
:10218000EE0FFF1FEE0DFF1DE351F54F8083C1825F
:10219000D2820C171D0761F78CEE90E10E94970820
:1021A0008091D00A9091D10A01969093D10A8093A0
:1021B000D00A09971CF081E08093CB0ADF91CF9180
:1021C0001F910F91FF90EF90DF90CF900895CDEE8B
:1021D000D7E009E718E0E990F990DFD8D82EDDD8EC
:1021E000C82EDBD8F701EE0FFF1FEE0DFF1DE351E8
:1021F000F54F8083C182D2820C171D0761F7CCCFC7
:10220000C1E8D7E00DEE17E0E990F990C6D8D82ED6
:10221000C4D8C82EC2D8F701EE0FFF1FEE0DFF1D68
:10222000E351F54F8083C182D2820C171D0761F7FD
:10223000B3CFC7E3D7E001E817E0E990F990ADD854
:10224000D82EABD8C82EA9D8F701EE0FFF1FEE0D80
:10225000FF1DE351F54F8083C182D2820C171D0709
:1022600061F79ACFC7EFD6E007E317E0E990F9905E
:1022700094D8D82E92D8C82E90D8F701EE0FFF1F11
:10228000EE0DFF1DE351F54F8083C182D2820C1702
:102290001D0761F781CFCBEBD6E0099119917DD86D
:1022A000F82E7BD8E82E79D8F801EE0FFF1FE00F4B
:1022B000F11FE351F54F8083E182F28286E0C73F50
:1022C000D80759F769CFC5E8D6E00BEB16E0E990DF
:1022D000F99063D8D82E61D8C82E5FD8F701EE0FD9
:1022E000FF1FEE0DFF1DE351F54F8083C182D282A7
:1022F0000C171D0761F750CFC1E5D6E005E816E0E1
:10230000E990F9904AD8D82E48D8C82E46D8F70177
:10231000EE0FFF1FEE0DFF1DE351F54F8083C182CD
:10232000D2820C171D0761F737CFC1E2D6E00991C1
:10233000199133D8F82E31D8E82E2FD8F801EE0FA6
:10234000FF1FE00FF11FE351F54F8083E182F2821E
:1023500086E0C135D80759F71FCFE930F10520F5E0
:10236000EC54FE4E0C946A53BD11E81103121E1278
:10237000391254126F128A12A512C9E7D8E00991D6
:1023800019910BD8F82E09D8E82E07D8F801EE0FCE
:10239000FF1FE00FF11FE351F54F8083E182F282CE
:1023A00089E0C531D80759F78CEE90E10E94970873
:1023B0008091D00A9091D10A01979093D10A80938D
:1023C000D00A181619060CF4F9CE1092CB0AF6CEE4
:1023D000CDEED7E0099119910E94CD09F82E0E9407
:1023E000CD09E82E0E94CD09F801EE0FFF1FE00F86
:1023F000F11FE351F54F8083E182F28288E0C93713
:10240000D80741F7D1CFC1E8D7E0099119910E94CF
:10241000CD09F82E0E94CD09E82E0E94CD09F801C1
:10242000EE0FFF1FE00FF11FE351F54F8083E182B4
:10243000F28287E0CD3ED80741F7B6CFC7E3D7E0B9
:10244000099119910E94CD09F82E0E94CD09E82E1C
:102450000E94CD09F801EE0FFF1FE00FF11FE351BD
:10246000F54F8083E182F28287E0C138D80741F7D7
:102470009BCFC7EFD6E0099119910E94CD09F82EA4
:102480000E94CD09E82E0E94CD09F801EE0FFF1F32
:10249000E00FF11FE351F54F8083E182F28287E084
:1024A000C733D80741F780CFCBEBD6E0099119911C
:1024B0000E94CD09F82E0E94CD09E82E0E94CD0978
:1024C000F801EE0FFF1FE00FF11FE351F54F80837E
:1024D000E182F28286E0C73FD80741F765CFC5E8C1
:1024E000D6E0099119910E94CD09F82E0E94CD09DC
:1024F000E82E0E94CD09F801EE0FFF1FE00FF11F3B
:10250000E351F54F8083E182F28286E0CB3BD8072E
:1025100041F74ACFC1E5D6E0099119910E94CD0952
:10252000F82E0E94CD09E82E0E94CD09F801EE0F89
:10253000FF1FE00FF11FE351F54F8083E182F2822C
:1025400086E0C538D80741F72FCFC1E2D6E0099120
:1025500019910E94CD09F82E0E94CD09E82E0E9403
:10256000CD09F801EE0FFF1FE00FF11FE351F54F0A
:102570008083E182F28286E0C135D80741F714CF2B
:102580008F929F92AF92BF92CF92DF92EF920F9372
:102590001F93CF93DF93EC014B015A0169018091A6
:1025A000D90A811114C061E08CEE90E10E9493443D
:1025B0009092070180920601E092D80A81E0809310
:1025C000D90A84E690E09093E00A8093DF0A809134
:1025D000DF0A9091E00A8436910508F44CC010920D
:1025E000E00A1092DF0A85E08093EC108091DB1006
:1025F0009091DC100E949F088091DB109091DC107C
:10260000DC0156961C9261E00E94F73E8091DB103F
:102610009091DC10DC01ED91FC91008CF18DE02DAE
:1026200060E009950E9473518091DB109091DC105D
:102630000E949F08E091DB10F091DC10B486A38625
:10264000D686C586128B018B108B0787BE01CF0102
:102650000E94CB4D8091DB109091DC10DF91CF91E7
:102660001F910F91EF90DF90CF90BF90AF909F9010
:102670008F900C94163FDF91CF911F910F91EF90A7
:10268000DF90CF90BF90AF909F908F900895AF92C2
:10269000BF92CF92DF92EF92FF920F93CF93DF938F
:1026A0007C015B016A01E9018091D90A811126C090
:1026B00061E08CEE90E10E949344B0920701A092F9
:1026C00006010093D80A81E08093D90AD092E00AEB
:1026D000C092DF0A84E190E09093050180930401A9
:1026E000D70114962D913C9146E0429FC001439F33
:1026F000900D11249093CD0A8093CC0A8091DF0A2B
:102700009091E00A8C159D0508F468C01092E00ACB
:102710001092DF0A85E08093EC108091DB1090919D
:10272000DC100E949F088091DB109091DC10FC016E
:10273000168A61E00E94F73E8091DB109091DC10D8
:10274000DC01ED91FC91008CF18DE02D60E00995AC
:102750008091040190910501019790930501809368
:1027600004012091CC0A3091CD0A3195219531098F
:102770008217930734F484E190E0909305018093ED
:1027800004010E9473518091DB109091DC100E9433
:102790009F08E091DB10F091DC1080910401909192
:1027A0000501948783878DE090E096878587D28B9B
:1027B000C18BD08BC787B701CF010E94CB4D8091D1
:1027C000DB109091DC10DF91CF910F91FF90EF9093
:1027D000DF90CF90BF90AF900C94163FDF91CF91D8
:1027E0000F91FF90EF90DF90CF90BF90AF90089542
:1027F0000F931F93CF93DF938C01C62F8091D90A3B
:1028000081110EC061E08CEE90E10E949344109320
:10281000070100930601C093D80A81E08093D90A8A
:102820008091DF0A9091E00A843F914008F4B1C0A2
:102830001092E00A1092DF0A8FE08093EC108091F2
:10284000DB109091DC100E949F088091DB1090912A
:10285000DC10DC0156961C9261E00E94F73E8091EC
:10286000DB109091DC10DC01ED91FC91008CF18D7E
:10287000E02D60E009950E9473518091DB109091EA
:10288000DC100E949F08C091DB10D091DC101C86E8
:102890001B8683E090E09E878D870E94E6099A8BD5
:1028A000898B988B8F8769E171E08091DB10909123
:1028B000DC100E945308C091DB10D091DC101C8604
:1028C0001B8688E090E09E878D870E94E6099A8BA0
:1028D000898B988B8F8763E673E08091DB109091F2
:1028E000DC100E945308C091DB10D091DC1084E012
:1028F00090E09C878B870DE010E01E870D870E947B
:10290000E6099A8B898B988B8F8763E673E08091B9
:10291000DB109091DC100E945308C091DB10D09125
:10292000DC108AE090E09C878B878EE090E09E87A9
:102930008D870E94E6099A8B898B988B8F876BE134
:1029400071E08091DB109091DC100E945308C091DF
:10295000DB10D091DC108FE090E09C878B871E8786
:102960000D870E94E6099A8B898B988B8F8762E787
:1029700071E08091DB109091DC100E9453088091EF
:10298000DB109091DC10DF91CF911F910F910C948F
:10299000163FDF91CF911F910F9108958F929F92D3
:1029A000AF92BF92CF92DF92EF920F931F93CF938C
:1029B000DF93EC015B016A0149018091D90A811121
:1029C00016C061E08CEE90E10E9493449092070162
:1029D00080920601E092D80A81E08093D90A109291
:1029E000820A1092810AD092E00AC092DF0A809196
:1029F000DF0A9091E00A8C159D0508F45BC01092E7
:102A0000E00A1092DF0A8091810A9091820AA8164A
:102A1000B9060CF44FC085E08093EC108091DB1078
:102A20009091DC100E949F088091DB109091DC1047
:102A3000DC0156961C9261E00E94F73E8091DB100B
:102A40009091DC10DC01ED91FC91008CF18DE02D7A
:102A500060E009950E947351E091DB10F091DC1069
:102A600082E090E0948783878DE090E09687858769
:102A7000128B018B108B07878091810A9091820ABB
:102A800027E0289FB001299F700D11246C0F7D1F36
:102A9000CF010E94CB4D8091DB109091DC100E9401
:102AA000163F8091810A9091820A01969093820A42
:102AB0008093810ADF91CF911F910F91EF90DF906A
:102AC000CF90BF90AF909F908F900895BF92CF927C
:102AD000DF92EF92FF920F931F93CF93DF9300D07B
:102AE0001F92CDB7DEB708E91AE088ECE82E8AE03D
:102AF000F82E95E0C92E98E0D92EBB24BA942091E7
:102B00000801309109012C9DC0012D9D900D3C9D27
:102B1000900D1124875E994C8C9D90018D9D300DF8
:102B20009C9D300D1124275E394C30930901209370
:102B30000801230F2983BA82890F8B83B801CE0144
:102B400001960E9426450D5F1F4FE016F106B9F66B
:102B50000F900F900F90DF91CF911F910F91FF90E9
:102B6000EF90DF90CF90BF900895CF93DF9300D088
:102B70001F92CDB7DEB719821A821B82AE014F5F5A
:102B80005F4F60E170E088E99AE00E940542E8E961
:102B9000FAE08FEF808381838283848785878687AD
:102BA000808F818F828F84A385A386A30F900F903F
:102BB0000F90DF91CF9108951F93CF93DF93CDB7FF
:102BC000DEB7E6970FB6F894DEBF0FBECDBF80EC40
:102BD00089831FEF1A831B83BE016C5C7F4FCE017C
:102BE00001960E94264580E689831A831B83BE01D5
:102BF0006F5C7F4FCE0101960E94264559A95983EB
:102C00004AA94A833BA93B835C834D833E831F8251
:102C1000188619861A861B861C862CA92D879DA9C5
:102C20009E878EA98F87288B998B8A8B1B8A1C8AFB
:102C30001D8A1E8A1F8A188E598F4A8F3B8F5C8F80
:102C40004D8F3E8F1F8E18A219A21AA21BA21CA282
:102C50002DA39EA38FA328A799A78AA71BA61CA66E
:102C60001DA61EA61FA618AA40E350E0BE016F5F76
:102C70007F4F88E99AE00E94F245E6960FB6F894F5
:102C8000DEBF0FBECDBFDF91CF911F910895DF92C0
:102C9000EF92FF920F931F93CF93DF9300D01F9279
:102CA000CDB7DEB7D82E8DEEE82E8AE0F82E009153
:102CB000960A1091970A2FEF4D2D68E97AE0CE0120
:102CC00001960E941A428981F70180838A8181835B
:102CD0008B818283F3E0DF0E83E0E80EF11CEFE2EC
:102CE000EE16EEE0FE0619F70F900F900F90DF91B1
:102CF000CF911F910F91FF90EF90DF9008950F9368
:102D00001F93CF93DF938C01C62FD42F8091D90AC4
:102D1000811143C061E08CEE90E10E9493441093D6
:102D2000070100930601D093D80A81E08093D90A65
:102D3000CC3008F032C0EC2FF0E0EF55F94E0C9497
:102D40006A53AD16B416BB16BE16C616C816E516DF
:102D5000E716EA16ED16F016F31668E37CE088E94C
:102D60009AE00E947C080BC068EF7BE088E99AE05B
:102D70000E947C080EC068EF7BE0F1CF1DDF81E090
:102D800090E09093970A8093960A07C09FDEF7CF52
:102D9000ECDE1092970A1092960A8091D00A9091D8
:102DA000D10A0196893E23E0920704F59093D10A57
:102DB0008093D00A8091D00A6ADF8CEE90E1DF9197
:102DC000CF911F910F910C949708CFDED8CF68E771
:102DD0007CE0C5CF68EB7BE0C2CF61EE75E0C6CF8B
:102DE00061EE75E0BCCF68E970E0B9CF1092D10A0E
:102DF0001092D00ADFCFDC016031710508F052C0BB
:102E0000FB01EB5FF84E0C946A5352171517151718
:102E10002017241728172C173017341738173C178A
:102E20004017441746174A174C1781E08C9399E1D5
:102E300011969C93119712968C931297CD01089539
:102E400081E08C9398E2F4CF81E08C9390E5F0CF11
:102E500081E08C9398E7ECCF81E08C9396E9E8CF02
:102E600081E08C9398ECE4CF85E08C939FEFE0CFEA
:102E70008AE08C9394EBDCCF8AE08C9390EAD8CFF5
:102E800084E18C939CE8D4CF8EE1E3CF82E38C93F2
:102E900094E6CECF84E6E1CF84EB8C9311968C93AD
:102EA0001197C9CF1C9211961C92119712961C92E1
:102EB0001297C4CFCF92DF92EF92FF920F931F939E
:102EC000CF93DF9300D01F92CDB7DEB77C01162FD2
:102ED0008091D90A81111EC061E08CEE90E10E94C0
:102EE0009344F0920701E09206011093D80A81E022
:102EF0008093D90A1092D10A1092D00A8BE190E007
:102F00009093CF0A8093CE0A84E690E09093E00AF3
:102F10008093DF0A8091DF0A9091E00A8436910560
:102F200008F4CEC31092E00A1092DF0AE090D00AB3
:102F3000F090D10A00E110E0F7FC1CC0015011092B
:102F40000230110514F410E000E0C090DB10D090C6
:102F5000DC10B801CE0101964EDF9E012F5F3F4F7E
:102F6000A70170E060E0C6010E94D04181E0E81A4C
:102F7000F108E2CF0091D00A1091D10A0451110951
:102F800060E1E62EF12C0C3E8FEF1807ECF081E0AB
:102F9000E81AF10882E0E816F10414F4F12CE12CAF
:102FA000C090DB10D090DC10B701CE01019623DF7A
:102FB0009E012F5F3F4FA80162E070E0C6010E94B2
:102FC000D04101501109DFCF0091D00A1091D10AF0
:102FD0000F50110950E1E52EF12C013F8FEF18073A
:102FE000ECF081E0E81AF10882E0E816F10414F44C
:102FF000F12CE12CC090DB10D090DC10B701CE0199
:103000000196F9DE9E012F5F3F4FA80164E070E05A
:10301000C6010E94D04101501109DFCF0091D00AB2
:103020001091D10A0850110940E1E42EF12C083F1B
:103030008FEF1807ECF081E0E81AF10882E0E8165B
:10304000F10414F4F12CE12CC090DB10D090DC10D2
:10305000B701CE010196CFDE9E012F5F3F4FA80141
:1030600066E070E0C6010E94D04101501109DFCF37
:10307000E090D00AF090D10A00E110E0F7FC1CC00B
:10308000015011090230110514F410E000E0C09065
:10309000DB10D090DC10B801CE010196ACDE9E01B1
:1030A0002F5F3F4FA70168E070E0C6010E94D0414A
:1030B00081E0E81AF108E2CF0091D00A1091D10A1C
:1030C0000E50110930E1E32EF12C023F8FEF18076B
:1030D000ECF081E0E81AF10882E0E816F10414F45B
:1030E000F12CE12CC090DB10D090DC10B701CE01A8
:1030F000019681DE9E012F5F3F4FA8016AE070E0DC
:10310000C6010E94D04101501109DFCF0091D00AC1
:103110001091D10A0551110920E1E22EF12C0B3E4C
:103120008FEF1807ECF081E0E81AF10882E0E8166A
:10313000F10414F4F12CE12CC090DB10D090DC10E1
:10314000B701CE01019657DE9E012F5F3F4FA801C8
:103150006CE070E0C6010E94D04101501109DFCF40
:103160000091D00A1091D10A0950110990E1E92E7D
:10317000F12C073F8FEF1807ECF081E0E81AF10817
:1031800082E0E816F10414F4F12CE12CC090DB107D
:10319000D090DC10B701CE0101962DDE9E012F5F8D
:1031A0003F4FA8016EE070E0C6010E94D04101507F
:1031B0001109DFCF0091D00A1091D10A01501109F5
:1031C00080E1E82EF12C0F3F8FEF1807ECF081E043
:1031D000E81AF10882E0E816F10414F4F12CE12C6D
:1031E000C090DB10D090DC10B701CE01019603DE59
:1031F0009E012F5F3F4FA80160E170E0C6010E9471
:10320000D04101501109DFCF0091D00A1091D10AAD
:1032100000511109B0E1EB2EF12C003F8FEF1807A0
:10322000ECF081E0E81AF10882E0E816F10414F409
:10323000F12CE12CC090DB10D090DC10B701CE0156
:103240000196D9DD9E012F5F3F4FA80162E170E03A
:10325000C6010E94D04101501109DFCF0091D00A70
:103260001091D10A07511109A0E1EA2EF12C093E73
:103270008FEF1807ECF081E0E81AF10882E0E81619
:10328000F10414F4F12CE12CC090DB10D090DC1090
:10329000B701CE010196AFDD9E012F5F3F4FA80120
:1032A00064E170E0C6010E94D04101501109DFCFF6
:1032B0000091D00A1091D10A0B501109F0E1EF2EC4
:1032C000F12C053F8FEF1807ECF081E0E81AF108C8
:1032D00082E0E816F10414F4F12CE12CC090DB102C
:1032E000D090DC10B701CE01019685DD9E012F5FE5
:1032F0003F4FA80166E170E0C6010E94D041015035
:103300001109DFCFE090CE0AF090CF0A00E110E083
:10331000F7FC1CC0015011090230110514F410E033
:1033200000E0C090DB10D090DC10B801CE01019617
:1033300062DD9E012F5F3F4FA70161E070E0C60193
:103340000E94D04181E0E81AF108E2CF0091CE0A54
:103350001091CF0A04511109E0E1EE2EF12C0C3E40
:103360008FEF1807ECF081E0E81AF10882E0E81628
:10337000F10414F4F12CE12CC090DB10D090DC109F
:10338000B701CE01019637DD9E012F5F3F4FA801A7
:1033900063E070E0C6010E94D04101501109DFCF07
:1033A0000091CE0A1091CF0A0F50110970E1E72E5B
:1033B000F12C013F8FEF1807ECF081E0E81AF108DB
:1033C00082E0E816F10414F4F12CE12CC090DB103B
:1033D000D090DC10B701CE0101960DDD9E012F5F6C
:1033E0003F4FA80165E070E0C6010E94D041015046
:1033F0001109DFCF0091CE0A1091CF0A08501109B0
:1034000060E1E62EF12C083F8FEF1807ECF081E029
:10341000E81AF10882E0E816F10414F4F12CE12C2A
:10342000C090DB10D090DC10B701CE010196E3DC38
:103430009E012F5F3F4FA80167E070E0C6010E9428
:10344000D04101501109DFCFE090CE0AF090CF0AB1
:1034500000E110E0F7FC1CC0015011090230110519
:1034600014F410E000E0C090DB10D090DC10B80144
:10347000CE010196C0DC9E012F5F3F4FA70169E09E
:1034800070E0C6010E94D04181E0E81AF108E2CF65
:103490000091CE0A1091CF0A0E50110950E1E52E8D
:1034A000F12C023F8FEF1807ECF081E0E81AF108E9
:1034B00082E0E816F10414F4F12CE12CC090DB104A
:1034C000D090DC10B701CE01019695DC9E012F5FF4
:1034D0003F4FA8016BE070E0C6010E94D04101504F
:1034E0001109DFCF0091CE0A1091CF0A05511109C1
:1034F00040E1E42EF12C0B3E8FEF1807ECF081E059
:10350000E81AF10882E0E816F10414F4F12CE12C39
:10351000C090DB10D090DC10B701CE0101966BDCBF
:103520009E012F5F3F4FA8016DE070E0C6010E9431
:10353000D04101501109DFCF0091CE0A1091CF0A7E
:103540000950110930E1E32EF12C073F8FEF1807E6
:10355000ECF081E0E81AF10882E0E816F10414F4D6
:10356000F12CE12CC090DB10D090DC10B701CE0123
:10357000019641DC9E012F5F3F4FA8016FE070E094
:10358000C6010E94D04101501109DFCF0091CE0A3F
:103590001091CF0A0150110920E1E22EF12C0F3FCA
:1035A0008FEF1807ECF081E0E81AF10882E0E816E6
:1035B000F10414F4F12CE12CC090DB10D090DC105D
:1035C000B701CE01019617DC9E012F5F3F4FA80186
:1035D00061E170E0C6010E94D04101501109DFCFC6
:1035E0000091CE0A1091CF0A0051110990E1E92E05
:1035F000F12C003F8FEF1807ECF081E0E81AF1089A
:1036000082E0E816F10414F4F12CE12CC090DB10F8
:10361000D090DC10B701CE010196EDDB9E012F5F4B
:103620003F4FA80163E170E0C6010E94D041015004
:103630001109DFCF0091CE0A1091CF0A075111096D
:1036400080E1E82EF12C093E8FEF1807ECF081E0C5
:10365000E81AF10882E0E816F10414F4F12CE12CE8
:10366000C090DB10D090DC10B701CE010196C3DB17
:103670009E012F5F3F4FA80165E170E0C6010E94E7
:10368000D04101501109DFCF8CEE90E10E949708E4
:103690008091D00A9091D10A019689339105E4F482
:1036A0009093D10A8093D00A8091CE0A9091CF0A4C
:1036B000019689339105ACF49093CF0A8093CE0A9A
:1036C0000F900F900F90DF91CF911F910F91FF906E
:1036D000EF90DF90CF9008951092D10A1092D00A07
:1036E000E3CF1092CF0A1092CE0AEACF1092900048
:1036F0008BE0809391008AE698E190939900809303
:10370000980082E0809371000895CF93C82F809332
:10371000D70A1092D90A1092E00A1092DF0A10928A
:10372000DE0A1092DD0A1092D10A1092D00A87E1C7
:1037300090E090930501809304011092840A109206
:10374000830A1092800A10927F0A10927E0A6DE11D
:1037500071E08CE791E10E9453086C2F8CE791E1B6
:10376000CF910C9465081F920F920FB60F921124FF
:103770000BB60F922F933F934F935F936F937F936B
:103780008F939F93AF93BF93EF93FF938091DF0A43
:103790009091E00A49969093E00A8093DF0A809125
:1037A000DB0A9091DC0A49969093DC0A8093DB0A4D
:1037B0008091DD0A9091DE0A49969093DE0A80930B
:1037C000DD0A91E09093DA0A8BB120E482278BB96D
:1037D0002091DB0A3091DC0A283E334030F0109211
:1037E000DC0A1092DB0A9093D60A2091DD0A309110
:1037F000DE0A80910601909107012817390718F019
:103800008091D80A82DFFF91EF91BF91AF919F9194
:103810008F917F916F915F914F913F912F910F9079
:103820000BBE0F900FBE0F901F901895CF93C82F0F
:103830008093EC0A60E371E08CE791E10E94540808
:1038400064E471E08CE791E10E9453086C2F8CE7EF
:1038500091E10E94650860E371E08CE791E10E94CC
:10386000540880E0CF9151CFAF92BF92CF92DF92B8
:10387000EF92FF920F931F93CF93DF9368EE73E065
:1038800080E090E00E94E7494FEF60E470E087E05D
:1038900091E10E94CA4C569A88E20E944F48BC01AE
:1038A000990F880B990B1F921F921F9228E72F9355
:1038B000A12CB12C6501EE24EA9413E0F12E00E076
:1038C00010E020E030E0A9010E948A506093E30AF2
:1038D00082E391E00E94944DEC010AE027E130E0A0
:1038E00046E150E06DEE7AE00E94F93ED093DC10A4
:1038F000C093DB108091F5090F900F900F900F90FF
:1039000081114DC085EF99E00E94954D892B09F4F6
:1039100046C01092000A1092FF098FEF8093030AAD
:103920008093040A8093050A8093060A8093070A0D
:103930008093080A81E08093090A10920B0A109282
:103940000A0A1092020A1092010A8091EA109091DC
:10395000EB10892B31F48DEF99E09093EB1080936D
:10396000EA10E091E810F091E910309721F08DEF26
:1039700099E0958384838DEF99E09093E91080938B
:10398000E81010920D0A10920C0A83E895E09093CB
:10399000FE098093FD0985EF99E00E949E4D30E07D
:1039A00020E04AEF51E06DEE7AE08DEF99E00E9461
:1039B000E944FC018FEF868380EB878380EF80876B
:1039C0008091DB109091DC100E94703F8091DB10A1
:1039D0009091DC102FE02093EC10FC01168A69E432
:1039E00077E00E94FF41F89481DE789468E37CE000
:1039F00088E99AE00E947C0881E090E09093970A21
:103A00008093960A80E0DF91CF911F910F91FF90F4
:103A1000EF90DF90CF90BF90AF9008CFEF92FF92E2
:103A20000F93CF93DF9300D000D000D01F92CDB77B
:103A3000DEB78091D70A833209F478C028F58A303E
:103A400009F45EC088F48823F1F1853009F453C08D
:103A500027960FB6F894DEBF0FBECDBFDF91CF9192
:103A60000F91FF90EF900895843109F451C089318E
:103A700009F454C08F3061F744EF51E064E180E114
:103A800097E20E941A0AE4CF823309F45EC058F428
:103A9000883209F453C08D32D9F662E380E197E2AF
:103AA0000E947B10D5CF8C3309F455C0843609F4BD
:103AB00058C0873369F644EF51E06CE388E99AE334
:103AC0000E94770FC5CF0E94E6097C016CE972E085
:103AD000CE0101960E94325105E097014AE550E07F
:103AE0006CE27CE4CE0101960E944713CE01019660
:103AF0000E94C950ADCF6AE080E395E7DBD9A8CF3B
:103B00004FE060ED77E088E99AE30E94D40CA0CF03
:103B100069E188E99AE30E94D10C9ACF40ED57E021
:103B200063E288E99AE30E94380B92CF48EE53E0B3
:103B300068E288E99AE30E94CB0E8ACF4DE265E005
:103B400088E99AE30E942C0B83CF67E380E197E238
:103B50000E94790F7DCF49EC5DE164E680E69AEE44
:103B600090CF60E08CEE90E10E94934480E05EDEB6
:103B70006FCFEF92FF920F931F93CF93DF9300D0FD
:103B800000D000D01F92CDB7DEB78091D70A89311F
:103B900009F487C038F5853009F46FC098F488239C
:103BA00009F44BC0823009F460C027960FB6F89430
:103BB000DEBF0FBECDBFDF91CF911F910F91FF9060
:103BC000EF9008958F3009F45EC0843109F461C02C
:103BD0008A3059F742EC51E06FE08CE790E60E94A2
:103BE000380BE3CF8D3209F476C080F4833209F4C8
:103BF0005FC0883209F46BC08E31B9F648E853E1F2
:103C000063E28AE59EE60E941A0ACFCF873309F461
:103C100067C0843609F46AC0823339F60E94CD0940
:103C20007C010E94CD098C010E94CD099C014BE4CE
:103C300050E067E38DE297E347C00E94E6097C010C
:103C400067E571E0CE0101960E94325102E09701D2
:103C50004BE450E06BE675E3CE0101960E944713FA
:103C6000CE0101960E94C950A0CF45E06BE673E0FB
:103C70008AE89BE10E94D40C98CF6AE08AE59EE630
:103C80000E94D10C92CF44E16BE673E08DE297E3A2
:103C9000F1CF42EC51E069E181E49EE60E94770FAA
:103CA00084CF4EE165E080E395E70E942C0B7DCF49
:103CB000EE24EA94F12C0FEF10E02FEF30E04BE40C
:103CC00050E068E285EC9DE00E949D0B6ECF42ECD7
:103CD00051E06DE282CF42E365E087EB92E5E5CF0C
:103CE00048E853E164E688EA91E68DCF60E08CEE27
:103CF00090E10E94934480E099DD57CFEF92FF92CC
:103D00000F931F93CF93DF9300D000D000D01F926A
:103D1000CDB7DEB78091D70A823309F4F2C008F03C
:103D20004BC0843109F4CDC010F5853009F4BBC017
:103D300098F4882309F497C0813009F4ACC0279621
:103D40000FB6F894DEBF0FBECDBFDF91CF911F91AC
:103D50000F91FF90EF9008958A3009F4ACC08F3036
:103D600071F748EB5BE064E181EF90E499C0833246
:103D700009F4BDC0B0F4893109F4B3C08E31F9F64D
:103D80000E94CD097C010E94CD098C010E94CD09C1
:103D90009C0142E350E063E281E297E00E949D0BC8
:103DA000CECF883209F4A9C08D3249F648EB5BE0EA
:103DB00062E38DE792E374C0863409F4BDC060F518
:103DC0008A3309F4ABC0A8F4873309F49FC0883361
:103DD00009F0B5CF0E94CD097C010E94CD098C016C
:103DE0000E94CD099C0142E350E06AE38AE397E038
:103DF000D5CF8C3309F498C0813409F0A0CFEE24DC
:103E0000EA94F12C0FEF10E02FEF30E042E350E0A6
:103E100066E484E79EE0C2CF853509F4A2C098F439
:103E20008B3409F498C0803509F089CF0E94CD0900
:103E30007C010E94CD098C010E94CD099C0142E3C6
:103E400050E065E5E6CF8F3509F494C0843609F477
:103E50009DC08A3509F073CF4FE565E088EB9FE69A
:103E60000E942C0B6CCF0E94E6097C0164E771E094
:103E7000CE0101960E94325101E0970144E650E0E4
:103E800063E47BE2CE0101960E944713CE010196C6
:103E90000E94C95054CF48EB5BE065E089E094E2B2
:103EA0000E941A0A4CCF4DE953E06AE086E896E595
:103EB0000E94CB0E44CF6FE087EB99E30E94D10CB8
:103EC0003ECF0E94E60959E1E52E8C012AE337E056
:103ED00045E451E066E070E08EE09AE00E94CE1486
:103EE0002ECF42EC51E06EE18DE792E3E1CF42EC60
:103EF00051E068E287EB99E3DBCF6DE28EE693E772
:103F0000DDCF0E94E60947E3E42EDFCF42EC51E02B
:103F100068E384E692E30E94770F11CF42EC51E010
:103F20006CE387EB99E3F7CF41E46AE377E08AE853
:103F30009DE40E94D40C03CF0E94CD097C010E9415
:103F4000CD098C010E94CD099C0142E350E06BE455
:103F500080E797E123CF40E56DE973E08EE999E3CF
:103F6000E8CF20E042EC51E06AE58EE693E70E945C
:103F7000430EE5CE0E94E60929E0E22E8C0120E600
:103F80003AEE45E451E064E670E0A6CF60E08CEEE6
:103F900090E10E94934480E049DCD1CEEF92FF9201
:103FA0000F931F93CF93DF9300D000D000D01F92C8
:103FB000CDB7DEB78091D70A8E3109F49FC0F0F5F6
:103FC0008A3009F47DC060F5823009F469C085301B
:103FD00009F46EC0811117C00E94E6097C0165E8F2
:103FE00071E0CE0101960E94325102E097014BE44C
:103FF00050E061E87EE2CE0101960E944713CE01B7
:1040000001960E94C95027960FB6F894DEBF0FBEE6
:10401000CDBFDF91CF911F910F91FF90EF90089549
:10402000843109F455C0893109F458C08F3059F7EB
:1040300046EB53E064E189E79BE337C0823309F440
:1040400072C0B8F4883209F461C08D3209F464C0DA
:104050008332C9F6EE24EA94F12C0FEF10E02FEF33
:1040600030E04BE450E068E289E79BE30E949D0B5F
:10407000CACF8C3309F45DC0843609F462C087333B
:1040800011F60E94CD097C010E94CD098C010E948D
:10409000CD099C014BE450E06CE380EB9DE1E6CF61
:1040A00046EB53E065E082E794E60E94CB0EABCF8F
:1040B0004BED51E06AE084E892EB0E94770FA3CFCA
:1040C00046EB53E06FE08BE097E70E94380B9BCF05
:1040D0004BED51E069E18BE097E7EFCF0E94E609F5
:1040E0002EE1E22E8C012BE236E14BED51E06AE04D
:1040F00070E088E39AE00E94CE1485CF43E26CE63C
:1041000077E087EC90E60E94D40C7DCF48EB53E03B
:104110006DE289E79BE3D9CF42E365E080EB9DE167
:104120000E942C0B70CF46EB53E067E380EB9DE1E0
:10413000CCCF49EC5DE164E68FEF9FEF0E941A0A55
:1041400062CF60E08CEE90E10E94934480E06EDBF1
:104150005ACFEF92FF920F931F93CF93DF9300D02C
:1041600000D000D01F92CDB7DEB78091D70A8E3134
:1041700009F4ADC090F5853009F490C0B8F48130F1
:1041800009F485C008F46BC045E064E0823009F4AE
:1041900080C027960FB6F894DEBF0FBECDBFDF916B
:1041A000CF911F910F91FF90EF9008958F3009F4F8
:1041B00079C030F48A3069F789E00E948609E9CF36
:1041C000843109F473C044EF51E06EE1893109F79D
:1041D00086E09FE30E94CB0EDCCF873309F48FC0CB
:1041E000D0F4883209F478C050F444EF51E068E22A
:1041F000833279F686E09FE30E94380BCACF8D3276
:1042000009F477C0823329F647E367E08DEF9EE338
:104210000E942C0BBECF813409F475C090F48C330E
:1042200009F0B7CF0E94CD097C010E94CD098C0115
:104230000E94CD099C014BE450E061E484E49FE2DC
:1042400043C0863409F464C0843609F0A2CF60E02C
:104250008CEE90E10E94934480E0E8DA9ACF0E94CD
:10426000E6097C016DE971E0CE0101960E943251B0
:1042700001E097014BE450E06EE07DE3CE01019652
:104280000E944713CE0101960E94C95082CF42E09E
:1042900063E083E89FE10E947F167BCF44EF51E00B
:1042A0006AE096CF44EF51E064E1A4CF0E94CD09CB
:1042B0007C010E94CD098C010E94CD099C014BE438
:1042C00050E069E186E09FE30E949D0B62CF43E2EC
:1042D00064E086E09FE3DFCF0E94CD097C010E946D
:1042E000CD098C010E94CD099C014BE450E06DE2A8
:1042F000E9CF62E382E79FE10E94D10C4ACF44EF0D
:1043000051E06CE377CF46E46CE089EB9FE080CF2F
:1043100064E680E197E20E94210E3BCFEF92FF928C
:104320000F931F93CF93DF9300D000D000D01F9244
:10433000CDB7DEB78091D70A843109F475C048F54E
:10434000823009F45CC0A8F4882309F440C042E03C
:1043500063E0813009F47BC027960FB6F894DEBF86
:104360000FBECDBFDF91CF911F910F91FF90EF90C6
:1043700008958A3009F44AC08F3009F44DC0853061
:1043800059F749EA51E06AE082EB9CE60E94CB0EC5
:10439000E3CF883209F462C060F48E3109F455C06D
:1043A000833209F457C08931B9F649EA51E06EE128
:1043B000EBCF863409F461C0843609F464C08D32D1
:1043C00059F666E489E596E30E94D10CC5CF0E94B8
:1043D000E6097C0164EB71E0CE0101960E94325146
:1043E00001E097014BE450E063ED7FE4CE010196DC
:1043F0000E944713CE0101960E94C950ADCF45E0FF
:1044000064E082EB9CE60E947F16A6CF6FE082EB11
:104410009CE60E94790FA0CF49EA51E064E189E56A
:1044200096E30E94380B98CF0E94CD097C010E9430
:10443000CD098C010E94CD099C014BE450E069E15B
:1044400089E596E30E949D0B87CF43E264E089E50E
:1044500096E3D9CF49EA51E068E2E1CF0E94CD0965
:104460007C010E94CD098C010E94CD099C014BE486
:1044700050E06DE28FEE93E4E5CF64E680E197E2F1
:104480000E94210E69CF60E08CEE90E10E9493447F
:1044900080E0CCD961CFEF92FF920F931F93CF931F
:1044A000DF9300D000D000D01F92CDB7DEB7E091EF
:1044B000D70AE53608F081C0F0E0EF59FD4D0C94C5
:1044C0006A53C622EA22F122DD22DD22F622FE22F2
:1044D00004230A23102312231A232B232D233123F1
:1044E0003323DD22DD223723DD224623DD22DD22B8
:1044F000DD22DD224923DD224D23DD225223DD2270
:104500005423DD225823DD225A23DD225E23DD22BF
:104510006B23DD226D23DD227123DD227323DD2257
:104520007723DD228423DD228A23DD229023DD22EE
:104530009823DD229F23DD22A323DD22A823DD2271
:10454000DD22DD22DD22DD22DD22DD22DD22DD2273
:10455000DD22DD22DD22DD22DD22DD22DD22DD2263
:10456000DD22DD22DD22DD22DD22DD22DD22DD2253
:10457000DD22DD22DD22DD22DD22DD22DD22DD2243
:10458000DD22DD22DD22DD22DD22AC230E94E609D0
:104590007C0162ED71E0CE0101960E94325101E092
:1045A00097014BE450E069E77EE2CE0101960E945C
:1045B0004713CE0101960E94C95027960FB6F89472
:1045C000DEBF0FBECDBFDF91CF911F910F91FF9046
:1045D000EF90089542E067E083E590E20E947F1645
:1045E000ECCF45E066E086EA90E4F8CF44EF51E096
:1045F00066E086EA90E40E94CB0EDFCF67E086E4B7
:104600009EE10E94790FD9CF68E08EE096E00E948B
:10461000F813D3CF44EF51E069E08FE09AE007C090
:104620006AE0F3CF44EF51E06BE08CE19CE00E9444
:10463000380BC3CF0E94CD097C010E94CD098C01AB
:104640000E94CD099C014BE450E06CE086E49EE1C1
:104650000E949D0BB2CF6DE0D8CF44EF51E06EE0E9
:10466000DCCF6FE0D2CF44EF51E062E1DECF0E94B9
:10467000CD097C010E94CD098C010E94CD099C01CD
:104680004BE450E064E183E590E2E2CF49E168E089
:10469000AACF44EF51E06BE1ACCF4DE164E086E49A
:1046A0009EE19CCF6FE1B1CF44EF51E061E2B5CF25
:1046B00063E2ABCF44EF51E065E2B7CF0E94CD0992
:1046C0007C010E94CD098C010E94CD099C014BE424
:1046D00050E067E2BBCF69E298CF44EF51E06BE274
:1046E0009CCF6DE292CF44EF51E06FE29ECF0E94EB
:1046F000CD097C010E94CD098C010E94CD099C014D
:104700004BE450E061E3BFCF63E388EA98E40E94A2
:104710005A1753CF65E386EA90E40E94D10C4DCF3F
:1047200047E364EF71E083E590E20E94D40C45CF4B
:1047300049E367E083E590E20E942C0B3ECF4BE318
:104740006AEF70E0F0CF4DE36CE08FE49EE1F4CFD0
:1047500064E680E395E75BCF60E08CEE90E10E9439
:10476000934480E063D829CFEF92FF920F931F9379
:10477000CF93DF9300D000D000D01F92CDB7DEB72B
:104780008091D70A833209F4F5C008F04BC0863116
:1047900009F4CCC018F58A3009F4B8C098F488231D
:1047A00009F494C0853009F4A9C027960FB6F8948F
:1047B000DEBF0FBECDBFDF91CF911F910F91FF9054
:1047C000EF9008958F3009F4A9C046E164E0843188
:1047D00061F78EEE94E30E947F16E7CF8C3109F4E7
:1047E000BBC0A0F4883109F4B2C08A31F1F60E944E
:1047F000CD097C010E94CD098C010E94CD099C014C
:1048000042E350E06CE188EE93E09EC0803209F410
:10481000AAC0823209F4ABC08E3139F644EF51E0C0
:1048200060E27FC08C3209F4BBC018F5863209F40F
:10483000B0C098F4843209F4AAC0853209F0B5CF2B
:104840000E94CD097C010E94CD098C010E94CD09F6
:104850009C0142E350E066E2D6CF883209F49BC067
:104860008A3209F0A2CF6CE284EA98E30E945A17D8
:104870009CCF823309F4A4C098F48E3209F49DC011
:10488000803309F092CF0E94CD097C010E94CD09AE
:104890008C010E94CD099C0142E350E062E3B3CF5A
:1048A0008C3309F490C0843609F493C0873309F03F
:1048B0007CCF0E94CD097C010E94CD098C010E9411
:1048C000CD099C0142E350E06CE39DCF0E94E609D4
:1048D0007C016BEE71E0CE0101960E94325105E041
:1048E000970142E350E06CE47DE1CE0101960E9425
:1048F0004713CE0101960E94C95057CF4AE066EB9C
:1049000073E083E79CE30E94D40C4FCF44EF51E067
:104910006FE083E79CE30E94CB0E47CF44EF51E06A
:1049200064E183E79CE30E94380B3FCF0E94CD09EE
:104930007C010E94CD098C010E94CD099C0142E3BB
:1049400050E068E185E897E00E949D0B2ECF4AE198
:1049500063E084EA98E304C04EE167E08AE59CE303
:104960000E942C0B22CF44EF51E062E2D2CF43E20F
:1049700065E02FCF0E94CD097C010E94CD098C01FA
:104980000E94CD099C0142E350E064E2DBCF45E2A6
:10499000DFCF48E2E2CF4AE262E083E79CE31BCF4D
:1049A0000E94CD097C010E94CD098C010E94CD0995
:1049B0009C0142E350E06EE226CF40E365E0C9CFC0
:1049C00047E36AE0C6CF64E680E197E20E94210EE9
:1049D000ECCE60E08CEE90E10E94934480E00E9477
:1049E000161CE3CEEF92FF920F931F93CF93DF93AA
:1049F00000D000D000D01F92CDB7DEB78091D70A8B
:104A0000893109F486C058F5853009F474C0B8F4CA
:104A1000813009F469C008F44FC045E064E0823099
:104A200009F464C027960FB6F894DEBF0FBECDBF61
:104A3000DF91CF911F910F91FF90EF9008958F30EC
:104A400009F45CC0843109F461C08A3059F746E941
:104A500050E06FE080E09BE40E94CB0EE3CF8D320C
:104A600009F476C068F4833209F45BC0883209F433
:104A70005EC08E31B9F643E264E080E297E638C06A
:104A8000873309F46BC048F4823361F647E367E08B
:104A900080E09BE40E942C0BC5CF8C3309F463C0EB
:104AA000843609F0BFCF60E08CEE90E10E94934421
:104AB00080E00E94161CB6CF0E94E6097C0163E0EC
:104AC00072E0CE0101960E94325101E097014BE461
:104AD00050E060E875E2CE0101960E944713CE01D6
:104AE00001960E94C9509ECF42E063E080E09BE4C3
:104AF0000E947F1697CF4AE067E0F8CF48E552E082
:104B000064E180E890E70E94380B8CCF49E168E0CF
:104B1000EDCF46E950E06EE180E09BE40E94770F24
:104B200081CF68E280EB94E00E94210E7BCF0E944F
:104B3000CD097C010E94CD098C010E94CD099C0108
:104B400042E350E06DE280EB94E00E949D0B6ACF5F
:104B500046E950E062E380E09BE4D5CF4CE365E0BA
:104B600080EE9EE2C5CF42E350E064E680E096E945
:104B70000E941A0A57CFEF92FF920F93CF93DF93C1
:104B800000D000D000D01F92CDB7DEB78091D70AF9
:104B9000833209F4A5C0A0F58A3009F492C0C0F4AC
:104BA000813009F484C008F46AC0823009F486C0F8
:104BB0004AE0853009F488C027960FB6F894DEBF26
:104BC0000FBECDBFDF91CF910F91FF90EF90089571
:104BD000843109F478C038F444E16BE08F3061F738
:104BE00088E391E468C0893109F472C043E28E31F0
:104BF00019F76DE072E088E391E40E94D40CDCCFF9
:104C00008C3309F47EC0C8F48D3209F46DC040F4D1
:104C1000883291F66DE287E298E00E94790FCCCF5E
:104C2000823309F465C04DE052E06CE3873321F62E
:104C300088E391E40E94380BBFCF8B3409F46DC038
:104C400078F4813409F464C0863409F0B5CF20E0EB
:104C50004AEF50E06BE488E391E40E94430EACCF4E
:104C6000803509F460C0843609F0A6CF60E08CEE90
:104C700090E10E94934480E00E94161C9DCF0E9408
:104C8000E6097C0167E172E0CE0101960E94325193
:104C900001E097014BE450E06CE078E3CE0101962F
:104CA0000E944713CE0101960E94C95085CF42E071
:104CB00064E088EC99E20E947F167ECF45E068E0D0
:104CC0008FCF4FE096CF49E161E081E199E3F3CFE7
:104CD0004DE052E06EE188E391E40E94CB0E6CCF90
:104CE0004DE052E068E2A4CF4AEF50E062E3F3CF38
:104CF00021E04AEF50E067E388E391E40E94CD0EA3
:104D00005BCF41E46CE088E391E40E942C0B54CF2C
:104D100020E04AEF50E066E4EFCF60E58DEB92E9EA
:104D20000E945A1749CF64E680E197E20E94210E63
:104D300043CFEF92FF920F931F93CF93DF9300D057
:104D400000D000D01F92CDB7DEB78091D70A8E3148
:104D500009F4B0C0A0F5853009F493C0B8F48130EF
:104D600009F488C008F46EC045E064E0823009F4BC
:104D700083C027960FB6F894DEBF0FBECDBFDF917C
:104D8000CF911F910F91FF90EF9008958F3009F40C
:104D90007CC040F48A3069F76FE086E09FE30E94B0
:104DA000790FE7CF843109F474C044EF51E06EE12C
:104DB0008931F9F686E09FE30E94CB0EDACF873384
:104DC00009F490C0D0F4883209F479C050F444EF6B
:104DD00051E068E2833269F686E09FE30E94380B77
:104DE000C8CF8D3209F478C0823319F647E367E003
:104DF0008DEF9EE30E942C0BBCCF813409F476C06A
:104E000090F48C3309F0B5CF0E94CD097C010E944B
:104E1000CD098C010E94CD099C014BE450E061E476
:104E200084E49FE244C0863409F465C0843609F006
:104E3000A0CF60E08CEE90E10E94934480E00E945D
:104E4000161C97CF0E94E6097C0165E372E0CE0153
:104E500001960E94325101E097014BE450E06EE070
:104E60007DE3CE0101960E944713CE0101960E9478
:104E7000C9507FCF42E063E083E89FE10E947F1644
:104E800078CF44EF51E06AE095CF44EF51E064E120
:104E9000A3CF0E94CD097C010E94CD098C010E9404
:104EA000CD099C014BE450E069E186E09FE30E945C
:104EB0009D0B5FCF43E264E086E09FE3DFCF0E947B
:104EC000CD097C010E94CD098C010E94CD099C0175
:104ED0004BE450E06DE2E9CF62E382E79FE10E949C
:104EE000D10C47CF44EF51E06CE376CF46E46CE061
:104EF00089EB9FE07FCF64E680E197E20E94210E7C
:104F000038CFEF92FF920F931F93CF93DF9300D090
:104F100000D000D01F92CDB7DEB78091D70A88327B
:104F200009F4A8C008F044C08F3009F48BC000F524
:104F3000853009F47AC08A3009F47FC081111FC01E
:104F40000E94E6097C0167E472E0CE0101960E94AE
:104F5000325105E097014BE450E06CE77EE2CE0170
:104F600001960E944713CE0101960E94C95007C0C6
:104F7000893109F470C080F4843109F466C0279641
:104F80000FB6F894DEBF0FBECDBFDF91CF911F915A
:104F90000F91FF90EF9008958E3109F464C048E2BC
:104FA00069E0833261F789E79BE30E947F16E7CFD0
:104FB000813409F46DC0A8F4823309F45EC030F482
:104FC0008D32E9F662E389E79BE342C0873309F457
:104FD0005AC08C33A1F661E48DE69DE30E94210E58
:104FE000CECF803509F461C088F48B3441F6EE24CD
:104FF000EA94F12C0FEF10E02FEF30E04FEA50E091
:1050000060E58DE094E30E949D0BB9CF853509F4EE
:1050100052C0843609F0B3CF60E08CEE90E10E947C
:10502000934480E00E94161CAACF4BED51E06AE049
:105030008AE593E20E94CB0EA2CF4FE066E082E9C0
:105040009BE3B3CF44E163E0AECF69E182E99BE348
:105050000E94D10C94CF4BED51E06EE189E79BE3C8
:105060000E94380B8CCF43E264E082E99BE30E940C
:105070002C0B85CF4DE263E0E2CF4BED51E067E3CF
:1050800082E99BE3EDCF4CE368E08EE999E3EFCF53
:1050900090EDE92E97E0F92E04E621E04BE461E083
:1050A0008BE097E70E94BD0A6ACF65E589EC9DE138
:1050B0000E945A1764CF64E680E197E28FCFEF92A7
:1050C000FF920F931F93CF93DF9300D000D000D0B7
:1050D0001F92CDB7DEB78091D70A8E3109F4B0C0E8
:1050E000A0F5853009F493C0B8F4813009F488C084
:1050F00008F46EC045E064E0823009F483C027966E
:105100000FB6F894DEBF0FBECDBFDF91CF911F91D8
:105110000F91FF90EF9008958F3009F47CC040F418
:105120008A3069F76FE086E09FE30E94790FE7CF4E
:10513000843109F474C044EF51E06EE18931F9F62D
:1051400086E09FE30E94CB0EDACF873309F490C04C
:10515000D0F4883209F479C050F444EF51E068E2A9
:10516000833269F686E09FE30E94380BC8CF8D3208
:1051700009F478C0823319F647E367E08DEF9EE3C8
:105180000E942C0BBCCF813409F476C090F48C3390
:1051900009F0B5CF0E94CD097C010E94CD098C0198
:1051A0000E94CD099C014BE450E061E484E49FE25D
:1051B00044C0863409F465C0843609F0A0CF60E0AD
:1051C0008CEE90E10E94934480E00E94161C97CFE1
:1051D0000E94E6097C0160E672E0CE0101960E9421
:1051E000325101E097014BE450E06EE07DE3CE01E7
:1051F00001960E944713CE0101960E94C9507FCFAD
:1052000042E063E083E89FE10E947F1678CF44EF9D
:1052100051E06AE095CF44EF51E064E1A3CF0E94F2
:10522000CD097C010E94CD098C010E94CD099C0111
:105230004BE450E069E186E09FE30E949D0B5FCF65
:1052400043E264E086E09FE3DFCF0E94CD097C016A
:105250000E94CD098C010E94CD099C014BE450E0D5
:105260006DE2E9CF62E382E79FE10E94D10C47CF74
:1052700044EF51E06CE376CF46E46CE089EB9FE0CD
:105280007FCF64E680E197E20E94210E38CFEF9253
:10529000FF920F931F93CF93DF9300D000D000D0E5
:1052A0001F92CDB7DEB78091D70A8E3109F4B0C016
:1052B000A0F5853009F493C0B8F4813009F488C0B2
:1052C00008F46EC045E064E0823009F483C027969C
:1052D0000FB6F894DEBF0FBECDBFDF91CF911F9107
:1052E0000F91FF90EF9008958F3009F47CC040F447
:1052F0008A3069F76FE086E09FE30E94790FE7CF7D
:10530000843109F474C044EF51E06EE18931F9F65B
:1053100086E09FE30E94CB0EDACF873309F490C07A
:10532000D0F4883209F479C050F444EF51E068E2D7
:10533000833269F686E09FE30E94380BC8CF8D3236
:1053400009F478C0823319F647E367E08DEF9EE3F6
:105350000E942C0BBCCF813409F476C090F48C33BE
:1053600009F0B5CF0E94CD097C010E94CD098C01C6
:105370000E94CD099C014BE450E061E484E49FE28B
:1053800044C0863409F465C0843609F0A0CF60E0DB
:105390008CEE90E10E94934480E00E94161C97CF0F
:1053A0000E94E6097C0163E872E0CE0101960E944A
:1053B000325101E097014BE450E06EE07DE3CE0115
:1053C00001960E944713CE0101960E94C9507FCFDB
:1053D00042E063E083E89FE10E947F1678CF44EFCC
:1053E00051E06AE095CF44EF51E064E1A3CF0E9421
:1053F000CD097C010E94CD098C010E94CD099C0140
:105400004BE450E069E186E09FE30E949D0B5FCF93
:1054100043E264E086E09FE3DFCF0E94CD097C0198
:105420000E94CD098C010E94CD099C014BE450E003
:105430006DE2E9CF62E382E79FE10E94D10C47CFA2
:1054400044EF51E06CE376CF46E46CE089EB9FE0FB
:105450007FCF64E680E197E20E94210E38CFEF9281
:10546000FF920F931F93CF93DF9300D000D000D013
:105470001F92CDB7DEB7E091D70AE53608F081C0BC
:10548000F0E0EB5BF54D0C946A53AA2AC12ACE2AB0
:10549000C12AD42AC12AEA2AC12AFA2AC12A032BFC
:1054A000C12A152BC12A272BC12A2C2BC12A392B03
:1054B000C12A412BC12A4A2BC12A522BC12A5E2B59
:1054C000C12A6A2BC12A7B2BC12A7F2BC12A872B99
:1054D000C12A942BC12A9A2BC12AA12BC12AA52B00
:1054E000C12AB12BC12ABD2BC12ACC2BC12AD02B5A
:1054F000C12AD22BC12ADD2BC12AE12BC12AE72BDD
:10550000C12AF22BC12AFF2BC12A032CC12A092C44
:10551000C12A162CC12A1C2CC12A272CC12A2D2CA9
:10552000C12A382CC12AC12AC12AC12AC12AC12AAA
:10553000C12AC12AC12AC12AC12AC12AC12AC12A13
:10554000C12AC12AC12AC12AC12AC12AC12AC12A03
:10555000C12A3C2C0E94E6097C016AEA72E0CE0175
:1055600001960E94325102E097014BE450E064E062
:1055700072E4CE0101960E944713CE0101960E946B
:10558000C95027960FB6F894DEBF0FBECDBFDF918E
:10559000CF911F910F91FF90EF90089564E082E802
:1055A00094E10E94210EEDCF0E94E6098C016EEC81
:1055B00072E0CE0101960E94325136E0E32E2DE0DA
:1055C00030E050E040E066EB73E0CE0101960E94CF
:1055D000C012D3CF0E94E6098C0164ED72E0CE01C7
:1055E00001960E94325128E0E22E2DE030E046E0A4
:1055F00050E0E9CF21E04CE657E06AE08DE094E32B
:105600000E94430EBECF0E94E6098C0167ED72E056
:10561000CE0101960E9432519CE0E92E2DE030E04F
:1056200041E050E06CE677E0D0CF0E94E6098C01C3
:1056300064ED72E0CE0101960E9432518EE0E82EB8
:105640002DE030E046E050E065E877E0BECF20E0B6
:105650004CE657E060E1D2CFB0EDEB2EB7E0FB2E89
:1056600004E621E042E161E089E79BE30E94BD0A94
:1056700088CF4BED51E064E189EC9DE10E94380B4D
:1056800080CF20E04BED51E066E182E99BE30E9490
:10569000CD0E77CF48E853E168E18BE097E70E94B1
:1056A0001A0A6FCF0E94E6098C016EEC72E0CE01FF
:1056B00001960E943251AAE1EA2E81CF0E94E609AA
:1056C0008C0164ED72E0CE0101960E943251FCE142
:1056D000EF2E8BCF0E94CD097C010E94CD098C0159
:1056E0000E94CD099C014AEF50E06EE182E894E10E
:1056F0000E949D0B46CF60E287E499E052CF42E2E0
:105700006BED71E08DE094E30E94D40C3ACFEE246F
:10571000EA94F12C0FEF10E02FEF30E04BE450E073
:1057200064E288ED9EE0E4CF4BED51E066E281EF6C
:105730009EE0A4CF20E04BED51E068E289EC9DE1D2
:10574000A6CF48E853E16AE2A8CF0E94E6098C019F
:105750006EEC72E0CE0101960E9432517CE2E72E9F
:105760002ECF0E94E6098C0164ED72E0CE01019615
:105770000E9432516EE2E62E38CF0E94CD097C01A4
:105780000E94CD098C010E94CD099C014AEF50E096
:1057900060E389E694E1ACCF62E380E699E001CF73
:1057A00044E3AECFEE24EA94F12C0FEF10E02FEF9C
:1057B00030E04BE450E066E3B4CF4BED51E068E3FA
:1057C000B6CF6AE381EA9CE20E94D10CDACE40EDCA
:1057D000E42E47E0F42E04E621E04CE361E08DE0A6
:1057E00094E344CFEE24EA94F12C0FEF10E02FEF76
:1057F00030E042E350E06EE38CE697E079CF46EB91
:1058000053E060E494CF42E46BED71E082E29BE010
:105810007BCFEE24EA94F12C0FEF10E02FEF30E075
:1058200042E350E064E486EB93E062CF46E46BED44
:1058300071E08BEE98E268CFEE24EA94F12C0FEF42
:1058400010E02FEF30E042E350E068E4ECCF4AE4B0
:105850006BED71E08CED97E357CFEE24EA94F12CD9
:105860000FEF10E02FEF30E042E350E06CE4DBCFCD
:1058700064E68CE49DE195CE60E08CEE90E10E94C0
:10588000934480E00E94161C7CCEEF92FF920F930F
:105890001F93CF93DF9300D000D000D01F92CDB7DD
:1058A000DEB7E091D70AE53608F081C0F0E0E55AAE
:1058B000F34D0C946A53C02CD72CE42CD72CEA2C33
:1058C000F22C012D092D142D1A2D222DD72C292D26
:1058D000D72C362DD72C3C2DD72C422DD72C462D0E
:1058E000D72C542DD72CD72CD72C5C2DD72C642D0E
:1058F000D72C672DD72C742DD72C762DD72C832D14
:10590000D72C892DD72C8D2DD72C9A2DD72CA02D87
:10591000D72CAD2DD72CB12DD72CBE2DD72CC02DEB
:10592000D72CC42DCA2DD52DD72CE22DD72CED2D5B
:10593000D72CD72CD72CD72CD72CD72CD72CD72C4F
:10594000D72CD72CD72CD72CD72CD72CD72CD72C3F
:10595000D72CD72CD72CD72CD72CD72CD72CD72C2F
:10596000D72CD72CD72CD72CD72CD72CD72CD72C1F
:10597000D72CD72CD72CD72CD72CD72CD72CF12DF4
:105980000E94E6097C016CED72E0CE0101960E9456
:10599000325102E097014AE550E06CEF73E5CE0129
:1059A00001960E944713CE0101960E94C950279686
:1059B0000FB6F894DEBF0FBECDBFDF91CF911F9120
:1059C0000F91FF90EF90089564E086E595E40E94C2
:1059D000D10CEDCF4AEF50E065E082E99BE30E94F5
:1059E000380BE5CFEE24EA94F12C0FEF10E02FEF07
:1059F00030E04DE750E066E08BE693E00E949D0BBF
:105A0000D6CF47E068EE73E085E39CE00E94D40CBB
:105A1000CECFEE24EA94F12C0FEF10E02FEF30E020
:105A20004DE750E068E0E8CF49E068EE73E083E5D9
:105A300097E0ECCF44EF51E06AE080E89EE30E94FB
:105A4000CB0EB5CF4CE067E080E797E10E947F1670
:105A5000AECFEE24EA94F12C0FEF10E02FEF30E000
:105A60004DE750E06EE084EF91E0C8CF60E184EF55
:105A700091E00E94210E9BCF42E350E062E188EE6C
:105A800093E0DDCF4AEF50E064E1A7CF0E94CD095B
:105A90007C010E94CD090FEF10E09C014DE750E022
:105AA00066E18EEE92E0AACF40ED57E06AE180E633
:105AB0009DE60E941A0A7BCF44EF51E06CE180E83A
:105AC0009EE30E94770F73CF4EE168E0BDCF0E9446
:105AD000CD098C010E94CD09EE24EA94F12C9C01A1
