:1000000035C400005DC400005BC4000059C400009A
:1000100057C4000055C4000053C4000051C4000080
:100020004FC400004DC400000C94A8480C9425490E
:1000300047C4000045C4000043C4000041C40000A0
:100040003FC400003DC400003BC4000039C40000B0
:1000500037C4000035C4000033C400000C940748C6
:100060002FC400000C94634B0C948E4B0C94BF4B2C
:1000700027C4000025C4000023C4000021C40000E0
:100080000C941B1C1DC400001BC4000019C40000FC
:1000900017C4000015C4000000100000003000006C
:1000A0000050000000700000008000000080000090
:1000B00000800000198D1900339933004DA64D00C2
:1000C00066B3660080C0800099CC9900B3D9B300B4
:1000D000CCE6CC00E6F2E60000000000003E5B4FFC
:1000E0005B3E3E6B4F6B3E1C3E7C3E1C183C7E3C98
:1000F000181C577D571C1C5E7F5E1C00183C1800A6
:10010000FFE7C3E7FF0018241800FFE7DBE7FF3035
:10011000483A060E2629792926407F050507407FA3
:1001200005253F5A3CE73C5A7F3E1C1C08081C1C16
:100130003E7F14227F22145F5F005F5F06097F010C
:100140007F006689956A606060606094A2FFA294F7
:1001500008047E040810207E201008082A1C0808C5
:100160001C2A08081E101010100C1E0C1E0C303813
:100170003E3830060E3E0E06000000000000005F14
:1001800000000007000700147F147F14242A7F2A30
:1001900012231308646236495620500008070300F2
:1001A000001C2241000041221C002A1C7F1C2A083E
:1001B000083E0808008070300008080808080000A1
:1001C00060600020100804023E5149453E00427F15
:1001D000400072494949462141494D331814127F64
:1001E0001027454545393C4A494931412111090704
:1001F0003649494936464949291E00001400000085
:100200004034000000081422411414141414004156
:1002100022140802015909063E415D594E7C121113
:10022000127C7F494949363E414141227F4141414B
:100230003E7F494949417F090909013E41415173C6
:100240007F0808087F00417F41002040413F017F37
:10025000081422417F404040407F021C027F7F04FF
:1002600008107F3E4141413E7F090909063E415148
:10027000215E7F09192946264949493203017F0138
:10028000033F4040403F1F2040201F3F4038403F39
:10029000631408146303047804036159494D43004F
:1002A0007F4141410204081020004141417F040286
:1002B000010204404040404000030708002054541D
:1002C00078407F28444438384444442838444428FB
:1002D0007F385454541800087E090218A4A49C784E
:1002E0007F0804047800447D40002040403D007FAA
:1002F0001028440000417F40007C047804787C088A
:100300000404783844444438FC182424181824245D
:1003100018FC7C08040408485454542404043F4442
:10032000243C4040207C1C2040201C3C4030403C71
:1003300044281028444C9090907C4464544C4400D1
:100340000836410000007700000041360800020135
:100350000204023C2623263C1EA1A161123A404021
:10036000207A38545455592155557941225454789E
:1003700042215554784020545579400C1E52721237
:1003800039555555593954545459395554545800C0
:1003900000457C410002457D420001457C407D12C4
:1003A00011127DF0282528F07C5455450020545426
:1003B0007C547C0A097F4932494949323A444444D1
:1003C0003A324A4848303A4141217A3A424020780C
:1003D000009DA0A07D3D4242423D3D4040403D3C0D
:1003E00024FF2424487E4943662B2FFC2F2BFF0932
:1003F00029F620C0887E0903205454794100004426
:100400007D413048484A32384040227A007A0A0A10
:10041000727D0D19317D2629292F28262929292683
:1004200030484D4020380808080808080808382FC8
:1004300010C8ACBA2F102834FA00007B0000081452
:100440002A142222142A14085500550055AA55AA28
:1004500055AAFF55FF55FF000000FF00101010FFC8
:1004600000141414FF001010FF00FF1010F010F023
:10047000141414FC001414F700FF0000FF00FF1414
:1004800014F404FC141417101F10101F101F141460
:10049000141F00101010F0000000001F10101010AA
:1004A0001F10101010F010000000FF10101010109E
:1004B00010101010FF10000000FF140000FF00FFDC
:1004C00000001F10170000FC04F414141710171478
:1004D00014F404F40000FF00F7141414141414149A
:1004E000F700F7141414171410101F101F1414140D
:1004F000F4141010F010F000001F101F0000001F77
:1005000014000000FC140000F010F01010FF10FFA9
:10051000141414FF141010101F00000000F010FF3E
:10052000FFFFFFFFF0F0F0F0F0FFFFFF0000000022
:1005300000FFFF0F0F0F0F0F3844443844FC4A4AA6
:100540004A347E02020606027E027E02635549415B
:10055000633844443C04407E201E2006027E020292
:1005600099A5E7A5991C2A492A1C4C7201724C30A6
:100570004A4D4D303048784830BC625A463D3E497D
:100580004949007E0101017E2A2A2A2A2A44445F21
:10059000444440514A444040444A51400000FF0115
:1005A00003E080FF000008086B6B08361236243623
:1005B000060F090F06000018180000001010003088
:1005C00040FF0101001F01011E00191D1712003C10
:1005D0003C3C3C000000000000010203040506084A
:1005E000090A0B0D0E1012131517191B1D202225B9
:1005F000272A2D3033373A3E4145494D52565B5FED
:1006000064696E74797F858B91979DA4ABB2B9C0F4
:10061000C7CFD6DEE6EEF7FF000102030507090BA0
:100620000E1114181D22282E363D464F59646F7C3A
:100630008997A6B6C7D9EBFFAB0055007C008400B4
:100640004B00B5001B00E5000017E8000047B800AC
:100650000077AB0000ABAB000055AB000022DD0023
:100660000E00F2003E00C20071008F00A1005F008A
:10067000D0002F00F90700000000FF00000000007C
:100680000055AB000000000000ABAB000000000014
:1006900000FF00000000000055AB0000000000005B
:1006A000FF00000000000000AB005500000000004B
:1006B0005500AB00000000000000FF00002AD5003C
:1006C0000055AB00007FAB0000ABAB0000D556007F
:1006D00000FF00002AD5000055AB0000AA5600001C
:1006E000FF000000D5002A00AB00550081007F000C
:1006F0005500AB002B00D500FF0000008B00000070
:100700008B0000008B0000008B0000008B000000BD
:100710008B0000008B000000FF0000008B00000039
:10072000EBCE8700EBCE8700E6D8AD00FFFFFF00E1
:10073000E6D8AD00EBCE870001290229042908295B
:100740001029202940298029012C022C012602266B
:10075000042608261026202640268026402C802CA1
:100760000123022304230823102320234023802372
:10077000012002200420082010202020402080207A
:10078000102C202C012F022F042F082F102F202F88
:10079000402F802F000100004508120002000002D7
:1007A000084300030000FE070401030904E40718DE
:1007B00002030904CC071603030904BE070C0C034B
:1007C00031003200330034003500000016035500BC
:1007D0005300420020005300650072006900610070
:1007E0006C00000018035400650065006E00730083
:1007F00079006400750069006E006F00000004035A
:10080000090409024300020100C03209040000018A
:100810000202010005240010010524010001042446
:1008200002060524060001070582030800400904AA
:100830000100020A0000000705030240000007054E
:1008400084024000001201000202000020C0168352
:10085000047202010203010001C10201803601811C
:10086000360081348343DD4BA24EFC3411241FBE7D
:10087000CFEFD0E2DEBFCDBF19E0A0E0B1E0E2E80B
:10088000F5EA00E00BBF02C007900D92A23EB1074F
:10089000D9F721E1A2EEB9E001C01D92A836B20756
:1008A000E1F714E0C5E3D4E004C02197FE010E9403
:1008B000CA51C133D107C9F70E94EE4B0C94B5520F
:1008C0009FCBFC01858596850895CF93DF9300D05B
:1008D00000D000D0CDB7DEB7AB011C821D821E82D6
:1008E000DC01ED91FC910190F081E02D19821A82DA
:1008F0001B829E012F5F3F4FBE016C5F7F4F0995AA
:1009000026960FB6F894DEBF0FBECDBFDF91CF9114
:1009100008956731710508F0EFC0FB01EE56FB4FFB
:100920000C94CA51A904B404BC04C904D404DB0463
:10093000E204E904F304FD04070511051B05250580
:100940002F0537053F0546054D0554055E0568052D
:10095000720504978330910508F0CEC086599A4FEE
:10096000FC01808190E0089502978630910508F09F
:10097000C3C08C599A4FF4CF01978331910508F089
:10098000BBC0880F991FFC01E25CFA4F8081918106
:10099000089501978531910508F0AEC0880F991F21
:1009A000FC01EC5EFA4FF2CF8431910508F0A4C04F
:1009B00080509B4FD5CF8431910508F09DC0845164
:1009C0009B4FCECF8F30910508F096C083529B4F3E
:1009D000C7CF8F30910508F08FC0880F991FFC0199
:1009E000E154FB4FD3CF8F30910508F085C0880FBD
:1009F000991FFC01EF55FB4FC9CF8F30910508F0CF
:100A00007BC0880F991FFC01ED57FB4FBFCF8F3084
:100A1000910508F071C0880F991FFC01EB59FB4F3D
:100A2000B5CF8F30910508F067C0880F991FFC0182
:100A3000E95BFB4FABCF8F30910508F05DC0880FAD
:100A4000991FFC01E75DFB4FA1CF8F30910508F0A6
:100A500053C0880F991FFC01E55FFB4F97CF0197AB
:100A60008E30910508F048C083509C4F79CF029793
:100A70008131910508F040C084519C4F71CF01979E
:100A800082319105C8F586529C4F6ACF0197833118
:100A9000910590F589539C4F63CF0197843191055F
:100AA00058F58D549C4F5CCF01978331910520F50B
:100AB000880F991FFC01E357FC4F68CF02978730DE
:100AC0009105D0F4880F991FFC01E158FC4F5ECFCF
:100AD00003978530910580F4880F991FFC01EB582E
:100AE000FC4F54CF04978330910530F4880F991F41
:100AF000FC01E159FC4F4ACF8CE291E0089580E976
:100B000091E008953A9A0895FB0101900020E9F7D9
:100B10003197AF01461B570BDC01ED91FC91028030
:100B2000F381E02D0994F0CF0F931F93CF93DF93C0
:100B3000EC01EADF8C01CE010E94804C800F911FF6
:100B4000DF91CF911F910F9108950F931F93CF9332
:100B5000DF93EC01462F50E070E060E020E00E945F
:100B60009A4C8C01CE010E94804C800F911FDF9126
:100B7000CF911F910F9108950F931F93DC01AC014A
:100B8000405D5F4FFB0105911591259134912C93A8
:100B900011961C93119712960C9312976C5F7F4FCE
:100BA0001396A417B50771F71F910F910895FC01D3
:100BB00060810C94CB41FC0140810C945B42DC01D0
:100BC000ED91FC9102A0F3A1E02D70E060E00994AA
:100BD00024E030E040E050E061E070E080E090E050
:100BE0000E94CD4E6230710531F06330710531F0F5
:100BF00090E080E008958FE790E008958FEF90E017
:100C0000089527E030E040E050E061E070E080E0EF
:100C100090E00E94CD4E615071096730710540F43B
:100C2000660F771FFB01EF59FC4F8081918108957A
:100C300090E080E0089529E030E040E050E061E09D
:100C400070E080E090E00E94CD4E61507109673005
:100C5000710540F4660F771FFB01ED5AFC4F808150
:100C60009181089590E080E00895EF92FF920F93B4
:100C70001F93CF93DF937C01162FEA018091B90A6D
:100C8000811112C061E08CEC90E10E94F342F0927D
:100C90000701E09206011093B80A81E08093B90A37
:100CA0001092720A1092710A8091710A9091720AE0
:100CB000892B49F48DDF8093750A8ADF8093740A4B
:100CC00087DF8093730A1091730A0091740AF09081
:100CD000750A26E131E040E050E060E070E0CB01D1
:100CE0000E94CD4EFB01EE0FFF1FE60FF71FE353EF
:100CF000F54FF0820183128323E030E040E050E0C2
:100D000060E070E0CB010E94CD4E6130710581053D
:100D1000910599F426E131E040E050E060E070E0B8
:100D2000CB010E94CD4EFB01EE0FFF1FE60FF71F18
:100D3000E353F54F1082118212828CEC90E137DF81
:100D40008091BF0A9091C00A8C179D07D0F0109235
:100D5000C00A1092BF0A8091710A9091720A01969E
:100D600084309105A9F09093720A8093710A809162
:100D7000710A9091720A8130910569F429DF80939C
:100D8000730ADF91CF911F910F91FF90EF9008951B
:100D900081E090E0E8CF8230910521F419DF809363
:100DA000740AEFCF039769F713DF8093750AE9CFD1
:100DB000CF92DF92EF92FF920F931F93CF93DF9327
:100DC0006C01D62F142FC22F8091B90A811110C047
:100DD00061E08CEC90E10E94F342D0920701C09256
:100DE00006011093B80A81E08093B90AD093A80A4B
:100DF0008091BF0A9091C00A8E159F0590F01092C5
:100E0000C00A1092BF0ACC2361F02091A80A422F99
:100E10004C0F5527551F041715061CF02C0F209357
:100E2000A80A60E08CEC90E10E94F3428FEF80937F
:100E3000CC10D0E0C0E08091A80A8C171D06E1F02C
:100E4000DCF0C6DE182FC4DE082FC2DEF82E26E145
:100E500031E040E050E060E070E0CB010E94CD4E18
:100E6000FB01EE0FFF1FE60FF71FE353F54FF08274
:100E7000018312832196DFCF8CEC90E1DF91CF913B
:100E80001F910F91FF90EF90DF90CF9090CEEF9257
:100E9000FF920F93F12CE12C00E020E089DF0F910D
:100EA000FF90EF900895CF92DF92FF920F931F93E0
:100EB000CF93DF9300D01F92CDB7DEB76C01F62E33
:100EC0008A018091B90A811112C061E08CEC90E135
:100ED0000E94F342D0920701C0920601F092B80A34
:100EE00081E08093B90A1093C00A0093BF0A8091F1
:100EF000BF0A9091C00A8017910778F11092C00A3A
:100F00001092BF0A65DE8093750A62DE8093740AD0
:100F10005FDE8093730A9091750A91110FC09091D2
:100F2000740A91110BC0811109C052DE8093750AB9
:100F30004FDE8093740A4CDE8093730A8091730AAB
:100F40009091740A2091750A29839A838B83BE013C
:100F50006F5F7F4F8CEC90E12EDE0F900F900F9023
:100F6000DF91CF911F910F91FF90DF90CF90089567
:100F7000AF92BF92CF92DF92EF92FF920F931F93A7
:100F8000CF93DF9300D01F92CDB7DEB75C01F62E72
:100F90006A01122F8091B90A811112C061E08CECB4
:100FA00090E10E94F342B0920701A0920601F092F4
:100FB000B80A81E08093B90AD092C00AC092BF0AF1
:100FC0008091BF0A9091C00A8C159D0598F01092EF
:100FD000C00A1092BF0A8091C20A8823C9F01983FF
:100FE0000A83EB82BE016F5F7F4F8CEC90E1E3DD03
:100FF0001092C20A0F900F900F90DF91CF911F9126
:101000000F91FF90EF90DF90CF90BF90AF90089539
:1010100019821A821B82BE016F5F7F4F8CEC90E1B8
:10102000CADD81E08093C20AE5CFEF92FF920F9371
:101030001F93CF93DF937C01162FEA018091B90AA9
:1010400081110EC061E08CEC90E10E94F342F092BD
:101050000701E09206011093B80A81E08093B90A73
:101060008091BF0A9091C00A8C179D0708F4ADC00B
:101070001092C00A1092BF0A60E08CEC90E10E94CE
:10108000F3422091AB0A6091B00A7091B10A80914D
:10109000BB109091BC10211152C06F5F7F4F7093B5
:1010A000B10A6093B00A6C3171051CF021E0209305
:1010B000AB0ADC01ED91FC9104A0F5A1E02DE12C3F
:1010C00058EFF52E07E110E09B0150E040E0099554
:1010D0008091BB109091BC106091B00A7091B10AE0
:1010E00061507109DC01ED91FC9104A0F5A1E02DA6
:1010F000EE24EA94FE2C9B0150E040E0099580919B
:10110000BB109091BC106091B00A7091B10A62500E
:101110007109DC01ED91FC9104A0F5A1E02DE12C19
:10112000B8EFFB2E9B0150E040E009958CEC90E17C
:10113000DF91CF911F910F91FF90EF9038CD6150CB
:1011400071097093B10A6093B00A6B3FBFEF7B07E0
:1011500014F41092AB0ADC01ED91FC9104A0F5A10E
:10116000E02DEE24EA94FE2C07E110E09B0150E014
:1011700040E009958091BB109091BC106091B00A3D
:101180007091B10A61507109DC01ED91FC9104A0EC
:10119000F5A1E02DE12C38EFF32E9B0150E040E06B
:1011A00009958091BB109091BC106091B00A70912C
:1011B000B10A62507109DC01ED91FC9104A0F5A126
:1011C000E02DEE24EA94FE2CADCFDF91CF911F915C
:1011D0000F91FF90EF90089550E040E026CF8F925E
:1011E0009F92AF92BF92CF92DF92EF92FF920F93B6
:1011F0001F93CF93DF937C01EB01142F8091B90AE9
:10120000811118C061E08CEC90E10E94F342F092F1
:101210000701E09206011093B80A81E08093B90AB1
:10122000F0DC9093CB0A8093CA0AEBDC9093C90A56
:101230008093C80A1C161D06ACF48091BF0A9091D9
:10124000C00A8C179D0770F01092C00A1092BF0A56
:10125000D8DC9093CB0A8093CA0AD3DC9093C90A56
:101260008093C80A8091B00A9091B10A01968A30A1
:1012700091050CF0FCC09093B10A8093B00A60E035
:101280008CEC90E10E94F3428091BB109091BC10D5
:101290004091B00A5091B10AE090CA0AF090CB0A8E
:1012A0009A01265F3F4F6AE0A62EB12CB501641B60
:1012B000750BDC01ED91FC9104A0F5A1E02D06E198
:1012C00010E050E040E009958091BB109091BC1077
:1012D0004091B00A5091B10AE090C80AF090C90A52
:1012E0009A01255F3F4F7BE0872E912CB401641B50
:1012F000750BDC01ED91FC9104A0F5A1E02D50E00F
:1013000040E009958091BB109091BC104091B00ACB
:101310005091B10AE090CA0AF090CB0AE6E1CE2ED5
:10132000D12C041B150B4F5F5F4FDC01ED91FC913D
:1013300004A0F5A1E02D25E130E070E060E0099522
:101340008091BB109091BC104091B00A5091B10AAD
:10135000E090C80AF090C90AC5E1D0E08E01041BF4
:10136000150BDC01ED91FC9104A0F5A1E02D25E128
:1013700030E070E060E009958091BB109091BC1066
:101380004091B00A5091B10AE090CA0AF090CB0A9D
:101390008401041B150B455F5F4FDC01ED91FC914F
:1013A00004A0F5A1E02D25E130E070E060E00995B2
:1013B0008091BB109091BC104091B00A5091B10A3D
:1013C000E090C80AF090C90A8501041B150B465F1E
:1013D0005F4FDC01ED91FC9104A0F5A1E02D25E12A
:1013E00030E070E060E009958091BB109091BC10F6
:1013F0006091B00A7091B10AE090CA0AF090CB0AED
:101400009601261B370BDC01ED91FC9104A0F5A1A0
:10141000E02D10E000E046E150E009958091BB101E
:101420009091BC106091B00A7091B10AE090C80A26
:10143000F090C90A9E01261B370B61507109DC012F
:10144000ED91FC9104A0F5A1E02D46E150E0099555
:101450008CEC90E1DF91CF911F910F91FF90EF9075
:10146000DF90CF90BF90AF909F908F90A0CB1092C5
:10147000B10A1092B00A03CF462F70E060E0AFCE01
:101480000F931F93CF938C01C62F8091B90A8111BE
:101490000EC061E08CEC90E10E94F34210930701D2
:1014A00000930601C093B80A81E08093B90A60E016
:1014B0008CEC90E10E94F3428CEC90E1CF911F9173
:1014C0000F9175CB8F929F92AF92BF92CF92DF9286
:1014D000EF92FF920F931F93CF93DF937C01062F20
:1014E000EA01122F8091B90A811112C061E08CECDF
:1014F00090E10E94F342F0920701E092060100930E
:10150000B80A81E08093B90AD093C00AC093BF0A99
:101510008091BF0A9091C00A8C179D0708F44DC0B6
:101520001092C00A1092BF0A112309F444C060E06F
:101530008CEC90E10E94F34264DB9093CB0A8093A1
:10154000CA0AC091BB10D091BC100091CA0A109178
:10155000CB0A2AE030E040E050E063E070E080E059
:1015600090E00E94CD4E4B0126E130E040E050E09B
:1015700060E070E0CB010E94CD4E6B0125E130E0D0
:1015800040E050E060E070E0CB010E94CD4E94015D
:10159000A601CE010E94113A8CEC90E1DF91CF912F
:1015A0001F910F91FF90EF90DF90CF90BF90AF9081
:1015B0009F908F90FCCA3FDBC0CFDF91CF911F91EE
:1015C0000F91FF90EF90DF90CF90BF90AF909F90E2
:1015D0008F90089521E076CFCF92DF92EF92FF9225
:1015E0000F931F93CF93DF936C01E62EEA01F22E47
:1015F0008091B90A811112C061E08CEC90E10E94E7
:10160000F342D0920701C0920601E092B80A81E04D
:101610008093B90AD093C00AC093BF0A8091BF0AD1
:101620009091C00A8C179D0708F477C01092C00AE9
:101630001092BF0A25E130E040E050E060E070E049
:10164000CB010E94CD4EC62F25E130E040E050E0B6
:1016500060E070E0CB010E94CD4EC62EFF2009F461
:101660005AC060E08CEC90E10E94F342CADA909399
:10167000CB0A8093CA0A8091BB109091BC10D12CE8
:10168000D0E0E090CA0AF090CB0A960121503109CF
:10169000BE0161507109DC01ED91FC9104A0F5A13E
:1016A000E02D06E110E050E040E009958091BB108C
:1016B0009091BC10E090CA0AF090CB0ADC01ED9149
:1016C000FC9104A0F5A1E02D960150E040E0BE01A0
:1016D00009958091BB109091BC10E090CA0AF090DF
:1016E000CB0A96012F5F3F4FBE016F5F7F4FDC013A
:1016F000ED91FC9104A0F5A1E02D50E040E00995AA
:101700008CEC90E1DF91CF911F910F91FF90EF90C2
:10171000DF90CF904CCA8FDAAACFDF91CF911F9183
:101720000F91FF90EF90DF90CF90089521E054CF7C
:10173000CF92DF92EF92FF920F931F93CF93DF939D
:101740008C01C62F8091B90A81110EC061E08CEC2A
:1017500090E10E94F3421093070100930601C093A9
:10176000B80A81E08093B90A60E08CEC90E10E94B5
:10177000F3428091A90A9091AA0A8230910509F456
:1017800059C07CF4009739F10197E1F18CEC90E1BC
:10179000DF91CF911F910F91FF90EF90DF90CF904D
:1017A00006CA8430910509F49AC00CF472C00597FA
:1017B00069F78091B00A9091B10A01979093B10AAC
:1017C0008093B00A181619060CF49DC01092AA0A4C
:1017D0001092A90A12C08091B00A9091B10A0196A4
:1017E0009093B10A8093B00A4A970CF461C081E0EB
:1017F00090E09093AA0A8093A90A1092B10A1092DD
:10180000B00AC4CF8091B00A9091B10A019690932A
:10181000B10A8093B00A0C9714F182E090E09093A3
:10182000AA0A8093A90A8CE090E09093B10A809371
:10183000B00AACCF8091B00A9091B10A0197909311
:10184000B10A8093B00A181619064CF083E090E0B4
:101850009093AA0A8093A90A89E190E0E6CFC0910B
:10186000BB10D091BC10E881F981C4A0D5A0C9D922
:101870004091B00A5091B10A06E110E0041B150B2B
:101880007C0130E020E069E170E0CE01F6010995CD
:101890007DCF8091B00A9091B10A01979093B10ADF
:1018A0008093B00A181619061CF084E090E0A1CFCE
:1018B000C091BB10D091BC10E881F981C4A0D5A023
:1018C000A0D96091B00A7091B10A29E130E0261BDD
:1018D000370B7C0106E110E050E040E0D6CF80916C
:1018E000B00A9091B10A01969093B10A8093B00A20
:1018F0000B974CF085E090E09093AA0A8093A90A98
:101900008AE090E092CFC091BB10D091BC10E881EA
:10191000F981C4A0D5A075D94091B00A5091B10AFF
:1019200006E110E0041B150B7C0129E130E070E0BA
:1019300060E0ABCFCF92DF92EF92FF920F931F93B5
:10194000CF93DF938C01C62F8091B90A81110EC00D
:1019500061E08CEC90E10E94F34210930701009348
:101960000601C093B80A81E08093B90A60E08CEC6C
:1019700090E10E94F3428091AB0AE091B00AF091AD
:10198000B10A811108C1E930F10528F5E653F34F9A
:101990000C94CA51D30C050D1E0D370D500D690D59
:1019A000810D9A0DB30DC7E6D8E003E019E0E99088
:1019B000F9900ED9D82E0CD9C82E0AD9F701EE0FFE
:1019C000FF1FEE0DFF1DE353F54F8083C182D282CE
:1019D0000C171D0761F78CEC90E1E9D88091B00AF3
:1019E0009091B10A01969093B10A8093B00A099739
:1019F0001CF081E08093AB0ADF91CF911F910F9192
:101A0000FF90EF90DF90CF900895CBEDD7E007E601
:101A100018E0E990F990DCD8D82EDAD8C82ED8D8BA
:101A2000F701EE0FFF1FEE0DFF1DE353F54F80830F
:101A3000C182D2820C171D0761F7CDCFCFE6D7E068
:101A40000BED17E0E990F990C3D8D82EC1D8C82E75
:101A5000BFD8F701EE0FFF1FEE0DFF1DE353F54F4B
:101A60008083C182D2820C171D0761F7B4CFC5E213
:101A7000D7E00FE617E0E990F990AAD8D82EA8D8B9
:101A8000C82EA6D8F701EE0FFF1FEE0DFF1DE35382
:101A9000F54F8083C182D2820C171D0761F79BCF5F
:101AA000C5EED6E005E217E0E990F99091D8D82E7E
:101AB0008FD8C82E8DD8F701EE0FFF1FEE0DFF1D3A
:101AC000E353F54F8083C182D2820C171D0761F763
:101AD00082CFC9EAD6E0099119917AD8F82E78D840
:101AE000E82E76D8F801EE0FFF1FE00FF11FE35349
:101AF000F54F8083E182F28286E0C53ED80759F730
:101B00006ACFC3E7D6E009EA16E0E990F99060D819
:101B1000D82E5ED8C82E5CD8F701EE0FFF1FEE0D51
:101B2000FF1DE353F54F8083C182D2820C171D073E
:101B300061F751CFCFE3D6E003E716E0E990F990E3
:101B400047D8D82E45D8C82E43D8F701EE0FFF1F2F
:101B5000EE0DFF1DE353F54F8083C182D2820C1737
:101B60001D0761F738CFCFE0D6E00991199130D841
:101B7000F82E2ED8E82E2CD8F801EE0FFF1FE00F1C
:101B8000F11FE353F54F8083E182F28286E0CF3389
:101B9000D80759F720CFE930F10520F5EE52F24F82
:101BA0000C94CA51DB0D060E210E3C0E570E720E20
:101BB0008D0EA80EC30EC7E6D8E00991199108D87A
:101BC000F82E06D8E82E04D8F801EE0FFF1FE00F1C
:101BD000F11FE353F54F8083E182F28289E0C33045
:101BE000D80759F78CEC90E10E94D7058091B00A94
:101BF0009091B10A01979093B10A8093B00A181698
:101C000019060CF4F9CE1092AB0AF6CECBEDD7E064
:101C1000099119910E94E805F82E0E94E805E82E26
:101C20000E94E805F801EE0FFF1FE00FF11FE353DC
:101C3000F54F8083E182F28288E0C736D80741F70A
:101C4000D1CFCFE6D7E0099119910E94E805F82E8F
:101C50000E94E805E82E0E94E805F801EE0FFF1F3C
:101C6000E00FF11FE353F54F8083E182F28287E0BA
:101C7000CB3DD80741F7B6CFC5E2D7E0099119911E
:101C80000E94E805F82E0E94E805E82E0E94E8056B
:101C9000F801EE0FFF1FE00FF11FE353F54F8083B4
:101CA000E182F28287E0CF36D80741F79BCFC5EEBD
:101CB000D6E0099119910E94E805F82E0E94E805E6
:101CC000E82E0E94E805F801EE0FFF1FE00FF11F5C
:101CD000E353F54F8083E182F28287E0C532D80773
:101CE00041F780CFC9EAD6E0099119910E94E80531
:101CF000F82E0E94E805E82E0E94E805F801EE0F94
:101D0000FF1FE00FF11FE353F54F8083E182F28262
:101D100086E0C53ED80741F765CFC3E7D6E0099115
:101D200019910E94E805F82E0E94E805E82E0E940D
:101D3000E805F801EE0FFF1FE00FF11FE353F54F29
:101D40008083E182F28286E0C93AD80741F74ACF20
:101D5000CFE3D6E0099119910E94E805F82E0E9480
:101D6000E805E82E0E94E805F801EE0FFF1FE00FDE
:101D7000F11FE353F54F8083E182F28286E0C3379F
:101D8000D80741F72FCFCFE0D6E0099119910E94F3
:101D9000E805F82E0E94E805E82E0E94E805F80103
:101DA000EE0FFF1FE00FF11FE353F54F8083E18239
:101DB000F28286E0CF33D80741F714CF8F929F92FB
:101DC000AF92BF92CF92DF92EF920F931F93CF9378
:101DD000DF93EC014B015A0169018091B90A81112D
:101DE00014C061E08CEC90E10E94F34290920701F4
:101DF00080920601E092B80A81E08093B90A84E6F5
:101E000090E09093C00A8093BF0A8091BF0A90919E
:101E1000C00A8436910508F44CC01092C00A109292
:101E2000BF0A85E08093CC108091BB109091BC10CC
:101E30000E94DF058091BB109091BC10DC0156968A
:101E40001C9261E00E94573D8091BB109091BC10A4
:101E5000DC01ED91FC91008CF18DE02D60E00995A5
:101E60000E94D34F8091BB109091BC100E94DF055F
:101E7000E091BB10F091BC10B486A386D686C586CF
:101E8000128B018B108B0787BE01CF010E942B4C58
:101E90008091BB109091BC10DF91CF911F910F9159
:101EA000EF90DF90CF90BF90AF909F908F900C9469
:101EB000763DDF91CF911F910F91EF90DF90CF9002
:101EC000BF90AF909F908F900895AF92BF92CF92A6
:101ED000DF92EF92FF920F93CF93DF937C015B0130
:101EE0006A01E9018091B90A811126C061E08CEC98
:101EF00090E10E94F342B0920701A0920601009384
:101F0000B80A81E08093B90AD092C00AC092BF0A91
:101F100084E190E09093050180930401D701149629
:101F20002D913C9146E0429FC001439F900D1124AA
:101F30009093AD0A8093AC0A8091BF0A9091C00A39
:101F40008C159D0508F468C01092C00A1092BF0A53
:101F500085E08093CC108091BB109091BC100E94C2
:101F6000DF058091BB109091BC10FC01168A61E0E6
:101F70000E94573D8091BB109091BC10DC01ED9107
:101F8000FC91008CF18DE02D60E0099580910401B9
:101F90009091050101979093050180930401209190
:101FA000AC0A3091AD0A319521953109821793071A
:101FB00034F484E190E090930501809304010E9441
:101FC000D34F8091BB109091BC100E94DF05E0912F
:101FD000BB10F091BC108091040190910501948791
:101FE00083878DE090E096878587D28BC18BD08BDD
:101FF000C787B701CF010E942B4C8091BB109091F5
:10200000BC10DF91CF910F91FF90EF90DF90CF90B8
:10201000BF90AF900C94763DDF91CF910F91FF90E0
:10202000EF90DF90CF90BF90AF9008950F931F93E4
:10203000CF93DF938C01C62F8091B90A81110EC016
:1020400061E08CEC90E10E94F34210930701009351
:102050000601C093B80A81E08093B90A8091BF0A53
:102060009091C00A843F914008F4B1C01092C00A18
:102070001092BF0A8FE08093CC108091BB1090919A
:10208000BC100E94DF058091BB109091BC10DC0158
:1020900056961C9261E00E94573D8091BB10909132
:1020A000BC10DC01ED91FC91008CF18DE02D60E025
:1020B00009950E94D34F8091BB109091BC100E9453
:1020C000DF05C091BB10D091BC101C861B8683E03D
:1020D00090E09E878D870E9401069A8B898B988B52
:1020E0008F8769E171E08091BB109091BC100E94D4
:1020F0009305C091BB10D091BC101C861B8688E054
:1021000090E09E878D870E9401069A8B898B988B21
:102110008F876BE171E08091BB109091BC100E94A1
:102120009305C091BB10D091BC1084E090E09C87D7
:102130008B870DE010E01E870D870E9401069A8BA9
:10214000898B988B8F876BE171E08091BB109091A8
:10215000BC100E949305C091BB10D091BC108AE0C6
:1021600090E09C878B878EE090E09E878D870E9411
:1021700001069A8B898B988B8F876DE171E0809136
:10218000BB109091BC100E949305C091BB10D091E0
:10219000BC108FE090E09C878B871E870D870E9484
:1021A00001069A8B898B988B8F8764E771E0809109
:1021B000BB109091BC100E9493058091BB10909130
:1021C000BC10DF91CF911F910F910C94763DDF9160
:1021D000CF911F910F9108958F929F92AF92BF92CE
:1021E000CF92DF92EF920F931F93CF93DF93EC0187
:1021F0005B016A0149018091B90A811116C061E051
:102200008CEC90E10E94F3429092070180920601CB
:10221000E092B80A81E08093B90A1092700A109295
:102220006F0AD092C00AC092BF0A8091BF0A9091F3
:10223000C00A8C159D0508F45BC01092C00A10926C
:10224000BF0A80916F0A9091700AA816B9060CF423
:102250004FC085E08093CC108091BB109091BC1052
:102260000E94DF058091BB109091BC10DC01569656
:102270001C9261E00E94573D8091BB109091BC1070
:10228000DC01ED91FC91008CF18DE02D60E0099571
:102290000E94D34FE091BB10F091BC1082E090E01F
:1022A000948783878DE090E096878587128B018BDA
:1022B000108B078780916F0A9091700A27E0289F02
:1022C000B001299F700D11246C0F7D1FCF010E945A
:1022D0002B4C8091BB109091BC100E94763D809158
:1022E0006F0A9091700A01969093700A80936F0A1A
:1022F000DF91CF911F910F91EF90DF90CF90BF9022
:10230000AF909F908F900895BF92CF92DF92EF92FF
:10231000FF920F931F93CF93DF9300D01F92CDB7FF
:10232000DEB708E71AE088EAE82E8AE0F82E95E0A2
:10233000C92E98E0D92EBB24BA942091080130917F
:1023400009012C9DC0012D9D900D3C9D900D1124E7
:10235000875E994C8C9D90018D9D300D9C9D300D1C
:102360001124275E394C3093090120930801230F73
:102370002983BA82890F8B83B801CE0101960E940E
:1023800086430D5F1F4FE016F106B9F60F900F90D0
:102390000F90DF91CF911F910F91FF90EF90DF9001
:1023A000CF90BF900895CF93DF9300D01F92CDB709
:1023B000DEB719821A821B82AE014F5F5F4F60E168
:1023C00070E088E79AE00E946540E8E7FAE08FEF66
:1023D000808381838283848785878687808F818FAE
:1023E000828F84A385A386A30F900F900F90DF9117
:1023F000CF9108951F93CF93DF93CDB7DEB7E697C4
:102400000FB6F894DEBF0FBECDBF80EC89831FEFFF
:102410001A831B83BE016C5C7F4FCE0101960E9424
:10242000864380E689831A831B83BE016F5C7F4FDE
:10243000CE0101960E94864359A959834AA94A832D
:102440003BA93B835C834D833E831F82188619869C
:102450001A861B861C862CA92D879DA99E878EA96E
:102460008F87288B998B8A8B1B8A1C8A1D8A1E8AD0
:102470001F8A188E598F4A8F3B8F5C8F4D8F3E8FEE
:102480001F8E18A219A21AA21BA21CA22DA39EA3E2
:102490008FA328A799A78AA71BA61CA61DA61EA6C0
:1024A0001FA618AA40E350E0BE016F5F7F4F88E788
:1024B0009AE00E945244E6960FB6F894DEBF0FBE33
:1024C000CDBFDF91CF911F910895DF92EF92FF92E0
:1024D0000F931F93CF93DF9300D01F92CDB7DEB73A
:1024E000D82E8DECE82E8AE0F82E0091760A109115
:1024F000770A2FEF4D2D68E77AE0CE0101960E9412
:102500007A408981F70180838A8181838B818283EC
:10251000F3E0DF0E83E0E80EF11CEFE0EE16EEE0F4
:10252000FE0619F70F900F900F90DF91CF911F913A
:102530000F91FF90EF90DF9008950F931F93CF932B
:10254000DF938C01C62FD42F8091B90A811143C02B
:1025500061E08CEC90E10E94F3421093070100933C
:102560000601D093B80A81E08093B90ACC3008F014
:1025700032C0EC2FF0E0E154FD4E0C94CA51CB1266
:10258000D212D912DC12E412E61203130513081357
:102590000B130E13111368EB76E088E79AE00E94A4
:1025A000BC050BC068E776E088E79AE00E94BC05AE
:1025B0000EC068E776E0F1CF1DDF81E090E09093F8
:1025C000770A8093760A07C09FDEF7CFECDE109281
:1025D000770A1092760A8091B00A9091B10A01961A
:1025E000893E23E0920704F59093B10A8093B00AE4
:1025F0008091B00A6ADF8CEC90E1DF91CF911F915E
:102600000F910C94D705CFDED8CF68EF76E0C5CF19
:1026100068E376E0C2CF6FEC75E0C6CF6FEC75E093
:10262000BCCF68E970E0B9CF1092B10A1092B00A3D
:10263000DFCFDC016031710508F052C0FB01ED5DB8
:10264000FC4E0C94CA517013331333133E134213D0
:1026500046134A134E13521356135A135E13621342
:10266000641368136A1381E08C9399E111969C932B
:10267000119712968C931297CD01089581E08C9357
:1026800098E2F4CF81E08C9390E5F0CF81E08C93D9
:1026900098E7ECCF81E08C9396E9E8CF81E08C93CA
:1026A00098ECE4CF85E08C939FEFE0CF8AE08C93A9
:1026B00094EBDCCF8AE08C9390EAD8CF84E18C93C2
:1026C0009CE8D4CF8EE1E3CF82E38C9394E6CECF27
:1026D00084E6E1CF84EB8C9311968C931197C9CF4C
:1026E0001C9211961C92119712961C921297C4CFAD
:1026F000CF92DF92EF92FF920F931F93CF93DF93CE
:1027000000D01F92CDB7DEB77C01162F8091B90A99
:1027100081111EC061E08CEC90E10E94F342F092C6
:102720000701E09206011093B80A81E08093B90A8C
:102730001092B10A1092B00A8BE190E09093AF0A28
:102740008093AE0A84E690E09093C00A8093BF0A1B
:102750008091BF0A9091C00A8436910508F4CEC3D7
:102760001092C00A1092BF0AE090B00AF090B10A2D
:1027700000E110E0F7FC1CC0015011090230110506
:1027800014F410E000E0C090BB10D090BC10B80171
:10279000CE0101964EDF9E012F5F3F4FA70170E0F3
:1027A00060E0C6010E94304081E0E81AF108E2CF03
:1027B0000091B00A1091B10A0451110960E1E62EAE
:1027C000F12C0C3E8FEF1807ECF081E0E81AF108CD
:1027D00082E0E816F10414F4F12CE12CC090BB1057
:1027E000D090BC10B701CE01019623DF9E012F5F70
:1027F0003F4FA80162E070E0C6010E9430400150E6
:102800001109DFCF0091B00A1091B10A0F501109E0
:1028100050E1E52EF12C013F8FEF1807ECF081E03D
:10282000E81AF10882E0E816F10414F4F12CE12C26
:10283000C090BB10D090BC10B701CE010196F9DE5C
:102840009E012F5F3F4FA80164E070E0C6010E9427
:10285000304001501109DFCF0091B00A1091B10A48
:102860000850110940E1E42EF12C083F8FEF1807C2
:10287000ECF081E0E81AF10882E0E816F10414F4C3
:10288000F12CE12CC090BB10D090BC10B701CE0150
:102890000196CFDE9E012F5F3F4FA80166E070E0FA
:1028A000C6010E94304001501109DFCFE090B00A0C
:1028B000F090B10A00E110E0F7FC1CC001501109D2
:1028C0000230110514F410E000E0C090BB10D0906D
:1028D000BC10B801CE010196ACDE9E012F5F3F4FC8
:1028E000A70168E070E0C6010E94304081E0E81A6C
:1028F000F108E2CF0091B00A1091B10A0E5011090F
:1029000030E1E32EF12C023F8FEF1807ECF081E06D
:10291000E81AF10882E0E816F10414F4F12CE12C35
:10292000C090BB10D090BC10B701CE01019681DEE3
:102930009E012F5F3F4FA8016AE070E0C6010E9430
:10294000304001501109DFCF0091B00A1091B10A57
:102950000551110920E1E22EF12C0B3E8FEF1807F3
:10296000ECF081E0E81AF10882E0E816F10414F4D2
:10297000F12CE12CC090BB10D090BC10B701CE015F
:10298000019657DE9E012F5F3F4FA8016CE070E07B
:10299000C6010E94304001501109DFCF0091B00AFA
:1029A0001091B10A0950110990E1E92EF12C073F6D
:1029B0008FEF1807ECF081E0E81AF10882E0E816E2
:1029C000F10414F4F12CE12CC090BB10D090BC1099
:1029D000B701CE0101962DDE9E012F5F3F4FA8016A
:1029E0006EE070E0C6010E94304001501109DFCF57
:1029F0000091B00A1091B10A0150110980E1E82E4E
:102A0000F12C0F3F8FEF1807ECF081E0E81AF10886
:102A100082E0E816F10414F4F12CE12CC090BB1014
:102A2000D090BC10B701CE01019603DE9E012F5F4E
:102A30003F4FA80160E170E0C6010E9430400150A4
:102A40001109DFCF0091B00A1091B10A00511109AC
:102A5000B0E1EB2EF12C003F8FEF1807ECF081E096
:102A6000E81AF10882E0E816F10414F4F12CE12CE4
:102A7000C090BB10D090BC10B701CE010196D9DD3B
:102A80009E012F5F3F4FA80162E170E0C6010E94E6
:102A9000304001501109DFCF0091B00A1091B10A06
:102AA00007511109A0E1EA2EF12C093E8FEF18071A
:102AB000ECF081E0E81AF10882E0E816F10414F481
:102AC000F12CE12CC090BB10D090BC10B701CE010E
:102AD0000196AFDD9E012F5F3F4FA80164E170E0DA
:102AE000C6010E94304001501109DFCF0091B00AA9
:102AF0001091B10A0B501109F0E1EF2EF12C053FB6
:102B00008FEF1807ECF081E0E81AF10882E0E81690
:102B1000F10414F4F12CE12CC090BB10D090BC1047
:102B2000B701CE01019685DD9E012F5F3F4FA801C1
:102B300066E170E0C6010E94304001501109DFCF0C
:102B4000E090AE0AF090AF0A00E110E0F7FC1CC084
:102B5000015011090230110514F410E000E0C0909A
:102B6000BB10D090BC10B801CE01019662DD9E0171
:102B70002F5F3F4FA70161E070E0C6010E94304027
:102B800081E0E81AF108E2CF0091AE0A1091AF0A95
:102B900004511109E0E1EE2EF12C0C3E8FEF1807E5
:102BA000ECF081E0E81AF10882E0E816F10414F490
:102BB000F12CE12CC090BB10D090BC10B701CE011D
:102BC000019637DD9E012F5F3F4FA80163E070E063
:102BD000C6010E94304001501109DFCF0091AE0ABA
:102BE0001091AF0A0F50110970E1E72EF12C013F4F
:102BF0008FEF1807ECF081E0E81AF10882E0E816A0
:102C0000F10414F4F12CE12CC090BB10D090BC1056
:102C1000B701CE0101960DDD9E012F5F3F4FA80148
:102C200065E070E0C6010E94304001501109DFCF1D
:102C30000091AE0A1091AF0A0850110960E1E62E2A
:102C4000F12C083F8FEF1807ECF081E0E81AF1084B
:102C500082E0E816F10414F4F12CE12CC090BB10D2
:102C6000D090BC10B701CE010196E3DC9E012F5F2E
:102C70003F4FA80167E070E0C6010E94304001505C
:102C80001109DFCFE090AE0AF090AF0A00E110E04A
:102C9000F7FC1CC0015011090230110514F410E0BA
:102CA00000E0C090BB10D090BC10B801CE010196DE
:102CB000C0DC9E012F5F3F4FA70169E070E0C601B5
:102CC0000E94304081E0E81AF108E2CF0091AE0A9C
:102CD0001091AF0A0E50110950E1E52EF12C023F80
:102CE0008FEF1807ECF081E0E81AF10882E0E816AF
:102CF000F10414F4F12CE12CC090BB10D090BC1066
:102D0000B701CE01019695DC9E012F5F3F4FA801D0
:102D10006BE070E0C6010E94304001501109DFCF26
:102D20000091AE0A1091AF0A0551110940E1E42E5D
:102D3000F12C0B3E8FEF1807ECF081E0E81AF10858
:102D400082E0E816F10414F4F12CE12CC090BB10E1
:102D5000D090BC10B701CE0101966BDC9E012F5FB5
:102D60003F4FA8016DE070E0C6010E943040015065
:102D70001109DFCF0091AE0A1091AF0A0950110975
:102D800030E1E32EF12C073F8FEF1807ECF081E0E4
:102D9000E81AF10882E0E816F10414F4F12CE12CB1
:102DA000C090BB10D090BC10B701CE01019641DCA1
:102DB0009E012F5F3F4FA8016FE070E0C6010E94A7
:102DC000304001501109DFCF0091AE0A1091AF0AD7
:102DD0000150110920E1E22EF12C0F3F8FEF18076F
:102DE000ECF081E0E81AF10882E0E816F10414F44E
:102DF000F12CE12CC090BB10D090BC10B701CE01DB
:102E0000019617DC9E012F5F3F4FA80161E170E042
:102E1000C6010E94304001501109DFCF0091AE0A77
:102E20001091AF0A0051110990E1E92EF12C003FF9
:102E30008FEF1807ECF081E0E81AF10882E0E8165D
:102E4000F10414F4F12CE12CC090BB10D090BC1014
:102E5000B701CE010196EDDB9E012F5F3F4FA80128
:102E600063E170E0C6010E94304001501109DFCFDC
:102E70000091AE0A1091AF0A0751110980E1E82EC6
:102E8000F12C093E8FEF1807ECF081E0E81AF10809
:102E900082E0E816F10414F4F12CE12CC090BB1090
:102EA000D090BC10B701CE010196C3DB9E012F5F0D
:102EB0003F4FA80165E170E0C6010E94304001501B
:102EC0001109DFCF8CEC90E10E94D7058091B00A08
:102ED0009091B10A019689339105E4F49093B10A77
:102EE0008093B00A8091AE0A9091AF0A019689331F
:102EF0009105ACF49093AF0A8093AE0A0F900F90B7
:102F00000F90DF91CF911F910F91FF90EF90DF9085
:102F1000CF9008951092B10A1092B00AE3CF1092A8
:102F2000AF0A1092AE0AEACFCF92DF92EF92FF92F1
:102F30000F931F93CF93DF9300D01F92CDB7DEB7CF
:102F40007C01162F8091B90A81111EC061E08CECC2
:102F500090E10E94F342F0920701E0920601109383
:102F6000B80A81E08093B90A1092B10A1092B00AAF
:102F700089E190E09093AF0A8093AE0A84E690E0F6
:102F80009093C00A8093BF0A8091BF0A9091C00AB3
:102F90008436910508F4FCC31092C00A1092BF0A4F
:102FA0008091B00A9091B10A07E110E0081B190B5B
:102FB000B0E1EB2EF12C07311105DCF481E0E81AC9
:102FC000F108F7FE02C0F12CE12CC090BB10D090AC
:102FD000BC10B701CE0101962CDB9E012F5F3F4F45
:102FE00050E040E0B801C6010E9430400F5F1F4F23
:102FF000E2CF8091B00A9091B10A06E210E0081B7E
:10300000190BA0E1EA2EF12C06321105DCF481E067
:10301000E81AF108F7FE02C0F12CE12CC090BB10B9
:10302000D090BC10B701CE01019603DB9E012F5F4B
:103030003F4F42E050E0B801C6010E9430400F5FB0
:103040001F4FE2CF8091B00A9091B10A0EE110E0DB
:10305000081B190BF0E1EF2EF12C0E311105DCF4F9
:1030600081E0E81AF108F7FE02C0F12CE12CC090D3
:10307000BB10D090BC10B701CE010196DADA9E01E8
:103080002F5F3F4F44E050E0B801C6010E9430403E
:103090000F5F1F4FE2CF8091B00A9091B10A0BE20F
:1030A00010E0081B190BE0E1EE2EF12C0B3211059C
:1030B000DCF481E0E81AF108F7FE02C0F12CE12C03
:1030C000C090BB10D090BC10B701CE010196B1DA10
:1030D0009E012F5F3F4F46E050E0B801C6010E94BD
:1030E00030400F5F1F4FE2CF8091B00A9091B10A3C
:1030F00002E210E0081B190B70E1E72EF12C0232FE
:103100001105DCF481E0E81AF108F7FE02C0F12CA9
:10311000E12CC090BB10D090BC10B701CE0101963D
:1031200088DA9E012F5F3F4F48E050E0B801C601AA
:103130000E9430400F5F1F4FE2CF8091B00A909104
:10314000B10A0BE110E0081B190B60E1E62EF12C2F
:103150000B311105DCF481E0E81AF108F7FE02C03A
:10316000F12CE12CC090BB10D090BC10B701CE0167
:1031700001965FDA9E012F5F3F4F4AE050E0B801B1
:10318000C6010E9430400F5F1F4FE2CF8091B00A0E
:103190009091B10A04E210E0081B190B50E1E52EF2
:1031A000F12C04321105DCF481E0E81AF108F7FE95
:1031B00002C0F12CE12CC090BB10D090BC10B70124
:1031C000CE01019636DA9E012F5F3F4F4CE050E072
:1031D000B801C6010E9430400F5F1F4FE2CF8091BF
:1031E000B00A9091B10A0EE210E0081B190B40E101
:1031F000E42EF12C0E321105DCF481E0E81AF1081E
:10320000F7FE02C0F12CE12CC090BB10D090BC1096
:10321000B701CE0101960DDA9E012F5F3F4F4EE0C0
:1032200050E0B801C6010E9430400F5F1F4FE2CF4F
:103230008091B00A9091B10A0EE110E0081B190BC1
:1032400030E1E32EF12C0E311105DCF481E0E81AB7
:10325000F108F7FE02C0F12CE12CC090BB10D09019
:10326000BC10B701CE010196E4D99E012F5F3F4FFC
:1032700040E150E0B801C6010E9430400F5F1F4F8F
:10328000E2CF8091B00A9091B10A0AE210E0081BE7
:10329000190B20E1E22EF12C0A321105DCF481E059
:1032A000E81AF108F7FE02C0F12CE12CC090BB1027
:1032B000D090BC10B701CE010196BBD99E012F5F03
:1032C0003F4F42E150E0B801C6010E9430400F5F1D
:1032D0001F4FE2CF8091B00A9091B10A02E210E054
:1032E000081B190B90E1E92EF12C02321105DCF4D8
:1032F00081E0E81AF108F7FE02C0F12CE12CC09041
:10330000BB10D090BC10B701CE01019692D99E019E
:103310002F5F3F4F44E150E0B801C6010E943040AA
:103320000F5F1F4FE2CF8091B00A9091B10A0CE17C
:1033300010E0081B190B80E1E82EF12C0C3111056F
:10334000DCF481E0E81AF108F7FE02C0F12CE12C70
:10335000C090BB10D090BC10B701CE01019669D9C6
:103360009E012F5F3F4F46E150E0B801C6010E9429
:1033700030400F5F1F4FE2CF8091AE0A9091AF0AAD
:1033800008E210E0081B190BB0E1EB2EF12C08321B
:103390001105DCF481E0E81AF108F7FE02C0F12C17
:1033A000E12CC090BB10D090BC10B701CE010196AB
:1033B00040D99E012F5F3F4F41E050E0B801C60168
:1033C0000E9430400F5F1F4FE2CF8091AE0A909174
:1033D000AF0A0AE110E0081B190BA0E1EA2EF12C5C
:1033E0000A311105DCF481E0E81AF108F7FE02C0A9
:1033F000F12CE12CC090BB10D090BC10B701CE01D5
:10340000019617D99E012F5F3F4F43E050E0B8016E
:10341000C6010E9430400F5F1F4FE2CF8091AE0A7D
:103420009091AF0A02E210E0081B190BF0E1EF2EB9
:10343000F12C02321105DCF481E0E81AF108F7FE04
:1034400002C0F12CE12CC090BB10D090BC10B70191
:10345000CE010196EED89E012F5F3F4F45E050E030
:10346000B801C6010E9430400F5F1F4FE2CF80912C
:10347000AE0A9091AF0A00E210E0081B190BE0E1E0
:10348000EE2EF12C00321105DCF481E0E81AF1088F
:10349000F7FE02C0F12CE12CC090BB10D090BC1004
:1034A000B701CE010196C5D89E012F5F3F4F47E07F
:1034B00050E0B801C6010E9430400F5F1F4FE2CFBD
:1034C0008091AE0A9091AF0A0DE110E0081B190B34
:1034D00070E1E72EF12C0D311105DCF481E0E81AE2
:1034E000F108F7FE02C0F12CE12CC090BB10D09087
:1034F000BC10B701CE0101969CD89E012F5F3F4FB3
:1035000049E050E0B801C6010E9430400F5F1F4FF4
:10351000E2CF8091AE0A9091AF0A0AE210E0081B58
:10352000190B60E1E62EF12C0A321105DCF481E082
:10353000E81AF108F7FE02C0F12CE12CC090BB1094
:10354000D090BC10B701CE01019673D89E012F5FB9
:103550003F4F4BE050E0B801C6010E9430400F5F82
:103560001F4FE2CF8091AE0A9091AF0A0DE110E0BB
:10357000081B190B50E1E52EF12C0D311105DCF47F
:1035800081E0E81AF108F7FE02C0F12CE12CC090AE
:10359000BB10D090BC10B701CE0101964AD89E0155
:1035A0002F5F3F4F4DE050E0B801C6010E94304010
:1035B0000F5F1F4FE2CF8091AE0A9091AF0A07E1F3
:1035C00010E0081B190B40E1E42EF12C0731110526
:1035D000DCF481E0E81AF108F7FE02C0F12CE12CDE
:1035E000C090BB10D090BC10B701CE01019621D87D
:1035F0009E012F5F3F4F4FE050E0B801C6010E948F
:1036000030400F5F1F4FE2CF8091AE0A9091AF0A1A
:103610000FE110E0081B190B30E1E32EF12C0F3104
:103620001105E4F481E0E81AF108F7FE02C0F12C7C
:10363000E12CC090BB10D090BC10B701CE01019618
:103640000E9419139E012F5F3F4F41E150E0B801E6
:10365000C6010E9430400F5F1F4FE1CF8091AE0A3C
:103660009091AF0A05E210E0081B190B20E1E22E51
:10367000F12C05321105E4F481E0E81AF108F7FEB7
:1036800002C0F12CE12CC090BB10D090BC10B7014F
:10369000CE0101960E9419139E012F5F3F4F43E117
:1036A00050E0B801C6010E9430400F5F1F4FE1CFCC
:1036B0008091AE0A9091AF0A0CE110E0081B190B43
:1036C00090E1E92EF12C0C311105E4F481E0E81AC7
:1036D000F108F7FE02C0F12CE12CC090BB10D09095
:1036E000BC10B701CE0101960E9419139E012F5FF5
:1036F0003F4F45E150E0B801C6010E9430400F5FE6
:103700001F4FE1CF8091AE0A9091AF0A0BE210E01B
:10371000081B190B80E1E82EF12C0B321105E4F4A3
:1037200081E0E81AF108F7FE02C0F12CE12CC0900C
:10373000BB10D090BC10B701CE0101960E941913A6
:103740009E012F5F3F4F47E150E0B801C6010E9444
:1037500030400F5F1F4FE1CF8CEC90E10E94D70506
:103760008091B00A9091B10A01968D339105E4F4ED
:103770009093B10A8093B00A8091AE0A9091AF0AFB
:1037800001968D339105ACF49093AF0A8093AE0A05
:103790000F900F900F90DF91CF911F910F91FF909D
:1037A000EF90DF90CF9008951092B10A1092B00A76
:1037B000E3CF1092AF0A1092AE0AEACF10929000B7
:1037C0008BE0809391008AE698E190939900809332
:1037D000980082E0809371000895CF93C82F809362
:1037E000B70A1092B90A1092C00A1092BF0A10923A
:1037F000BE0A1092BD0A1092B10A1092B00A87E177
:1038000090E090930501809304011092720A109247
:10381000710A10926E0A10926D0A10926C0A6FE192
:1038200071E08CE591E10E9493056C2F8CE591E1AC
:10383000CF910C94A5051F920F920FB60F921124F1
:103840000BB60F922F933F934F935F936F937F939A
:103850008F939F93AF93BF93EF93FF938091BF0A92
:103860009091C00A49969093C00A8093BF0A8091B4
:10387000BB0A9091BC0A49969093BC0A8093BB0AFC
:103880008091BD0A9091BE0A49969093BE0A80939A
:10389000BD0A91E09093BA0A8BB120E482278BB9DC
:1038A0002091BB0A3091BC0A283E334030F0109280
:1038B000BC0A1092BB0A9093B60A2091BD0A3091BF
:1038C000BE0A80910601909107012817390718F068
:1038D0008091B80A82DFFF91EF91BF91AF919F91E4
:1038E0008F917F916F915F914F913F912F910F90A9
:1038F0000BBE0F900FBE0F901F901895CF93C82F3F
:103900008093CC0A62E371E08CE591E10E9494051A
:1039100066E471E08CE591E10E9493056C2F8CE5E3
:1039200091E10E94A50562E371E08CE591E10E94BE
:10393000940580E0CF9151CFAF92BF92CF92DF92AA
:10394000EF92FF920F931F93CF93DF9368EE73E094
:1039500080E090E00E9447484FEF60E470E087EE1F
:1039600090E10E942A4B569A88E20E94AF46BC0121
:10397000990F880B990B1F921F921F9228E72F9384
:10398000A12CB12C6501EE24EA9413E0F12E00E0A5
:1039900010E020E030E0A9010E94EA4E6093C30AE3
:1039A00082E391E00E94F44BEC010AE027E130E071
:1039B00046E150E06DEC7AE00E94593DD093BC1096
:1039C000C093BB108091E3090F900F900F900F9060
:1039D00081114DC083EE99E00E94F54B892B09F4CB
:1039E00046C01092EE091092ED098FEF8093F10915
:1039F0008093F2098093F3098093F4098093F50989
:103A00008093F60981E08093F7091092F9091092EA
:103A1000F8091092F0091092EF098091CA10909164
:103A2000CB10892B31F48BEE99E09093CB108093DF
:103A3000CA10E091C810F091C910309721F08BEEB8
:103A400099E0958384838BEE99E09093C9108093DD
:103A5000C8101092FB091092FA0981E795E0909343
:103A6000EC098093EB0983EE99E00E94FE4B30E075
:103A700020E04AEF51E06DEC7AE08BEE99E00E9495
:103A80004943FC018FEF868380EB878380EF80873B
:103A90008091BB109091BC100E94D03D8091BB10D2
:103AA0009091BC102FE02093CC10FC01168A69E89D
:103AB00074E00E945F40F89481DE789468EB76E0D1
:103AC00088E79AE00E94BC0581E090E09093770A35
:103AD0008093760A8FE0DF91CF911F910F91FF9035
:103AE000EF90DF90CF90BF90AF9008CFEF92FF9212
:103AF0000F93CF93DF9300D000D000D01F92CDB7AB
:103B0000DEB78091B70A833209F479C028F58A308C
:103B100009F45FC088F48823F1F1853009F453C0BB
:103B200027960FB6F894DEBF0FBECDBFDF91CF91C1
:103B30000F91FF90EF900895843109F452C08931BC
:103B400009F455C08F3061F744EF51E064E180E142
:103B500097E20E943506E4CF823309F45FC058F43F
:103B6000883209F454C08D32D9F662E380E197E2DD
:103B70000E949A0CD5CF8C3309F456C0843609F4D0
:103B800059C0873369F644EF51E06CE388E99AE362
:103B90000E94960BC5CF0E9401067C016EE972E07F
:103BA000CE0101960E94924F05E097014AE550E050
:103BB0006CE27CE4CE0101960E94650FCE01019675
:103BC0000E94294FADCF6AE080E395E70E94781309
:103BD000A7CF4FE060ED77E088E99AE30E94EF0815
:103BE0009FCF69E188E99AE30E94EC0899CF40ED04
:103BF00057E063E288E99AE30E94530791CF48EEC9
:103C000053E068E288E99AE30E94EA0A89CF4DE22C
:103C100065E088E99AE30E94470782CF67E380E185
:103C200097E20E94980B7CCF49EC5DE164E680E668
:103C30009AEE8FCF60E08CEC90E10E94F34280E03E
:103C40005DDE6ECFEF92FF920F931F93CF93DF93C2
:103C500000D000D000D01F92CDB7DEB78091B70A58
:103C6000893109F487C038F5853009F46FC098F4BC
:103C7000882309F44BC0823009F460C027960FB640
:103C8000F894DEBF0FBECDBFDF91CF911F910F9192
:103C9000FF90EF9008958F3009F45EC0843109F4ED
:103CA00061C08A3059F749EA51E06FE082E890E656
:103CB0000E945307E3CF8D3209F476C080F483323B
:103CC00009F45FC0883209F46BC08E31B9F649EC53
:103CD0005DE163E28BE49EE60E943506CFCF873339
:103CE00009F467C0843609F46AC0823339F60E9449
:103CF000E8057C010E94E8058C010E94E8059C0112
:103D00004BE450E067E386E297E347C00E94010678
:103D10007C0169E571E0CE0101960E94924F02E0BC
:103D200097014BE450E06CE675E3CE0101960E94EA
:103D3000650FCE0101960E94294FA0CF45E068EBA8
:103D400071E083E99BE10E94EF0898CF6AE08BE481
:103D50009EE60E94EC0892CF64E186E297E30E941F
:103D60003C0A8CCF49EA51E069E18BE49EE60E946F
:103D7000960B84CF4EE165E080E395E70E9447070C
:103D80007DCFEE24EA94F12C0FEF10E02FEF30E01E
:103D90004BE450E068E289EC9DE00E94B8076ECFEA
:103DA00049EA51E06DE282CF42E365E088EB92E5BB
:103DB000E5CF49EC5DE164E68FEF9FEF8DCF60E0EA
:103DC0008CEC90E10E94F34280E098DD57CFEF92B7
:103DD000FF920F931F93CF93DF9300D000D000D0BA
:103DE0001F92CDB7DEB78091B70A823309F4EBC0DA
:103DF00008F049C0843109F4C8C010F5853009F4D1
:103E0000B6C098F4882309F492C0813009F4A7C0A1
:103E100027960FB6F894DEBF0FBECDBFDF91CF91CE
:103E20001F910F91FF90EF9008958A3009F4A7C079
:103E30008F3071F764E187EE90E40E94400AE8CF8A
:103E4000833209F4B8C0B0F4893109F4AEC08E31C0
:103E5000F9F60E94E8057C010E94E8058C010E94A9
:103E6000E8059C0142E350E063E286E397E00E94AC
:103E7000B807CECF883209F4A4C08D3249F662E388
:103E80008BE792E3DACF863409F4B8C050F58A3371
:103E900009F4A6C098F4873309F49AC0883309F06E
:103EA000B7CF0E94E8057C010E94E8058C010E94C2
:103EB000E8059C0142E350E06AE3D7CF8C3309F474
:103EC00095C0813409F0A4CFEE24EA94F12C0FEFD1
:103ED00010E02FEF30E042E350E066E48CE69EE035
:103EE000C6CF853509F49FC098F48B3409F495C08A
:103EF000803509F08DCF0E94E8057C010E94E8051D
:103F00008C010E94E8059C0142E350E065E5E6CFA4
:103F10008F3509F48FC0843609F498C08A3509F0CA
:103F200077CF42EC51E06FE587EC9FE625C00E9419
:103F300001067C0166E771E0CE0101960E94924F76
:103F400001E0970144E650E06BE772E3CE01019691
:103F50000E94650FCE0101960E94294F59CF49EC6E
:103F60005DE165E089ED9CE10E94350651CF4DE9A8
:103F700053E06AE089ED9CE10E94EA0A49CF6FE0D4
:103F800082E693E70E94EC0843CF0E94010659E1C4
:103F9000E52E8C0126E337E045E451E066E070E071
:103FA0008CEF99E00E94EC1033CF42EC51E06EE1CF
:103FB0008BE792E3E1CF42EC51E068E281EB99E3D9
:103FC000DBCF6DE2DDCF0E94010647E3E42EE1CFB7
:103FD00042EC51E068E38BE792E30E94960B18CF26
:103FE00042EC51E06CE381EB99E3F7CF41E46AE303
:103FF00077E086E89DE40E94EF080ACF0E94E8057A
:104000007C010E94E8058C010E94E8059C0142E3C6
:1040100050E06BE480E797E12ACF40E56AE377E080
:1040200081EB99E3E8CF4AE565E082E693E70E94F9
:104030004707EECE0E94010629E0E22E8C0120E621
:104040003AEE45E451E064E670E0AACF60E08CEC23
:1040500090E10E94F34280E051DCDACEEF92FF92D1
:104060000F931F93CF93DF9300D000D000D01F9207
:10407000CDB7DEB78091B70A8E3109F49FC0F0F555
:104080008A3009F47DC060F5823009F469C085305A
:1040900009F46EC0811117C00E9401067C0167E817
:1040A00071E0CE0101960E94924F02E097014BE42D
:1040B00050E061E87EE2CE0101960E94650FCE01DC
:1040C00001960E94294F27960FB6F894DEBF0FBEC7
:1040D000CDBFDF91CF911F910F91FF90EF90089589
:1040E000843109F455C0893109F458C08F3059F72B
:1040F00046EB53E064E189E79BE337C0823309F480
:1041000072C0B8F4883209F461C08D3209F464C019
:104110008332C9F6EE24EA94F12C0FEF10E02FEF72
:1041200030E04BE450E068E289E79BE30E94B80787
:10413000CACF8C3309F45DC0843609F462C087337A
:1041400011F60E94E8057C010E94E8058C010E949E
:10415000E8059C014BE450E06CE380EB9DE1E6CF89
:1041600046EB53E065E082E794E60E94EA0AABCFB3
:104170004BED51E06AE084E892EB0E94960BA3CFEE
:1041800046EB53E06FE08BE097E70E9453079BCF2D
:104190004BED51E069E18BE097E7EFCF0E9401061C
:1041A0002EE1E22E8C012BE236E14BED51E06AE08C
:1041B00070E086E29AE00E94EC1085CF43E26CE664
:1041C00077E087EC90E60E94EF087DCF48EB53E064
:1041D0006DE289E79BE3D9CF42E365E080EB9DE1A7
:1041E0000E94470770CF46EB53E067E380EB9DE109
:1041F000CCCF49EC5DE164E68FEF9FEF0E9435067E
:1042000062CF60E08CEC90E10E94F34280E076DBCC
:104210005ACFEF92FF920F931F93CF93DF9300D06B
:1042200000D000D01F92CDB7DEB78091B70A8E3193
:1042300009F4AFC0A0F5853009F492C0B8F481301C
:1042400009F487C008F46DC045E064E0823009F4E9
:1042500082C027960FB6F894DEBF0FBECDBFDF91A8
:10426000CF911F910F91FF90EF9008958F3009F437
:104270007BC040F48A3069F76FE086E09FE30E94DC
:10428000980BE7CF843109F473C044EF51E06EE13D
:104290008931F9F686E09FE30E94EA0ADACF873394
:1042A00009F48FC0D0F4883209F478C050F444EF98
:1042B00051E068E2833269F686E09FE30E9453078B
:1042C000C8CF8D3209F477C0823319F647E367E02F
:1042D0008DEF9EE30E944707BCCF813409F475C07F
:1042E00090F48C3309F0B5CF0E94E8057C010E9460
:1042F000E8058C010E94E8059C014BE450E061E474
:1043000084E49FE243C0863409F464C0843609F033
:10431000A0CF60E08CEC90E10E94F34280E0EEDA06
:1043200098CF0E9401067C016FE971E0CE010196F1
:104330000E94924F01E097014BE450E06EE07DE374
:10434000CE0101960E94650FCE0101960E94294F71
:1043500080CF42E063E083E89FE10E949D1279CF25
:1043600044EF51E06AE096CF44EF51E064E1A4CF1E
:104370000E94E8057C010E94E8058C010E94E80586
:104380009C014BE450E069E186E09FE30E94B8079E
:1043900060CF43E264E086E09FE3DFCF0E94E80560
:1043A0007C010E94E8058C010E94E8059C014BE419
:1043B00050E06DE2E9CF62E382E79FE10E94EC0802
:1043C00048CF44EF51E06CE377CF46E46CE089EBF3
:1043D0009FE080CF64E680E197E20E94400A39CFF7
:1043E000EF92FF920F931F93CF93DF9300D000D0F3
:1043F00000D01F92CDB7DEB78091B70A843109F49F
:1044000075C048F5823009F45CC0A8F4882309F42B
:1044100040C042E063E0813009F47BC027960FB6CC
:10442000F894DEBF0FBECDBFDF91CF911F910F91EA
:10443000FF90EF9008958A3009F44AC08F3009F454
:104440004DC0853059F749EA51E06AE082EB9CE6BD
:104450000E94EA0AE3CF883209F462C060F48E3128
:1044600009F455C0833209F457C08931B9F649EAD5
:1044700051E06EE1EBCF863409F461C0843609F473
:1044800064C08D3259F666E489E596E30E94EC0833
:10449000C5CF0E9401067C0166EB71E0CE0101965A
:1044A0000E94924F01E097014BE450E063ED7FE4FE
:1044B000CE0101960E94650FCE0101960E94294F00
:1044C000ADCF45E064E082EB9CE60E949D12A6CF52
:1044D0006FE082EB9CE60E94980BA0CF49EA51E086
:1044E00064E189E596E30E94530798CF0E94E805AE
:1044F0007C010E94E8058C010E94E8059C014BE4C8
:1045000050E069E189E596E30E94B80787CF43E26E
:1045100064E089E596E3D9CF49EA51E068E2E1CF6A
:104520000E94E8057C010E94E8058C010E94E805D4
:104530009C014BE450E06DE28FEE93E4E5CF64E63E
:1045400080E197E20E94400A69CF60E08CEC90E144
:104550000E94F34280E0D2D961CFEF92FF920F9395
:104560001F93CF93DF9300D000D000D01F92CDB720
:10457000DEB7E091B70AE53608F081C0F0E0ED5310
:10458000FD4D0C94CA5128234C2353233F233F2332
:104590005823602366236C23722374237C238D238A
:1045A0008F23932395233F233F2399233F23A8233E
:1045B0003F233F233F233F23AB233F23AF233F230F
:1045C000B4233F23B6233F23BA233F23BC233F23F7
:1045D000C0233F23CD233F23CF233F23D3233F2398
:1045E000D5233F23D9233F23E6233F23EC233F2337
:1045F000F2233F23FA233F2301243F2305243F23B3
:104600000A243F233F233F233F233F233F233F23CE
:104610003F233F233F233F233F233F233F233F238A
:104620003F233F233F233F233F233F233F233F237A
:104630003F233F233F233F233F233F233F233F236A
:104640003F233F233F233F233F233F233F230E248A
:104650000E9401067C0164ED71E0CE0101960E948A
:10466000924F01E097014BE450E069E77EE2CE0112
:1046700001960E94650FCE0101960E94294F279650
:104680000FB6F894DEBF0FBECDBFDF91CF911F9163
:104690000F91FF90EF90089542E067E083E590E28C
:1046A0000E949D12ECCF45E066E086EA90E4F8CFE8
:1046B00044EF51E066E086EA90E40E94EA0ADFCF28
:1046C00067E086E49EE10E94980BD9CF68E08EE017
:1046D00096E00E941610D3CF44EF51E069E08FE0DE
:1046E0009AE007C06AE0F3CF44EF51E06BE08CE161
:1046F0009CE00E945307C3CF0E94E8057C010E9402
:10470000E8058C010E94E8059C014BE450E06CE058
:1047100086E49EE10E94B807B2CF6DE0D8CF44EFA7
:1047200051E06EE0DCCF6FE0D2CF44EF51E062E1C8
:10473000DECF0E94E8057C010E94E8058C010E9402
:10474000E8059C014BE450E064E183E590E2E2CFB0
:1047500049E168E0AACF44EF51E06BE1ACCF4DE115
:1047600064E086E49EE19CCF6FE1B1CF44EF51E07D
:1047700061E2B5CF63E2ABCF44EF51E065E2B7CF82
:104780000E94E8057C010E94E8058C010E94E80572
:104790009C014BE450E067E2BBCF69E298CF44EF65
:1047A00051E06BE29CCF6DE292CF44EF51E06FE2BB
:1047B0009ECF0E94E8057C010E94E8058C010E94C2
:1047C000E8059C014BE450E061E3BFCF63E388EA76
:1047D00098E40E94781353CF65E386EA90E40E9440
:1047E000EC084DCF47E364EF71E083E590E20E946F
:1047F000EF0845CF49E367E083E590E20E94470771
:104800003ECF4BE36AEF70E0F0CF4DE36CE08FE416
:104810009EE1F4CF64E680E395E75BCF60E08CEC4B
:1048200090E10E94F34280E069D829CFEF92FF9295
:104830000F931F93CF93DF9300D000D000D01F922F
:10484000CDB7DEB78091B70A833209F4F5C008F01E
:104850004BC0863109F4CCC018F58A3009F4B8C0D1
:1048600098F4882309F494C0853009F4A9C02796E8
:104870000FB6F894DEBF0FBECDBFDF91CF911F9171
:104880000F91FF90EF9008958F3009F4A9C046E191
:1048900064E0843161F78EEE94E30E949D12E7CFCD
:1048A0008C3109F4BBC0A0F4883109F4B2C08A315C
:1048B000F1F60E94E8057C010E94E8058C010E9447
:1048C000E8059C0142E350E06CE188EE93E09EC075
:1048D000803209F4AAC0823209F4ABC08E3139F6B5
:1048E00044EF51E060E27FC08C3209F4BBC018F5A0
:1048F000863209F4B0C098F4843209F4AAC0853233
:1049000009F0B5CF0E94E8057C010E94E8058C0102
:104910000E94E8059C0142E350E066E2D6CF88326F
:1049200009F49BC08A3209F0A2CF6CE284EA98E3D2
:104930000E9478139CCF823309F4A4C098F48E327D
:1049400009F49DC0803309F092CF0E94E8057C01F4
:104950000E94E8058C010E94E8059C0142E350E0BA
:1049600062E3B3CF8C3309F490C0843609F493C06A
:10497000873309F07CCF0E94E8057C010E94E8059E
:104980008C010E94E8059C0142E350E06CE39DCF5E
:104990000E9401067C016DEE71E0CE0101960E943D
:1049A000924F05E0970142E350E06CE47DE1CE01D7
:1049B00001960E94650FCE0101960E94294F57CFA4
:1049C0004AE066EB73E083E79CE30E94EF084FCF79
:1049D00044EF51E06FE083E79CE30E94EA0A47CF8F
:1049E00044EF51E064E183E79CE30E9453073FCF2B
:1049F0000E94E8057C010E94E8058C010E94E80500
:104A00009C0142E350E068E185E897E00E94B80726
:104A10002ECF4AE163E084EA98E304C04EE167E008
:104A20008AE59CE30E94470722CF44EF51E062E20F
:104A3000D2CF43E265E02FCF0E94E8057C010E94BF
:104A4000E8058C010E94E8059C0142E350E064E225
:104A5000DBCF45E2DFCF48E2E2CF4AE262E083E724
:104A60009CE31BCF0E94E8057C010E94E8058C01B5
:104A70000E94E8059C0142E350E06EE226CF40E34D
:104A800065E0C9CF47E36AE0C6CF64E680E197E21C
:104A90000E94400AECCE60E08CEC90E10E94F34270
:104AA00080E00E947E1CE3CEEF92FF920F931F9353
:104AB000CF93DF9300D000D000D01F92CDB7DEB7E8
:104AC0008091B70A893109F486C058F5853009F418
:104AD00074C0B8F4813009F469C008F44FC045E0EF
:104AE00064E0823009F464C027960FB6F894DEBF04
:104AF0000FBECDBFDF91CF911F910F91FF90EF902F
:104B000008958F3009F45CC0843109F461C08A30A3
:104B100059F746E950E06FE080E09BE40E94EA0A22
:104B2000E3CF8D3209F476C068F4833209F45BC0B8
:104B3000883209F45EC08E31B9F643E264E080E267
:104B400097E638C0873309F46BC048F4823361F6C6
:104B500047E367E080E09BE40E944707C5CF8C33C2
:104B600009F463C0843609F0BFCF60E08CEC90E1BB
:104B70000E94F34280E00E947E1CB6CF0E94010694
:104B80007C0165E072E0CE0101960E94924F01E047
:104B900097014BE450E060E875E2CE0101960E9477
:104BA000650FCE0101960E94294F9ECF42E063E03F
:104BB00080E09BE40E949D1297CF4AE067E0F8CF27
:104BC00048E552E064E180E890E70E9453078CCF0B
:104BD00049E168E0EDCF46E950E06EE180E09BE41A
:104BE0000E94960B81CF68E280EB94E00E94400A1D
:104BF0007BCF0E94E8057C010E94E8058C010E94A1
:104C0000E8059C0142E350E06DE280EB94E00E94F5
:104C1000B8076ACF46E950E062E380E09BE4D5CF75
:104C20004CE365E080EE9EE2C5CF42E350E064E6EF
:104C300080E096E90E94350657CFEF92FF920F93DE
:104C4000CF93DF9300D000D000D01F92CDB7DEB756
:104C50008091B70A833209F4A5C0A0F58A3009F41F
:104C600092C0C0F4813009F484C008F46AC0823074
:104C700009F486C04AE0853009F488C027960FB64B
:104C8000F894DEBF0FBECDBFDF91CF910F91FF90A3
:104C9000EF900895843109F478C038F444E16BE072
:104CA0008F3061F788E391E468C0893109F472C0FC
:104CB00043E28E3119F76DE072E088E391E40E94DF
:104CC000EF08DCCF8C3309F47EC0C8F48D3209F4D0
:104CD0006DC040F4883291F66DE287E298E00E9460
:104CE000980BCCCF823309F465C04DE052E06CE301
:104CF000873321F688E391E40E945307BFCF8B34BA
:104D000009F46DC078F4813409F464C0863409F084
:104D1000B5CF20E04AEF50E06BE488E391E40E94D5
:104D2000620AACCF803509F460C0843609F0A6CFA2
:104D300060E08CEC90E10E94F34280E00E947E1CD7
:104D40009DCF0E9401067C0169E172E0CE010196CF
:104D50000E94924F01E097014BE450E06CE078E351
:104D6000CE0101960E94650FCE0101960E94294F47
:104D700085CF42E064E088EC99E20E949D127ECFEC
:104D800045E068E08FCF4FE096CF49E161E081E1F7
:104D900099E3F3CF4DE052E06EE188E391E40E94A5
:104DA000EA0A6CCF4DE052E068E2A4CF4AEF50E04F
:104DB00062E3F3CF21E04AEF50E067E388E391E458
:104DC0000E94EC0A5BCF41E46CE088E391E40E942E
:104DD000470754CF20E04AEF50E066E4EFCF60E5AC
:104DE0008DEB92E90E94781349CF64E680E197E267
:104DF0000E94400A43CFEF92FF920F931F93CF93ED
:104E0000DF9300D000D000D01F92CDB7DEB78091E5
:104E1000B70A8E3109F4B0C0A0F5853009F493C00B
:104E2000B8F4813009F488C008F46EC045E064E04D
:104E3000823009F483C027960FB6F894DEBF0FBE08
:104E4000CDBFDF91CF911F910F91FF90EF9008950B
:104E50008F3009F47CC040F48A3069F76FE086E057
:104E60009FE30E94980BE7CF843109F474C044EFAC
:104E700051E06EE18931F9F686E09FE30E94EA0A8B
:104E8000DACF873309F490C0D0F4883209F479C0BE
:104E900050F444EF51E068E2833269F686E09FE324
:104EA0000E945307C8CF8D3209F478C0823319F6B7
:104EB00047E367E08DEF9EE30E944707BCCF813454
:104EC00009F476C090F48C3309F0B5CF0E94E80560
:104ED0007C010E94E8058C010E94E8059C014BE4DE
:104EE00050E061E484E49FE244C0863409F465C084
:104EF000843609F0A0CF60E08CEC90E10E94F34290
:104F000080E00E947E1C97CF0E9401067C0167E32F
:104F100072E0CE0101960E94924F01E097014BE4AE
:104F200050E06EE07DE3CE0101960E94650FCE0158
:104F300001960E94294F7FCF42E063E083E89FE122
:104F40000E949D1278CF44EF51E06AE095CF44EF84
:104F500051E064E1A3CF0E94E8057C010E94E805CE
:104F60008C010E94E8059C014BE450E069E186E079
:104F70009FE30E94B8075FCF43E264E086E09FE3CF
:104F8000DFCF0E94E8057C010E94E8058C010E94A9
:104F9000E8059C014BE450E06DE2E9CF62E382E773
:104FA0009FE10E94EC0847CF44EF51E06CE376CFDD
:104FB00046E46CE089EB9FE07FCF64E680E197E216
:104FC0000E94400A38CFEF92FF920F931F93CF9326
:104FD000DF9300D000D000D01F92CDB7DEB7809114
:104FE000B70A883209F4A2C008F044C08F3009F42F
:104FF0008BC000F5853009F47CC08A3009F481C08B
:1050000081111FC00E9401067C0169E472E0CE019B
:1050100001960E94924F05E097014BE450E061E851
:105020007EE2CE0101960E94650FCE0101960E949C
:10503000294F07C0893109F46AC080F469E18431DD
:1050400021F127960FB6F894DEBF0FBECDBFDF91DA
:10505000CF911F910F91FF90EF9008958E3109F439
:105060005EC048E269E0833261F786E89BE30E9414
:105070009D12E7CF813409F464C0B8F4823309F497
:1050800057C040F462E38D32E1F686E89BE30E946C
:10509000EC08D7CF873309F44FC08C3391F661E425
:1050A00082E69DE30E94400ACCCF803509F456C0C9
:1050B00088F48B3431F6EE24EA94F12C0FEF10E0F3
:1050C0002FEF30E04FEA50E060E585E194E30E9485
:1050D000B807B7CF853509F447C0843609F0B1CF9A
:1050E00060E08CEC90E10E94F34280E00E947E1C24
:1050F000A8CF4BED51E06AE088E593E20E94EA0A0E
:10510000A0CF4FE066E0B1CF44E163E0AECF4BED1E
:1051100051E06EE186E89BE30E94530792CF43E2A1
:1051200064E086E89BE30E9447078BCF4DE2EDCF1A
:105130004BED51E067E3EECF4CE368E08AEA99E398
:10514000F2CF90EDE92E97E0F92E04E621E04BE452
:1051500061E08CE097E70E94D80673CF65E583ECA9
:105160009DE10E9478136DCF64E68BE99FE69ACFAC
:10517000EF92FF920F931F93CF93DF9300D000D055
:1051800000D01F92CDB7DEB78091B70A8E3109F4F7
:10519000B0C0A0F5853009F493C0B8F4813009F4AB
:1051A00088C008F46EC045E064E0823009F483C032
:1051B00027960FB6F894DEBF0FBECDBFDF91CF911B
:1051C0001F910F91FF90EF9008958F3009F47CC0EC
:1051D00040F48A3069F76FE086E09FE30E94980B05
:1051E000E7CF843109F474C044EF51E06EE18931B6
:1051F000F9F686E09FE30E94EA0ADACF873309F4E2
:1052000090C0D0F4883209F479C050F444EF51E0F2
:1052100068E2833269F686E09FE30E945307C8CFB5
:105220008D3209F478C0823319F647E367E08DEFD9
:105230009EE30E944707BCCF813409F476C090F406
:105240008C3309F0B5CF0E94E8057C010E94E80587
:105250008C010E94E8059C014BE450E061E484E489
:105260009FE244C0863409F465C0843609F0A0CFBB
:1052700060E08CEC90E10E94F34280E00E947E1C92
:1052800097CF0E9401067C0162E672E0CE01019692
:105290000E94924F01E097014BE450E06EE07DE305
:1052A000CE0101960E94650FCE0101960E94294F02
:1052B0007FCF42E063E083E89FE10E949D1278CFB8
:1052C00044EF51E06AE095CF44EF51E064E1A3CFB1
:1052D0000E94E8057C010E94E8058C010E94E80517
:1052E0009C014BE450E069E186E09FE30E94B8072F
:1052F0005FCF43E264E086E09FE3DFCF0E94E805F2
:105300007C010E94E8058C010E94E8059C014BE4A9
:1053100050E06DE2E9CF62E382E79FE10E94EC0892
:1053200047CF44EF51E06CE376CF46E46CE089EB85
:105330009FE07FCF64E680E197E20E94400A38CF89
:10534000EF92FF920F931F93CF93DF9300D000D083
:1053500000D01F92CDB7DEB78091B70A8E3109F425
:10536000B0C0A0F5853009F493C0B8F4813009F4D9
:1053700088C008F46EC045E064E0823009F483C060
:1053800027960FB6F894DEBF0FBECDBFDF91CF9149
:105390001F910F91FF90EF9008958F3009F47CC01A
:1053A00040F48A3069F76FE086E09FE30E94980B33
:1053B000E7CF843109F474C044EF51E06EE18931E4
:1053C000F9F686E09FE30E94EA0ADACF873309F410
:1053D00090C0D0F4883209F479C050F444EF51E021
:1053E00068E2833269F686E09FE30E945307C8CFE4
:1053F0008D3209F478C0823319F647E367E08DEF08
:105400009EE30E944707BCCF813409F476C090F434
:105410008C3309F0B5CF0E94E8057C010E94E805B5
:105420008C010E94E8059C014BE450E061E484E4B7
:105430009FE244C0863409F465C0843609F0A0CFE9
:1054400060E08CEC90E10E94F34280E00E947E1CC0
:1054500097CF0E9401067C0165E872E0CE010196BB
:105460000E94924F01E097014BE450E06EE07DE333
:10547000CE0101960E94650FCE0101960E94294F30
:105480007FCF42E063E083E89FE10E949D1278CFE6
:1054900044EF51E06AE095CF44EF51E064E1A3CFDF
:1054A0000E94E8057C010E94E8058C010E94E80545
:1054B0009C014BE450E069E186E09FE30E94B8075D
:1054C0005FCF43E264E086E09FE3DFCF0E94E80520
:1054D0007C010E94E8058C010E94E8059C014BE4D8
:1054E00050E06DE2E9CF62E382E79FE10E94EC08C1
:1054F00047CF44EF51E06CE376CF46E46CE089EBB4
:105500009FE07FCF64E680E197E20E94400A38CFB7
:10551000EF92FF920F931F93CF93DF9300D000D0B1
:1055200000D01F92CDB7DEB7E091B70AE53608F09C
:1055300081C0F0E0E256F54D0C94CA51032B1A2BB2
:10554000272B1A2B2D2B1A2B432B1A2B532B1A2BB1
:105550005C2B1A2B6E2B1A2B802B1A2B852B1A2BBC
:10556000922B1A2B9A2B1A2BA32B1A2BAB2B1A2B01
:10557000B72B1A2BC32B1A2BD42B1A2BD82B1A2B45
:10558000E02B1A2BED2B1A2BF32B1A2BFA2B1A2BA1
:10559000FE2B1A2B0A2C1A2B162C1A2B252C1A2B05
:1055A000292C1A2B2B2C1A2B362C1A2B3A2C1A2B73
:1055B000402C1A2B4B2C1A2B582C1A2B5C2C1A2BE8
:1055C000622C1A2B6F2C1A2B752C1A2B802C1A2B51
:1055D000862C1A2B912C1A2B1A2B1A2B1A2B1A2BBE
:1055E0001A2B1A2B1A2B1A2B1A2B1A2B1A2B1A2B93
:1055F0001A2B1A2B1A2B1A2B1A2B1A2B1A2B1A2B83
:105600001A2B1A2B952C0E9401067C016CEA72E081
:10561000CE0101960E94924F02E097014BE450E0C8
:1056200064E072E4CE0101960E94650FCE010196FE
:105630000E94294F27960FB6F894DEBF0FBECDBF4C
:10564000DF91CF911F910F91FF90EF90089564E04B
:1056500082E894E10E94400AEDCF0E9401068C018D
:1056600060ED72E0CE0101960E94924F36E0E32E8B
:105670002DE030E050E040E066EB73E0CE010196B3
:105680000E94DE0ED3CF0E9401068C0166ED72E00F
:10569000CE0101960E94924F28E0E22E2DE030E0EC
:1056A00046E050E0E9CF21E04CE657E06AE08DE0CB
:1056B00094E30E94620ABECF0E9401068C0169ED4C
:1056C00072E0CE0101960E94924F9CE0E92E2DE0FF
:1056D00030E050E040E06CE677E0D0CF0E94010679
:1056E0008C0166ED72E0CE0101960E94924F8EE031
:1056F000E82E2DE030E046E050E065E877E0BECFF0
:1057000020E04CE657E060E1D2CFB0EDEB2EB7E001
:10571000FB2E04E621E042E161E089E79BE30E9481
:10572000D80688CF4BED51E064E189EC9DE10E9401
:10573000530780CF20E04BED51E066E182E99BE327
:105740000E94EC0A77CF48E853E168E18BE097E7E5
:105750000E9435066FCF0E9401068C0160ED72E059
:10576000CE0101960E94924FAAE1EA2E81CF0E94BB
:1057700001068C0166ED72E0CE0101960E94924F07
:10578000FCE1EF2E8BCF0E94E8057C010E94E8052A
:105790008C010E94E8059C014AEF50E06EE182E82E
:1057A00094E10E94B80746CF60E287E499E052CFC7
:1057B00042E26BED71E08DE094E30E94EF083ACF96
:1057C000EE24EA94F12C0FEF10E02FEF30E04BE4E1
:1057D00050E064E288ED9EE0E4CF4BED51E066E2FC
:1057E00081EF9EE0A4CF20E04BED51E068E289EC30
:1057F0009DE1A6CF48E853E16AE2A8CF0E940106E6
:105800008C0160ED72E0CE0101960E94924F7CE225
:10581000E72E2ECF0E9401068C0166ED72E0CE01CC
:1058200001960E94924F6EE2E62E38CF0E94E80564
:105830007C010E94E8058C010E94E8059C014AEF6A
:1058400050E060E389E694E1ACCF62E380E699E062
:1058500001CF44E3AECFEE24EA94F12C0FEF10E039
:105860002FEF30E04BE450E066E3B4CF4BED51E076
:1058700068E3B6CF6AE381EA9CE20E94EC08DACEE4
:1058800040EDE42E47E0F42E04E621E04CE361E035
:105890008DE094E344CFEE24EA94F12C0FEF10E076
:1058A0002FEF30E042E350E06EE38CE697E079CFF3
:1058B00046EB53E060E494CF42E46BED71E082E2AA
:1058C0009BE07BCFEE24EA94F12C0FEF10E02FEF5A
:1058D00030E042E350E064E486EB93E062CF46E4DC
:1058E0006BED71E08BEE98E268CFEE24EA94F12C38
:1058F0000FEF10E02FEF30E042E350E068E4ECCF30
:105900004AE46BED71E08CED97E357CFEE24EA9417
:10591000F12C0FEF10E02FEF30E042E350E06CE4A9
:10592000DBCF64E68CE49DE195CE60E08CEC90E109
:105930000E94F34280E00E947E1C7CCEEF92FF9298
:105940000F931F93CF93DF9300D000D000D01F920E
:10595000CDB7DEB78091B70A8B3109F49EC058F5F8
:105960008A3009F47FC070F4823009F45DC085305C
:1059700009F472C081113DC062E080E49FE10E94A1
:10598000400A37C0843109F475C0893109F478C000
:105990008F3079F50E94E8057C010E94E8058C01B2
:1059A0000E94E8059C0142E350E064E182EE94E04D
:1059B0000E94B8071EC08D3209F482C098F4833269
:1059C00009F46FC0883209F474C08E3191F4EE246A
:1059D000EA94F12C0FEF10E02FEF30E042E350E0BB
:1059E00063E258C0873309F475C080F4823309F448
:1059F0006DC027960FB6F894DEBF0FBECDBFDF9106
:105A0000CF911F910F91FF90EF9008958C3309F47F
:105A100069C0843671F760E08CEC90E10E94F3423B
:105A200080E00E947E1CE5CF0E9401067C016EEDA5
:105A300072E0CE0101960E94924F05E097014AE57F
:105A400050E066EF74E5CE0101960E94650FCE012D
:105A500001960E94294FCDCF6AE080E197E20E9433
:105A60009417C7CF4FE060ED77E082E99BE30E9497
:105A7000EF08BFCF69E18EEB9AE00E94980BB9CF97
:105A8000EE24EA94F12C0FEF10E02FEF30E046E91E
:105A900050E06BE18EEE92E08BCF6EE182EE94E00F
:105AA0006ECF48EE53E068E280E89EE30E94EA0A87
:105AB000A0CF4DE265E088E99AE30E94470799CFBD
:105AC00062E380E197E20E949A0C93CF67E380E162
:105AD00097E2D3CF44EF51E06CE388E99AE30E9468
