:10000000F5C600001DC700001BC7000019C700008F
:1000100017C7000015C7000013C7000011C7000074
:100020000FC700000DC700000C94464A0C94C34A49
:1000300007C7000005C7000003C7000001C7000094
:10004000FFC60000FDC60000FBC60000F9C60000A8
:10005000F7C60000F5C60000F3C600000C94A549E1
:10006000EFC600000C94014D0C942C4D0C945D4D8A
:10007000E7C60000E5C60000E3C60000E1C60000D8
:100080000C94B71BDDC60000DBC60000D9C600001B
:10009000D7C60000D5C600000010000000300000E8
:1000A0000050000000700000008000000080000090
:1000B00000800000198D1900339933004DA64D00C2
:1000C00066B3660080C0800099CC9900B3D9B300B4
:1000D000CCE6CC00E6F2E6000001000200030004DA
:1000E00000060008000A000F0101020203030404D5
:1000F000060608080A0A0F0F0100020003000400A8
:10010000060008000A000F0011002200330044001E
:1001100066008800AA00FF001000200030004000A8
:1001200060008000A000F0001001200230034004B5
:1001300060068008A00AF00F00010002000300041E
:1001400000060008000A000F1101220233034404D4
:1001500066068808AA0AFF0F11012202330355051B
:1001600077079909AA0AFF0F2202220233035505D5
:1001700077079909AA0AFF0F3303330333035505A1
:1001800077079909AA0AFF0F550555055505550525
:1001900077079909AA0AFF0F770777077707770785
:1001A00077079909AA0AFF0F9909990999099909E5
:1001B00099099909AA0AFF0FAA0AAA0AAA0AAA0A69
:1001C000AA0AAA0AAA0AFF0FFF0FFF0FFF0FFF0FCD
:1001D000FF0FFF0FFF0FFF0F0100020003000500DC
:1001E000070009000A000F000200020003000500DA
:1001F000070009000A000F000300030003000500C8
:10020000070009000A000F000500050005000500B1
:10021000070009000A000F00070007000700070099
:10022000070009000A000F00090009000900090081
:10023000090009000A000F000A000A000A000A006B
:100240000A000A000A000F000F000F000F000F0045
:100250000F000F000F000F001000200030005000B2
:1002600070009000A000F00020002000300050003E
:1002700070009000A000F00030003000300050000E
:1002800070009000A000F00050005000500050009E
:1002900070009000A000F00070007000700070000E
:1002A00070009000A000F00090009000900090007E
:1002B00090009000A000F000A000A000A000A0000E
:1002C000A000A000A000F000F000F000F000F0009E
:1002D000F000F000F000F000000100020003000553
:1002E00000070009000A000F0002000200030005D9
:1002F00000070009000A000F0003000300030005C7
:1003000000070009000A000F0005000500050005B0
:1003100000070009000A000F000700070007000798
:1003200000070009000A000F000900090009000980
:1003300000090009000A000F000A000A000A000A6A
:10034000000A000A000A000F000F000F000F000F44
:10035000000F000F000F000F00000002000000045B
:10036000000000080000000F00000102020003046A
:10037000040005080600070F080009020A000B0424
:100380000C000D080E000F0F0000110222003304B4
:10039000440055086600770F88009902AA00BB0444
:1003A000CC00DD08EE00FF0F00001002200030043A
:1003B000400050086000700F80009002A000B00460
:1003C000C000D008E000F00F0000000200000005AF
:1003D000000000080000000F000000000100010004
:1003E00002000200030003000400040005000500F1
:1003F00006000600070007000800080009000900C1
:100400000A000A000B000B000C000C000D000D0090
:100410000E000E000F000F00000000001000100082
:10042000200020003000300040004000500050000C
:1004300060006000700070008000800090009000FC
:10044000A000A000B000B000C000C000D000D000EC
:10045000E000E000F000F0000000000001000100FA
:100460000200020003000300040004000500050070
:100470000600060007000700080008000900090040
:100480000A000A000B000B000C000C000D000D0010
:100490000E000E000F000F00000000000001000120
:1004A0000002000200030003000400040005000530
:1004B0000006000600070007000800080009000900
:1004C000000A000A000B000B000C000C000D000DD0
:1004D000000E000E000F000F000F010003000500CA
:1004E00007000A000F0000002000210F2300250054
:1004F00027002A002F00200040004100430F450044
:1005000047004A004F004000600061006300650F33
:1005100067006A006F006000800081008300850032
:10052000870F8A008F008000A000A100A300A50013
:10053000A700AA0FAF00A000F000F100F300F50043
:10054000F700FA00FF0FF0000000010003000500B3
:1005500007000A000F00000FF000F000FF00FF008E
:100560000F000F00F000F000F000F000FF00FF00AF
:100570000F000F00F000F000F000F000FF00FF009F
:100580000F000F00F000F000F000F000FF00FF008F
:100590000F000F00F000F000F000F000FF00FF007F
:1005A0000F000F00F000F000F000F000FF00FF006F
:1005B0000F000F00F000F000F000F000FF00FF005F
:1005C0000F000F00F000F000F000F000FF00FF004F
:1005D0000F000F00F000F000000000000F000F00FF
:1005E0000F000F000000000000000F0000000000DE
:1005F000000000000F0000000F000000000F0000CE
:100600000000000F00000F000F00000000000000BD
:100610000000000000000F000F000000F0000000CC
:100620000000F00000000F000F0000000000F400C8
:10063000F300000000000F0000000F0000000000A9
:10064000000000000F000000000000000F000F007D
:100650000F000F000000000000000000003E5B4F94
:100660005B3E3E6B4F6B3E1C3E7C3E1C183C7E3C12
:10067000181C577D571C1C5E7F5E1C00183C180020
:10068000FFE7C3E7FF0018241800FFE7DBE7FF30B0
:10069000483A060E2629792926407F050507407F1E
:1006A00005253F5A3CE73C5A7F3E1C1C08081C1C91
:1006B0003E7F14227F22145F5F005F5F06097F0187
:1006C0007F006689956A606060606094A2FFA29472
:1006D00008047E040810207E201008082A1C080840
:1006E0001C2A08081E101010100C1E0C1E0C30388E
:1006F0003E3830060E3E0E06000000000000005F8F
:1007000000000007000700147F147F14242A7F2AAA
:10071000122313086462364956205000080703006C
:10072000001C2241000041221C002A1C7F1C2A08B8
:10073000083E08080080703000080808080800001B
:1007400060600020100804023E5149453E00427F8F
:10075000400072494949462141494D331814127FDE
:100760001027454545393C4A49493141211109077E
:100770003649494936464949291E000014000000FF
:1007800040340000000814224114141414140041D1
:1007900022140802015909063E415D594E7C12118E
:1007A000127C7F494949363E414141227F414141C6
:1007B0003E7F494949417F090909013E4141517341
:1007C0007F0808087F00417F41002040413F017FB2
:1007D000081422417F404040407F021C027F7F047A
:1007E00008107F3E4141413E7F090909063E4151C3
:1007F000215E7F09192946264949493203017F01B3
:10080000033F4040403F1F2040201F3F4038403FB3
:10081000631408146303047804036159494D4300C9
:100820007F4141410204081020004141417F040200
:100830000102044040404040000307080020545497
:1008400078407F2844443838444444283844442875
:100850007F385454541800087E090218A4A49C78C8
:100860007F0804047800447D40002040403D007F24
:100870001028440000417F40007C047804787C0804
:100880000404783844444438FC18242418182424D8
:1008900018FC7C08040408485454542404043F44BD
:1008A000243C4040207C1C2040201C3C4030403CEC
:1008B00044281028444C9090907C4464544C44004C
:1008C00008364100000077000000413608000201B0
:1008D0000204023C2623263C1EA1A161123A40409C
:1008E000207A385454555921555579412254547819
:1008F00042215554784020545579400C1E527212B2
:10090000395555555939545454593955545458003A
:1009100000457C410002457D420001457C407D123E
:1009200011127DF0282528F07C54554500205454A0
:100930007C547C0A097F4932494949323A4444444B
:100940003A324A4848303A4141217A3A4240207886
:10095000009DA0A07D3D4242423D3D4040403D3C87
:1009600024FF2424487E4943662B2FFC2F2BFF09AC
:1009700029F620C0887E09032054547941000044A0
:100980007D413048484A32384040227A007A0A0A8B
:10099000727D0D19317D2629292F282629292926FE
:1009A00030484D4020380808080808080808382F43
:1009B00010C8ACBA2F102834FA00007B00000814CD
:1009C0002A142222142A14085500550055AA55AAA3
:1009D00055AAFF55FF55FF000000FF00101010FF43
:1009E00000141414FF001010FF00FF1010F010F09E
:1009F000141414FC001414F700FF0000FF00FF148F
:100A000014F404FC141417101F10101F101F1414DA
:100A1000141F00101010F0000000001F1010101024
:100A20001F10101010F010000000FF101010101018
:100A300010101010FF10000000FF140000FF00FF56
:100A400000001F10170000FC04F4141417101714F2
:100A500014F404F40000FF00F71414141414141414
:100A6000F700F7141414171410101F101F14141487
:100A7000F4141010F010F000001F101F0000001FF1
:100A800014000000FC140000F010F01010FF10FF24
:100A9000141414FF141010101F00000000F010FFB9
:100AA000FFFFFFFFF0F0F0F0F0FFFFFF000000009D
:100AB00000FFFF0F0F0F0F0F3844443844FC4A4A21
:100AC0004A347E02020606027E027E0263554941D6
:100AD000633844443C04407E201E2006027E02020D
:100AE00099A5E7A5991C2A492A1C4C7201724C3021
:100AF0004A4D4D303048784830BC625A463D3E49F8
:100B00004949007E0101017E2A2A2A2A2A44445F9B
:100B1000444440514A444040444A51400000FF018F
:100B200003E080FF000008086B6B0836123624369D
:100B3000060F090F06000018180000001010003002
:100B400040FF0101001F01011E00191D1712003C8A
:100B50003C3C3C00000000000001020304050608C4
:100B6000090A0B0D0E1012131517191B1D20222533
:100B7000272A2D3033373A3E4145494D52565B5F67
:100B800064696E74797F858B91979DA4ABB2B9C06F
:100B9000C7CFD6DEE6EEF7FF000102030507090B1B
:100BA0000E1114181D22282E363D464F59646F7CB5
:100BB0008997A6B6C7D9EBFFAB0055007C0084002F
:100BC0004B00B5001B00E5000017E8000047B80027
:100BD0000077AB0000ABAB000055AB000022DD009E
:100BE0000E00F2003E00C20071008F00A1005F0005
:100BF000D0002F00F90700000000FF0000000000F7
:100C00000055AB000000000000ABAB00000000008E
:100C100000FF00000000000055AB000000000000D5
:100C2000FF00000000000000AB00550000000000C5
:100C30005500AB00000000000000FF00002AD500B6
:100C40000055AB00007FAB0000ABAB0000D55600F9
:100C500000FF00002AD5000055AB0000AA56000096
:100C6000FF000000D5002A00AB00550081007F0086
:100C70005500AB002B00D500FF0000008B000000EA
:100C80008B0000008B0000008B0000008B00000038
:100C90008B0000008B000000FF0000008B000000B4
:100CA000EBCE8700EBCE8700E6D8AD00FFFFFF005C
:100CB000E6D8AD00EBCE87000129022904290829D6
:100CC0001029202940298029012C022C01260226E6
:100CD000042608261026202640268026402C802C1C
:100CE00001230223042308231023202340238023ED
:100CF00001200220042008201020202040208020F5
:100D0000102C202C012F022F042F082F102F202F02
:100D1000402F802F00010000C50D1200020000824C
:100D20000D43000300007E0D0401030904640D1847
:100D3000020309044C0D16030309043E0D0C0C03B9
:100D40003100320033003400350000001603550036
:100D500053004200200053006500720069006100EA
:100D60006C00000018035400650065006E007300FD
:100D700079006400750069006E006F0000000403D4
:100D8000090409024300020100C032090400000105
:100D900002020100052400100105240100010424C1
:100DA0000206052406000107058203080040090425
:100DB0000100020A000000070503024000000705C9
:100DC00084024000001201000202000020C01683CD
:100DD000047202010203010001C102018036018197
:100DE0003600A33521457B4D40501E3611241FBED1
:100DF000CFEFD0E2DEBFCDBF19E0A0E0B1E0EEEB77
:100E0000F8EA00E00BBF02C007900D92A23EB107C6
:100E1000D9F721E1A2EEB9E001C01D92A637B207D1
:100E2000E1F716E0C5EFD6E004C02197FE010E946D
:100E30006853C13FD107C9F70E948C4D0C9453549D
:100E4000DFC8FC01858596850895CF93DF9300D098
:100E500000D000D0CDB7DEB7AB011C821D821E8250
:100E6000DC01ED91FC910190F081E02D19821A8254
:100E70001B829E012F5F3F4FBE016C5F7F4F099524
:100E800026960FB6F894DEBF0FBECDBFDF91CF918F
:100E900008956731710508F0EFC0FB01EE5AF84F75
:100EA0000C946853690774077C07890794079B07AC
:100EB000A207A907B307BD07C707D107DB07E507E7
:100EC000EF07F707FF0706080D0814081E08280893
:100ED000320804978330910508F0CEC086599A4FA6
:100EE000FC01808190E0089502978630910508F01A
:100EF000C3C08C599A4FF4CF01978331910508F004
:100F0000BBC0880F991FFC01E25CFA4F8081918180
:100F1000089501978531910508F0AEC0880F991F9B
:100F2000FC01EC5EFA4FF2CF8431910508F0A4C0C9
:100F300080509B4FD5CF8431910508F09DC08451DE
:100F40009B4FCECF8F30910508F096C083529B4FB8
:100F5000C7CF8F30910508F08FC0880F991FFC0113
:100F6000E154FB4FD3CF8F30910508F085C0880F37
:100F7000991FFC01EF55FB4FC9CF8F30910508F049
:100F80007BC0880F991FFC01ED57FB4FBFCF8F30FF
:100F9000910508F071C0880F991FFC01EB59FB4FB8
:100FA000B5CF8F30910508F067C0880F991FFC01FD
:100FB000E95BFB4FABCF8F30910508F05DC0880F28
:100FC000991FFC01E75DFB4FA1CF8F30910508F021
:100FD00053C0880F991FFC01E55FFB4F97CF019726
:100FE0008E30910508F048C083509C4F79CF02970E
:100FF0008131910508F040C084519C4F71CF019719
:1010000082319105C8F586529C4F6ACF0197833192
:10101000910590F589539C4F63CF019784319105D9
:1010200058F58D549C4F5CCF01978331910520F585
:10103000880F991FFC01E357FC4F68CF0297873058
:101040009105D0F4880F991FFC01E158FC4F5ECF49
:1010500003978530910580F4880F991FFC01EB58A8
:10106000FC4F54CF04978330910530F4880F991FBB
:10107000FC01E159FC4F4ACF8CE291E0089580E9F0
:1010800091E008953A9A0895FB0101900020E9F754
:101090003197AF01461B570BDC01ED91FC910280AB
:1010A000F381E02D0994F0CF0F931F93CF93DF933B
:1010B000EC01EADF8C01CE010E941E4E800F911FD1
:1010C000DF91CF911F910F9108950F931F93CF93AD
:1010D000DF93EC01462F50E070E060E020E00E94DA
:1010E000384E8C01CE010E941E4E800F911FDF9161
:1010F000CF911F910F9108950F931F93DC01AC01C5
:10110000405D5F4FFB0105911591259134912C9322
:1011100011961C93119712960C9312976C5F7F4F48
:101120001396A417B50771F71F910F910895FC014D
:1011300060810C946943FC0140810C94F943DC010B
:10114000ED91FC9102A0F3A1E02D70E060E0099424
:101150002F923F924F925F926F927F928F929F92C7
:10116000AF92BF92CF92DF92EF92FF920F931F93B5
:10117000CF93DF93CDB7DEB72C970FB6F894DEBFD1
:101180000FBECDBF9C838B837E836D8358874F8337
:101190002901380180917A0A409E9001419E300DCC
:1011A000509E300D11243A832983811114C08AE79F
:1011B0009AE00E94934D892B71F089819A81880F62
:1011C000991F0E9406469093830A8093820A8AE7B9
:1011D0009AE00E949C4D912C812C89819A818815DE
:1011E000990509F46AC01401220C331CEF81F885BB
:1011F000E20DF31D259134913B872A87632F6F7091
:1012000070E090E080E01F921F921F923FE13F93B9
:10121000A12CB12C65011FE0E12EF12C00E010E0C3
:1012200020E030E0A9010E94885069876A857B85AB
:1012300034E0769567953A95E1F76F7070E090E04D
:1012400080E01F921F921F922FE32F9320E030E047
:10125000A9010E9488506C873A853F70632F70E027
:1012600090E080E01F921F921F922FE12F9320E0C9
:1012700030E0A9010E948850E091820AF091830A2F
:10128000E20DF31D70E0762F6627770F770F770F4B
:101290002C8530E2239FC0011124680F791F398506
:1012A000630F711D718360838FEF881A980A0FB6E0
:1012B000F894DEBF0FBECDBF90CF2091820A30914F
:1012C000830A730182014D815E816B817C818091F3
:1012D000C9109091CA100E947A3B2C960FB6F894D0
:1012E000DEBF0FBECDBFDF91CF911F910F91FF9059
:1012F000EF90DF90CF90BF90AF909F908F907F90B6
:101300006F905F904F903F902F9008950F931F9391
:1013100090E8899FA001112448525F4F6091760A9E
:101320007091770A08E010E028E030E08091780AB8
:101330009091790A0DDF8091780A9091790A089648
:101340008631910528F59093790A8093780A8091E7
:10135000780A9091790A892B49F48091760A9091C4
:10136000770A08969093770A8093760A8091760A96
:101370009091770A479720F01092770A1092760A98
:101380008091C9109091CA101F910F910C94143F35
:101390001092790A1092780ADACF24E030E040E027
:1013A00050E061E070E080E090E00E946B506230BD
:1013B000710531F06330710531F090E080E00895FF
:1013C0008FE790E008958FEF90E0089527E030E0F8
:1013D00040E050E061E070E080E090E00E946B50FF
:1013E000615071096730710540F4660F771FFB018A
:1013F000EF59FC4F80819181089590E080E008953D
:1014000029E030E040E050E061E070E080E090E012
:101410000E946B50615071096730710540F4660F8E
:10142000771FFB01ED5AFC4F80819181089590E078
:1014300080E00895EF92FF920F931F93CF93DF9375
:101440007C01162FEA018091C70A811112C061E068
:101450008AED90E10E949144F0920701E09206012A
:101460001093C60A81E08093C70A1092720A109204
:10147000710A8091710A9091720A892B49F48DDF6B
:101480008093750A8ADF8093740A87DF8093730ADA
:101490001091730A0091740AF090750A26E131E008
:1014A00040E050E060E070E0CB010E946B50FB0137
:1014B000EE0FFF1FE60FF71FE552F54FF082018395
:1014C000128323E030E040E050E060E070E0CB01C8
:1014D0000E946B50613071058105910599F426E1F8
:1014E00031E040E050E060E070E0CB010E946B50E2
:1014F000FB01EE0FFF1FE60FF71FE552F54F1082BD
:10150000118212828AED90E112DE8091CD0A9091D3
:10151000CE0A8C179D07D0F01092CE0A1092CD0AF9
:101520008091710A9091720A019684309105A9F018
:101530009093720A8093710A8091710A9091720A55
:101540008130910569F429DF8093730ADF91CF918F
:101550001F910F91FF90EF90089581E090E0E8CF08
:101560008230910521F419DF8093740AEFCF03973D
:1015700069F713DF8093750AE9CFCF92DF92EF927C
:10158000FF920F931F93CF93DF936C01D62F142FED
:10159000C22F8091C70A811110C061E08AED90E1ED
:1015A0000E949144D0920701C09206011093C60A8E
:1015B00081E08093C70AD093B60A8091CD0A9091BA
:1015C000CE0A8E159F0590F01092CE0A1092CD0A89
:1015D000CC2361F02091B60A422F4C0F5527551F9E
:1015E000041715061CF02C0F2093B60A60E08AED54
:1015F00090E10E9491448FEF8093DA10D0E0C0E038
:101600008091B60A8C171D06E1F0DCF0C6DE182FBB
:10161000C4DE082FC2DEF82E26E131E040E050E0C3
:1016200060E070E0CB010E946B50FB01EE0FFF1FEA
:10163000E60FF71FE552F54FF082018312832196E2
:10164000DFCF8AED90E1DF91CF911F910F91FF9055
:10165000EF90DF90CF906BCDEF92FF920F93F12C34
:10166000E12C00E020E089DF0F91FF90EF900895DA
:10167000CF92DF92FF920F931F93CF93DF9300D00F
:101680001F92CDB7DEB76C01F62E8A018091C70A92
:10169000811112C061E08AED90E10E949144D092E4
:1016A0000701C0920601F092C60A81E08093C70A42
:1016B0001093CE0A0093CD0A8091CD0A9091CE0A64
:1016C0008017910778F11092CE0A1092CD0A65DE4C
:1016D0008093750A62DE8093740A5FDE8093730ADA
:1016E0009091750A91110FC09091740A91110BC0DD
:1016F000811109C052DE8093750A4FDE8093740A0F
:101700004CDE8093730A8091730A9091740A209141
:10171000750A29839A838B83BE016F5F7F4F8AEDA1
:1017200090E109DD0F900F900F90DF91CF911F9105
:101730000F91FF90DF90CF900895AF92BF92CF921C
:10174000DF92EF92FF920F931F93CF93DF9300D01E
:101750001F92CDB7DEB75C01F62E6A01122F809181
:10176000C70A811112C061E08AED90E10E949144A4
:10177000B0920701A0920601F092C60A81E0809320
:10178000C70AD092CE0AC092CD0A8091CD0A90911C
:10179000CE0A8C159D0598F01092CE0A1092CD0AB3
:1017A0008091D00A8823C9F019830A83EB82BE0195
:1017B0006F5F7F4F8AED90E1BEDC1092D00A0F90F0
:1017C0000F900F90DF91CF911F910F91FF90EF90AD
:1017D000DF90CF90BF90AF90089519821A821B823C
:1017E000BE016F5F7F4F8AED90E1A5DC81E08093C1
:1017F000D00AE5CFEF92FF920F931F93CF93DF9321
:101800007C01162FEA018091C70A81110EC061E0A8
:101810008AED90E10E949144F0920701E092060166
:101820001093C60A81E08093C70A8091CD0A9091F7
:10183000CE0A8C179D0708F4ADC01092CE0A109204
:10184000CD0A60E08AED90E10E9491442091B90AAE
:101850006091BE0A7091BF0A8091C9109091CA1020
:10186000211152C06F5F7F4F7093BF0A6093BE0A11
:101870006C3171051CF021E02093B90ADC01ED9177
:10188000FC9104A0F5A1E02DE12C58EFF52E07E125
:1018900010E09B0150E040E009958091C9109091C3
:1018A000CA106091BE0A7091BF0A61507109DC01D3
:1018B000ED91FC9104A0F5A1E02DEE24EA94FE2C1C
:1018C0009B0150E040E009958091C9109091CA10A9
:1018D0006091BE0A7091BF0A62507109DC01ED91FE
:1018E000FC9104A0F5A1E02DE12CB8EFFB2E9B01AB
:1018F00050E040E009958AED90E1DF91CF911F9192
:101900000F91FF90EF9013CC615071097093BF0A53
:101910006093BE0A6B3FBFEF7B0714F41092B90AC5
:10192000DC01ED91FC9104A0F5A1E02DEE24EA94F8
:10193000FE2C07E110E09B0150E040E0099580910A
:10194000C9109091CA106091BE0A7091BF0A61508F
:101950007109DC01ED91FC9104A0F5A1E02DE12CD1
:1019600038EFF32E9B0150E040E009958091C910BB
:101970009091CA106091BE0A7091BF0A62507109BD
:10198000DC01ED91FC9104A0F5A1E02DEE24EA9498
:10199000FE2CADCFDF91CF911F910F91FF90EF9073
:1019A000089550E040E026CF8F929F92AF92BF9271
:1019B000CF92DF92EF92FF920F931F93CF93DF931B
:1019C0007C01EB01142F8091C70A811118C061E0DE
:1019D0008AED90E10E949144F0920701E0920601A5
:1019E0001093C60A81E08093C70AF0DC9093D90A6D
:1019F0008093D80AEBDC9093D70A8093D60A1C1602
:101A00001D06ACF48091CD0A9091CE0A8C179D07EB
:101A100070F01092CE0A1092CD0AD8DC9093D90AB9
:101A20008093D80AD3DC9093D70A8093D60A80910A
:101A3000BE0A9091BF0A01968A3091050CF0FCC055
:101A40009093BF0A8093BE0A60E08AED90E10E9405
:101A500091448091C9109091CA104091BE0A509152
:101A6000BF0AE090D80AF090D90A9A01265F3F4F4A
:101A70006AE0A62EB12CB501641B750BDC01ED915B
:101A8000FC9104A0F5A1E02D06E110E050E040E05B
:101A900009958091C9109091CA104091BE0A509149
:101AA000BF0AE090D60AF090D70A9A01255F3F4F0F
:101AB0007BE0872E912CB401641B750BDC01ED914A
:101AC000FC9104A0F5A1E02D50E040E00995809143
:101AD000C9109091CA104091BE0A5091BF0AE0907F
:101AE000D80AF090D90AE6E1CE2ED12C041B150BB2
:101AF0004F5F5F4FDC01ED91FC9104A0F5A1E02D5B
:101B000025E130E070E060E009958091C910909186
:101B1000CA104091BE0A5091BF0AE090D60AF090D8
:101B2000D70AC5E1D0E08E01041B150BDC01ED9155
:101B3000FC9104A0F5A1E02D25E130E070E060E02B
:101B400009958091C9109091CA104091BE0A509198
:101B5000BF0AE090D80AF090D90A8401041B150B43
:101B6000455F5F4FDC01ED91FC9104A0F5A1E02DF4
:101B700025E130E070E060E009958091C910909116
:101B8000CA104091BE0A5091BF0AE090D60AF09068
:101B9000D70A8501041B150B465F5F4FDC01ED91F1
:101BA000FC9104A0F5A1E02D25E130E070E060E0BB
:101BB00009958091C9109091CA106091BE0A7091E8
:101BC000BF0AE090D80AF090D90A9601261B370B7D
:101BD000DC01ED91FC9104A0F5A1E02D10E000E006
:101BE00046E150E009958091C9109091CA1060912A
:101BF000BE0A7091BF0AE090D60AF090D70A9E0103
:101C0000261B370B61507109DC01ED91FC9104A09A
:101C1000F5A1E02D46E150E009958AED90E1DF91D4
:101C2000CF911F910F91FF90EF90DF90CF90BF90D9
:101C3000AF909F908F907BCA1092BF0A1092BE0AFD
:101C400003CF462F70E060E0AFCE0F931F93CF938A
:101C50008C01C62F8091C70A81110EC061E08AED08
:101C600090E10E9491441093070100930601C093F4
:101C7000C60A81E08093C70A60E08AED90E10E9485
:101C800091448AED90E1CF911F910F9150CA8F92AC
:101C90009F92AF92BF92CF92DF92EF92FF920F93FB
:101CA0001F93CF93DF937C01062FEA01122F8091BF
:101CB000C70A811112C061E08AED90E10E9491444F
:101CC000F0920701E09206010093C60A81E080933A
:101CD000C70AD093CE0AC093CD0A8091CD0A9091C5
:101CE000CE0A8C179D0708F44DC01092CE0A1092B0
:101CF000CD0A112309F444C060E08AED90E10E940E
:101D0000914464DB9093D90A8093D80AC091C9109A
:101D1000D091CA100091D80A1091D90A2AE030E077
:101D200040E050E063E070E080E090E00E946B50A3
:101D30004B0126E130E040E050E060E070E0CB0194
:101D40000E946B506B0125E130E040E050E060E024
:101D500070E0CB010E946B509401A601CE010E945D
:101D6000343B8AED90E1DF91CF911F910F91FF906D
:101D7000EF90DF90CF90BF90AF909F908F90D7C99A
:101D80003FDBC0CFDF91CF911F910F91FF90EF907C
:101D9000DF90CF90BF90AF909F908F90089521E0FB
:101DA00076CFCF92DF92EF92FF920F931F93CF9354
:101DB000DF936C01E62EEA01F22E8091C70A8111B1
:101DC00012C061E08AED90E10E949144D092070137
:101DD000C0920601E092C60A81E08093C70AD093C0
:101DE000CE0AC093CD0A8091CD0A9091CE0A8C176D
:101DF0009D0708F477C01092CE0A1092CD0A25E113
:101E000030E040E050E060E070E0CB010E946B50B9
:101E1000C62F25E130E040E050E060E070E0CB010B
:101E20000E946B50C62EFF2009F45AC060E08AED74
:101E300090E10E949144CADA9093D90A8093D80A1B
:101E40008091C9109091CA10D12CD0E0E090D80AAE
:101E5000F090D90A960121503109BE0161507109F3
:101E6000DC01ED91FC9104A0F5A1E02D06E110E06C
:101E700050E040E009958091C9109091CA10E0901F
:101E8000D80AF090D90ADC01ED91FC9104A0F5A1EB
:101E9000E02D960150E040E0BE0109958091C91007
:101EA0009091CA10E090D80AF090D90A96012F5F5D
:101EB0003F4FBE016F5F7F4FDC01ED91FC9104A0AD
:101EC000F5A1E02D50E040E009958AED90E1DF9129
:101ED000CF911F910F91FF90EF90DF90CF9027C986
:101EE0008FDAAACFDF91CF911F910F91FF90EF90E2
:101EF000DF90CF90089521E054CFCF92DF92EF9200
:101F0000FF920F931F93CF93DF938C01C62F809185
:101F1000C70A81110EC061E08AED90E10E949144F0
:101F20001093070100930601C093C60A81E08093D5
:101F3000C70A60E08AED90E10E9491448091B70A5F
:101F40009091B80A8230910509F459C07CF4009749
:101F500039F10197E1F18AED90E1DF91CF911F9185
:101F60000F91FF90EF90DF90CF90E1C88430910502
:101F700009F49AC00CF472C0059769F78091BE0A03
:101F80009091BF0A01979093BF0A8093BE0A1816DA
:101F900019060CF49DC01092B80A1092B70A12C02C
:101FA0008091BE0A9091BF0A01969093BF0A8093D8
:101FB000BE0A4A970CF461C081E090E09093B80AA1
:101FC0008093B70A1092BF0A1092BE0AC4CF8091C4
:101FD000BE0A9091BF0A01969093BF0A8093BE0AF1
:101FE0000C9714F182E090E09093B80A8093B70ABE
:101FF0008CE090E09093BF0A8093BE0AACCF8091B2
:10200000BE0A9091BF0A01979093BF0A8093BE0ABF
:10201000181619064CF083E090E09093B80A80936C
:10202000B70A89E190E0E6CFC091C910D091CA10FB
:10203000E881F981C4A0D5A0C9D94091BE0A5091C8
:10204000BF0A06E110E0041B150B7C0130E020E024
:1020500069E170E0CE01F60109957DCF8091BE0A5D
:102060009091BF0A01979093BF0A8093BE0A1816F9
:1020700019061CF084E090E0A1CFC091C910D09166
:10208000CA10E881F981C4A0D5A0A0D96091BE0A88
:102090007091BF0A29E130E0261B370B7C0106E175
:1020A00010E050E040E0D6CF8091BE0A9091BF0A88
:1020B00001969093BF0A8093BE0A0B974CF085E07F
:1020C00090E09093B80A8093B70A8AE090E092CFAC
:1020D000C091C910D091CA10E881F981C4A0D5A0DF
:1020E00075D94091BE0A5091BF0A06E110E0041B69
:1020F000150B7C0129E130E070E060E0ABCFCF92BE
:10210000DF92EF92FF920F931F93CF93DF938C0197
:10211000C62F8091C70A81110EC061E08AED90E15F
:102120000E9491441093070100930601C093C60AD0
:1021300081E08093C70A60E08AED90E10E949144BB
:102140008091B90AE091BE0AF091BF0A811109C1DC
:10215000E930F10528F5E155FF4E0C946853B810AD
:10216000EB1004111D1136114F11671180119911D7
:10217000C7E6D8E003E019E0E990F9900ED9D82E2F
:102180000CD9C82E0AD9F701EE0FFF1FEE0DFF1D67
:10219000E552F54F8083C182D2820C171D0761F78B
:1021A0008AED90E10E9497088091BE0A9091BF0A43
:1021B00001969093BF0A8093BE0A09971CF081E0B4
:1021C0008093B90ADF91CF911F910F91FF90EF900B
:1021D000DF90CF900895CBEDD7E007E618E0E990C7
:1021E000F990DBD8D82ED9D8C82ED7D8F701EE0F62
:1021F000FF1FEE0DFF1DE552F54F8083C182D28295
:102200000C171D0761F7CCCFCFE6D7E00BED17E039
:10221000E990F990C2D8D82EC0D8C82EBED8F70100
:10222000EE0FFF1FEE0DFF1DE552F54F8083C182BB
:10223000D2820C171D0761F7B3CFC5E2D7E00FE6D6
:1022400017E0E990F990A9D8D82EA7D8C82EA5D81C
:10225000F701EE0FFF1FEE0DFF1DE552F54F8083D6
:10226000C182D2820C171D0761F79ACFC5EED6E066
:1022700005E217E0E990F99090D8D82E8ED8C82EB4
:102280008CD8F701EE0FFF1FEE0DFF1DE552F54F45
:102290008083C182D2820C171D0761F781CFC9EA02
:1022A000D6E00991199179D8F82E77D8E82E75D80B
:1022B000F801EE0FFF1FE00FF11FE552F54F80838D
:1022C000E182F28286E0C53ED80759F769CFC3E7BD
:1022D000D6E009EA16E0E990F9905FD8D82E5DD8EB
:1022E000C82E5BD8F701EE0FFF1FEE0DFF1DE55264
:1022F000F54F8083C182D2820C171D0761F750CF42
:10230000CFE3D6E003E716E0E990F99046D8D82E5F
:1023100044D8C82E42D8F701EE0FFF1FEE0DFF1D67
:10232000E552F54F8083C182D2820C171D0761F7F9
:1023300037CFCFE0D6E0099119912FD8F82E2DD8BC
:10234000E82E2BD8F801EE0FFF1FE00FF11FE5522A
:10235000F54F8083E182F28286E0CF33D80759F7C8
:102360001FCFE930F10520F5E854FE4E0C94685378
:10237000C111EC11071222123D12581273128E1263
:10238000A912C7E6D8E00991199107D8F82E05D807
:10239000E82E03D8F801EE0FFF1FE00FF11FE55202
:1023A000F54F8083E182F28289E0C330D80759F784
:1023B0008AED90E10E9497088091BE0A9091BF0A31
:1023C00001979093BF0A8093BE0A181619060CF461
:1023D000F9CE1092B90AF6CECBEDD7E0099119915A
:1023E0000E94CD09F82E0E94CD09E82E0E94CD0949
:1023F000F801EE0FFF1FE00FF11FE552F54F80834C
:10240000E182F28288E0C736D80741F7D1CFCFE624
:10241000D7E0099119910E94CD09F82E0E94CD09AB
:10242000E82E0E94CD09F801EE0FFF1FE00FF11F0B
:10243000E552F54F8083E182F28287E0CB3DD807F9
:1024400041F7B6CFC5E2D7E0099119910E94CD09B5
:10245000F82E0E94CD09E82E0E94CD09F801EE0F5A
:10246000FF1FE00FF11FE552F54F8083E182F282FA
:1024700087E0CF36D80741F79BCFC5EED6E009916C
:1024800019910E94CD09F82E0E94CD09E82E0E94D4
:10249000CD09F801EE0FFF1FE00FF11FE552F54FD8
:1024A0008083E182F28287E0C532D80741F780CF8E
:1024B000C9EAD6E0099119910E94CD09F82E0E942F
:1024C000CD09E82E0E94CD09F801EE0FFF1FE00FA5
:1024D000F11FE552F54F8083E182F28286E0C53E2E
:1024E000D80741F765CFC3E7D6E0099119910E945B
:1024F000CD09F82E0E94CD09E82E0E94CD09F801E1
:10250000EE0FFF1FE00FF11FE552F54F8083E182D0
:10251000F28286E0C93AD80741F74ACFCFE3D6E046
:10252000099119910E94CD09F82E0E94CD09E82E3B
:102530000E94CD09F801EE0FFF1FE00FF11FE552D9
:10254000F54F8083E182F28286E0C337D80741F7F6
:102550002FCFCFE0D6E0099119910E94CD09F82E36
:102560000E94CD09E82E0E94CD09F801EE0FFF1F51
:10257000E00FF11FE552F54F8083E182F28286E0A1
:10258000CF33D80741F714CF8F929F92AF92BF926B
:10259000CF92DF92EF920F931F93CF93DF93EC01D3
:1025A0004B015A0169018091C70A811114C061E091
:1025B0008AED90E10E949144909207018092060179
:1025C000E092C60A81E08093C70A84E690E0909387
:1025D000CE0A8093CD0A8091CD0A9091CE0A84369E
:1025E000910508F44CC01092CE0A1092CD0A85E0F5
:1025F0008093DA108091C9109091CA100E949F08B0
:102600008091C9109091CA10DC0156961C9261E02D
:102610000E94F53E8091C9109091CA10DC01ED91A5
:10262000FC91008CF18DE02D60E009950E947151C4
:102630008091C9109091CA100E949F08E091C91022
:10264000F091CA10B486A386D686C586128B018BFC
:10265000108B0787BE01CF010E94C94D8091C91020
:102660009091CA10DF91CF911F910F91EF90DF9061
:10267000CF90BF90AF909F908F900C94143FDF91BC
:10268000CF911F910F91EF90DF90CF90BF90AF90BF
:102690009F908F900895AF92BF92CF92DF92EF926A
:1026A000FF920F93CF93DF937C015B016A01E901F5
:1026B0008091C70A811126C061E08AED90E10E94F5
:1026C0009144B0920701A09206010093C60A81E0EE
:1026D0008093C70AD092CE0AC092CD0A84E190E0DE
:1026E0009093050180930401D70114962D913C919C
:1026F00046E0429FC001439F900D11249093BB0A76
:102700008093BA0A8091CD0A9091CE0A8C159D05CE
:1027100008F468C01092CE0A1092CD0A85E080932A
:10272000DA108091C9109091CA100E949F08809180
:10273000C9109091CA10FC01168A61E00E94F53E12
:102740008091C9109091CA10DC01ED91FC91008C30
:10275000F18DE02D60E009958091040190910501D3
:10276000019790930501809304012091BA0A30915A
:10277000BB0A3195219531098217930734F484E11E
:1027800090E090930501809304010E947151809123
:10279000C9109091CA100E949F08E091C910F09151
:1027A000CA108091040190910501948783878DE080
:1027B00090E096878587D28BC18BD08BC787B70176
:1027C000CF010E94C94D8091C9109091CA10DF912C
:1027D000CF910F91FF90EF90DF90CF90BF90AF908F
:1027E0000C94143FDF91CF910F91FF90EF90DF9009
:1027F000CF90BF90AF9008950F931F93CF93DF9327
:102800008C01C62F8091C70A81110EC061E08AED4C
:1028100090E10E9491441093070100930601C09338
:10282000C60A81E08093C70A8091CD0A9091CE0AB2
:10283000843F914008F4B1C01092CE0A1092CD0AA4
:102840008FE08093DA108091C9109091CA100E9495
:102850009F088091C9109091CA10DC0156961C9275
:1028600061E00E94F53E8091C9109091CA10DC0190
:10287000ED91FC91008CF18DE02D60E009950E94B6
:1028800071518091C9109091CA100E949F08C09107
:10289000C910D091CA101C861B8683E090E09E87E9
:1028A0008D870E94E6099A8B898B988B8F8769E1C7
:1028B00071E08091C9109091CA100E945308C09194
:1028C000C910D091CA101C861B8688E090E09E87B4
:1028D0008D870E94E6099A8B898B988B8F876BE195
:1028E00071E08091C9109091CA100E945308C09164
:1028F000C910D091CA1084E090E09C878B870DE0CE
:1029000010E01E870D870E94E6099A8B898B988BB1
:102910008F876BE171E08091C9109091CA100E947D
:102920005308C091C910D091CA108AE090E09C87EA
:102930008B878EE090E09E878D870E94E6099A8BB8
:10294000898B988B8F876DE171E08091C910909190
:10295000CA100E945308C091C910D091CA108FE0CC
:1029600090E09C878B871E870D870E94E6099A8BD3
:10297000898B988B8F8764E771E08091C910909163
:10298000CA100E9453088091C9109091CA10DF911B
:10299000CF911F910F910C94143FDF91CF911F9114
:1029A0000F9108958F929F92AF92BF92CF92DF9234
:1029B000EF920F931F93CF93DF93EC015B016A01BA
:1029C00049018091C70A811116C061E08AED90E14A
:1029D0000E9491449092070180920601E092C60AFB
:1029E00081E08093C70A1092700A10926F0AD09209
:1029F000CE0AC092CD0A8091CD0A9091CE0A8C1554
:102A00009D0508F45BC01092CE0A1092CD0A809109
:102A10006F0A9091700AA816B9060CF44FC085E0B1
:102A20008093DA108091C9109091CA100E949F087B
:102A30008091C9109091CA10DC0156961C9261E0F9
:102A40000E94F53E8091C9109091CA10DC01ED9171
:102A5000FC91008CF18DE02D60E009950E94715190
:102A6000E091C910F091CA1082E090E094878387CA
:102A70008DE090E096878587128B018B108B0787FE
:102A800080916F0A9091700A27E0289FB001299FDA
:102A9000700D11246C0F7D1FCF010E94C94D8091D4
:102AA000C9109091CA100E94143F80916F0A9091B2
:102AB000700A01969093700A80936F0ADF91CF910C
:102AC0001F910F91EF90DF90CF90BF90AF909F90AC
:102AD0008F900895BF92CF92DF92EF92FF920F9363
:102AE0001F93CF93DF9300D01F92CDB7DEB706E8D8
:102AF0001AE086EBE82E8AE0F82E95E0C92E98E0E1
:102B0000D92EBB24BA9420910801309109012C9D43
:102B1000C0012D9D900D3C9D900D1124875E994C18
:102B20008C9D90018D9D300D9C9D300D1124275E54
:102B3000394C3093090120930801230F2983BA826D
:102B4000890F8B83B801CE0101960E9424450D5F49
:102B50001F4FE016F106B9F60F900F900F90DF911E
:102B6000CF911F910F91FF90EF90DF90CF90BF908A
:102B70000895CF93DF9300D01F92CDB7DEB71982AF
:102B80001A821B82AE014F5F5F4F60E170E086E802
:102B90009AE00E940342E6E8FAE08FEF80838183A7
:102BA0008283848785878687808F818F828F84A3A5
:102BB00085A386A30F900F900F90DF91CF9108957A
:102BC0001F93CF93DF93CDB7DEB7E6970FB6F89498
:102BD000DEBF0FBECDBF80EC89831FEF1A831B833E
:102BE000BE016C5C7F4FCE0101960E94244580E6B9
:102BF00089831A831B83BE016F5C7F4FCE010196D0
:102C00000E94244559A959834AA94A833BA93B8379
:102C10005C834D833E831F82188619861A861B8625
:102C20001C862CA92D879DA99E878EA98F87288B0E
:102C3000998B8A8B1B8A1C8A1D8A1E8A1F8A188E72
:102C4000598F4A8F3B8F5C8F4D8F3E8F1F8E18A2FE
:102C500019A21AA21BA21CA22DA39EA38FA328A770
:102C600099A78AA71BA61CA61DA61EA61FA618AA62
:102C700040E350E0BE016F5F7F4F86E89AE00E941C
:102C8000F045E6960FB6F894DEBF0FBECDBFDF91DC
:102C9000CF911F910895DF92EF92FF920F931F93B0
:102CA000CF93DF9300D01F92CDB7DEB7D82E8BED38
:102CB000E82E8AE0F82E0091840A1091850A2FEF01
:102CC0004D2D66E87AE0CE0101960E941842898176
:102CD000F70180838A8181838B818283F3E0DF0E19
:102CE00083E0E80EF11CEDE1EE16EEE0FE0619F7CA
:102CF0000F900F900F90DF91CF911F910F91FF9048
:102D0000EF90DF9008950F931F93CF93DF938C0183
:102D1000C62FD42F8091C70A811143C061E08AED8C
:102D200090E10E9491441093070100930601D09313
:102D3000C60A81E08093C70ACC3008F032C0EC2F7D
:102D4000F0E0EB55F94E0C946853B116B816BF1667
:102D5000C216CA16CC16E916EB16EE16F116F416C4
:102D6000F71668E37CE086E89AE00E947C080BC0D6
:102D700068EF7BE086E89AE00E947C080EC068EF6E
:102D80007BE0F1CF1DDF81E090E09093850A809396
:102D9000840A07C09FDEF7CFECDE1092850A1092FE
:102DA000840A8091BE0A9091BF0A0196893E23E071
:102DB000920704F59093BF0A8093BE0A8091BE0AE1
:102DC0006ADF8AED90E1DF91CF911F910F910C9412
:102DD0009708CFDED8CF68E77CE0C5CF68EB7BE013
:102DE000C2CF6FEC75E0C6CF6FEC75E0BCCF68E981
:102DF00070E0B9CF1092BF0A1092BE0ADFCFDC019B
:102E00006031710508F052C0FB01E75FF84E0C9489
:102E10006853561719171917241728172C17301726
:102E2000341738173C174017441748174A174E17DE
:102E3000501781E08C9399E111969C93119712960B
:102E40008C931297CD01089581E08C9398E2F4CF92
:102E500081E08C9390E5F0CF81E08C9398E7ECCF04
:102E600081E08C9396E9E8CF81E08C9398ECE4CFF5
:102E700085E08C939FEFE0CF8AE08C9394EBDCCFDE
:102E80008AE08C9390EAD8CF84E18C939CE8D4CFED
:102E90008EE1E3CF82E38C9394E6CECF84E6E1CF5C
:102EA00084EB8C9311968C931197C9CF1C92119639
:102EB0001C92119712961C921297C4CFCF92DF9258
:102EC000EF92FF920F931F93CF93DF9300D01F9247
:102ED000CDB7DEB77C01162F8091C70A81111EC0C5
:102EE00061E08AED90E10E949144F0920701E09246
:102EF00006011093C60A81E08093C70A1092BF0AA8
:102F00001092BE0A8BE190E09093BD0A8093BC0AB8
:102F100084E690E09093CE0A8093CD0A8091CD0A0A
:102F20009091CE0A8436910508F4CEC31092CE0A51
:102F30001092CD0AE090BE0AF090BF0A00E110E0C6
:102F4000F7FC1CC0015011090230110514F410E007
:102F500000E0C090C910D090CA10B801CE0101960F
:102F60004EDF9E012F5F3F4FA70170E060E0C6017A
:102F70000E94CE4181E0E81AF108E2CF0091BE0A3A
:102F80001091BF0A0451110960E1E62EF12C0C3EAC
:102F90008FEF1807ECF081E0E81AF10882E0E816FC
:102FA000F10414F4F12CE12CC090C910D090CA1097
:102FB000B701CE01019623DF9E012F5F3F4FA8018D
:102FC00062E070E0C6010E94CE4101501109DFCFDE
:102FD0000091BE0A1091BF0A0F50110950E1E52E71
:102FE000F12C013F8FEF1807ECF081E0E81AF108AF
:102FF00082E0E816F10414F4F12CE12CC090C91021
:10300000D090CA10B701CE010196F9DE9E012F5F64
:103010003F4FA80164E070E0C6010E94CE4101501C
:103020001109DFCF0091BE0A1091BF0A08501109A3
:1030300040E1E42EF12C083F8FEF1807ECF081E01F
:10304000E81AF10882E0E816F10414F4F12CE12CFE
:10305000C090C910D090CA10B701CE010196CFDE42
:103060009E012F5F3F4FA80166E070E0C6010E94FD
:10307000CE4101501109DFCFE090BE0AF090BF0AA7
:1030800000E110E0F7FC1CC00150110902301105ED
:1030900014F410E000E0C090C910D090CA10B8013C
:1030A000CE010196ACDE9E012F5F3F4FA70168E085
:1030B00070E0C6010E94CE4181E0E81AF108E2CF3B
:1030C0000091BE0A1091BF0A0E50110930E1E32EA3
:1030D000F12C023F8FEF1807ECF081E0E81AF108BD
:1030E00082E0E816F10414F4F12CE12CC090C91030
:1030F000D090CA10B701CE01019681DE9E012F5FEC
:103100003F4FA8016AE070E0C6010E94CE41015025
:103110001109DFCF0091BE0A1091BF0A05511109B4
:1031200020E1E22EF12C0B3E8FEF1807ECF081E04E
:10313000E81AF10882E0E816F10414F4F12CE12C0D
:10314000C090C910D090CA10B701CE01019657DEC9
:103150009E012F5F3F4FA8016CE070E0C6010E9406
:10316000CE4101501109DFCF0091BE0A1091BF0A74
:103170000950110990E1E92EF12C073F8FEF180754
:10318000ECF081E0E81AF10882E0E816F10414F4AA
:10319000F12CE12CC090C910D090CA10B701CE011B
:1031A00001962DDE9E012F5F3F4FA8016EE070E07B
:1031B000C6010E94CE4101501109DFCF0091BE0A25
:1031C0001091BF0A0150110980E1E82EF12C0F3F48
:1031D0008FEF1807ECF081E0E81AF10882E0E816BA
:1031E000F10414F4F12CE12CC090C910D090CA1055
:1031F000B701CE01019603DE9E012F5F3F4FA8016C
:1032000060E170E0C6010E94CE4101501109DFCF9C
:103210000091BE0A1091BF0A00511109B0E1EB2ED6
:10322000F12C003F8FEF1807ECF081E0E81AF1086D
:1032300082E0E816F10414F4F12CE12CC090C910DE
:10324000D090CA10B701CE010196D9DD9E012F5F43
:103250003F4FA80162E170E0C6010E94CE410150DB
:103260001109DFCF0091BE0A1091BF0A0751110961
:10327000A0E1EA2EF12C093E8FEF1807ECF081E077
:10328000E81AF10882E0E816F10414F4F12CE12CBC
:10329000C090C910D090CA10B701CE010196AFDD21
:1032A0009E012F5F3F4FA80164E170E0C6010E94BC
:1032B000CE4101501109DFCF0091BE0A1091BF0A23
:1032C0000B501109F0E1EF2EF12C053F8FEF18079D
:1032D000ECF081E0E81AF10882E0E816F10414F459
:1032E000F12CE12CC090C910D090CA10B701CE01CA
:1032F000019685DD9E012F5F3F4FA80166E170E0DA
:10330000C6010E94CE4101501109DFCFE090BC0AF6
:10331000F090BD0A00E110E0F7FC1CC0015011095B
:103320000230110514F410E000E0C090C910D090F4
:10333000CA10B801CE01019662DD9E012F5F3F4F9A
:10334000A70161E070E0C6010E94CE4181E0E81A69
:10335000F108E2CF0091BC0A1091BD0A0451110995
:10336000E0E1EE2EF12C0C3E8FEF1807ECF081E03F
:10337000E81AF10882E0E816F10414F4F12CE12CCB
:10338000C090C910D090CA10B701CE01019637DDA8
:103390009E012F5F3F4FA80163E070E0C6010E94CD
:1033A000CE4101501109DFCF0091BC0A1091BD0A36
:1033B0000F50110970E1E72EF12C013F8FEF180734
:1033C000ECF081E0E81AF10882E0E816F10414F468
:1033D000F12CE12CC090C910D090CA10B701CE01D9
:1033E00001960DDD9E012F5F3F4FA80165E070E063
:1033F000C6010E94CE4101501109DFCF0091BC0AE5
:103400001091BD0A0850110960E1E62EF12C083F29
:103410008FEF1807ECF081E0E81AF10882E0E81677
:10342000F10414F4F12CE12CC090C910D090CA1012
:10343000B701CE010196E3DC9E012F5F3F4FA8014B
:1034400067E070E0C6010E94CE4101501109DFCF54
:10345000E090BC0AF090BD0A00E110E0F7FC1CC04F
:10346000015011090230110514F410E000E0C09081
:10347000C910D090CA10B801CE010196C0DC9E01DF
:103480002F5F3F4FA70169E070E0C6010E94CE4167
:1034900081E0E81AF108E2CF0091BC0A1091BD0A60
:1034A0000E50110950E1E52EF12C023F8FEF180765
:1034B000ECF081E0E81AF10882E0E816F10414F477
:1034C000F12CE12CC090C910D090CA10B701CE01E8
:1034D000019695DC9E012F5F3F4FA8016BE070E0E5
:1034E000C6010E94CE4101501109DFCF0091BC0AF4
:1034F0001091BD0A0551110940E1E42EF12C0B3E5B
:103500008FEF1807ECF081E0E81AF10882E0E81686
:10351000F10414F4F12CE12CC090C910D090CA1021
:10352000B701CE0101966BDC9E012F5F3F4FA801D2
:103530006DE070E0C6010E94CE4101501109DFCF5D
:103540000091BC0A1091BD0A0950110930E1E32E27
:10355000F12C073F8FEF1807ECF081E0E81AF10833
:1035600082E0E816F10414F4F12CE12CC090C910AB
:10357000D090CA10B701CE01019641DC9E012F5FA9
:103580003F4FA8016FE070E0C6010E94CE4101509C
:103590001109DFCF0091BC0A1091BD0A0150110939
:1035A00020E1E22EF12C0F3F8FEF1807ECF081E0C5
:1035B000E81AF10882E0E816F10414F4F12CE12C89
:1035C000C090C910D090CA10B701CE01019617DC87
:1035D0009E012F5F3F4FA80161E170E0C6010E948C
:1035E000CE4101501109DFCF0091BC0A1091BD0AF4
:1035F0000051110990E1E92EF12C003F8FEF1807DF
:10360000ECF081E0E81AF10882E0E816F10414F425
:10361000F12CE12CC090C910D090CA10B701CE0196
:103620000196EDDB9E012F5F3F4FA80163E170E043
:10363000C6010E94CE4101501109DFCF0091BC0AA2
:103640001091BD0A0751110980E1E82EF12C093EC5
:103650008FEF1807ECF081E0E81AF10882E0E81635
:10366000F10414F4F12CE12CC090C910D090CA10D0
:10367000B701CE010196C3DB9E012F5F3F4FA8012A
:1036800065E170E0C6010E94CE4101501109DFCF13
:103690008AED90E10E9497088091BE0A9091BF0A3E
:1036A000019689339105E4F49093BF0A8093BE0A92
:1036B0008091BC0A9091BD0A019689339105ACF4C2
:1036C0009093BD0A8093BC0A0F900F900F90DF91EA
:1036D000CF911F910F91FF90EF90DF90CF900895C1
:1036E0001092BF0A1092BE0AE3CF1092BD0A109248
:1036F000BC0AEACF109290008BE0809391008AE69A
:1037000098E1909399008093980082E080937100F3
:103710000895CF93C82F8093C50A1092C70A1092BC
:10372000CE0A1092CD0A1092CC0A1092CB0A1092B7
:10373000BF0A1092BE0A87E190E090930501809342
:1037400004011092720A1092710A10926E0A10927D
:103750006D0A10926C0A6FE171E08AE691E10E94B5
:1037600053086C2F8AE691E1CF910C9465081F9263
:103770000F920FB60F9211240BB60F922F933F9317
:103780004F935F936F937F938F939F93AF93BF9369
:10379000EF93FF938091CD0A9091CE0A4996909332
:1037A000CE0A8093CD0A8091C90A9091CA0A49969F
:1037B0009093CA0A8093C90A8091CB0A9091CC0A4F
:1037C00049969093CC0A8093CB0A91E09093C80AD3
:1037D0008BB120E482278BB92091C90A3091CA0AA3
:1037E000283E334030F01092CA0A1092C90A9093D2
:1037F000C40A2091CB0A3091CC0A809106019091A5
:1038000007012817390718F08091C60A82DFFF9157
:10381000EF91BF91AF919F918F917F916F915F9148
:103820004F913F912F910F900BBE0F900FBE0F90B5
:103830001F901895CF93C82F8093DA0A62E371E046
:103840008AE691E10E94540866E471E08AE691E11B
:103850000E9453086C2F8AE691E10E94650862E39A
:1038600071E08AE691E10E94540880E0CF9151CF47
:10387000AF92BF92CF92DF92EF92FF920F931F937E
:10388000CF93DF9368EE73E080E090E00E94E5491B
:103890004FEF60E470E085EF90E10E94C84C569ACB
:1038A00088E20E944D48BC01990F880B990B1F922A
:1038B0001F921F9228E72F93A12CB12C6501EE24B3
:1038C000EA9413E0F12E00E010E020E030E0A901DE
:1038D0000E9488506093D10A82E391E00E94924D49
:1038E000EC010AE027E130E046E150E06BED7AE0E0
:1038F0000E94F73ED093CA10C093C9108091E3098B
:103900000F900F900F900F9081114DC083EE99E0B2
:103910000E94934D892B09F446C01092EE09109233
:10392000ED098FEF8093F1098093F2098093F309F9
:103930008093F4098093F5098093F60981E08093E0
:10394000F7091092F9091092F8091092F0091092F3
:10395000EF098091D8109091D910892B31F48BEE1A
:1039600099E09093D9108093D810E091D610F091FF
:10397000D710309721F08BEE99E0958384838BEEFE
:1039800099E09093D7108093D6101092FB09109273
:10399000FA0981E795E09093EC098093EB0983EEB7
:1039A00099E00E949C4D30E020E04AEF51E06BED41
:1039B0007AE08BEE99E00E94E744FC018FEF86836A
:1039C00080EB878380EF80878091C9109091CA1027
:1039D0000E946E3F8091C9109091CA102FE02093F1
:1039E000DA10FC01168A69E477E00E94FD41F89440
:1039F00081DE789468E37CE086E89AE00E947C08A7
:103A000081E090E09093850A8093840A81E1DF91C0
:103A1000CF911F910F91FF90EF90DF90CF90BF90CB
:103A2000AF9008CFEF92FF920F93CF93DF9300D028
:103A300000D000D01F92CDB7DEB78091C50A833287
:103A400009F478C028F58A3009F45EC088F4882328
:103A5000F1F1853009F453C027960FB6F894DEBF14
:103A60000FBECDBFDF91CF910F91FF90EF900895E2
:103A7000843109F451C0893109F454C08F3061F7A1
:103A800044EF51E064E180E197E20E941A0AE4CF3A
:103A9000823309F45EC058F4883209F453C08D3281
:103AA000D9F662E380E197E20E947F10D5CF8C3394
:103AB00009F455C0843609F458C0873369F644EFD9
:103AC00051E06CE388E99AE30E947B0FC5CF0E9426
:103AD000E6097C016EE972E0CE0101960E94305148
:103AE00005E097014AE550E06CE27CE4CE010196E6
:103AF0000E944B13CE0101960E94C750ADCF6AE0E1
:103B000080E395E7DBD9A8CF4FE060ED77E088E967
:103B10009AE30E94D40CA0CF69E188E99AE30E945D
:103B2000D10C9ACF40ED57E063E288E99AE30E9416
:103B3000380B92CF48EE53E068E288E99AE30E949E
:103B4000CF0E8ACF4DE265E088E99AE30E942C0B04
:103B500083CF67E380E197E20E947D0F7DCF49EC40
:103B60005DE164E680E69AEE90CF60E08AED90E158
:103B70000E94914480E05EDE6FCFEF92FF920F9340
:103B80001F93CF93DF9300D000D000D01F92CDB70A
:103B9000DEB78091C50A893109F487C038F58530D0
:103BA00009F46FC098F4882309F44BC0823009F4FB
:103BB00060C027960FB6F894DEBF0FBECDBFDF9171
:103BC000CF911F910F91FF90EF9008958F3009F4DE
:103BD0005EC0843109F461C08A3059F749EA51E086
:103BE0006FE082E890E60E94380BE3CF8D3209F453
:103BF00076C080F4833209F45FC0883209F46BC068
:103C00008E31B9F649EC5DE163E28BE49EE60E94F9
:103C10001A0ACFCF873309F467C0843609F46AC023
:103C2000823339F60E94CD097C010E94CD098C01B6
:103C30000E94CD099C014BE450E067E386E297E3E4
:103C400047C00E94E6097C0169E571E0CE0101965A
:103C50000E94305102E097014BE450E06CE675E3BE
:103C6000CE0101960E944B13CE0101960E94C750CF
:103C7000A0CF45E068EB71E083E99BE10E94D40CA2
:103C800098CF6AE08BE49EE60E94D10C92CF64E16B
:103C900086E297E30E94210E8CCF49EA51E069E168
:103CA0008BE49EE60E947B0F84CF4EE165E080E3CB
:103CB00095E70E942C0B7DCFEE24EA94F12C0FEFB8
:103CC00010E02FEF30E04BE450E068E289EC9DE03B
:103CD0000E949D0B6ECF49EA51E06DE282CF42E334
:103CE00065E088EB92E5E5CF49EC5DE164E68FEFB6
:103CF0009FEF8DCF60E08AED90E10E94914480E0DB
:103D000099DD57CFEF92FF920F931F93CF93DF93DD
:103D100000D000D000D01F92CDB7DEB78091C50A89
:103D2000823309F4EBC008F049C0843109F4C8C0FB
:103D300010F5853009F4B6C098F4882309F492C0D0
:103D4000813009F4A7C027960FB6F894DEBF0FBEE6
:103D5000CDBFDF91CF911F910F91FF90EF9008950C
:103D60008A3009F4A7C08F3071F764E187EE90E4E0
:103D70000E94250EE8CF833209F4B8C0B0F489312F
:103D800009F4AEC08E31F9F60E94CD097C010E9483
:103D9000CD098C010E94CD099C0142E350E063E211
:103DA00086E397E00E949D0BCECF883209F4A4C031
:103DB0008D3249F662E38BE792E3DACF863409F479
:103DC000B8C050F58A3309F4A6C098F4873309F4D3
:103DD0009AC0883309F0B7CF0E94CD097C010E94B8
:103DE000CD098C010E94CD099C0142E350E06AE3B9
:103DF000D7CF8C3309F495C0813409F0A4CFEE24D9
:103E0000EA94F12C0FEF10E02FEF30E042E350E0A6
:103E100066E48CE69EE0C6CF853509F49FC098F431
:103E20008B3409F495C0803509F08DCF0E94CD09FF
:103E30007C010E94CD098C010E94CD099C0142E3C6
:103E400050E065E5E6CF8F3509F48FC0843609F47C
:103E500098C08A3509F077CF42EC51E06FE587ECE6
:103E60009FE625C00E94E6097C0166E771E0CE016D
:103E700001960E94305101E0970144E650E06BE763
:103E800072E3CE0101960E944B13CE0101960E946F
:103E9000C75059CF49EC5DE165E089ED9CE10E9496
:103EA0001A0A51CF4DE953E06AE089ED9CE10E9486
:103EB000CF0E49CF6FE082E693E70E94D10C43CF4B
:103EC0000E94E60959E1E52E8C0126E337E045E43E
:103ED00051E066E070E08CEF99E00E94D21433CF9D
:103EE00042EC51E06EE18BE792E3E1CF42EC51E02E
:103EF00068E281EB99E3DBCF6DE2DDCF0E94E6095A
:103F000047E3E42EE1CF42EC51E068E38BE792E334
:103F10000E947B0F18CF42EC51E06CE381EB99E3F8
:103F2000F7CF41E46AE377E086E89DE40E94D40C91
:103F30000ACF0E94CD097C010E94CD098C010E940C
:103F4000CD099C0142E350E06BE480E797E12ACF82
:103F500040E56AE377E081EB99E3E8CF4AE565E085
:103F600082E693E70E942C0BEECE0E94E60929E040
:103F7000E22E8C0120E63AEE45E451E064E670E082
:103F8000AACF60E08AED90E10E94914480E052DC8B
:103F9000DACEEF92FF920F931F93CF93DF9300D06F
:103FA00000D000D01F92CDB7DEB78091C50A8E3108
:103FB00009F49FC0F0F58A3009F47DC060F58230C5
:103FC00009F469C0853009F46EC0811117C00E94E0
:103FD000E6097C0167E871E0CE0101960E9430514C
:103FE00002E097014BE450E061E87EE2CE010196E9
:103FF0000E944B13CE0101960E94C75027960FB620
:10400000F894DEBF0FBECDBFDF91CF911F910F910E
:10401000FF90EF900895843109F455C0893109F477
:1040200058C08F3059F746EB53E064E189E79BE3D2
:1040300037C0823309F472C0B8F4883209F461C021
:104040008D3209F464C08332C9F6EE24EA94F12C6F
:104050000FEF10E02FEF30E04BE450E068E289E72B
:104060009BE30E949D0BCACF8C3309F45DC084365C
:1040700009F462C0873311F60E94CD097C010E94C9
:10408000CD098C010E94CD099C014BE450E06CE30A
:1040900080EB9DE1E6CF46EB53E065E082E794E6F6
:1040A0000E94CF0EABCF4BED51E06AE084E892EB7B
:1040B0000E947B0FA3CF46EB53E06FE08BE097E7C6
:1040C0000E94380B9BCF4BED51E069E18BE097E705
:1040D000EFCF0E94E6092EE1E22E8C012BE236E1C1
:1040E0004BED51E06AE070E086E29AE00E94D21463
:1040F00085CF43E26CE677E087EC90E60E94D40C33
:104100007DCF48EB53E06DE289E79BE3D9CF42E3F3
:1041100065E080EB9DE10E942C0B70CF46EB53E0F5
:1041200067E380EB9DE1CCCF49EC5DE164E68FEF86
:104130009FEF0E941A0A62CF60E08AED90E10E9430
:10414000914480E077DB5ACFEF92FF920F931F9359
:10415000CF93DF9300D000D000D01F92CDB7DEB751
:104160008091C50A8E3109F4ADC090F5853009F40F
:1041700090C0B8F4813009F485C008F46BC045E004
:1041800064E0823009F480C027960FB6F894DEBF51
:104190000FBECDBFDF91CF911F910F91FF90EF9098
:1041A00008958F3009F479C030F48A3069F789E0D6
:1041B0000E948609E9CF843109F473C044EF51E0CD
:1041C0006EE1893109F786E09FE30E94CF0EDCCFD4
:1041D000873309F48FC0D0F4883209F478C050F4E2
:1041E00044EF51E068E2833279F686E09FE30E9473
:1041F000380BCACF8D3209F477C0823329F647E3F2
:1042000067E08DEF9EE30E942C0BBECF813409F452
:1042100075C090F48C3309F0B7CF0E94CD097C01B2
:104220000E94CD098C010E94CD099C014BE450E015
:1042300061E484E49FE243C0863409F464C08436B8
:1042400009F0A2CF60E08AED90E10E94914480E005
:10425000F1DA9ACF0E94E6097C016FE971E0CE01A4
:1042600001960E94305101E097014BE450E06EE06E
:104270007DE3CE0101960E944B13CE0101960E9470
:10428000C75082CF42E063E083E89FE10E9483163B
:104290007BCF44EF51E06AE096CF44EF51E064E118
:1042A000A4CF0E94CD097C010E94CD098C010E94FF
:1042B000CD099C014BE450E069E186E09FE30E9458
:1042C0009D0B62CF43E264E086E09FE3DFCF0E9474
:1042D000CD097C010E94CD098C010E94CD099C0171
:1042E0004BE450E06DE2E9CF62E382E79FE10E9498
:1042F000D10C4ACF44EF51E06CE377CF46E46CE059
:1043000089EB9FE080CF64E680E197E20E94250E72
:104310003BCFEF92FF920F931F93CF93DF9300D089
:1043200000D000D01F92CDB7DEB78091C50A84318E
:1043300009F475C048F5823009F45CC0A8F48823FC
:1043400009F440C042E063E0813009F47BC0279665
:104350000FB6F894DEBF0FBECDBFDF91CF911F9196
:104360000F91FF90EF9008958A3009F44AC08F3082
:1043700009F44DC0853059F749EA51E06AE082EB13
:104380009CE60E94CF0EE3CF883209F462C060F44D
:104390008E3109F455C0833209F457C08931B9F61A
:1043A00049EA51E06EE1EBCF863409F461C084360E
:1043B00009F464C08D3259F666E489E596E30E94FB
:1043C000D10CC5CF0E94E6097C0166EB71E0CE01FD
:1043D00001960E94305101E097014BE450E063EDFB
:1043E0007FE4CE0101960E944B13CE0101960E94FC
:1043F000C750ADCF45E064E082EB9CE60E94831697
:10440000A6CF6FE082EB9CE60E947D0FA0CF49EA29
:1044100051E064E189E596E30E94380B98CF0E9451
:10442000CD097C010E94CD098C010E94CD099C011F
:104430004BE450E069E189E596E30E949D0B87CF4C
:1044400043E264E089E596E3D9CF49EA51E068E2C6
:10445000E1CF0E94CD097C010E94CD098C010E9410
:10446000CD099C014BE450E06DE28FEE93E4E5CF83
:1044700064E680E197E20E94250E69CF60E08AED54
:1044800090E10E94914480E0D5D961CFEF92FF92F4
:104490000F931F93CF93DF9300D000D000D01F92D3
:1044A000CDB7DEB7E091C50AE53608F081C0F0E08F
:1044B000E45AFD4D0C946853C122E522EC22D82227
:1044C000D822F122F922FF2205230B230D231523E5
:1044D000262328232C232E23D822D8223223D82265
:1044E0004123D822D822D822D8224423D8224823B4
:1044F000D8224D23D8224F23D8225323D822552304
:10450000D8225923D8226623D8226823D8226C23A4
:10451000D8226E23D8227223D8227F23D822852343
:10452000D8228B23D8229323D8229A23D8229E23C1
:10453000D822A323D822D822D822D822D822D822DF
:10454000D822D822D822D822D822D822D822D8229B
:10455000D822D822D822D822D822D822D822D8228B
:10456000D822D822D822D822D822D822D822D8227B
:10457000D822D822D822D822D822D822D822D8226B
:10458000A7230E94E6097C0164ED71E0CE0101964B
:104590000E94305101E097014BE450E069E77EE270
:1045A000CE0101960E944B13CE0101960E94C75086
:1045B00027960FB6F894DEBF0FBECDBFDF91CF9127
:1045C0001F910F91FF90EF90089542E067E083E51F
:1045D00090E20E948316ECCF45E066E086EA90E424
:1045E000F8CF44EF51E066E086EA90E40E94CF0EF7
:1045F000DFCF67E086E49EE10E947D0FD9CF68E0BF
:104600008EE096E00E94FC13D3CF44EF51E069E0C6
:104610008FE09AE007C06AE0F3CF44EF51E06BE02F
:104620008CE19CE00E94380BC3CF0E94CD097C0135
:104630000E94CD098C010E94CD099C014BE450E001
:104640006CE086E49EE10E949D0BB2CF6DE0D8CF76
:1046500044EF51E06EE0DCCF6FE0D2CF44EF51E0A9
:1046600062E1DECF0E94CD097C010E94CD098C0160
:104670000E94CD099C014BE450E064E183E590E2A7
:10468000E2CF49E168E0AACF44EF51E06BE1ACCF63
:104690004DE164E086E49EE19CCF6FE1B1CF44EF51
:1046A00051E061E2B5CF63E2ABCF44EF51E065E2A8
:1046B000B7CF0E94CD097C010E94CD098C010E94D8
:1046C000CD099C014BE450E067E2BBCF69E298CF93
:1046D00044EF51E06BE29CCF6DE292CF44EF51E0AA
:1046E0006FE29ECF0E94CD097C010E94CD098C0112
:1046F0000E94CD099C014BE450E061E3BFCF63E32E
:1047000088EA98E40E945E1753CF65E386EA90E456
:104710000E94D10C4DCF47E364EF71E083E590E256
:104720000E94D40C45CF49E367E083E590E20E9404
:104730002C0B3ECF4BE36AEF70E0F0CF4DE36CE023
:104740008FE49EE1F4CF64E680E395E75BCF60E021
:104750008AED90E10E94914480E06CD829CFEF92DD
:10476000FF920F931F93CF93DF9300D000D000D020
:104770001F92CDB7DEB78091C50A833209F4F5C028
:1047800008F04BC0863109F4CCC018F58A3009F422
:10479000B8C098F4882309F494C0853009F4A9C0FE
:1047A00027960FB6F894DEBF0FBECDBFDF91CF9135
:1047B0001F910F91FF90EF9008958F3009F4A9C0D9
:1047C00046E164E0843161F78EEE94E30E94831643
:1047D000E7CF8C3109F4BBC0A0F4883109F4B2C032
:1047E0008A31F1F60E94CD097C010E94CD098C012D
:1047F0000E94CD099C0142E350E06CE188EE93E019
:104800009EC0803209F4AAC0823209F4ABC08E3156
:1048100039F644EF51E060E27FC08C3209F4BBC04E
:1048200018F5863209F4B0C098F4843209F4AAC0AD
:10483000853209F0B5CF0E94CD097C010E94CD09D7
:104840008C010E94CD099C0142E350E066E2D6CF84
:10485000883209F49BC08A3209F0A2CF6CE284EA64
:1048600098E30E945E179CCF823309F4A4C098F4A9
:104870008E3209F49DC0803309F092CF0E94CD0999
:104880007C010E94CD098C010E94CD099C0142E36C
:1048900050E062E3B3CF8C3309F490C0843609F45E
:1048A00093C0873309F07CCF0E94CD097C010E9420
:1048B000CD098C010E94CD099C0142E350E06CE3DC
:1048C0009DCF0E94E6097C016DEE71E0CE0101965C
:1048D0000E94305105E0970142E350E06CE47DE135
:1048E000CE0101960E944B13CE0101960E94C75043
:1048F00057CF4AE066EB73E083E79CE30E94D40C59
:104900004FCF44EF51E06FE083E79CE30E94CF0E6E
:1049100047CF44EF51E064E183E79CE30E94380B0A
:104920003FCF0E94CD097C010E94CD098C010E94DD
:10493000CD099C0142E350E068E185E897E00E94E0
:104940009D0B2ECF4AE163E084EA98E304C04EE178
:1049500067E08AE59CE30E942C0B22CF44EF51E0F4
:1049600062E2D2CF43E265E02FCF0E94CD097C0105
:104970000E94CD098C010E94CD099C0142E350E0C8
:1049800064E2DBCF45E2DFCF48E2E2CF4AE262E019
:1049900083E79CE31BCF0E94CD097C010E94CD09D7
:1049A0008C010E94CD099C0142E350E06EE226CFCB
:1049B00040E365E0C9CF47E36AE0C6CF64E680E143
:1049C00097E20E94250EECCE60E08AED90E10E9415
:1049D000914480E00E941A1CE3CEEF92FF920F9365
:1049E0001F93CF93DF9300D000D000D01F92CDB79C
:1049F000DEB78091C50A893109F486C058F5853043
:104A000009F474C0B8F4813009F469C008F44FC0E7
:104A100045E064E0823009F464C027960FB6F8944C
:104A2000DEBF0FBECDBFDF91CF911F910F91FF90E1
:104A3000EF9008958F3009F45CC0843109F461C0AF
:104A40008A3059F746E950E06FE080E09BE40E942D
:104A5000CF0EE3CF8D3209F476C068F4833209F4C7
:104A60005BC0883209F45EC08E31B9F643E264E07F
:104A700080E297E638C0873309F46BC048F482338C
:104A800061F647E367E080E09BE40E942C0BC5CF12
:104A90008C3309F463C0843609F0BFCF60E08AED3F
:104AA00090E10E94914480E00E941A1CB6CF0E94BF
:104AB000E6097C0165E072E0CE0101960E9430516A
:104AC00001E097014BE450E060E875E2CE01019609
:104AD0000E944B13CE0101960E94C7509ECF42E028
:104AE00063E080E09BE40E94831697CF4AE067E092
:104AF000F8CF48E552E064E180E890E70E94380B87
:104B00008CCF49E168E0EDCF46E950E06EE180E00E
:104B10009BE40E947B0F81CF68E280EB94E00E94CF
:104B2000250E7BCF0E94CD097C010E94CD098C010E
:104B30000E94CD099C0142E350E06DE280EB94E0DD
:104B40000E949D0B6ACF46E950E062E380E09BE45F
:104B5000D5CF4CE365E080EE9EE2C5CF42E350E066
:104B600064E680E096E90E941A0A57CFEF92FF921E
:104B70000F93CF93DF9300D000D000D01F92CDB71A
:104B8000DEB78091C50A833209F4A5C0A0F58A304A
:104B900009F492C0C0F4813009F484C008F46AC0FA
:104BA000823009F486C04AE0853009F488C027962F
:104BB0000FB6F894DEBF0FBECDBFDF91CF910F913E
:104BC000FF90EF900895843109F478C038F444E1FF
:104BD0006BE08F3061F788E391E468C0893109F4B4
:104BE00072C043E28E3119F76DE072E088E391E420
:104BF0000E94D40CDCCF8C3309F47EC0C8F48D3213
:104C000009F46DC040F4883291F66DE287E298E0D5
:104C10000E947D0FCCCF823309F465C04DE052E095
:104C20006CE3873321F688E391E40E94380BBFCF11
:104C30008B3409F46DC078F4813409F464C086348F
:104C400009F0B5CF20E04AEF50E06BE488E391E44F
:104C50000E94470EACCF803509F460C0843609F05D
:104C6000A6CF60E08AED90E10E94914480E00E942E
:104C70001A1C9DCF0E94E6097C0169E172E0CE0119
:104C800001960E94305101E097014BE450E06CE046
:104C900078E3CE0101960E944B13CE0101960E944B
:104CA000C75085CF42E064E088EC99E20E94831609
:104CB0007ECF45E068E08FCF4FE096CF49E161E0DD
:104CC00081E199E3F3CF4DE052E06EE188E391E4B6
:104CD0000E94CF0E6CCF4DE052E068E2A4CF4AEFC5
:104CE00050E062E3F3CF21E04AEF50E067E388E36E
:104CF00091E40E94D10E5BCF41E46CE088E391E443
:104D00000E942C0B54CF20E04AEF50E066E4EFCF36
:104D100060E58DEB92E90E945E1749CF64E680E181
:104D200097E20E94250E43CFEF92FF920F931F93BD
:104D3000CF93DF9300D000D000D01F92CDB7DEB765
:104D40008091C50A8E3109F4B0C0A0F5853009F410
:104D500093C0B8F4813009F488C008F46EC045E00F
:104D600064E0823009F483C027960FB6F894DEBF62
:104D70000FBECDBFDF91CF911F910F91FF90EF90AC
:104D800008958F3009F47CC040F48A3069F76FE0F1
:104D900086E09FE30E947D0FE7CF843109F474C061
:104DA00044EF51E06EE18931F9F686E09FE30E941D
:104DB000CF0EDACF873309F490C0D0F4883209F4EB
:104DC00079C050F444EF51E068E2833269F686E03E
:104DD0009FE30E94380BC8CF8D3209F478C082332C
:104DE00019F647E367E08DEF9EE30E942C0BBCCFE2
:104DF000813409F476C090F48C3309F0B5CF0E9469
:104E0000CD097C010E94CD098C010E94CD099C0135
:104E10004BE450E061E484E49FE244C0863409F44A
:104E200065C0843609F0A0CF60E08AED90E10E9471
:104E3000914480E00E941A1C97CF0E94E6097C01F1
:104E400067E372E0CE0101960E94305101E09701C4
:104E50004BE450E06EE07DE3CE0101960E944B13DF
:104E6000CE0101960E94C7507FCF42E063E083E805
:104E70009FE10E94831678CF44EF51E06AE095CF1E
:104E800044EF51E064E1A3CF0E94CD097C010E9470
:104E9000CD098C010E94CD099C014BE450E069E1F1
:104EA00086E09FE30E949D0B5FCF43E264E086E0D3
:104EB0009FE3DFCF0E94CD097C010E94CD098C01C8
:104EC0000E94CD099C014BE450E06DE2E9CF62E322
:104ED00082E79FE10E94D10C47CF44EF51E06CE3A1
:104EE00076CF46E46CE089EB9FE07FCF64E680E11B
:104EF00097E20E94250E38CFEF92FF920F931F93F7
:104F0000CF93DF9300D000D000D01F92CDB7DEB793
:104F10008091C50A883209F4A8C008F044C08F30D7
:104F200009F48BC000F5853009F47AC08A3009F4A1
:104F30007FC081111FC00E94E6097C0169E472E014
:104F4000CE0101960E94305105E097014BE450E0FC
:104F50006CE77EE2CE0101960E944B13CE010196D2
:104F60000E94C75007C0893109F470C080F48431B1
:104F700009F466C027960FB6F894DEBF0FBECDBF0A
:104F8000DF91CF911F910F91FF90EF9008958E3197
:104F900009F464C048E269E0833261F789E79BE382
:104FA0000E948316E7CF813409F46DC0A8F48233E0
:104FB00009F45EC030F48D32E9F662E389E79BE3E1
:104FC00042C0873309F45AC08C33A1F661E48DE600
:104FD0009DE30E94250ECECF803509F461C088F490
:104FE0008B3441F6EE24EA94F12C0FEF10E02FEF12
:104FF00030E04FEA50E060E58DE094E30E949D0BC5
:10500000B9CF853509F452C0843609F0B3CF60E0DA
:105010008AED90E10E94914480E00E941A1CAACF80
:105020004BED51E06AE08AE593E20E94CF0EA2CFF9
:105030004FE066E082E99BE3B3CF44E163E0AECFAB
:1050400069E182E99BE30E94D10C94CF4BED51E0E2
:105050006EE189E79BE30E94380B8CCF43E264E06A
:1050600082E99BE30E942C0B85CF4DE263E0E2CF07
:105070004BED51E067E382E99BE3EDCF4CE368E061
:105080008EE999E3EFCF90EDE92E97E0F92E04E653
:1050900021E04BE461E08BE097E70E94BD0A6ACF14
:1050A00065E589EC9DE10E945E1764CF64E680E1CE
:1050B00097E28FCFEF92FF920F931F93CF93DF93DF
:1050C00000D000D000D01F92CDB7DEB78091C50AC6
:1050D0008E3109F4B0C0A0F5853009F493C0B8F45E
:1050E000813009F488C008F46EC045E064E0823085
:1050F00009F483C027960FB6F894DEBF0FBECDBF6C
:10510000DF91CF911F910F91FF90EF9008958F3015
:1051100009F47CC040F48A3069F76FE086E09FE3D1
:105120000E947D0FE7CF843109F474C044EF51E051
:105130006EE18931F9F686E09FE30E94CF0EDACF67
:10514000873309F490C0D0F4883209F479C050F460
:1051500044EF51E068E2833269F686E09FE30E9403
:10516000380BC8CF8D3209F478C0823319F647E383
:1051700067E08DEF9EE30E942C0BBCCF813409F4D5
:1051800076C090F48C3309F0B5CF0E94CD097C0134
:105190000E94CD098C010E94CD099C014BE450E096
:1051A00061E484E49FE244C0863409F465C0843637
:1051B00009F0A0CF60E08AED90E10E94914480E088
:1051C0000E941A1C97CF0E94E6097C0162E672E0F9
:1051D000CE0101960E94305101E097014BE450E06E
:1051E0006EE07DE3CE0101960E944B13CE01019645
:1051F0000E94C7507FCF42E063E083E89FE10E94B6
:10520000831678CF44EF51E06AE095CF44EF51E048
:1052100064E1A3CF0E94CD097C010E94CD098C01DD
:105220000E94CD099C014BE450E069E186E09FE3D8
:105230000E949D0B5FCF43E264E086E09FE3DFCFF7
:105240000E94CD097C010E94CD098C010E94CD09EC
:105250009C014BE450E06DE2E9CF62E382E79FE11D
:105260000E94D10C47CF44EF51E06CE376CF46E487
:105270006CE089EB9FE07FCF64E680E197E20E94DB
:10528000250E38CFEF92FF920F931F93CF93DF93AA
:1052900000D000D000D01F92CDB7DEB78091C50AF4
:1052A0008E3109F4B0C0A0F5853009F493C0B8F48C
:1052B000813009F488C008F46EC045E064E08230B3
:1052C00009F483C027960FB6F894DEBF0FBECDBF9A
:1052D000DF91CF911F910F91FF90EF9008958F3044
:1052E00009F47CC040F48A3069F76FE086E09FE300
:1052F0000E947D0FE7CF843109F474C044EF51E080
:105300006EE18931F9F686E09FE30E94CF0EDACF95
:10531000873309F490C0D0F4883209F479C050F48E
:1053200044EF51E068E2833269F686E09FE30E9431
:10533000380BC8CF8D3209F478C0823319F647E3B1
:1053400067E08DEF9EE30E942C0BBCCF813409F403
:1053500076C090F48C3309F0B5CF0E94CD097C0162
:105360000E94CD098C010E94CD099C014BE450E0C4
:1053700061E484E49FE244C0863409F465C0843665
:1053800009F0A0CF60E08AED90E10E94914480E0B6
:105390000E941A1C97CF0E94E6097C0165E872E022
:1053A000CE0101960E94305101E097014BE450E09C
:1053B0006EE07DE3CE0101960E944B13CE01019673
:1053C0000E94C7507FCF42E063E083E89FE10E94E4
:1053D000831678CF44EF51E06AE095CF44EF51E077
:1053E00064E1A3CF0E94CD097C010E94CD098C010C
:1053F0000E94CD099C014BE450E069E186E09FE307
:105400000E949D0B5FCF43E264E086E09FE3DFCF25
:105410000E94CD097C010E94CD098C010E94CD091A
:105420009C014BE450E06DE2E9CF62E382E79FE14B
:105430000E94D10C47CF44EF51E06CE376CF46E4B5
:105440006CE089EB9FE07FCF64E680E197E20E9409
:10545000250E38CFEF92FF920F931F93CF93DF93D8
:1054600000D000D000D01F92CDB7DEB7E091C50AC2
:10547000E53608F081C0F0E0E05CF54D0C9468532F
:10548000A52ABC2AC92ABC2ACF2ABC2AE52ABC2ABA
:10549000F52ABC2AFE2ABC2A102BBC2A222BBC2AA5
:1054A000272BBC2A342BBC2A3C2BBC2A452BBC2ADC
:1054B0004D2BBC2A592BBC2A652BBC2A762BBC2A27
:1054C0007A2BBC2A822BBC2A8F2BBC2A952BBC2A78
:1054D0009C2BBC2AA02BBC2AAC2BBC2AB82BBC2AE8
:1054E000C72BBC2ACB2BBC2ACD2BBC2AD82BBC2A41
:1054F000DC2BBC2AE22BBC2AED2BBC2AFA2BBC2AC3
:10550000FE2BBC2A042CBC2A112CBC2A172CBC2A2A
:10551000222CBC2A282CBC2A332CBC2ABC2ABC2A0C
:10552000BC2ABC2ABC2ABC2ABC2ABC2ABC2ABC2A4B
:10553000BC2ABC2ABC2ABC2ABC2ABC2ABC2ABC2A3B
:10554000BC2ABC2ABC2ABC2A372C0E94E6097C0152
:105550006CEA72E0CE0101960E94305102E09701A0
:105560004BE450E064E072E4CE0101960E944B13DC
:10557000CE0101960E94C75027960FB6F894DEBF61
:105580000FBECDBFDF91CF911F910F91FF90EF9094
:10559000089564E082E894E10E94250EEDCF0E9418
:1055A000E6098C0160ED72E0CE0101960E94305157
:1055B00036E0E32E2DE030E050E040E066EB73E0B3
:1055C000CE0101960E94C412D3CF0E94E6098C013D
:1055D00066ED72E0CE0101960E94305128E0E22E85
:1055E0002DE030E046E050E0E9CF21E04CE657E026
:1055F0006AE08DE094E30E94470EBECF0E94E60968
:105600008C0169ED72E0CE0101960E9430519CE060
:10561000E92E2DE030E050E040E06CE677E0D0CFBE
:105620000E94E6098C0166ED72E0CE0101960E94AF
:1056300030518EE0E82E2DE030E046E050E065E8A5
:1056400077E0BECF20E04CE657E060E1D2CFB0ED8E
:10565000EB2EB7E0FB2E04E621E042E161E089E7B2
:105660009BE30E94BD0A88CF4BED51E064E189ECD9
:105670009DE10E94380B80CF20E04BED51E066E1C8
:1056800082E99BE30E94D10E77CF48E853E168E1BD
:105690008BE097E70E941A0A6FCF0E94E6098C01FF
:1056A00060ED72E0CE0101960E943051AAE1EA2E2F
:1056B00081CF0E94E6098C0166ED72E0CE01019671
:1056C0000E943051FCE1EF2E8BCF0E94CD097C016E
:1056D0000E94CD098C010E94CD099C014AEF50E047
:1056E0006EE182E894E10E949D0B46CF60E287E480
:1056F00099E052CF42E26BED71E08DE094E30E94BD
:10570000D40C3ACFEE24EA94F12C0FEF10E02FEFF7
:1057100030E04BE450E064E288ED9EE0E4CF4BEDF6
:1057200051E066E281EF9EE0A4CF20E04BED51E036
:1057300068E289EC9DE1A6CF48E853E16AE2A8CF90
:105740000E94E6098C0160ED72E0CE0101960E9494
:1057500030517CE2E72E2ECF0E94E6098C0166EDE7
:1057600072E0CE0101960E9430516EE2E62E38CFF3
:105770000E94CD097C010E94CD098C010E94CD09B7
:105780009C014AEF50E060E389E694E1ACCF62E32C
:1057900080E699E001CF44E3AECFEE24EA94F12C09
:1057A0000FEF10E02FEF30E04BE450E066E3B4CFB2
:1057B0004BED51E068E3B6CF6AE381EA9CE20E94D8
:1057C000D10CDACE40EDE42E47E0F42E04E621E0E1
:1057D0004CE361E08DE094E344CFEE24EA94F12CB5
:1057E0000FEF10E02FEF30E042E350E06EE38CE685
:1057F00097E079CF46EB53E060E494CF42E46BED61
:1058000071E082E29BE07BCFEE24EA94F12C0FEF73
:1058100010E02FEF30E042E350E064E486EB93E0E9
:1058200062CF46E46BED71E08BEE98E268CFEE2438
:10583000EA94F12C0FEF10E02FEF30E042E350E05C
:1058400068E4ECCF4AE46BED71E08CED97E357CF61
:10585000EE24EA94F12C0FEF10E02FEF30E042E35A
:1058600050E06CE4DBCF64E68CE49DE195CE60E033
:105870008AED90E10E94914480E00E941A1C7CCE47
:10588000EF92FF920F931F93CF93DF9300D000D03E
:1058900000D01F92CDB7DEB7E091C50AE53608F01B
:1058A00081C0F0E0EA5AF34D0C946853BB2CD22C23
:1058B000DF2CD22CE52CED2CFC2C042D0F2D152DDE
:1058C0001D2DD22C242DD22C312DD22C372DD22C83
:1058D0003D2DD22C412DD22C4F2DD22CD22CD22C7E
:1058E000572DD22C5F2DD22C622DD22C6F2DD22C85
:1058F000712DD22C7E2DD22C842DD22C882DD22C01
:10590000952DD22C9B2DD22CA82DD22CAC2DD22C67
:10591000B92DD22CBB2DD22CBF2DC52DD02DD22CE4
:10592000DD2DD22CE82DD22CD22CD22CD22CD22C64
:10593000D22CD22CD22CD22CD22CD22CD22CD22C77
:10594000D22CD22CD22CD22CD22CD22CD22CD22C67
:10595000D22CD22CD22CD22CD22CD22CD22CD22C57
:10596000D22CD22CD22CD22CD22CD22CD22CD22C47
:10597000D22CD22CEC2D0E94E6097C016EED72E057
:10598000CE0101960E94305102E097014AE550E0B5
:105990006CEF73E5CE0101960E944B13CE01019688
:1059A0000E94C75027960FB6F894DEBF0FBECDBF3A
:1059B000DF91CF911F910F91FF90EF90089564E0D8
:1059C00086E595E40E94D10CEDCF4AEF50E065E00A
:1059D00082E99BE30E94380BE5CFEE24EA94F12C98
:1059E0000FEF10E02FEF30E04DE750E066E08BE680
:1059F00093E00E949D0BD6CF47E068EE73E085E30D
:105A00009CE00E94D40CCECFEE24EA94F12C0FEF50
:105A100010E02FEF30E04DE750E068E0E8CF49E0DC
:105A200068EE73E083E597E0ECCF44EF51E06AE085
:105A300080E89EE30E94CF0EB5CF4CE067E080E7A0
:105A400097E10E948316AECFEE24EA94F12C0FEF7B
:105A500010E02FEF30E04DE750E06EE084EF91E092
:105A6000C8CF60E184EF91E00E94250E9BCF42E316
:105A700050E062E188EE93E0DDCF4AEF50E064E170
:105A8000A7CF0E94CD097C010E94CD090FEF10E045
:105A90009C014DE750E066E18EEE92E0AACF40ED2A
:105AA00057E06AE180E69DE60E941A0A7BCF44EF48
:105AB00051E06CE180E89EE30E947B0F73CF4EE1E2
:105AC00068E0BDCF0E94CD098C010E94CD09EE2473
:105AD000EA94F12C9C014DE750E060E2BFCF62E216
