:1000000015C400003DC400003BC4000039C400001A
:1000100037C4000035C4000033C4000031C4000000
:100020002FC400002DC400000C94D92C0C94562D24
:1000300027C4000025C4000023C4000021C4000020
:100040001FC400001DC400001BC4000019C4000030
:1000500017C4000015C4000013C400000C94382C11
:100060000FC400000C94942F0C94BF2F0C94F02F0D
:1000700007C4000005C4000003C4000001C4000060
:100080000C94C810FDC30000FBC30000F9C30000BE
:10009000F7C30000F5C3000000000000003E5B4F06
:1000A0005B3E3E6B4F6B3E1C3E7C3E1C183C7E3CD8
:1000B000181C577D571C1C5E7F5E1C00183C1800E6
:1000C000FFE7C3E7FF0018241800FFE7DBE7FF3076
:1000D000483A060E2629792926407F050507407FE4
:1000E00005253F5A3CE73C5A7F3E1C1C08081C1C57
:1000F0003E7F14227F22145F5F005F5F06097F014D
:100100007F006689956A606060606094A2FFA29437
:1001100008047E040810207E201008082A1C080805
:100120001C2A08081E101010100C1E0C1E0C303853
:100130003E3830060E3E0E06000000000000005F54
:1001400000000007000700147F147F14242A7F2A70
:100150001223130864623649562050000807030032
:10016000001C2241000041221C002A1C7F1C2A087E
:10017000083E0808008070300008080808080000E1
:1001800060600020100804023E5149453E00427F55
:10019000400072494949462141494D331814127FA4
:1001A0001027454545393C4A494931412111090744
:1001B0003649494936464949291E000014000000C5
:1001C0004034000000081422411414141414004197
:1001D00022140802015909063E415D594E7C121154
:1001E000127C7F494949363E414141227F4141418C
:1001F0003E7F494949417F090909013E4141517307
:100200007F0808087F00417F41002040413F017F77
:10021000081422417F404040407F021C027F7F043F
:1002200008107F3E4141413E7F090909063E415188
:10023000215E7F09192946264949493203017F0178
:10024000033F4040403F1F2040201F3F4038403F79
:10025000631408146303047804036159494D43008F
:100260007F4141410204081020004141417F0402C6
:10027000010204404040404000030708002054545D
:1002800078407F284444383844444428384444283B
:100290007F385454541800087E090218A4A49C788E
:1002A0007F0804047800447D40002040403D007FEA
:1002B0001028440000417F40007C047804787C08CA
:1002C0000404783844444438FC182424181824249E
:1002D00018FC7C08040408485454542404043F4483
:1002E000243C4040207C1C2040201C3C4030403CB2
:1002F00044281028444C9090907C4464544C440012
:100300000836410000007700000041360800020175
:100310000204023C2623263C1EA1A161123A404061
:10032000207A3854545559215555794122545478DE
:1003300042215554784020545579400C1E52721277
:100340003955555559395454545939555454580000
:1003500000457C410002457D420001457C407D1204
:1003600011127DF0282528F07C5455450020545466
:100370007C547C0A097F4932494949323A44444411
:100380003A324A4848303A4141217A3A424020784C
:10039000009DA0A07D3D4242423D3D4040403D3C4D
:1003A00024FF2424487E4943662B2FFC2F2BFF0972
:1003B00029F620C0887E0903205454794100004466
:1003C0007D413048484A32384040227A007A0A0A51
:1003D000727D0D19317D2629292F282629292926C4
:1003E00030484D4020380808080808080808382F09
:1003F00010C8ACBA2F102834FA00007B0000081493
:100400002A142222142A14085500550055AA55AA68
:1004100055AAFF55FF55FF000000FF00101010FF08
:1004200000141414FF001010FF00FF1010F010F063
:10043000141414FC001414F700FF0000FF00FF1454
:1004400014F404FC141417101F10101F101F1414A0
:10045000141F00101010F0000000001F10101010EA
:100460001F10101010F010000000FF1010101010DE
:1004700010101010FF10000000FF140000FF00FF1C
:1004800000001F10170000FC04F4141417101714B8
:1004900014F404F40000FF00F714141414141414DA
:1004A000F700F7141414171410101F101F1414144D
:1004B000F4141010F010F000001F101F0000001FB7
:1004C00014000000FC140000F010F01010FF10FFEA
:1004D000141414FF141010101F00000000F010FF7F
:1004E000FFFFFFFFF0F0F0F0F0FFFFFF0000000063
:1004F00000FFFF0F0F0F0F0F3844443844FC4A4AE7
:100500004A347E02020606027E027E02635549419B
:10051000633844443C04407E201E2006027E0202D2
:1005200099A5E7A5991C2A492A1C4C7201724C30E6
:100530004A4D4D303048784830BC625A463D3E49BD
:100540004949007E0101017E2A2A2A2A2A44445F61
:10055000444440514A444040444A51400000FF0155
:1005600003E080FF000008086B6B08361236243663
:10057000060F090F060000181800000010100030C8
:1005800040FF0101001F01011E00191D1712003C50
:100590003C3C3C000000000000010203040506088A
:1005A000090A0B0D0E1012131517191B1D202225F9
:1005B000272A2D3033373A3E4145494D52565B5F2D
:1005C00064696E74797F858B91979DA4ABB2B9C035
:1005D000C7CFD6DEE6EEF7FF000102030507090BE1
:1005E0000E1114181D22282E363D464F59646F7C7B
:1005F0008997A6B6C7D9EBFFAB0055007C008400F5
:100600004B00B5001B00E5000017E8000047B800EC
:100610000077AB0000ABAB000055AB000022DD0063
:100620000E00F2003E00C20071008F00A1005F00CA
:10063000D0002F00F90700000000FF0000000000BC
:100640000055AB000000000000ABAB000000000054
:1006500000FF00000000000055AB0000000000009B
:10066000FF00000000000000AB005500000000008B
:100670005500AB00000000000000FF00002AD5007C
:100680000055AB00007FAB0000ABAB0000D55600BF
:1006900000FF00002AD5000055AB0000AA5600005C
:1006A000FF000000D5002A00AB00550081007F004C
:1006B0005500AB002B00D500FF0000008B000000B0
:1006C0008B0000008B0000008B0000008B000000FE
:1006D0008B0000008B000000FF0000008B0000007A
:1006E000EBCE8700EBCE8700E6D8AD00FFFFFF0022
:1006F000E6D8AD00EBCE870001290229042908299C
:100700001029202940298029012C022C01260226AB
:10071000042608261026202640268026402C802CE1
:1007200001230223042308231023202340238023B2
:1007300001200220042008201020202040208020BA
:10074000102C202C012F022F042F082F102F202FC8
:10075000402F802F0001000005081200020000C297
:10076000074300030000BE070401030904A407189F
:10077000020309048C0716030309047E070C0C030B
:1007800031003200330034003500000016035500FC
:1007900053004200200053006500720069006100B0
:1007A0006C00000018035400650065006E007300C3
:1007B00079006400750069006E006F00000004039A
:1007C000090409024300020100C0320904000001CB
:1007D0000202010005240010010524010001042487
:1007E00002060524060001070582030800400904EB
:1007F0000100020A0000000705030240000007058F
:1008000084024000001201000202000020C0168392
:10081000047202010203010001C10201803601815C
:1008200036004019B4270E30D332BB1911241FBE35
:10083000CFEFD0E2DEBFCDBF17E0A0E0B1E0E2EF46
:10084000FDE600E00BBF02C007900D92AA3DB10784
:10085000D9F72FE0AAEDB7E001C01D92AB35B20782
:10086000E1F714E0C5E1D4E004C02197FE010E9445
:100870000236C131D107C9F70E941F300C94ED3602
:10088000BFCBFC01858596850895CF93DF9300D07B
:1008900000D000D0CDB7DEB7AB011C821D821E8216
:1008A000DC01ED91FC910190F081E02D19821A821A
:1008B0001B829E012F5F3F4FBE016C5F7F4F0995EA
:1008C00026960FB6F894DEBF0FBECDBFDF91CF9155
:1008D00008956731710508F0EFC0FB01EE58FB4F3A
:1008E0000C940236890494049C04A904B404BB0447
:1008F000C204C904D304DD04E704F104FB040505C4
:100900000F0517051F0526052D0534053E0548056D
:10091000520504978330910508F0CEC08E599C4F44
:10092000FC01808190E0089502978630910508F0DF
:10093000C3C0845A9C4FF4CF01978331910508F0CE
:10094000BBC0880F991FFC01EA5CFC4F808191813C
:10095000089501978531910508F0AEC0880F991F61
:10096000FC01E45FFC4FF2CF8431910508F0A4C094
:1009700088509D4FD5CF8431910508F09DC08C5192
:100980009D4FCECF8F30910508F096C08B529D4F72
:10099000C7CF8F30910508F08FC0880F991FFC01D9
:1009A000E954FD4FD3CF8F30910508F085C0880FF3
:1009B000991FFC01E756FD4FC9CF8F30910508F014
:1009C0007BC0880F991FFC01E558FD4FBFCF8F30CA
:1009D000910508F071C0880F991FFC01E35AFD4F83
:1009E000B5CF8F30910508F067C0880F991FFC01C3
:1009F000E15CFD4FABCF8F30910508F05DC0880FF3
:100A0000991FFC01EF5DFD4FA1CF8F30910508F0DC
:100A100053C0880F991FFC01ED5FFD4F97CF0197E1
:100A20008E30910508F048C08B509E4F79CF0297C9
:100A30008131910508F040C08C519E4F71CF0197D4
:100A400082319105C8F58E529E4F6ACF019783314E
:100A5000910590F581549E4F63CF019784319105A4
:100A600058F585559E4F5CCF01978331910520F550
:100A7000880F991FFC01EB57FE4F68CF0297873014
:100A80009105D0F4880F991FFC01E958FE4F5ECF05
:100A900003978530910580F4880F991FFC01E35975
:100AA000FE4F54CF04978330910530F4880F991F7F
:100AB000FC01E959FE4F4ACF8CE291E0089580E9AC
:100AC00091E008953A9A0895FB0101900020E9F71A
:100AD0003197AF01461B570BDC01ED91FC91028071
:100AE000F381E02D0994F0CF462F50E070E060E0F4
:100AF00020E00C94CB300F931F93CF93DF93EC0146
:100B0000F3DF8C01CE010E94B130800F911FDF9185
:100B1000CF911F910F9108950F931F93DC01AC01AA
:100B2000405D5F4FFB0105911591259134912C9308
:100B300011961C93119712960C9312976C5F7F4F2E
:100B40001396A417B50771F71F910F910895FC0133
:100B500060810C94FC25FC0140810C948C26DC0106
:100B6000ED91FC9102A0F3A1E02D70E060E009940A
:100B700024E030E040E050E061E070E080E090E0B0
:100B80000E9405336230710531F06330710531F038
:100B900090E080E008958FE790E008958FEF90E077
:100BA000089527E030E040E050E061E070E080E050
:100BB00090E00E940533615071096730710540F47F
:100BC000660F771FFB01E75AFE4F808191810895E0
:100BD00090E080E0089529E030E040E050E061E0FE
:100BE00070E080E090E00E94053361507109673049
:100BF000710540F4660F771FFB01E55BFE4F8081B6
:100C00009181089590E080E008950F931F93CF9312
:100C1000DF938C01C62F8091AC0881110EC061E07A
:100C20008FEB9EE00E94242710930701009306019A
:100C3000C093AB0881E08093AC08809169089091E3
:100C40006A08892B49F494DF80936D0891DF8093C3
:100C50006C088EDF80936B08C0916B08D0916C0894
:100C600010916D0826E131E040E050E060E070E076
:100C7000CB010E940533FB01EE0FFF1FE60FF71FAC
:100C8000E054F74F1083D183C28323E030E040E08B
:100C900050E060E070E0CB010E94053361307105E7
:100CA0008105910599F426E131E040E050E060E0F3
:100CB00070E0CB010E940533FB01EE0FFF1FE60F32
:100CC000F71FE054F74F1082118212828FEB9EE0E3
:100CD0003EDF8091B2089091B30888399A43F0F0D2
:100CE0001092B3081092B20884E00E94E02A0E9499
:100CF000E6328091690890916A08019684309105E6
:100D000091F090936A088093690832DF80936D08B0
:100D10002FDF80936C082CDF80936B08DF91CF91DD
:100D20001F910F91089581E090E0EBCF0F931F93F7
:100D3000CF93DF938C01C62F8091AC0881110EC038
:100D400061E08FEB9EE00E9424271093070100933F
:100D50000601C093AB0881E08093AC0860E08FEBA4
:100D60009EE00E9424278FEF8093BF0E01DFC82FE3
:100D7000FFDED82FFDDE182F26E131E040E050E005
:100D800060E070E0CB010E940533FB01EE0FFF1F16
:100D9000E60FF71FE054F74F1083D183C2838FEB28
:100DA0009EE0DF91CF911F910F91D1CECF92DF9234
:100DB000FF920F931F93CF93DF9300D01F92CDB775
:100DC000DEB76C01F62E8A018091AC08811112C049
:100DD00061E08FEB9EE00E942427D0920701C09231
:100DE0000601F092AB0881E08093AC081093B30841
:100DF0000093B2088091B2089091B30880179107D0
:100E000078F11092B3081092B208B2DE80936D08A8
:100E1000AFDE80936C08ACDE80936B0890916D0818
:100E200091110FC090916C0891110BC0811109C0F4
:100E30009FDE80936D089CDE80936C0899DE809322
:100E40006B0880916B0890916C0820916D08298344
:100E50009A838B83BE016F5F7F4F8FEB9EE07BDEBB
:100E60000F900F900F90DF91CF911F910F91FF90F6
:100E7000DF90CF900895AF92BF92CF92DF92EF9222
:100E8000FF920F931F93CF93DF9300D01F92CDB7A4
:100E9000DEB75C01F62E6A01122F8091AC08811139
:100EA00012C061E08FEB9EE00E942427B092070100
:100EB000A0920601F092AB0881E08093AC08D0923A
:100EC000B308C092B2088091B2089091B3088C1513
:100ED0009D0598F01092B3081092B2088091B50861
:100EE0008823C9F019830A83EB82BE016F5F7F4FAD
:100EF0008FEB9EE030DE1092B5080F900F900F90B0
:100F0000DF91CF911F910F91FF90EF90DF90CF90E5
:100F1000BF90AF90089519821A821B82BE016F5F45
:100F20007F4F8FEB9EE017DE81E08093B508E5CF21
:100F3000EF92FF920F931F93CF938C01C62F809156
:100F4000AC0881110EC061E08FEB9EE00E94242767
:100F50001093070100930601C093AB0881E08093D2
:100F6000AC086091A3087091A4089B012F5F3F4FCC
:100F70004091A2088091AE0E9091AF0E411152C0E7
:100F80003093A4082093A308273131051CF021E0F9
:100F90002093A2089B012D5F3F4FDC01ED91FC9156
:100FA00000A0F1A1E02DE12C58EFF52E07E110E0B3
:100FB00050E040E009958091AE0E9091AF0E6091A7
:100FC000A3087091A4089B012F5F3F4FDC01ED91B6
:100FD000FC9100A0F1A1E02DEE24EA94FE2C50E05B
:100FE00040E009958091AE0E9091AF0E6091A308FC
:100FF0007091A4089B012250310965507109DC01F0
:10100000ED91FC9100A0F1A1E02DF12CE12C50E03C
:1010100040E009958FEB9EE0CF911F910F91FF90DB
:10102000EF9095CD615071097093A4086093A30867
:101030006E3FBFEF7B0714F41092A208DC01ED9124
:10104000FC9100A0F1A1E02DE12C48EFF42E07E186
:1010500010E050E040E009958091AE0E9091AF0E07
:101060006091A3087091A4089B012C5F3F4F6E5FB5
:101070007F4FC5CF8F929F92AF92BF92CF92DF9258
:10108000EF92FF920F931F93CF93DF937C01EB01BD
:10109000142F8091AC08811118C061E08FEB9EE0A5
:1010A0000E942427F0920701E09206011093AB08FA
:1010B00081E08093AC0875DD9093BE088093BD08F5
:1010C00070DD9093BC088093BB081C161D06ACF421
:1010D0008091B2089091B3088C179D0770F0109220
:1010E000B3081092B2085DDD9093BE088093BD08EE
:1010F00058DD9093BC088093BB088091A308909121
:10110000A40801968A3091050CF0FCC09093A408C5
:101110008093A30860E08FEB9EE00E9424278091DB
:10112000AE0E9091AF0E4091A3085091A408E090AC
:10113000BD08F090BE089A01265F3F4F6AE0A62ED8
:10114000B12CB501641B750BDC01ED91FC9104A081
:10115000F5A1E02D06E110E050E040E00995809116
:10116000AE0E9091AF0E4091A3085091A408E0906C
:10117000BB08F090BC089A01255F3F4F7BE0872EAB
:10118000912CB401641B750BDC01ED91FC9104A062
:10119000F5A1E02D50E040E009958091AE0E9091D0
:1011A000AF0E4091A3085091A408E090BD08F090C4
:1011B000BE08E6E1CE2ED12C041B150B4F5F5F4F0E
:1011C000DC01ED91FC9104A0F5A1E02D25E130E0DA
:1011D00070E060E009958091AE0E9091AF0E409165
:1011E000A3085091A408E090BB08F090BC08C5E1AA
:1011F000D0E08E01041B150BDC01ED91FC9104A0E5
:10120000F5A1E02D25E130E070E060E009958091E6
:10121000AE0E9091AF0E4091A3085091A408E090BB
:10122000BD08F090BE088401041B150B455F5F4F9D
:10123000DC01ED91FC9104A0F5A1E02D25E130E069
:1012400070E060E009958091AE0E9091AF0E4091F4
:10125000A3085091A408E090BB08F090BC08850159
:10126000041B150B465F5F4FDC01ED91FC9104A060
:10127000F5A1E02D25E130E070E060E00995809176
:10128000AE0E9091AF0E6091A3087091A408E0900B
:10129000BD08F090BE089601261B370BDC01ED91CE
:1012A000FC9104A0F5A1E02D10E000E046E150E043
:1012B00009958091AE0E9091AF0E6091A308709148
:1012C000A408E090BB08F090BC089E01261B370BD9
:1012D00061507109DC01ED91FC9104A0F5A1E02DB4
:1012E00046E150E009958FEB9EE0DF91CF911F9191
:1012F0000F91FF90EF90DF90CF90BF90AF909F90B5
:101300008F9025CC1092A4081092A30803CF462FEB
:1013100070E060E0AFCE0F931F93CF938C01C62F88
:101320008091AC0881110EC061E08FEB9EE00E94BD
:1013300024271093070100930601C093AB0881E0B6
:101340008093AC0860E08FEB9EE00E9424278FEB37
:101350009EE0CF911F910F91FACB8F929F92AF9207
:10136000BF92CF92DF92EF92FF920F931F93CF9392
:10137000DF937C01162FEA018091AC08811112C025
:1013800061E08FEB9EE00E942427F0920701E0923B
:1013900006011093AB0881E08093AC08D093B308AA
:1013A000C093B2088091B2089091B3088C179D0742
:1013B000E0F11092B3081092B208C091AE0ED09135
:1013C000AF0E09DC8C012AE030E040E050E063E041
:1013D00070E080E090E00E9405334B0126E130E0B0
:1013E00040E050E060E070E0CB010E9405336B010B
:1013F00025E130E040E050E060E070E0CB010E9489
:1014000005339401A601CE010E94BD1E8FEB9EE024
:10141000DF91CF911F910F91FF90EF90DF90CF90D0
:10142000BF90AF909F908F9092CBDF91CF911F9103
:101430000F91FF90EF90DF90CF90BF90AF909F9073
:101440008F900895CF92DF92EF92FF920F931F93A8
:10145000CF93DF936C01F62EEA018091AC088111E5
:1014600012C061E08FEB9EE00E942427D09207011A
:10147000C0920601F092AB0881E08093AC08D09353
:10148000B308C093B2088091B2089091B3088C174A
:101490009D0708F472C01092B3081092B20825E1BB
:1014A00030E040E050E060E070E0CB010E940533A6
:1014B000C62F25E130E040E050E060E070E0CB0175
:1014C0000E940533C62E6DDB9093BE088093BD0845
:1014D00060E08FEB9EE00E9424278091AE0E9091F9
:1014E000AF0ED12CD0E0E090BD08F090BE08960180
:1014F00021503109BE0161507109DC01ED91FC916F
:1015000004A0F5A1E02D06E110E050E040E00995CF
:101510008091AE0E9091AF0EE090BD08F090BE08A5
:10152000DC01ED91FC9104A0F5A1E02D960150E0C5
:1015300040E0BE0109958091AE0E9091AF0EE09013
:10154000BD08F090BE0896012F5F3F4FBE016F5F50
:101550007F4FDC01ED91FC9104A0F5A1E02D50E05E
:1015600040E009958FEB9EE0DF91CF911F910F91A5
:10157000FF90EF90DF90CF90EACADF91CF911F915B
:101580000F91FF90EF90DF90CF900895CF92DF9270
:10159000EF92FF920F931F93CF93DF938C01C62F8F
:1015A0008091AC0881110EC061E08FEB9EE00E943B
:1015B00024271093070100930601C093AB0881E034
:1015C0008093AC0860E08FEB9EE00E94242780911E
:1015D000A0089091A1088230910509F459C07CF4CB
:1015E000009739F10197E1F18FEB9EE0DF91CF9108
:1015F0001F910F91FF90EF90DF90CF90A8CA843099
:10160000910509F49AC00CF472C0059769F78091AE
:10161000A3089091A40801979093A4088093A3082D
:10162000181619060CF49DC01092A1081092A0087B
:1016300012C08091A3089091A40801969093A408E9
:101640008093A3084A970CF461C081E090E09093E6
:10165000A1088093A0081092A4081092A308C4CFF8
:101660008091A3089091A40801969093A408809378
:10167000A3080C9714F182E090E09093A108809366
:10168000A0088CE090E09093A4088093A308ACCFCE
:101690008091A3089091A40801979093A408809347
:1016A000A308181619064CF083E090E09093A10867
:1016B0008093A00889E190E0E6CFC091AE0ED09172
:1016C000AF0EE881F981C4A0D5A06BDA4091A308E0
:1016D0005091A40806E110E0041B150B7C0130E0DA
:1016E00020E069E170E0CE01F60109957DCF80919F
:1016F000A3089091A40801979093A4088093A3084D
:10170000181619061CF084E090E0A1CFC091AE0E2F
:10171000D091AF0EE881F981C4A0D5A042DA6091E2
:10172000A3087091A40829E130E0261B370B7C0147
:1017300006E110E050E040E0D6CF8091A308909100
:10174000A40801969093A4088093A3080B974CF0EB
:1017500085E090E09093A1088093A0088AE090E053
:1017600092CFC091AE0ED091AF0EE881F981C4A0A6
:10177000D5A017DA4091A3085091A40806E110E023
:10178000041B150B7C0129E130E070E060E0ABCF79
:10179000CF92DF92EF92FF920F931F93CF93DF933D
:1017A0008C01C62F8091AC0881110EC061E08FEBD7
:1017B0009EE00E9424271093070100930601C09326
:1017C000AB0881E08093AC0860E08FEB9EE00E9464
:1017D00024278091A208E091A308F091A408811128
:1017E00008C1E930F10528F5E850F44F0C940236B1
:1017F000010C330C4C0C650C7E0C970CAF0CC80C18
:10180000E10CCFE5D6E00BEF16E0E990F990B0D906
:10181000D82EAED9C82EACD9F701EE0FFF1FEE0DB2
:10182000FF1DE054F74F8083C182D2820C171D0741
:1018300061F78FEB9EE08BD98091A3089091A4086B
:1018400001969093A4088093A30809971CF081E067
:101850008093A208DF91CF911F910F91FF90EF909D
:10186000DF90CF900895C3EDD5E00FE516E0E99045
:10187000F9907ED9D82E7CD9C82E7AD9F701EE0FEF
:10188000FF1FEE0DFF1DE054F74F8083C182D2820F
:101890000C171D0761F7CDCFC7E6D5E003ED15E0C6
:1018A000E990F99065D9D82E63D9C82E61D9F7018E
:1018B000EE0FFF1FEE0DFF1DE054F74F8083C18236
:1018C000D2820C171D0761F7B4CFCDE1D5E007E652
:1018D00015E0E990F9904CD9D82E4AD9C82E48D9AC
:1018E000F701EE0FFF1FEE0DFF1DE054F74F808351
:1018F000C182D2820C171D0761F79BCFCDEDD4E0DA
:101900000DE115E0E990F99033D9D82E31D9C82EE0
:101910002FD9F701EE0FFF1FEE0DFF1DE054F74F1B
:101920008083C182D2820C171D0761F782CFC1EA82
:10193000D4E0099119911CD9F82E1AD9E82E18D99A
:10194000F801EE0FFF1FE00FF11FE054F74F808307
:10195000E182F28284E0CD3DD80759F76ACFCBE629
:10196000D4E001EA14E0E990F99002D9D82E00D928
:10197000C82EFED8F701EE0FFF1FEE0DFF1DE0543D
:10198000F74F8083C182D2820C171D0761F751CFB8
:10199000C7E3D4E00BE614E0E990F990E9D8D82E3B
:1019A000E7D8C82EE5D8F701EE0FFF1FEE0DFF1D9B
:1019B000E054F74F8083C182D2820C171D0761F774
:1019C00038CFC7E0D4E009911991D2D8F82ED0D8F9
:1019D000E82ECED8F801EE0FFF1FE00FF11FE05404
:1019E000F74F8083E182F28284E0C733D80759F74A
:1019F00020CFE930F10520F5E050F34F0C9402368A
:101A0000090D330D4B0D630D7B0D930DAB0DC30D08
:101A1000DE0DCFE5D6E009911991AAD8F82EA8D805
:101A2000E82EA6D8F801EE0FFF1FE00FF11FE054DB
:101A3000F74F8083E182F28286E0CB3FD80759F7E7
:101A40008FEB9EE084D88091A3089091A408019721
:101A50009093A4088093A308181619060CF4FACEE4
:101A60001092A208F7CEC3EDD5E00991199180D864
:101A7000F82E7ED8E82E7CD8F801EE0FFF1FE00F7D
:101A8000F11FE054F74F8083E182F28286E0CF3588
:101A9000D80759F7D5CFC7E6D5E00991199168D88D
:101AA000F82E66D8E82E64D8F801EE0FFF1FE00F7D
:101AB000F11FE054F74F8083E182F28285E0C33D5D
:101AC000D80759F7BDCFCDE1D5E00991199150D88C
:101AD000F82E4ED8E82E4CD8F801EE0FFF1FE00F7D
:101AE000F11FE054F74F8083E182F28285E0C73630
:101AF000D80759F7A5CFCDEDD4E00991199138D881
:101B0000F82E36D8E82E34D8F801EE0FFF1FE00F7C
:101B1000F11FE054F74F8083E182F28285E0CD31FE
:101B2000D80759F78DCFC1EAD4E00991199120D88F
:101B3000F82E1ED8E82E1CD8F801EE0FFF1FE00F7C
:101B4000F11FE054F74F8083E182F28284E0CD3DC3
:101B5000D80759F775CFCBE6D4E00991199108D889
:101B6000F82E06D8E82E04D8F801EE0FFF1FE00F7C
:101B7000F11FE054F74F8083E182F28284E0C13AA2
:101B8000D80759F75DCFC7E3D4E0099119910E94B6
:101B9000B805F82E0E94B805E82E0E94B805F80195
:101BA000EE0FFF1FE00FF11FE054F74F8083E1823B
:101BB000F28284E0CB36D80741F742CFC7E0D4E0C9
:101BC000099119910E94B805F82E0E94B805E82ED7
:101BD0000E94B805F801EE0FFF1FE00FF11FE0545F
:101BE000F74F8083E182F28284E0C733D80741F760
:101BF00027CFCF92DF92FF920F931F93CF93DF9364
:101C00008C016B01EA01F22E8091AC0881111AC09F
:101C100061E08FEB9EE00E942427D0920701C092E2
:101C20000601F092AB0881E08093AC0884E690E076
:101C30009093B3088093B20887E190E090930501F8
:101C4000809304018091B2089091B3088436910585
:101C500008F45EC01092B3081092B20885E0809339
:101C6000BF0E8091AE0E9091AF0E0E94AF05809195
:101C7000AE0E9091AF0EDC0156961C9261E00E9470
:101C800003228091AE0E9091AF0EDC01ED91FC919C
:101C9000008CF18DE02D60E0099580910401909118
:101CA00005010197863ABFEF9B077CF190930501F0
:101CB000809304010E940B348091AE0E9091AF0E80
:101CC0000E94AF05E091AE0EF091AF0E809104013D
:101CD00090910501948783878DE090E096878587B2
:101CE000D28BC18BD08BC787B801CF010E945C30EB
:101CF0008091AE0E9091AF0EDF91CF911F910F9119
:101D0000FF90DF90CF900C94222287E190E0CECF1D
:101D1000DF91CF911F910F91FF90DF90CF900895A9
:101D20008F929F92AF92BF92CF92DF92EF920F93DA
:101D30001F93CF93DF93EC015B016A01490180910E
:101D4000AC08811116C061E08FEB9EE00E94242751
:101D50009092070180920601E092AB0881E08093A7
:101D6000AC081092680810926708D092B308C0922D
:101D7000B2088091B2089091B3088C159D0508F4C3
:101D80005BC01092B3081092B208809167089091DE
:101D90006808A816B9060CF44FC085E08093BF0E02
:101DA0008091AE0E9091AF0E0E94AF058091AE0E65
:101DB0009091AF0EDC0156961C9261E00E940322C6
:101DC0008091AE0E9091AF0EDC01ED91FC91008CF4
:101DD000F18DE02D60E009950E940B34E091AE0E8C
:101DE000F091AF0E82E090E0948783878DE090E0E1
:101DF00096878587128B018B108B078780916708E8
:101E00009091680827E0289FB001299F700D112448
:101E10006C0F7D1FCF010E945C308091AE0E9091BF
:101E2000AF0E0E9422228091670890916808019667
:101E30009093680880936708DF91CF911F910F916D
:101E4000EF90DF90CF90BF90AF909F908F900895CC
:101E5000BF92CF92DF92EF92FF920F931F93CF9397
:101E6000DF9300D01F92CDB7DEB700E718E080EA1D
:101E7000E82E88E0F82E95E0C92E98E0D92EBB24F4
:101E8000BA9420910801309109012C9DC0012D9D2B
:101E9000900D3C9D900D1124875E994C8C9D900176
:101EA0008D9D300D9C9D300D1124275E394C309353
:101EB000090120930801230F2983BA82890F8B839C
:101EC000B801CE0101960E94B7270D5F1F4FE016A3
:101ED000F106B9F60F900F900F90DF91CF911F91FF
:101EE0000F91FF90EF90DF90CF90BF900895CF9328
:101EF000DF9300D01F92CDB7DEB719821A821B8202
:101F0000AE014F5F5F4F60E170E080E798E00E94B4
:101F10009624E0E7F8E08FEF8083818382838487D3
:101F200085878687808F818F828F84A385A386A3F0
:101F30000F900F900F90DF91CF9108951F93CF9343
:101F4000DF93CDB7DEB7E6970FB6F894DEBF0FBECE
:101F5000CDBF80EC89831FEF1A831B83BE016C5CAD
:101F60007F4FCE0101960E94B72780E689831A83AE
:101F70001B83BE016F5C7F4FCE0101960E94B72785
:101F800059A959834AA94A833BA93B835C834D8362
:101F90003E831F82188619861A861B861C862CA9EA
:101FA0002D879DA99E878EA98F87288B998B8A8BD9
:101FB0001B8A1C8A1D8A1E8A1F8A188E598F4A8F77
:101FC0003B8F5C8F4D8F3E8F1F8E18A219A21AA2D5
:101FD0001BA21CA22DA39EA38FA328A799A78AA703
:101FE0001BA61CA61DA61EA61FA618AA40E350E00D
:101FF000BE016F5F7F4F80E798E00E948328E696DE
:102000000FB6F894DEBF0FBECDBFDF91CF911F9109
:102010000895DF92EF92FF920F931F93CF93DF9378
:1020200000D01F92CDB7DEB7D82E80ECE82E88E026
:10203000F82E00916E0810916F082FEF4D2D60E77C
:1020400078E0CE0101960E94AB248981F70180835C
:102050008A8181838B818283F3E0DF0E83E0E80E47
:10206000F11CE2E0EE16ECE0FE0619F70F900F907F
:102070000F90DF91CF911F910F91FF90EF90DF9024
:1020800008950F931F93CF93DF938C01C62FD42F06
:102090008091AC08811142C061E08FEB9EE00E940C
:1020A00024271093070100930601D093AB0881E029
:1020B0008093AC08CB3008F031C0EC2FF0E0ED5944
:1020C000FF4E0C9402366E1075107C107F10871036
:1020D0008910A610A810AB10AE10B11068E776E01A
:1020E00080E798E00E948C050BC068E376E080E70B
:1020F00098E00E948C050EC068E376E0F1CF1EDF09
:1021000081E090E090936F0880936E0807C0A0DE96
:10211000F7CFEDDE10926F0810926E088091A30841
:102120009091A4080196893E23E09207ECF49093E5
:10213000A4088093A3088091A3086BDF8FEB9EE037
:10214000DF91CF911F910F910C94A705D0DED8CFCE
:1021500068EB76E0C5CF68EF75E0C2CF67EC73E05F
:10216000C6CF67EC73E0BCCF1092A4081092A3080E
:10217000E2CF109290008BE0809391008AE698E184
:10218000909399008093980082E080937100089565
:102190001F920F920FB60F9211242F933F938F939C
:1021A0009F938091B2089091B30849969093B30899
:1021B0008093B2088091AE089091AF0849969093B1
:1021C000AF088093AE088091B0089091B10849960D
:1021D0009093B1088093B00891E09093AD088BB1D3
:1021E00020E482278BB92091AE083091AF08283EB9
:1021F000334030F01092AF081092AE089093A908C7
:102200002091B0083091B1088091060190910701AA
:1022100028173907C0F08091AB088093AA08109264
:10222000B3081092B2081092B1081092B008109240
:10223000A4081092A30887E190E090930501809391
:1022400004011092AC089F918F913F912F910F90B4
:102250000FBE0F901F9018951092B3081092B208FD
:102260001092B1081092B00810926A081092690892
:102270001092660810926508109264081092A408E3
:102280001092A3088093BF081092AA081092AC087D
:1022900069E171E08FE49FE00E9464058FE49FE0B4
:1022A0000C94B130AF92BF92CF92DF92EF92FF9237
:1022B0000F931F93CF93DF9368EE73E080E090E07D
:1022C0000E94782C4FEF60E470E08AED9EE00E945F
:1022D0005B2F569A88E20E94E02ABC01990F880B76
:1022E000990B1F921F921F9228E72F93A12CB12CBC
:1022F0006501EE24EA9413E0F12E00E010E020E006
:1023000030E0A9010E9422336093B60882E391E095
:102310000E942530EC010AE027E130E046E150E080
:1023200060EC78E00E940522D093AF0EC093AE0E11
:102330008091DB070F900F900F900F9081114DC08F
:102340008BED97E00E942630892B09F446C010924D
:10235000E6071092E5078FEF8093E9078093EA077D
:102360008093EB078093EC078093ED078093EE0753
:1023700081E08093EF071092F1071092F00710921E
:10238000E8071092E7078091BD0E9091BE0E892B51
:1023900031F483EE97E09093BE0E8093BD0EE091F2
:1023A000BB0EF091BC0E309721F083EE97E0958341
:1023B000848383EE97E09093BC0E8093BB0E1092C3
:1023C000F3071092F20789E693E09093E407809375
:1023D000E3078BED97E00E942F3030E020E04AEFDA
:1023E00051E060EC78E083EE97E00E947A27FC01F0
:1023F0008FEF868380EB878380EF80878091AE0E9E
:102400009091AF0E0E947C228091AE0E9091AF0E03
:102410002FE02093BF0EFC01168A69E674E00E944B
:102420009024F894A6DE789468E776E080E798E058
:102430000E948C0581E090E090936F0880936E0875
:1024400080E0DF91CF911F910F91FF90EF90DF908F
:10245000CF90BF90AF9000CFEF92FF920F931F935A
:10246000CF93DF9300D000D000D01F92CDB7DEB75E
:102470008091AA08863009F47CC018F5823009F4EE
:102480004CC090F48823D9F1813009F43EC02796DE
:102490000FB6F894DEBF0FBECDBFDF91CF911F9175
:1024A0000F91FF90EF900895843009F45CC008F418
:1024B00045C040ED57E066E088E99AE30E94D60601
:1024C000E6CF893009F468C058F4873009F45CC05D
:1024D0008830E9F669E088E99AE30E949606D7CF4A
:1024E0008B3009F464C008F45CC0843681F660E087
:1024F0008FEB9EE00E94242780E0AEDEC8CF42E052
:1025000067E080E197E2BDDDC2CF42E060EA7FE0B4
:1025100088E99AE30E943A08BACF0E94B8057C0184
:102520000E94B8058C010E94B8059C0142E350E06E
:1025300063E088E893E10E943B07A9CF0E94D105A0
:102540008C016AE271E0CE0101960E94CA3324E058
:10255000A80160E375E7CE0101964BDBCE01019641
:102560000E94613394CF65E088E99AE30E9498075E
:102570008ECFEE24EA94F12C0FEF10E02FEF30E035
:1025800042E350E067E0D5CF48EE53E068E088E9E9
:102590009AE30E94AD097BCF6AE080E197E2F8D828
:1025A00076CF6BE080E197E20E94C60A70CF44EFDD
:1025B00051E064E688E99AE30E94220A68CFEF922C
:1025C000FF920F931F938091AA08863009F465C08B
:1025D000E8F4823009F452C050F48823E9F18130E4
:1025E00009F443C01F910F91FF90EF90089584303C
:1025F00009F448C064E0853080F166E080E395E747
:102600001F910F91FF90EF900C949606893009F47A
:102610005CC080F4873009F449C049EA51E069E0C0
:10262000883001F782E890E61F910F91FF90EF90BC
:102630000C94D6068B3009F45BC008F44AC084368B
:1026400089F660E08FEB9EE00E94242780E01F91D6
:102650000F91FF90EF9000CE61E086E297E31F912B
:102660000F91FF90EF900C94870962E08BE49EE657
:102670001F910F91FF90EF900C94980749EA51E059
:1026800063E0D0CF49EA51E065E08BE49EE61F911C
:102690000F91FF90EF900C94220A67E08BE49EE686
:1026A0001F910F91FF90EF900C940506EE24EA9491
:1026B000F12C0FEF10E02FEF30E04BE450E068E03A
:1026C00089EC9DE00E943B078DCF6AE088EB92E5A4
:1026D00097CF0E94B8057C010E94B8058C010E942A
:1026E000B8059C014BE450E06BE086E297E3EACF4B
:1026F00064E68FEF9FEFD4CFEF92FF920F931F937B
:102700008091AA08873309F4D2C008F040C089310B
:1027100009F4B0C018F58A3009F49AC058F4882337
:1027200009F482C0853009F488C01F910F91FF9091
:10273000EF9008958F3009F494C08431B1F70E946E
:10274000D10559E1E52E8C0126E337E045E451E05F
:1027500066E070E084EF97E0E3DAE7CF883209F4CF
:10276000A0C058F48E3109F48BC08332F1F642ECEC
:1027700051E068E281EB99E365C08D3209F493C0C2
:10278000823399F60E94D10547E3E42EDCCF8B34E7
:1027900009F4BDC028F58C3309F4A1C060F4883376
:1027A00009F490C08A3309F0C0CF42EC51E06CE3E9
:1027B00081EB99E381C0813409F49CC0863409F02F
:1027C000B4CF0E94B8057C010E94B8058C010E941C
:1027D000B8059C0142E350E06BE480E797E15EC0FE
:1027E0008A3509F4A7C078F4803509F496C0853598
:1027F00009F09BCF6AE582E693E71F910F91FF9066
:10280000EF900C9496068F3509F49AC0843609F03F
:102810008CCF60E08FEB9EE00E94242780E01F9128
:102820000F91FF90EF9018CD65E084E59FE41F9134
:102830000F91FF90EF900C9405064DE953E06AE08C
:1028400089ED9CE11F910F91FF90EF900C94AD09E1
:102850006FE082E693E71F910F91FF90EF900C9449
:10286000980764E187EE90E41F910F91FF90EF903D
:102870000C948B0942EC51E06EE18BE792E3E2CFDE
:102880000E94B8057C010E94B8058C010E94B80521
:102890009C0142E350E063E286E397E00E943B073D
:1028A00044CF6DE2D6CF62E38BE792E3DDCF42EC1B
:1028B00051E068E38BE792E31F910F91FF90EF9057
:1028C0000C94220A0E94B8057C010E94B8058C0174
:1028D0000E94B8059C0142E350E06AE3DDCF41E489
:1028E0006AE377E086E89DE41F910F91FF90EF90F7
:1028F0000C943A08EE24EA94F12C0FEF10E02FEF3D
:1029000030E042E350E066E48CE69EE0C7CF40E56D
:102910006AE377E081EB99E3E7CF0E94B8057C0199
:102920000E94B8058C010E94B8059C0142E350E06A
:1029300065E5EACF42EC51E06FE587EC9FE682CF98
:102940000E94D10529E0E22E8C0120E63AEE45E412
:1029500051E064E670E0FECEEF92FF920F931F937A
:102960008091AA08863009F475C018F5823009F400
:102970005AC058F4882309F440C0813009F448C093
:102980001F910F91FF90EF900895843009F45CC07F
:1029900008F454C00E94D10526E0E22E8C012BE2FF
:1029A00036E14BED51E06AE070E08EE198E0B8D995
:1029B000E7CF8A3009F46EC070F4883009F464C03F
:1029C00008F453C06AE080EB9DE11F910F91FF90E6
:1029D000EF900C9496068C3009F471C008F460C036
:1029E000843671F660E08FEB9EE00E94242780E041
:1029F0001F910F91FF90EF902FCC46EB53E061E0D9
:102A00008BE097E71F910F91FF90EF900C94AD0929
:102A10004BED51E062E084E892EB1F910F91FF9043
:102A2000EF900C94220A46EB53E063E08BE097E7CB
:102A30001F910F91FF90EF900C94D60646EB53E058
:102A400064E089E79BE3DECF4BED51E065E08BE08E
:102A500097E7E3CF47E06CE677E087EC90E61F91DD
:102A60000F91FF90EF900C943A08EE24EA94F12C29
:102A70000FEF10E02FEF30E04BE450E068E089E723
:102A80009BE30E943B077CCF48EB53E069E089E77A
:102A90009BE3CECF46EB53E06BE080EB9DE1C8CFEC
:102AA0000E94B8057C010E94B8058C010E94B805FF
:102AB0009C014BE450E06CE080EB9DE1E2CF64E6EA
:102AC0008FEF9FEF1F910F91FF90EF900C940506F1
:102AD000EF92FF920F931F938091AA08833209F41B
:102AE00086C090F58F3009F471C088F4853009F400
:102AF00059C08A3009F461C0811121C065E08AE8BB
:102B00009EE51F910F91FF90EF900C9498078931EB
:102B100009F467C08E3109F468C0843181F40E94E1
:102B2000B8057C010E94B8058C010E94B8059C0183
:102B30004BE450E069E186E09FE30E943B071F9170
:102B40000F91FF90EF900895873309F461C0A8F4C6
:102B50008D3209F450C0823309F451C0883279F7BC
:102B60000E94B8057C010E94B8058C010E94B8053E
:102B70009C014BE450E06DE2DECF863409F44CC09A
:102B8000843609F452C08C33D1F60E94B8057C011A
:102B90000E94B8058C010E94B8059C014BE450E0EE
:102BA00066E4C9CF44EF51E06AE086E09FE31F91FD
:102BB0000F91FF90EF900C94AD096FE086E09FE3DA
:102BC0001F910F91FF90EF900C94C60A44EF51E0D3
:102BD00064E186E09FE31F910F91FF90EF900C94CA
:102BE000D60644EF51E06EE1E0CF63E2E7CF44EF79
:102BF00051E068E2EECF62E383E89FE182CF67E3D2
:102C000086E09FE31F910F91FF90EF900C94960642
:102C100044EF51E06CE3DDCF64E680E197E21F9181
:102C20000F91FF90EF900C948B0960E08FEB9EE08A
:102C30000E94242780E01F910F91FF90EF900CCB12
:102C40009F92AF92BF92CF92DF92EF92FF920F933B
:102C50001F93CF93DF93FC01C080D18028B1B22EA7
:102C60006894B2F898B19B7F98B962858781062FE6
:102C7000081B802F07837785A281B3813585448522
:102C8000568599249394930E4F5F5F5FF680E0849E
:102C9000C185D385F6011181A12C0A2D2A2D3A2D4B
:102CA0003181112788943111380F08F43FEF819555
:102CB000889490FC130F1795889491FC130F179527
:102CC000889492FC130F1795889493FC130F179513
:102CD000889494FC130F1795889495FC130F1795FF
:102CE000889496FC130F1795889497FC130F1795EB
:102CF0008894032F9110012F860F102F002CB8B845
:102D000000C017FF98B930810027889400C000C028
:102D1000002C98B931113F0D00C0002CB8B800C08C
:102D200016FF98B908F43FEFF194889400C000C0F2
:102D3000002C98B940FD030F00C0002CB8B800C0AB
:102D400015FF98B90795889441FD030F00C000C096
:102D5000002C98B90795889400C0002CB8B800C022
:102D600014FF98B942FD030F0795889400C000C076
:102D7000002C98B943FD030F00C0002CB8B800C068
:102D800013FF98B90795889444FD030F00C000C055
:102D9000002C98B90795889400C0002CB8B800C0E2
:102DA00012FF98B945FD030F0795889400C000C035
:102DB000002C98B946FD030F00C0002CB8B800C025
:102DC00011FF98B90795889447FD030F00C000C014
:102DD000002C98B90795889400C0002CB8B800C0A2
:102DE00010FF98B9132F4111102FFC0E00C000C026
:102DF000002C98B900C000C0002CB8B800C017FF64
:102E000098B932810027889400C000C0002C98B97E
:102E100031113E0D00C0002CB8B800C016FF98B9A3
:102E200008F43FEFE70FF11D00C000C0002C98B977
:102E300050FD030F00C0002CB8B800C015FF98B9B2
:102E40000795889451FD030F00C000C0002C98B96D
:102E50000795889400C0002CB8B800C014FF98B93A
:102E600052FD030F0795889400C000C0002C98B94C
:102E700053FD030F00C0002CB8B800C013FF98B971
:102E80000795889454FD030F00C000C0002C98B92A
:102E90000795889400C0002CB8B800C012FF98B9FC
:102EA00055FD030F0795889400C000C0002C98B909
:102EB00056FD030F00C0002CB8B800C011FF98B930
:102EC0000795889457FD030F00C000C0002C98B9E7
:102ED0000795889400C0002CB8B800C010FF98B9BE
:102EE000132F5111102FE19400C000C0002C98B98D
:102EF000ED0E00C000C0B8B800C017FF98B931810E
:102F00000027889400C000C0002C98B93111380FF8
:102F100000C0002CB8B800C016FF98B908F43FEF05
:102F20008195889400C000C0002C98B990FC030FD4
:102F300000C0002CB8B800C015FF98B90795889458
:102F400091FC030F00C000C0002C98B9079588942D
:102F500000C0002CB8B800C014FF98B992FC030F51
:102F60000795889400C000C0002C98B993FC030F0B
:102F700000C0002CB8B800C013FF98B9079588941A
:102F800094FC030F00C000C0002C98B907958894EA
:102F900000C0002CB8B800C012FF98B995FC030F10
:102FA0000795889400C000C0002C98B996FC030FC8
:102FB00000C0002CB8B800C011FF98B907958894DC
:102FC00097FC030F00C000C0002C98B907958894A7
:102FD00000C0002CB8B800C010FF98B9132F911092
:102FE000102F860F00C000C0002C98B9119709F06F
:102FF00086CEDF91CF911F910F91FF90EF90DF90E0
:10300000CF90BF90AF909F9008950F931F93CF9351
:10301000DF93EC018B010E94982C2F853889621B6D
:10302000730B6A307105B8F3F894C80109DEF80132
:103030004281538120EE31E0DA010E941A36DC0130
:10304000CB01F4E0B695A79597958795FA95D1F7BA
:1030500030E020E0B901EAE94E9F040E611D5E9F59
:10306000600D711D1124650F711D860F971FA11D25
:10307000B11D893EF3E09F07A105B10508F434C0F6
:10308000885E9340A109B10942E0B695A79597954E
:1030900087954A95D1F747E0849F080E211D949F9C
:1030A000200D311D1124290F311D6091B00E70E0EB
:1030B000860F971F820F931F4091CF0E5091D00E15
:1030C0006091D10E7091D20E292F3327420F531FDA
:1030D000611D711D4093CF0E5093D00E6093D10EA1
:1030E0007093D20E8093B00E78940E94982C788BB7
:1030F0006F87DF91CF911F910F9108950F931F93C9
:10310000CF93DF932091DA072F5F322F3770309300
:10311000DA0720FF2BC020E831FD2064347009F06D
:103120002062205FFC01EC01239600E011E0648541
:10313000662329F070E0C8010E94B1356F5F618796
:10314000322F369F030E30E0311D1124311110C093
:103150001682662311F0615061873196EC17FD07E6
:1031600031F7DF91CF911F910F91089520E0D4CFD7
:1031700031503683EECF0F931F93CF93DF93CDB7AC
:10318000DEB762970FB6F894DEBF0FBECDBF8C01DD
:10319000F901DC011C968C917A8369835C834B83F3
:1031A0005E834D8390819D8791819E8792819F87C9
:1031B0008130E9F4CE010196A1DF83E0888B1A8A81
:1031C000198AD801ED91FC910484F585E02DBE01AA
:1031D0006F5F7F4FC801099562960FB6F894DEBF06
:1031E0000FBECDBFDF91CF911F910F9108951C8627
:1031F0001B861A86198618861F82DFCF0F931F93AE
:10320000CF93DF93CDB7DEB762970FB6F894DEBFEA
:103210000FBECDBF8C01F901DC011C968C917A8325
:1032200069835C834B835E834D8390819D8791810D
:103230009E8792819F878130E1F4CE0101965EDF07
:10324000188A1A8A198AD801ED91FC910484F585AF
:10325000E02DBE016F5F7F4FC801099562960FB6E2
:10326000F894DEBF0FBECDBFDF91CF911F910F91BC
:1032700008951C861B861A86198618861F82E0CF41
:103280000FB6F8948091CF0E9091D00EA091D10EF0
:10329000B091D20E0FBE9093A6088093A5080E940D
:1032A000B80580936D080E94B80580936C080E9451
:1032B000B80580936B0861EC73E08EE198E00E94A2
:1032C000CA336CEB73E085E298E00E94CA336AEB84
:1032D00073E08CE298E00E94CA3367EB73E083E30B
:1032E00098E00E94CA3362EB73E08AE398E00E94A0
:1032F000CA336EEA73E081E498E00E94CA3368EA58
:1033000073E088E498E00E94CA3365EA73E08FE4D2
:1033100098E00E94CA3360EA73E086E598E00E9474
:10332000CA336BE973E08DE598E00E94CA3366E921
:1033300073E084EF97E00E94CA336FE873E08BEF8D
:1033400097E00E94CA3366E873E082E098E00E944A
:10335000CA3362E873E089E098E00E94CA336EE7FE
:1033600073E080E198E00E94CA3367E773E087E189
:1033700098E00C94CA33CF93DF93CEE1D8E027973F
:10338000CE010E94613387E0C43FD807C1F7C4E68D
:10339000D8E02797CE010E94613388E0CE31D8076C
:1033A000C1F7DF91CF9108958AED9EE00E94C52E6E
:1033B000892BD9F08AED9EE00E94F82E8093BA08FE
:1033C000682F8FE49FE00E947B056091BA086F3FF1
:1033D00061F067FF11C06093B9081092B8081092AD
:1033E000B7088FE49FE00E947B058AED9EE00E9473
:1033F000C52E892BC9F608958091B808811137C070
:103400006093B8086091B9088FE49FE00E9474054A
:1034100068E371E08FE49FE00E9473056091B80853
:103420008FE49FE00E94740568E371E08FE49FE001
:103430000E9473056091B7088FE49FE00E947B05AE
:103440008091B908893B89F68091B808863169F680
:103450008091B708882349F20E942C116AE371E039
:103460008FE49FE00E9473056091B708BACF809106
:10347000B7088111C7CF6093B708C4CF8F929F92CE
:10348000AF92BF92CF92DF92EF92FF920F931F9372
:10349000CF938091A708882341F06091A8088FE41A
:1034A0009FE00E947B051092A7088091A9088823BD
:1034B00039F08091B4088F5F8093B4081092A90806
:1034C0008091B408882309F446C0C091B6081092D0
:1034D000B40888E20E94E02ABC01990F880B990B7E
:1034E0001F921F921F9228E72F93A12CB12C6501E8
:1034F000EE24EA9413E0F12E00E010E020E030E04A
:10350000A9010E9422334B015C016C2F70E090E016
:1035100080E00E949F3423E333E343E35FE30E94B0
:103520002B356B017C01C501B4010E949F342AE94F
:1035300039E949E95EE30E942B359B01AC01C701E3
:10354000B6010E940D340E9471346093B6080F904A
:103550000F900F900F908091B608873670F124DF9E
:103560008091AD08882371F08FE08093BF0E809129
:10357000BF088230F1F090F48823B1F08130B9F0C7
:103580001092AD08CF911F910F91FF90EF90DF90B7
:10359000CF90BF90AF909F908F900895833059F057
:1035A000843071F795DAECCF0E942C12E9CF07D85E
:1035B000E7CFA2D8E5CFD0D9E3CF60E08FEB9EE094
:1035C0000E9424278FEB9EE00E94A70564EF71E024
:1035D00080E090E00E94782C8FE08093BF0E8FEF08
:1035E0008093C0081092C1081092C2088FEB9EE031
:1035F0000E94A70564EF71E080E090E0CF911F91F9
:103600000F91FF90EF90DF90CF90BF90AF909F9081
:103610008F900C94782C90E080E0089508952F927C
:103620003F924F925F926F927F928F929F92AF9252
:10363000BF92CF92DF92EF92FF920F931F93CF939F
:10364000DF9300D000D000D0CDB7DEB73C016A01D7
:103650003E832D83FC82EB825801A41AB50AB7FE83
:1036600003C0B194A194B1088D809E80861A970AF8
:1036700097FE03C09194819491088A149B045CF096
:10368000902F812F0D811E819D838E839C2D8D2DEA
:103690006B01692F782F0C151D055CF09D818E81C3
:1036A0007E836D83692F782F902F812F8601C92EFD
:1036B000D82E1601201A310A2B012D813E81421A83
:1036C000530A57FE03C0519441945108710137FECB
:1036D00003C03FEFE31AF30AF594E7948D819E81CE
:1036E000861797075CF5A1E0B0E0BA83A983C016FE
:1036F000D1064CF1D301ED91FC910484F585E02DC8
:103700002B813C81A8016D817E818A149B041CF071
:103710004D815E81B801C3010995E418F508F7FEF3
:103720000AC02D813E8189819A81280F391F3E83ED
:103730002D83E20CF31C0F5F1F4FD9CF2FEF3FEF0C
:103740003A832983D4CF26960FB6F894DEBF0FBEF6
:10375000CDBFDF91CF911F910F91FF90EF90DF9040
:10376000CF90BF90AF909F908F907F906F905F9021
:103770004F903F902F9008950895DC01ED91FC91BA
:103780000084F185E02D09940F931F93DC01ED91E6
:10379000FC91048CF58DE02D09951F910F910895F2
:1037A0000F931F93DC01ED91FC91068CF78DE02DBA
:1037B00009951F910F910895EF92FF920F931F9318
:1037C000DC01ED91FC9100A0F1A1E02D09951F9184
:1037D0000F91FF90EF9008958F929F92AF92BF92BA
:1037E000CF92DF92EF92FF920F931F93CF93DF93CD
:1037F000EC015B014A0169017801E881F9810284E9
:10380000F385E02D0995C80CD91C860101501109DA
:10381000E881F9810488F589E02D9501A401B501BD
:10382000CE010995E881F9810688F789E02DCE015E
:10383000DF91CF911F910F91FF90EF90DF90CF908C
:10384000BF90AF909F908F9009948F929F92AF926C
:10385000BF92CF92DF92EF92FF920F931F93CF937D
:10386000DF93EC015B014A016901E881F98102847F
:10387000F385E02D099595012C0D3D1D2150310951
:10388000E881F9810488F589E02D78018401A4019B
:10389000B501CE010995E881F9810688F789E02D07
:1038A000CE01DF91CF911F910F91FF90EF90DF90AC
:1038B000CF90BF90AF909F908F9009944F925F925E
:1038C0006F927F928F929F92AF92BF92CF92DF9230
:1038D000EF92FF920F931F93CF93DF936C012B0115
:1038E0005A0139014801DC01ED91FC910284F38514
:1038F000E02D0995E201640C751CD601ED91FC9157
:10390000C615D7055CF40088F189E02D8701940184
:10391000A501BE01C60109952196EFCF0688F7895A
:10392000E02DC601DF91CF911F910F91FF90EF9095
:10393000DF90CF90BF90AF909F908F907F906F90CF
:103940005F904F900994EF92FF920F931F93DC01C9
:1039500019960D911C911A9717962D913C911897D5
:10396000ED91FC9100A0F1A1E02D7B0150E040E041
:1039700070E060E009951F910F91FF90EF9008951E
:103980006F927F928F929F92AF92BF92CF92DF926F
:10399000EF92FF920F931F93CF93DF93EC016B0194
:1039A0005A0139014801E881F9810284F385E02D4B
:1039B0000995E881F9810288F389E02D8701930157
:1039C000A501B601CE010995A501480D591D41502B
:1039D0005109E881F9810288F389E02D9301B6014C
:1039E000CE010995E881F9810088F189E02D9401E3
:1039F000A501B601CE010995C60CD71CB6016150D0
:103A00007109E881F9810088F189E02D9401A5010F
:103A1000CE010995E881F9810688F789E02DCE016C
:103A2000DF91CF911F910F91FF90EF90DF90CF909A
:103A3000BF90AF909F908F907F906F900994089562
:103A40006F927F928F929F92AF92BF92CF92DF92AE
:103A5000EF92FF920F931F93CF93DF935C01EB01E3
:103A60006A01490138018701DC01ED91FC9162177F
:103A7000730719F5641675062CF0962D872D3A01FB
:103A8000C92ED82E9601261937092F5F3F4F048C77
:103A9000F58DE02DA301BE01C5010995DF91CF9100
:103AA0001F910F91FF90EF90DF90CF90BF90AF905C
:103AB0009F908F907F906F9008954615570591F4D1
:103AC0002617370724F0892D4B01C22FD82F9E01CE
:103AD000281939092F5F3F4F068CF78DE02DA6017D
:103AE000B401DACF0284F385E02D0995D501ED917B
:103AF000FC910488F589E02D83019401A601BE01A3
:103B0000C5010995D501ED91FC910688F789E02D55
:103B1000C501DF91CF911F910F91FF90EF90DF9042
:103B2000CF90BF90AF909F908F907F906F900994AF
:103B3000FC016370658B83819481258136816130BE
:103B400039F0633029F09087878332872187089581
:103B500030872783928781870895FC0112828FEF37
:103B600096E0918380837483638356834583708753
:103B7000678352874187158A1486138616861586B1
:103B800081E0848B838B2FEF3FEF328B218B308B47
:103B90002787868B178A118E108E08952F923F9259
:103BA0004F925F926F927F928F929F92AF92BF924D
:103BB000CF92DF92EF92FF920F931F93CF93DF93F9
:103BC000CDB7DEB72E970FB6F894DEBF0FBECDBFD0
:103BD0005C012B015C834B833E872D87FE82ED8247
:103BE000160181E090E04C01821A930AC901919577
:103BF000819591099C01220F331F3A832983C701C4
:103C0000019698878F83F12CE12C66246394712CA4
:103C1000902F9170998702700A87DA011196BC87FC
:103C2000AB872D853E85E216F3060CF08DC0CD8462
:103C3000DE8497FC0BC0690131E0C31AD108898189
:103C40009A8102969A838983880E991E9FEFE91ABA
:103C5000F90AA2E06A0E711C860C971CCE14DF04D0
:103C6000A4F1B985BB23B9F09601220F331F8F81D0
:103C70009885280F391FD501ED91FC910088F189B5
:103C8000E02D81014B815C814C195D09B2016E0D03
:103C90007F1DC5010995BA85BB23B9F09601220F96
:103CA000331F8F819885280F391FD501ED91FC9125
:103CB0000088F189E02D81014B815C814C195D09FF
:103CC000B2016E197F09C50109952D853E852C1518
:103CD0003D05B9F139853323C1F0930122503109F3
:103CE0008D819E81280F391FD501ED91FC910088AF
:103CF000F189E02D81014B855C854E195F096D8549
:103D00007E85640D751DC5010995BA85BB23C9F073
:103D10009301225031098D819E81280F391FB201F4
:103D2000AD85BE856A1B7B0BD501ED91FC910088AA
:103D3000F189E02D81014B855C854E195F09C50134
:103D40000995DE86CD866DCF2E960FB6F894DEBF30
:103D50000FBECDBFDF91CF911F910F91FF90EF90DC
:103D6000DF90CF90BF90AF909F908F907F906F909B
:103D70005F904F903F902F9008956F927F928F9217
:103D80009F92AF92BF92CF92DF92EF92FF920F93EA
:103D90001F93CF93DF93EC014B013A015901680166
:103DA000E881F9810284F385E02D09959501220FC0
:103DB000331F2F5F3F4FA3014A195B09E881F98147
:103DC0000088F189E02DB401CE010995F12CE12C98
:103DD00003E09501A301B401CE01E0DEE881F981A1
:103DE0000688F789E02DCE01DF91CF911F910F91C9
:103DF000FF90EF90DF90CF90BF90AF909F908F900B
:103E00007F906F9009942F923F924F925F926F92A2
:103E10007F928F929F92AF92BF92CF92DF92EF925A
:103E2000FF920F931F93CF93DF93CDB7DEB76A97BF
:103E30000FB6F894DEBF0FBECDBF9A8F898F7A83FD
:103E400069834A01D22E18870F833701BC2CDC010D
:103E500058962D913C9159972115310509F015C1BE
:103E600017968D919C911897681779070CF0D7C118
:103E700019968D919C91481759070CF0D0C14C2C84
:103E8000512CB6E0CB9E600D711D11247C876B8791
:103E9000161617060CF0C3C1EA2DF0E0FA87E98781
:103EA00093E0EE0FFF1F9A95E1F7F88BEF87CF01B4
:103EB000840F951F181619060CF0B1C1A98DBA8D83
:103EC00057968C91811104C0BFEABD1508F4D394B4
:103ED000A98DBA8DED91FC9111970284F385E02DA7
:103EE000CD010995B5E0DB9EC0011124E981FA817D
:103EF000FC83EB83312C212C9C0128563F4F388FBB
:103F00002F8B4A2D50E05E8B4D8BEF89F88DE20DA3
:103F1000F31D44919E828D82D12CC12C69817A81BE
:103F2000620D731D7A8B698B842F90E09C8B8B8B39
:103F3000E98DFA8DA081B18140FF82C0F1E0BF120E
:103F40006FC0AF126DC01C96ED91FC912F8138852A
:103F5000A4014C0D5D1D69897A89898D9A8D099519
:103F6000EB89FC89F595E7954E2F5FEFC51AD50AC9
:103F70006D817E818D899E89680F791F7E836D8317
:103F800098E0C916D10481F6AFEF2A1A3A0AEB81FC
:103F9000FC81E40DF51DFC83EB83F5E02F16310465
:103FA00009F0B3CF2F81388526153705B9F0A98DD3
:103FB000BA8DED91FC91B1E0BB1257C0AB1255C068
:103FC00069817A816B5F7F4F0088F189E02D8301E1
:103FD00028E030E0A401898D9A8D0995A98DBA8DCC
:103FE000ED91FC9111970688F789E02DCD016A9635
:103FF0000FB6F894DEBF0FBECDBFDF91CF911F91FA
:104000000F91FF90EF90DF90CF90BF90AF909F9077
:104010008F907F906F905F904F903F902F9009947A
:104020001E96ED91FC91EF80F88409851A85920126
:104030004D815E816B817C81898D9A8D099590CFB0
:104040002F8138852615370509F48ACF31E0B31260
:1040500007C0A31205C01C96ED91FC91930178CF87
:104060001E96ED91FC917301E0CF6B857C85641900
:1040700075090684F785E02D73010F851889920173
:10408000A401898D9A8D0995A9CFF901349694914F
:10409000329745915491D91AB7E0DB9E400D511DDE
:1040A0001124F901259134913C8B2B8BFA01259039
:1040B0003490FA013296749031963491398B32965D
:1040C00064903196449041E04C1518F04A1508F080
:1040D0007FC0662D062C000C770B7C836B83842DB0
:1040E000042C000C990B9E838D83A98DBA8DED91C4
:1040F000FC9111970284F385E02DCD010995512C97
:10410000D12CC12CEA2DF0E0FA87E9872B2D30E085
:104110003C872B87A401440D511D47FC5A95588FAD
:104120004F8B69817A81660D711D67FC7A957E8758
:104130006D877989C71608F051CF2C2D30E04D815D
:104140005E81420F531FA985BA854A9FC0014B9FCC
:10415000900D5A9F900D1124FC01E80DF91DF88B6C
:10416000EF87852D612C4F89588D420F531F5E8B31
:104170004D8B671408F050C044244394480E877058
:1041800041F4C1010196EB89FC89E20DF31DD49045
:104190001C01D7FE19C0A98DBA8DED91FC91662D39
:1041A00070E0B1E0BB1219C0AB1217C02D853E857F
:1041B000620F731F0484F585E02D2F8138854D89AA
:1041C0005E89898D9A8D0995DD0C6394842DD1CFFC
:1041D0001E821D821C821B8288CF4B815C81640FF2
:1041E000751FAB85BC856A9FC0016B9F900D7A9F40
:1041F000900D112469817A81680F791F0684F785F3
:10420000E02DEF80F88409851A859D014F85588936
:10421000898D9A8D0995D8CF570CC3948ACF6A9609
:104220000FB6F894DEBF0FBECDBFDF91CF911F91C7
:104230000F91FF90EF90DF90CF90BF90AF909F9045
:104240008F907F906F905F904F903F902F90089548
:104250008F929F92AF92CF92EF92FF920F931F9304
:10426000CF93DF93EC01262F888D998D009709F06D
:1042700050C06A30D1F41C861B868C8948E0849F2C
:10428000900111248D859E85820F931F9E878D87B7
:1042900081E090E0DF91CF911F910F91FF90EF901F
:1042A000CF90AF909F908F9008956D3089F3CB8819
:1042B000AC888E898823C1F08B859C8536E0C39EAF
:1042C000800D911D11244F8158854817590764F4BA
:1042D0004D855E851C861B8638E0A39EC001112497
:1042E000840F951F9E878D87E988FA880F85188926
:1042F0004D855E856B857C85CE0185DD2B898B8523
:104300009C8546E0249F800D911D11249C878B87FE
:10431000BFCF6A3069F41C861B86FC013696E49197
:104320002C898D859E85E29F800D911D1124AECF35
:104330006D3009F4ADCFFC0134963491631708F465
:10434000A7CF3196E491E61708F4A2CFFC0132968C
:1043500085909490462F431B342F47E0349F800C68
:10436000911C1124F401329634913196E491332357
:10437000A1F1EE2391F1CB88F4013596E491AC885C
:104380004E89442301F10E2E000CFF0BE30FF11DAB
:10439000CE9EA001CF9E500D11246B857C85460FCB
:1043A000571F6F817885641775076CF44D855E859E
:1043B0001C861B86FC013696E491AE9E400D511D75
:1043C00011245E874D87E988FA880F8518894D8505
:1043D0005E856B857C85CE0116DDF4013496E49113
:1043E0002B898B859C85E29F800D911D11248ECF9A
:1043F000611101C061E0FC01638B411101C041E02A
:10440000FC01448B0895462FF3CFFF920F931F9327
:10441000CF93DF93EC01F02E10E000E020D08BE290
:1044200097E099838883FE01E65EFE4FF082319625
:104430001082C45EDE4F1882DF91CF911F910F91E1
:10444000FF9008958D5D9E4FDC01ED91FC913097BA
:1044500009F009946091BF0E8FEB9EE0CDC3AF923F
:10446000BF92CF92DF92EF92FF920F931F93CF9361
:10447000DF93EC015B017A016901A901B7016DDBF2
:104480008EE897E099838883FE01E35EFE4FF18218
:10449000E0823296D182C082329680E197E29183A7
:1044A00080833696118210823A9610823C97B182B0
:1044B000A08232971183008339971082319610823F
:1044C00031961082C75DDE4FCE9CC001CF9C900D0F
:1044D000DE9C900D1124B0E0A0E088839983AA832C
:1044E000BB83DF91CF911F910F91FF90EF90DF90F1
:1044F000CF90BF90AF900895CF93DF93EC0163E529
:1045000077E08FE49FE00E946405FE01E35EFE4FCA
:104510004081518170E060E020E08FE49FE00E94E4
:10452000CB3062E777E08FE49FE00E946405FE01F4
:10453000E15EFE4F4081518170E060E020E08FE459
:104540009FE00E94CB306CE777E08FE49FE00E9411
:104550006405C75DDE4F488159816A817B8120E017
:104560008FE49FE00E94CB308FE49FE0DF91CF91FA
:104570000C94B130FC01EF2FFF27E695E695E69508
:10458000E852FA4F2491FC0135E0F695E7953A950B
:10459000E1F7EF73FF27E856FA4F64918F7199277F
:1045A000FC01E852FA4FE49170E090E080E0982F2F
:1045B000872F762F6627822B6E2B08958F929F92DE
:1045C000AF92BF92CF92DF92EF92FF92CF93DF93A1
:1045D000EC01CB01FE01EF5CFE4F2081222339F17B
:1045E000349760817181828130E020E0C12CD12C30
:1045F0007601DE01A75DBE4FCB5DDE4F8D909D90B5
:10460000AD90BC901397C814D904EA04FB0488F455
:10461000E881F981E20FF31F8083718362839FEF4A
:10462000C91AD90AE90AF90A2D5F3F4FE7CFA2DF7D
:10463000DBCFDF91CF91FF90EF90DF90CF90BF90D5
:10464000AF909F908F9008956F927F929F92AF92BC
:10465000BF92CF92DF92EF92FF920F931F93CF936F
:10466000DF93EC01CB018A0177FD0CC057FD0AC036
:104670002F813885621773072CF429853A854217F4
:1046800053079CF0C75DDE4F888199810197DF91C8
:10469000CF911F910F91FF90EF90DF90CF90BF903F
:1046A000AF909F907F906F9008952D892230D9F020
:1046B000233051F1213041F42B813C8121503109CB
:1046C000241B350B8B01C901FE01E95DFE4F0190F2
:1046D000F081E02D309709F1B801099550E040E0F4
:1046E000840F951FD4CF2B813C8121503109A90122
:1046F000461B570BCA012D813E8121503109F9011A
:10470000E01BF10B8F01E0CF2D813E81215031095B
:10471000261B370BCA018901D7CFFE01E65EFE4F8B
:10472000D080FD2DF370CF2EFE01E55EFE4FB080F0
:1047300050E040E0BB2009F464C03296E080F18094
:10474000B7010E949D359B01982EA92E329660805C
:104750007180C801B3010E949D35DB01582F492F9C
:10476000892D9A2D052F142FD5FE06C04B2D4150B3
:10477000550B421B530B9A01D4FE09C0AE01445E97
:104780005E4FFA0160816150770B6A1B7B0BD6FC90
:1047900011C04B2D50E0B62FA72FB9012B2F3A2F68
:1047A000D7FC0EC0249FD001259FB00D349FB00DC3
:1047B000112417C0DE01A45EBE4F4C9150E0F0CF33
:1047C00020FFF0CFAD2DA095A370CA2E2F5F3F4FD5
:1047D000249FD001259FB00D349FB00D112460950A
:1047E00070956A0F7B1FE69C9001E79C300DF69C4C
:1047F000300D1124269FA001279F500D369F500D8C
:10480000112498016C2D627059F0FE01E35EFE4F99
:104810006081718161507109FB01E81BF90BCF01C7
:10482000C0FE09C0FE01E15EFE4F208131812150B2
:104830003109201B310BD2FC13C0C35EDE4F6881EF
:104840007981F22FE32F9C018F2F9E2FD3FC0DC077
:10485000869FF001879FF00D969FF00D112411C0E7
:10486000C15EDE4F68817981F1CF80FFF1CF019683
:10487000869FF001879FF00D969FF00D11242095E3
:104880003095CF01820F931F2BCF9F92AF92BF9293
:10489000CF92DF92EF92FF920F931F93CF93DF930C
:1048A000EC0177FD2BC057FD29C08F8198856817D3
:1048B000790724F589859A8548175907FCF46A0118
:1048C0007B01FE01EF5CFE4F8081882319F1349754
:1048D000B080A1809280FE01EB5DFE4F00811181CE
:1048E000A601B701CE01B0DEFC01EE0FFF1FE80FFD
:1048F000F91FE00FF11F9082A182B282DF91CF9168
:104900001F910F91FF90EF90DF90CF90BF90AF90ED
:104910009F900895C9012EDEB62EA72E982EDBCFCC
:10492000895D9E4FFC01718360830895DA01FC016B
:1049300090E080E0861797076CF42C912083119605
:104940002C911197218312962C9112972283019614
:104950003396F0CF08950F931F93CF93DF93FC010D
:10496000842F82958F704F70EB01A82FAA0FA80F8C
:10497000A60FB72FB11D442319F031E0012B09F424
:1049800030E06C9111965C91119712969C91129760
:10499000332309F42AC08F3011F0ED01239642959C
:1049A000407F742F7095679F060E60E0611D38810F
:1049B000349F030E30E0311D630F579F050E50E00A
:1049C000511D3981349F030E30E0311D530F392FB3
:1049D000379F030E30E0311D9A81792F749F070EA7
:1049E00070E0711D932F970F11242F3FC1F02223E8
:1049F000F9F02F5F662321F0629F060E60E0611DD3
:104A0000552321F0529F050E50E0511D992331F09E
:104A1000392F329F030E30E0311D932F1124608314
:104A200051839283CF01DF91CF911F910F91089510
:104A300090E050E060E0F3CF7F928F929F92AF9230
:104A4000BF92CF92DF92EF92FF920F931F93CF937B
:104A5000DF93FC0169011082118212826623B9F191
:104A60008A01C1E0D0E0862E912CB12CA12CD80176
:104A70002D918D01222339F17E01B1E0EB1AF1086D
:104A8000D601AE0DBF1D7C907720E9F030E050E0FC
:104A900040E02F5F3F4F4F4F5F4FC501B4010E9471
:104AA0008E359B01AC01872D90E0B0E0A0E0BC0109
:104AB000CD016F5F7F4F8F4F9F4F0E948E35DF017B
:104AC000AE0DBF1D8C932196C430D10581F6CF0168
:104AD000DF91CF911F910F91FF90EF90DF90CF90DA
:104AE000BF90AF909F908F907F900895FC018FEFC3
:104AF000808312821182148613868FEF9FEFDC0170
:104B000087839087A187B2870895CF93DF93C09161
:104B1000BD0ED091BE0E209789F08A819B810097AF
:104B200049F02D853E85A901440F551F420F531FA3
:104B300060E0D0D20C80DD81C02DEDCFDF91CF9130
:104B40000895CF92DF92EF92FF92CF93DF93EC0123
:104B50002091B50E3091B60EC90101969093B60E14
:104B60008093B50E261737070CF43FC00FB6F894A4
:104B70002091CF0E3091D00E4091D10E5091D20E97
:104B80000FBEE8EEF3E08E9FB0018F9F700D9E9FE9
:104B9000700D1124072E000C880B990BC090B10EDC
:104BA000D090B20EE090B30EF090B40E2C193D09E7
:104BB0004E095F090E94C4353A8329831092B60ECC
:104BC0001092B50E0FB6F8948091CF0E9091D00E42
:104BD000A091D10EB091D20E0FBE8093B10E9093E2
:104BE000B20EA093B30EB093B40EDF91CF91FF90AD
:104BF000EF90DF90CF9008958F929F92AF92BF92E7
:104C0000CF92DF92EF92FF920F931F93CF93DF9398
:104C100000D01F92CDB7DEB77C01D62ED7011396F8
:104C20000D911D912D913C911697011511052105AE
:104C3000310591F07DD68090B70E9090B80EA0907F
:104C4000B90EB090BA0E681979098A099B096017E4
:104C500071078207930710F36BD66093B70E7093BA
:104C6000B80E8093B90E9093BA0ED7011B96ED91B2
:104C7000FC911C97309749F017964D915D916D917D
:104C80007C911A978D2D0995D82E0091BD0E10910B
:104C9000BE0E0115110561F1F801C484D70111960A
:104CA0008D919C918436910508F41486D801ED917C
:104CB000FC91A280B3809801275F3F4FA8014A5F13
:104CC0005F4F6D2DCE010196B7DEF8014585568503
:104CD000628173819E012F5F3F4FC801F5010995E5
:104CE000D8011C96CC921C9714960D911C91D1CF93
:104CF00069E170E0C70125DF0F900F900F90DF9101
:104D0000CF911F910F91FF90EF90DF90CF90BF90C8
:104D1000AF909F908F9008954F925F926F927F9285
:104D20008F929F92AF92BF92CF92DF92EF92FF92BB
:104D30000F931F93CF93DF9300D01F92CDB7DEB7B1
:104D40007C015B01D42ED70113960D911D912D91FD
:104D50003C911697011511052105310591F0E8D513
:104D60004090B70E5090B80E6090B90E7090BA0E89
:104D700064197509860997096017710782079307F7
:104D800010F3D6D56093B70E7093B80E8093B90E1A
:104D90009093BA0ED7011B96ED91FC911C9730971A
:104DA00049F017964D915D916D917C911A978D2DDB
:104DB0000995D82E0091BD0E1091BE0E011511055A
:104DC00059F1F801C484D70111968D919C918436D4
:104DD000910508F41486D801ED91FC9180809180B2
:104DE0009801275F3F4FA8014A5F5F4F6D2DCE01AD
:104DF000019622DEF801458556859E012F5F3F4FC3
:104E0000B501C801F4010995D8011C96CC921C97F4
:104E100014960D911C91D2CF69E170E0C70191DE2B
:104E20000F900F900F90DF91CF911F910F91FF90F6
:104E3000EF90DF90CF90BF90AF909F908F907F903A
:104E40006F905F904F9008950F931F93CF93DF93D0
:104E500000D01F92CDB7DEB78C01662341F01982D6
:104E60001A821B8240E0BE016F5F7F4F55DFC80191
:104E70004CDE0F900F900F90DF91CF911F910F910B
:104E80000895CF93DF93EC014423F1F06115710590
:104E9000C1F09B0150E040E060E472E48FE090E0FC
:104EA0000E94E6358B819C81AD81BE81821793077C
:104EB000A407B50710F4DA01C9018B839C83AD8385
:104EC000BE83DF91CF9108956115710571F09B014B
:104ED00050E040E060E472E48FE090E00E94E6354C
:104EE0002B833C834D835E83ECCF1B821C821D820F
:104EF0001E82E7CFCF92DF92EF92FF920F931F9324
:104F0000CF93DF93EC016B017A0110E000E0121601
:104F1000130614F48A017901E881F9810480F5818E
:104F2000E02DCE010995C801880F991F080F191FA0
:104F3000C00ED11EDB82CA82ED86FE86E881F98131
:104F40000284F385E02DCE01099541E0BC018FEB91
:104F50009EE097DFCE01DF91CF911F910F91FF90DF
:104F6000EF90DF90CF9008958FEB9EE0BFCD1F9321
:104F7000DC01FB017C9111964C91119712961C91CA
:104F8000972F990F990F990F35E5292F239F020E1F
:104F900020E0211D1124822F672F6074572F50723B
:104FA00077FD6FC061115BC0511105C0922F9095C4
:104FB000892F90E004C025E5280F90E08BEA4F3F51
:104FC00009F424C0442309F47DC0882331F0382F2C
:104FD000349F030E30E0311D832F222321F0249FC4
:104FE000020E20E0211D992331F0392F349F030E4A
:104FF00030E0311D932F1124342F3095339F030E51
:1050000030E0311D1124830F230F930F1F3F09F44C
:1050100021C030E0112321F0119F312D09F03F5FB5
:10502000332309F453C0882331F0482F439F040EE3
:1050300040E0411D842F222321F0239F020E20E017
:10504000211D992331F0492F439F040E40E0411D5B
:10505000942F11248083218392831F9108955111ED
:105060000BC0392F2AEA329F030E30E0311D112484
:105070009BEA931B280F9CCF90E02095982F80E00F
:105080009ECF611112C051110CC0392F2AEA329FF4
:10509000030E30E0311D11242BEA231B95E5930FFD
:1050A000EECF922F909520E08ACF511106C025E5D2
:1050B000280F9BEA981B822FF6CF2AEA280F90E050
:1050C000932FF8CF9FEF2FEF8FEFA0CF90E020E04E
:1050D00080E0C0CFDC0140FF03C001C06D936D9341
:1050E0004250E0F75040D0F70895FB01DC0140FF4B
:1050F00005C002C001900D9201900D924250D0F770
:105100005040C0F708958617970708F4EECF840F34
:10511000951F640F751FFB01DC0140FF05C002C035
:1051200002900E9202900E924250D0F75040C0F77B
:1051300008950F931F93CF93DF938230910510F45E
:1051400082E090E0E091590FF0915A0F30E020E0BA
:1051500070E060E0D0E0C0E0B0E0A0E0309799F40B
:105160002115310509F44AC0281B390B24303105BB
:10517000D8F58A819B816115710589F1FB019383C3
:105180008283FE0111C04081518102811381481741
:105190005907E0F04817590799F4109761F01296F3
:1051A0000C93129713961C933296CF01DF91CF91F7
:1051B0001F910F9108950093590F10935A0FF4CF38
:1051C0002115310551F04217530738F0A901DB01D1
:1051D0009A01BD01DF01F801C1CFEF01F9CF909332
:1051E0005A0F8093590FCDCFFE01E20FF31F819329
:1051F00091932250310939832883D7CF2091CC0E47
:105200003091CD0E232B41F420910C0130910D01F2
:105210003093CD0E2093CC0E20910A0130910B01DA
:105220002115310541F42DB73EB740910E01509143
:105230000F01241B350BE091CC0EF091CD0EE2173F
:10524000F307A0F42E1B3F0B2817390778F0AC01A9
:105250004E5F5F4F2417350748F04E0F5F1F509386
:10526000CD0E4093CC0E819391939FCFF0E0E0E080
:105270009CCFCF93DF930097E9F0FC013297138224
:105280001282A091590FB0915A0FED0130E020E049
:105290001097A1F420813181820F931F2091CC0EB1
:1052A0003091CD0E2817390709F061C0F093CD0E6B
:1052B000E093CC0EDF91CF910895EA01CE17DF077E
:1052C000E8F54A815B819E0141155105B1F7E9017D
:1052D000FB83EA8349915991C40FD51FEC17FD0751
:1052E00061F4808191810296840F951FE901998371
:1052F0008883828193819B838A83F0E0E0E0129629
:105300008D919C9113970097B9F52D913C91119730
:10531000CD010296820F931F2091CC0E3091CD0EBD
:105320002817390739F6309751F510925A0F109215
:10533000590FB093CD0EA093CC0EBCCFD383C283B4
:1053400040815181840F951FC817D90761F44E5FC2
:105350005F4F88819981480F591F518340838A810B
:105360009B81938382832115310509F0B0CFF0939F
:105370005A0FE093590F9ECFFD01DC01C0CF13827D
:105380001282D7CF4F925F926F927F928F929F92AD
:10539000AF92BF92CF92DF92EF92FF920F931F9343
:1053A000CF93DF938C01009791F4CB01DF91CF91E4
:1053B0001F910F91FF90EF90DF90CF90BF90AF9033
:1053C0009F908F907F906F905F904F90B2CEFC0136
:1053D000E60FF71F9C0122503109E217F30708F48A
:1053E000A5C0D901CD91DC911197C617D70718F147
:1053F000C530D10570F0CE0104978617970748F0A5
:10540000C61BD70B2297C193D1936D937C93CF0189
:1054100030DFC801DF91CF911F910F91FF90EF9086
:10542000DF90CF90BF90AF909F908F907F906F90C4
:105430005F904F9008955B01AC1ABD0A4C018C0E31
:105440009D1EA091590FB0915A0F512C412CF12C57
:10545000E12C109701F58091CC0E9091CD0E88151E
:10546000990509F056C04616570608F052C08DB788
:105470009EB740910E0150910F01841B950BE817C8
:10548000F90708F053C0F093CD0EE093CC0EF9016C
:1054900071836083BECF8D919C91119712966C9011
:1054A000129713967C901397A815B90559F56C01BE
:1054B00042E0C40ED11CCA14DB0420F1AC014A192D
:1054C0005B09DA011296159780F06282738251832C
:1054D0004083D9016D937C93E114F10471F0D701FD
:1054E0001396FC93EE93129794CF22968C0F9D1FE8
:1054F000F90191838083F301EFCFF0935A0FE0938A
:10550000590F87CF4816590608F42C017D01D301A5
:10551000A0CFCB010EDE7C01009741F0AE01B801B7
:105520000E94C836C801A5DE870173CF10E000E0F5
:1055300070CF1DBA109268001CBC10BE1FBA10922A
:105540007A0010926E0010926F001092700010920C
:1055500071001092C9001092BC0011B814B817B8AD
:105560001AB81DB810BA12B815B818B81BB81EB8BA
:1055700011BA0895F894E1E6F0E020E82083108263
:1055800083E084BD85BDEEE6F0E0808181608083AC
:1055900091E09093800082E0809381009093B0002E
:1055A0008093B100909390008093910086E880935F
:1055B0007A0020937B0010927E00D9D178940895D0
:1055C0009AED980F983010F1883060F490917E0039
:1055D00021E030E0082E01C0220F0A94EAF7922B56
:1055E00090937E008F7190911001892B80937C00A5
:1055F00080917A00806480937A0080917A0086FDA1
:10560000FCCF80917800909179000895892FDECFAA
:105610008E3270F4E8EFF6E0880FE80FF11D259167
:10562000E491F0E09FB7F8948181822B81839FBF42
:105630000895EE3250F4EE0FEA5DF44D0994EE3227
:1056400020F4EE0FEE57F44D09940895589AB6C021
:10565000599AD0C05A9A08955B9A08955C9A089511
:105660005D9A08955E9A08955F9A0895709A0895D4
:10567000719A0895409A0895419A0895429A08951A
:10568000439A0895449AC8C0459AC0C0469AB8C083
:10569000479A0895769A0895779A0895289A0895D2
:1056A000299A08952A9A08952B9A08952C9A9CC0B5
:1056B0002D9A88C02E9A8CC02F9A90C0109A089567
:1056C000119A0895129A0895139A0895149A0895B4
:1056D000159A0895169A0895179A0895749A089538
:1056E000759A0895889A0895899A08958A9A0895CE
:1056F0008B9A08958C9A08958D9A08958E9A08959C
:105700008F9A089558985AC0599874C05A98089515
:105710005B9808955C9808955D9808955E98089543
:105720005F98089570980895719808954098089525
:1057300041980895429808954398089544986CC0FC
:10574000459864C046985CC0479808957698089537
:105750007798089528980895299808952A98089583
:105760002B9808952C9840C02D982CC02E9830C0AE
:105770002F9834C01098089511980895129808959C
:1057800013980895149808951598089516980895F3
:1057900017980895749808957598089588980895AD
:1057A000899808958A9808958B9808958C980895FB
:1057B0008D9808958E9808958F980895E4B5EF7D9B
:1057C000E4BD0895E0918000EF77E09380000895B4
:1057D000E0918000EF7DE09380000895E0918000EB
:1057E000E77FE09380000895E091B000EF77E093C9
:1057F000B0000895E091B000EF7DE093B00008950F
:10580000E0919000EF77E09390000895E091900090
:10581000EF7DE09390000895E0919000E77FE093A2
:1058200090000895F89484B7877F84BF80916000CA
:105830008061809360001092600080E29EE4019796
:10584000F1F781E08093E00080E28093D80080E669
:105850009AEE0197F1F76DDE0C9400FEFFCFF894FD
:1058600068DE80E69AEE0197F1F70C940000FFCF16
:105870008F938FB78F938091CE0E8D5F8D37D0F43D
:105880008093CE0E8091CF0E8F5F8093CF0ED8F095
:105890008091D00E8F4F8093D00EA8F08091D10EC2
:1058A0008F4F8093D10E78F08091D20E8F4F8093DE
:1058B000D20E09C08D578093CE0E8091CF0E8E5F91
:1058C0008093CF0E28F78091D30E8C5F8093D30EF8
:1058D00058F08091D40E8F4F8093D40E28F0809191
:1058E000D50E8F4F8093D50E8F918FBF8F911895C6
:1058F000CF92DF92EF92FF926B017C0119D09B0156
:10590000C114D104E104F10429F4FF90EF90DF9079
:10591000CF9008950DD0621B730B683E734080F3E7
:1059200081E0C81AD108E108F10828513C4FE8CFBE
:105930000FB6F89466B515B27091D30E8091D40E5F
:105940009091D50E0FBE10FE05C06F3F19F07C5F21
:105950008F4F9F4F11240024660F001C660F001C00
:10596000702908958091E80080FFFCCF0895809110
:10597000D80087FF02C085FF1BC081E88093D70055
:1059800080EA8093D80086E189BD09B400FEFDCF8E
:1059900080E98093D8001092E00010925D0F109281
:1059A0005C0F10925B0F1092E1008DE08093E2009B
:1059B00008951F920F920FB60F9211240BB60F92FB
:1059C0002F933F934F935F936F937F938F939F9307
:1059D000AF93BF93EF93FF939091E1001092E1009A
:1059E00093FF11C01092E90081E08093EB001092C8
:1059F000EC0082E28093ED0088E08093F00010924A
:105A00005D0F10925B0F92FF1DC080915D0F882388
:105A1000C9F08091D90E882359F081508093D90E16
:105A2000811106C084E08093E9008AE38093E80056
:105A30008091D80E882331F081508093D80E811147
:105A400001C0F0DE90FF0CC080E18093E200109274
:105A50005D0F81E080935C0F80EA8093D80019BCD1
:105A600080915C0F882379F094FF0DC086E189BD99
:105A700009B400FEFDCF80E98093D8008DE08093CB
:105A8000E20010925C0FFF91EF91BF91AF919F9157
:105A90008F917F916F915F914F913F912F910F90D7
:105AA0000BBE0F900FBE0F901F9018951F920F9274
:105AB0000FB60F9211240BB60F92EF92FF920F9335
:105AC0001F932F933F934F935F936F937F938F9386
:105AD0009F93AF93BF93CF93DF93EF93FF93109276
