:10000000B5C30000DDC30000DBC30000D9C300009E
:10001000D7C30000D5C30000D3C30000D1C3000084
:10002000CFC30000CDC300000C94572B0C94D42BED
:10003000C7C30000C5C30000C3C30000C1C30000A4
:10004000BFC30000BDC30000BBC30000B9C30000B4
:10005000B7C30000B5C30000B3C300000C94B62AB8
:10006000AFC300000C94122E0C943D2E0C946E2EF7
:10007000A7C30000A5C30000A3C30000A1C30000E4
:100080000C940F0F9DC300009BC3000099C3000098
:1000900097C3000095C3000000000000003E5B4FC6
:1000A0005B3E3E6B4F6B3E1C3E7C3E1C183C7E3CD8
:1000B000181C577D571C1C5E7F5E1C00183C1800E6
:1000C000FFE7C3E7FF0018241800FFE7DBE7FF3076
:1000D000483A060E2629792926407F050507407FE4
:1000E00005253F5A3CE73C5A7F3E1C1C08081C1C57
:1000F0003E7F14227F22145F5F005F5F06097F014D
:100100007F006689956A606060606094A2FFA29437
:1001100008047E040810207E201008082A1C080805
:100120001C2A08081E101010100C1E0C1E0C303853
:100130003E3830060E3E0E06000000000000005F54
:1001400000000007000700147F147F14242A7F2A70
:100150001223130864623649562050000807030032
:10016000001C2241000041221C002A1C7F1C2A087E
:10017000083E0808008070300008080808080000E1
:1001800060600020100804023E5149453E00427F55
:10019000400072494949462141494D331814127FA4
:1001A0001027454545393C4A494931412111090744
:1001B0003649494936464949291E000014000000C5
:1001C0004034000000081422411414141414004197
:1001D00022140802015909063E415D594E7C121154
:1001E000127C7F494949363E414141227F4141418C
:1001F0003E7F494949417F090909013E4141517307
:100200007F0808087F00417F41002040413F017F77
:10021000081422417F404040407F021C027F7F043F
:1002200008107F3E4141413E7F090909063E415188
:10023000215E7F09192946264949493203017F0178
:10024000033F4040403F1F2040201F3F4038403F79
:10025000631408146303047804036159494D43008F
:100260007F4141410204081020004141417F0402C6
:10027000010204404040404000030708002054545D
:1002800078407F284444383844444428384444283B
:100290007F385454541800087E090218A4A49C788E
:1002A0007F0804047800447D40002040403D007FEA
:1002B0001028440000417F40007C047804787C08CA
:1002C0000404783844444438FC182424181824249E
:1002D00018FC7C08040408485454542404043F4483
:1002E000243C4040207C1C2040201C3C4030403CB2
:1002F00044281028444C9090907C4464544C440012
:100300000836410000007700000041360800020175
:100310000204023C2623263C1EA1A161123A404061
:10032000207A3854545559215555794122545478DE
:1003300042215554784020545579400C1E52721277
:100340003955555559395454545939555454580000
:1003500000457C410002457D420001457C407D1204
:1003600011127DF0282528F07C5455450020545466
:100370007C547C0A097F4932494949323A44444411
:100380003A324A4848303A4141217A3A424020784C
:10039000009DA0A07D3D4242423D3D4040403D3C4D
:1003A00024FF2424487E4943662B2FFC2F2BFF0972
:1003B00029F620C0887E0903205454794100004466
:1003C0007D413048484A32384040227A007A0A0A51
:1003D000727D0D19317D2629292F282629292926C4
:1003E00030484D4020380808080808080808382F09
:1003F00010C8ACBA2F102834FA00007B0000081493
:100400002A142222142A14085500550055AA55AA68
:1004100055AAFF55FF55FF000000FF00101010FF08
:1004200000141414FF001010FF00FF1010F010F063
:10043000141414FC001414F700FF0000FF00FF1454
:1004400014F404FC141417101F10101F101F1414A0
:10045000141F00101010F0000000001F10101010EA
:100460001F10101010F010000000FF1010101010DE
:1004700010101010FF10000000FF140000FF00FF1C
:1004800000001F10170000FC04F4141417101714B8
:1004900014F404F40000FF00F714141414141414DA
:1004A000F700F7141414171410101F101F1414144D
:1004B000F4141010F010F000001F101F0000001FB7
:1004C00014000000FC140000F010F01010FF10FFEA
:1004D000141414FF141010101F00000000F010FF7F
:1004E000FFFFFFFFF0F0F0F0F0FFFFFF0000000063
:1004F00000FFFF0F0F0F0F0F3844443844FC4A4AE7
:100500004A347E02020606027E027E02635549419B
:10051000633844443C04407E201E2006027E0202D2
:1005200099A5E7A5991C2A492A1C4C7201724C30E6
:100530004A4D4D303048784830BC625A463D3E49BD
:100540004949007E0101017E2A2A2A2A2A44445F61
:10055000444440514A444040444A51400000FF0155
:1005600003E080FF000008086B6B08361236243663
:10057000060F090F060000181800000010100030C8
:1005800040FF0101001F01011E00191D1712003C50
:100590003C3C3C000000000000010203040506088A
:1005A000090A0B0D0E1012131517191B1D202225F9
:1005B000272A2D3033373A3E4145494D52565B5F2D
:1005C00064696E74797F858B91979DA4ABB2B9C035
:1005D000C7CFD6DEE6EEF7FF000102030507090BE1
:1005E0000E1114181D22282E363D464F59646F7C7B
:1005F0008997A6B6C7D9EBFF0000FF00002AD500F7
:100600000055AB00007FAB0000ABAB0000D556003F
:1006100000FF00002AD5000055AB0000AA560000DC
:10062000FF000000D5002A00AB00550081007F00CC
:100630005500AB002B00D500012902290429082907
:100640001029202940298029012C022C012602266C
:10065000042608261026202640268026402C802CA2
:100660000123022304230823102320234023802373
:10067000012002200420082010202020402080207B
:10068000102C202C012F022F042F082F102F202F89
:10069000402F802F000100004507120002000002D9
:1006A000074300030000FE060401030904E40618E2
:1006B00002030904CC061603030904BE060C0C034E
:1006C00031003200330034003500000016035500BD
:1006D0005300420020005300650072006900610071
:1006E0006C00000018035400650065006E00730084
:1006F00079006400750069006E006F00000004035B
:10070000090409024300020100C03209040000018B
:100710000202010005240010010524010001042447
:1007200002060524060001070582030800400904AB
:100730000100020A0000000705030240000007054F
:1007400084024000001201000202000020C0168353
:10075000047202010203010001C10201803601811D
:100760003600F61756268C2E5131711811241FBEF3
:10077000CFEFD0E2DEBFCDBF17E0A0E0B1E0EEEEFC
:10078000FAE600E00BBF02C007900D92AA39B1074C
:10079000D9F72FE0AAE9B7E001C01D92AB31B2074B
:1007A000E1F713E0C5EBD3E004C02197FE010E94FE
:1007B0008034C13BD107C9F70E949D2E0C946B3544
:1007C0001FCCFC01858596850895CF93DF9300D0DB
:1007D00000D000D0CDB7DEB7AB011C821D821E82D7
:1007E000DC01ED91FC910190F081E02D19821A82DB
:1007F0001B829E012F5F3F4FBE016C5F7F4F0995AB
:1008000026960FB6F894DEBF0FBECDBFDF91CF9115
:1008100008956731710508F0EFC0FB01EE5EFB4FF4
:100820000C948034290434043C04490454045B04CB
:100830006204690473047D04870491049B04A50485
:10084000AF04B704BF04C604CD04D404DE04E80436
:10085000F20404978330910508F0CEC08E599C4F66
:10086000FC01808190E0089502978630910508F0A0
:10087000C3C0845A9C4FF4CF01978331910508F08F
:10088000BBC0880F991FFC01EA5CFC4F80819181FD
:10089000089501978531910508F0AEC0880F991F22
:1008A000FC01E45FFC4FF2CF8431910508F0A4C055
:1008B00088509D4FD5CF8431910508F09DC08C5153
:1008C0009D4FCECF8F30910508F096C08B529D4F33
:1008D000C7CF8F30910508F08FC0880F991FFC019A
:1008E000E954FD4FD3CF8F30910508F085C0880FB4
:1008F000991FFC01E756FD4FC9CF8F30910508F0D5
:100900007BC0880F991FFC01E558FD4FBFCF8F308A
:10091000910508F071C0880F991FFC01E35AFD4F43
:10092000B5CF8F30910508F067C0880F991FFC0183
:10093000E15CFD4FABCF8F30910508F05DC0880FB3
:10094000991FFC01EF5DFD4FA1CF8F30910508F09D
:1009500053C0880F991FFC01ED5FFD4F97CF0197A2
:100960008E30910508F048C08B509E4F79CF02978A
:100970008131910508F040C08C519E4F71CF019795
:1009800082319105C8F58E529E4F6ACF019783310F
:10099000910590F581549E4F63CF01978431910565
:1009A00058F585559E4F5CCF01978331910520F511
:1009B000880F991FFC01EB57FE4F68CF02978730D5
:1009C0009105D0F4880F991FFC01E958FE4F5ECFC6
:1009D00003978530910580F4880F991FFC01E35936
:1009E000FE4F54CF04978330910530F4880F991F40
:1009F000FC01E959FE4F4ACF8CE291E0089580E96D
:100A000091E008953A9A0895FB0101900020E9F7DA
:100A10003197AF01461B570BDC01ED91FC91028031
:100A2000F381E02D0994F0CF462F50E070E060E0B4
:100A300020E00C94492F0F931F93CF93DF93EC0189
:100A4000F3DF8C01CE010E942F2F800F911FDF91C9
:100A5000CF911F910F9108950F931F93DC01AC016B
:100A6000405D5F4FFB0105911591259134912C93C9
:100A700011961C93119712960C9312976C5F7F4FEF
:100A80001396A417B50771F71F910F910895FC01F4
:100A900060810C949E24FC0140810C942E25DC0185
:100AA000ED91FC9102A0F3A1E02D70E060E00994CB
:100AB00024E030E040E050E061E070E080E090E071
:100AC0000E9483316230710531F06330710531F07D
:100AD00090E080E008958FE790E008958FEF90E038
:100AE000089527E030E040E050E061E070E080E011
:100AF00090E00E948331615071096730710540F4C4
:100B0000660F771FFB01E75AFE4F808191810895A0
:100B100090E080E0089529E030E040E050E061E0BE
:100B200070E080E090E00E9483316150710967308D
:100B3000710540F4660F771FFB01E55BFE4F808176
:100B40009181089590E080E008950F931F93CF93D3
:100B5000DF938C01C62F80916C0881110EC061E07B
:100B60008FE79EE00E94C6251093070100930601BF
:100B7000C0936B0881E080936C0880912908909164
:100B80002A08892B49F494DF80932D0891DF809304
:100B90002C088EDF80932B08C0912B08D0912C0855
:100BA00010912D0826E131E040E050E060E070E077
:100BB000CB010E948331FB01EE0FFF1FE60FF71FF1
:100BC000E058F74F1083D183C28323E030E040E048
:100BD00050E060E070E0CB010E948331613071052C
:100BE0008105910599F426E131E040E050E060E0B4
:100BF00070E0CB010E948331FB01EE0FFF1FE60F77
:100C0000F71FE058F74F1082118212828FE79EE0A3
:100C10003EDF809172089091730888399A43F0F012
:100C2000109273081092720884E00E945E290E945C
:100C300064318091290890912A08019684309105A9
:100C400091F090932A088093290832DF80932D0831
:100C50002FDF80932C082CDF80932B08DF91CF911E
:100C60001F910F91089581E090E0EBCF0F931F93B8
:100C7000CF93DF938C01C62F80916C0881110EC039
:100C800061E08FE79EE00E94C62510930701009364
:100C90000601C0936B0881E080936C0860E08FE7E9
:100CA0009EE00E94C6258FEF80937F0E01DFC82F44
:100CB000FFDED82FFDDE182F26E131E040E050E0C6
:100CC00060E070E0CB010E948331FB01EE0FFF1F5B
:100CD000E60FF71FE058F74F1083D183C2838FE7E9
:100CE0009EE0DF91CF911F910F91D1CECF92DF92F5
:100CF000FF920F931F93CF93DF9300D01F92CDB736
:100D0000DEB76C01F62E8A0180916C08811112C049
:100D100061E08FE79EE00E94C625D0920701C09255
:100D20000601F0926B0881E080936C0810937308C1
:100D30000093720880917208909173088017910750
:100D400078F11092730810927208B2DE80932D0829
:100D5000AFDE80932C08ACDE80932B0890912D0899
:100D600091110FC090912C0891110BC0811109C0F5
:100D70009FDE80932D089CDE80932C0899DE809363
:100D80002B0880912B0890912C0820912D08298305
:100D90009A838B83BE016F5F7F4F8FE79EE07BDE80
:100DA0000F900F900F90DF91CF911F910F91FF90B7
:100DB000DF90CF900895AF92BF92CF92DF92EF92E3
:100DC000FF920F931F93CF93DF9300D01F92CDB765
:100DD000DEB75C01F62E6A01122F80916C0881113A
:100DE00012C061E08FE79EE00E94C625B092070125
:100DF000A0920601F0926B0881E080936C08D0927B
:100E00007308C092720880917208909173088C15D3
:100E10009D0598F0109273081092720880917508E1
:100E20008823C9F019830A83EB82BE016F5F7F4F6D
:100E30008FE79EE030DE109275080F900F900F90B4
:100E4000DF91CF911F910F91FF90EF90DF90CF90A6
:100E5000BF90AF90089519821A821B82BE016F5F06
:100E60007F4F8FE79EE017DE81E080937508E5CF26
:100E7000EF92FF920F931F93CF938C01C62F809117
:100E80006C0881110EC061E08FE79EE00E94C625CC
:100E90001093070100930601C0936B0881E08093D3
:100EA0006C0860916308709164089B012F5F3F4F4D
:100EB0004091620880916E0E90916F0E411152C068
:100EC0003093640820936308273131051CF021E03A
:100ED000209362089B012D5F3F4FDC01ED91FC9157
:100EE00000A0F1A1E02DE12C58EFF52E07E110E074
:100EF00050E040E0099580916E0E90916F0E6091E8
:100F00006308709164089B012F5F3F4FDC01ED91F6
:100F1000FC9100A0F1A1E02DEE24EA94FE2C50E01B
:100F200040E0099580916E0E90916F0E609163087C
:100F3000709164089B012250310965507109DC01F0
:100F4000ED91FC9100A0F1A1E02DF12CE12C50E0FD
:100F500040E009958FE79EE0CF911F910F91FF90A0
:100F6000EF9095CD615071097093640860936308A8
:100F70006E3FBFEF7B0714F410926208DC01ED9125
:100F8000FC9100A0F1A1E02DE12C48EFF42E07E147
:100F900010E050E040E0099580916E0E90916F0E48
:100FA00060916308709164089B012C5F3F4F6E5FF6
:100FB0007F4FC5CF8F929F92AF92BF92CF92DF9219
:100FC000EF92FF920F931F93CF93DF937C01EB017E
:100FD000142F80916C08811118C061E08FE79EE0AA
:100FE0000E94C625F0920701E092060110936B085B
:100FF00081E080936C0875DD90937E0880937D0876
:1010000070DD90937C0880937B081C161D06ACF461
:1010100080917208909173088C179D0770F0109260
:101020007308109272085DDD90937E0880937D08AE
:1010300058DD90937C0880937B08809163089091A1
:10104000640801968A3091050CF0FCC09093640806
:101050008093630860E08FE79EE00E94C625809140
:101060006E0E90916F0E4091630850916408E0906D
:101070007D08F0907E089A01265F3F4F6AE0A62E19
:10108000B12CB501641B750BDC01ED91FC9104A042
:10109000F5A1E02D06E110E050E040E009958091D7
:1010A0006E0E90916F0E4091630850916408E0902D
:1010B0007B08F0907C089A01255F3F4F7BE0872EEC
:1010C000912CB401641B750BDC01ED91FC9104A023
:1010D000F5A1E02D50E040E0099580916E0E9091D1
:1010E0006F0E4091630850916408E0907D08F09085
:1010F0007E08E6E1CE2ED12C041B150B4F5F5F4F0F
:10110000DC01ED91FC9104A0F5A1E02D25E130E09A
:1011100070E060E0099580916E0E90916F0E4091A5
:10112000630850916408E0907B08F0907C08C5E16A
:10113000D0E08E01041B150BDC01ED91FC9104A0A5
:10114000F5A1E02D25E130E070E060E009958091A7
:101150006E0E90916F0E4091630850916408E0907C
:101160007D08F0907E088401041B150B455F5F4FDE
:10117000DC01ED91FC9104A0F5A1E02D25E130E02A
:1011800070E060E0099580916E0E90916F0E409135
:10119000630850916408E0907B08F0907C0885011A
:1011A000041B150B465F5F4FDC01ED91FC9104A021
:1011B000F5A1E02D25E130E070E060E00995809137
:1011C0006E0E90916F0E6091630870916408E090CC
:1011D0007D08F0907E089601261B370BDC01ED910F
:1011E000FC9104A0F5A1E02D10E000E046E150E004
:1011F000099580916E0E90916F0E609163087091C9
:101200006408E0907B08F0907C089E01261B370B59
:1012100061507109DC01ED91FC9104A0F5A1E02D74
:1012200046E150E009958FE79EE0DF91CF911F9155
:101230000F91FF90EF90DF90CF90BF90AF909F9075
:101240008F9025CC109264081092630803CF462F2C
:1012500070E060E0AFCE0F931F93CF938C01C62F49
:1012600080916C0881110EC061E08FE79EE00E94C2
:10127000C6251093070100930601C0936B0881E017
:1012800080936C0860E08FE79EE00E94C6258FE7A0
:101290009EE0CF911F910F91FACB8F929F92AF92C8
:1012A000BF92CF92DF92EF92FF920F931F93CF9353
:1012B000DF937C01162FEA0180916C08811112C026
:1012C00061E08FE79EE00E94C625F0920701E09260
:1012D000060110936B0881E080936C08D09373082B
:1012E000C093720880917208909173088C179D07C3
:1012F000E0F11092730810927208C0916E0ED091B6
:101300006F0E09DC8C012AE030E040E050E063E041
:1013100070E080E090E00E9483314B0126E130E0F4
:1013200040E050E060E070E0CB010E9483316B014F
:1013300025E130E040E050E060E070E0CB010E9449
:1013400083319401A601CE010E94741D8FE79EE0B7
:10135000DF91CF911F910F91FF90EF90DF90CF9091
:10136000BF90AF909F908F9092CBDF91CF911F91C4
:101370000F91FF90EF90DF90CF90BF90AF909F9034
:101380008F900895CF92DF92EF92FF920F931F9369
:10139000CF93DF936C01F62EEA0180916C088111E6
:1013A00012C061E08FE79EE00E94C625D09207013F
:1013B000C0920601F0926B0881E080936C08D09394
:1013C0007308C093720880917208909173088C170B
:1013D0009D0708F472C0109273081092720825E1FC
:1013E00030E040E050E060E070E0CB010E948331EB
:1013F000C62F25E130E040E050E060E070E0CB0136
:101400000E948331C62E6DDB90937E0880937D0809
:1014100060E08FE79EE00E94C62580916E0E90915D
:101420006F0ED12CD0E0E0907D08F0907E08960100
:1014300021503109BE0161507109DC01ED91FC912F
:1014400004A0F5A1E02D06E110E050E040E0099590
:1014500080916E0E90916F0EE0907D08F0907E0866
:10146000DC01ED91FC9104A0F5A1E02D960150E086
:1014700040E0BE01099580916E0E90916F0EE09054
:101480007D08F0907E0896012F5F3F4FBE016F5F91
:101490007F4FDC01ED91FC9104A0F5A1E02D50E01F
:1014A00040E009958FE79EE0DF91CF911F910F916A
:1014B000FF90EF90DF90CF90EACADF91CF911F911C
:1014C0000F91FF90EF90DF90CF900895CF92DF9231
:1014D000EF92FF920F931F93CF93DF938C01C62F50
:1014E00080916C0881110EC061E08FE79EE00E9440
:1014F000C6251093070100930601C0936B0881E095
:1015000080936C0860E08FE79EE00E94C625809182
:101510006008909161088230910509F459C07CF40B
:10152000009739F10197E1F18FE79EE0DF91CF91CC
:101530001F910F91FF90EF90DF90CF90A8CA843059
:10154000910509F49AC00CF472C0059769F780916F
:1015500063089091640801979093640880936308EE
:10156000181619060CF49DC01092610810926008BC
:1015700012C080916308909164080196909364086A
:10158000809363084A970CF461C081E090E09093E7
:101590006108809360081092640810926308C4CFB9
:1015A00080916308909164080196909364088093F9
:1015B00063080C9714F182E090E0909361088093A7
:1015C00060088CE090E09093640880936308ACCF4F
:1015D00080916308909164080197909364088093C8
:1015E0006308181619064CF083E090E090936108A8
:1015F0008093600889E190E0E6CFC0916E0ED091B3
:101600006F0EE881F981C4A0D5A06BDA4091630820
:101610005091640806E110E0041B150B7C0130E0DA
:1016200020E069E170E0CE01F60109957DCF80915F
:10163000630890916408019790936408809363080D
:10164000181619061CF084E090E0A1CFC0916E0E30
:10165000D0916F0EE881F981C4A0D5A042DA6091E3
:1016600063087091640829E130E0261B370B7C0188
:1016700006E110E050E040E0D6CF80916308909101
:101680006408019690936408809363080B974CF06C
:1016900085E090E090936108809360088AE090E094
:1016A00092CFC0916E0ED0916F0EE881F981C4A0E7
:1016B000D5A017DA409163085091640806E110E064
:1016C000041B150B7C0129E130E070E060E0ABCF3A
:1016D000CF92DF92EF92FF920F931F93CF93DF93FE
:1016E0008C01C62F80916C0881110EC061E08FE7DC
:1016F0009EE00E94C6251093070100930601C09347
:101700006B0881E080936C0860E08FE79EE00E94A8
:10171000C62580916208E0916308F0916408811108
:1017200008C1E930F10528F5E856F44F0C948034EF
:10173000A10BD30BEC0B050C1E0C370C4F0C680CDB
:10174000810CCFE1D6E00BEB16E0E990F990B0D92F
:10175000D82EAED9C82EACD9F701EE0FFF1FEE0D73
:10176000FF1DE058F74F8083C182D2820C171D07FE
:1017700061F78FE79EE08BD98091630890916408B0
:101780000196909364088093630809971CF081E0A8
:1017900080936208DF91CF911F910F91FF90EF909E
:1017A000DF90CF900895C3E9D5E00FE116E0E9900E
:1017B000F9907ED9D82E7CD9C82E7AD9F701EE0FB0
:1017C000FF1FEE0DFF1DE058F74F8083C182D282CC
:1017D0000C171D0761F7CDCFC7E2D5E003E915E08F
:1017E000E990F99065D9D82E63D9C82E61D9F7014F
:1017F000EE0FFF1FEE0DFF1DE058F74F8083C182F3
:10180000D2820C171D0761F7B4CFCDEDD4E007E20B
:1018100015E0E990F9904CD9D82E4AD9C82E48D96C
:10182000F701EE0FFF1FEE0DFF1DE058F74F80830D
:10183000C182D2820C171D0761F79BCFCDE9D4E09E
:101840000DED14E0E990F99033D9D82E31D9C82E96
:101850002FD9F701EE0FFF1FEE0DFF1DE058F74FD8
:101860008083C182D2820C171D0761F782CFC1E647
:10187000D4E0099119911CD9F82E1AD9E82E18D95B
:10188000F801EE0FFF1FE00FF11FE058F74F8083C4
:10189000E182F28284E0CD39D80759F76ACFCBE2F2
:1018A000D4E001E614E0E990F99002D9D82E00D9ED
:1018B000C82EFED8F701EE0FFF1FEE0DFF1DE058FA
:1018C000F74F8083C182D2820C171D0761F751CF79
:1018D000C7EFD3E00BE214E0E990F990E9D8D82EF5
:1018E000E7D8C82EE5D8F701EE0FFF1FEE0DFF1D5C
:1018F000E058F74F8083C182D2820C171D0761F731
:1019000038CFC7ECD3E009911991D2D8F82ED0D8AE
:10191000E82ECED8F801EE0FFF1FE00FF11FE058C0
:10192000F74F8083E182F28283E0C73FD80759F7FF
:1019300020CFE930F10520F5E056F34F0C948034C8
:10194000A90CD30CEB0C030D1B0D330D4B0D630DCC
:101950007E0DCFE1D6E009911991AAD8F82EA8D82A
:10196000E82EA6D8F801EE0FFF1FE00FF11FE05898
:10197000F74F8083E182F28286E0CB3BD80759F7AC
:101980008FE79EE084D88091630890916408019766
:101990009093640880936308181619060CF4FACE25
:1019A00010926208F7CEC3E9D5E00991199180D869
:1019B000F82E7ED8E82E7CD8F801EE0FFF1FE00F3E
:1019C000F11FE058F74F8083E182F28286E0CF3149
:1019D000D80759F7D5CFC7E2D5E00991199168D852
:1019E000F82E66D8E82E64D8F801EE0FFF1FE00F3E
:1019F000F11FE058F74F8083E182F28285E0C3391E
:101A0000D80759F7BDCFCDEDD4E00991199150D841
:101A1000F82E4ED8E82E4CD8F801EE0FFF1FE00F3D
:101A2000F11FE058F74F8083E182F28285E0C732F0
:101A3000D80759F7A5CFCDE9D4E00991199138D845
:101A4000F82E36D8E82E34D8F801EE0FFF1FE00F3D
:101A5000F11FE058F74F8083E182F28284E0CD3DB0
:101A6000D80759F78DCFC1E6D4E00991199120D854
:101A7000F82E1ED8E82E1CD8F801EE0FFF1FE00F3D
:101A8000F11FE058F74F8083E182F28284E0CD3984
:101A9000D80759F775CFCBE2D4E00991199108D84E
:101AA000F82E06D8E82E04D8F801EE0FFF1FE00F3D
:101AB000F11FE058F74F8083E182F28284E0C13663
:101AC000D80759F75DCFC7EFD3E0099119910E946C
:101AD0005805F82E0E945805E82E0E945805F80176
:101AE000EE0FFF1FE00FF11FE058F74F8083E182F8
:101AF000F28284E0CB32D80741F742CFC7ECD3E083
:101B0000099119910E945805F82E0E945805E82E57
:101B10000E945805F801EE0FFF1FE00FF11FE0587B
:101B2000F74F8083E182F28283E0C73FD80741F715
:101B300027CFCF92DF92FF920F931F93CF93DF9324
:101B40008C016B01EA01F22E80916C0881111AC0A0
:101B500061E08FE79EE00E94C625D0920701C09207
:101B60000601F0926B0881E080936C0884E690E0B7
:101B7000909373088093720887E190E09093050139
:101B800080930401809172089091730884369105C6
:101B900008F45EC0109273081092720885E080937A
:101BA0007F0E80916E0E90916F0E0E944F05809176
:101BB0006E0E90916F0EDC0156961C9261E00E94B1
:101BC000BA2080916E0E90916F0EDC01ED91FC9128
:101BD000008CF18DE02D60E00995809104019091D9
:101BE00005010197863ABFEF9B077CF190930501B1
:101BF000809304010E94893280916E0E90916F0E45
:101C00000E944F05E0916E0EF0916F0E80910401DD
:101C100090910501948783878DE090E09687858772
:101C2000D28BC18BD08BC787B801CF010E94DA2E2F
:101C300080916E0E90916F0EDF91CF911F910F9159
:101C4000FF90DF90CF900C94D92087E190E0CECF29
:101C5000DF91CF911F910F91FF90DF90CF9008956A
:101C60008F929F92AF92BF92CF92DF92EF920F939B
:101C70001F93CF93DF93EC015B016A0149018091CF
:101C80006C08811116C061E08FE79EE00E94C625B6
:101C90009092070180920601E0926B0881E08093A8
:101CA0006C081092280810922708D0927308C092EE
:101CB000720880917208909173088C159D0508F444
:101CC0005BC010927308109272088091270890915F
:101CD0002808A816B9060CF44FC085E080937F0E43
:101CE00080916E0E90916F0E0E944F0580916E0E46
:101CF00090916F0EDC0156961C9261E00E94BA2012
:101D000080916E0E90916F0EDC01ED91FC91008C34
:101D1000F18DE02D60E009950E948932E0916E0E10
:101D2000F0916F0E82E090E0948783878DE090E0E1
:101D300096878587128B018B108B078780912708E8
:101D40009091280827E0289FB001299F700D112449
:101D50006C0F7D1FCF010E94DA2E80916E0E909144
:101D60006F0E0E94D9208091270890912808019633
:101D70009093280880932708DF91CF911F910F91AE
:101D8000EF90DF90CF90BF90AF909F908F9008958D
:101D9000DF92EF92FF920F931F93CF93DF9300D0C8
:101DA0001F92CDB7DEB7D82E80E8E82E88E0F82E57
:101DB00000912E0810912F0825E04D2D60E378E06A
:101DC000CE0101960E944D238981F70180838A818B
:101DD00081838B818283F3E0DF0E83E0E80EF11CC8
:101DE000E2ECEE16EBE0FE0619F70F900F900F9065
:101DF000DF91CF911F910F91FF90EF90DF900895A9
:101E0000109290008BE0809391008AE698E1909385
:101E100099008093980082E08093710008951F924A
:101E20000F920FB60F9211242F933F938F939F938E
:101E300080917208909173084996909373088093EB
:101E4000720880916E0890916F08499690936F0880
:101E500080936E08809170089091710849969093D4
:101E600071088093700891E090936D088BB120E425
:101E700082278BB920916E0830916F08283E33403D
:101E800030F010926F0810926E08909369082091BC
:101E90007008309171088091060190910701281710
:101EA0003907C0F080916B0880936A08109273081C
:101EB00010927208109271081092700810926408C3
:101EC0001092630887E190E09093050180930401EC
:101ED00010926C089F918F913F912F910F900FBEA0
:101EE0000F901F901895109273081092720810921C
:101EF00071081092700810922A0810922908109206
:101F00002608109225081092240810926408109256
:101F1000630880937F0810926A0810926C0869E148
:101F200071E08FE09FE00E9404058FE09FE00C9439
:101F30002F2FAF92BF92CF92DF92EF92FF920F932B
:101F40001F93CF93DF9368EE73E080E090E00E94F0
:101F5000F62A4FEF60E470E08AE99EE00E94D92DF6
:101F6000569A88E20E945E29BC01990F880B990B52
:101F70001F921F921F9228E72F93A12CB12C65016D
:101F8000EE24EA9413E0F12E00E010E020E030E0CF
:101F9000A9010E94A0316093760882E391E00E943B
:101FA000A32EEC010AE027E130E046E150E060E8D2
:101FB00078E00E94BC20D0936F0EC0936E0E80918B
:101FC0009B070F900F900F900F9081114DC08BE9E0
:101FD00097E00E94A42E892B09F446C01092A60710
:101FE0001092A5078FEF8093A9078093AA0780938B
:101FF000AB078093AC078093AD078093AE0781E079
:102000008093AF071092B1071092B0071092A80703
:102010001092A70780917D0E90917E0E892B31F44E
:1020200083EA97E090937E0E80937D0EE0917B0E85
:10203000F0917C0E309721F083EA97E095838483BA
:1020400083EA97E090937C0E80937B0E1092B30707
:102050001092B20789E693E09093A4078093A307B8
:102060008BE997E00E94AD2E30E020E04AEF51E08E
:1020700060E878E083EA97E00E941C26FC018FEF7D
:10208000868380EB878380EF808780916E0E9091AE
:102090006F0E0E94332180916E0E90916F0E25E09D
:1020A00020937F0EFC01168A69E074E00E944723AA
:1020B000F894A6DE789468EF75E080E398E00E94DB
:1020C0002C0581E090E090932F0880932E0880E00B
:1020D000DF91CF911F910F91FF90EF90DF90CF9004
:1020E000BF90AF9000CFEF92FF920F931F9380911C
:1020F0006A08863009F463C0E8F4823009F451C0FC
:1021000050F48823E9F1813009F442C01F910F9106
:10211000FF90EF900895843009F447C064E0853063
:1021200080F166E080E395E71F910F91FF90EF90BB
:102130000C943606893009F45AC080F4873009F4CB
:1021400047C049EA51E069E0883001F782E890E64B
:102150001F910F91FF90EF900C9476068B3009F44D
:1021600059C008F448C0843689F660E08FE79EE0E5
:102170000E94C62580E01F910F91FF90EF90B3CE93
:1021800061E086E297E31F910F91FF90EF905FC8A7
:1021900062E08BE49EE61F910F91FF90EF900C940C
:1021A000380749EA51E063E0D1CF49EA51E065E000
:1021B0008BE49EE61F910F91FF90EF90E3C867E0DC
:1021C0008BE49EE61F910F91FF90EF900C94A50574
:1021D000EE24EA94F12C0FEF10E02FEF30E04BE407
:1021E00050E068E089EC9DE00E94DB068FCF6AE05A
:1021F00088EB92E599CF0E9458057C010E94580512
:102200008C010E9458059C014BE450E06BE086E293
:1022100097E3EACF64E68FEF9FEFD4CFEF92FF9280
:102220000F931F9380916A08873309F4D2C008F096
:1022300040C0893109F4B0C018F58A3009F49AC059
:1022400058F4882309F482C0853009F488C01F91AE
:102250000F91FF90EF9008958F3009F494C084316E
:10226000B1F70E94710559E1E52E8C0126E337E0B4
:1022700045E451E066E070E084EB97E0F1DCE7CF05
:10228000883209F4A0C058F48E3109F48BC083322F
:10229000F1F642EC51E068E281EB99E365C08D32E2
:1022A00009F493C0823399F60E94710547E3E42E46
:1022B000DCCF8B3409F4BDC028F58C3309F4A1C000
:1022C00060F4883309F490C08A3309F0C0CF42EC3F
:1022D00051E06CE381EB99E381C0813409F49CC047
:1022E000863409F0B4CF0E9458057C010E9458053D
:1022F0008C010E9458059C0142E350E06BE480E7AA
:1023000097E15EC08A3509F4A7C078F4803509F4F6
:1023100096C0853509F09BCF6AE582E693E71F9169
:102320000F91FF90EF900C9436068F3509F49AC008
:10233000843609F08CCF60E08FE79EE00E94C625CE
:1023400080E01F910F91FF90EF90CDCD65E084E587
:102350009FE41F910F91FF90EF900C94A5054DE91C
:1023600053E06AE089ED9CE11F910F91FF90EF909F
:102370000C944D096FE082E693E71F910F91FF9057
:10238000EF900C94380764E187EE90E41F910F9171
:10239000FF90EF900C942B0942EC51E06EE18BE73B
:1023A00092E3E2CF0E9458057C010E9458058C01FF
:1023B0000E9458059C0142E350E063E286E397E007
:1023C0000E94DB0644CF6DE2D6CF62E38BE792E357
:1023D000DDCF42EC51E068E38BE792E31F910F9170
:1023E000FF90EF900C94C2090E9458057C010E9456
:1023F00058058C010E9458059C0142E350E06AE3B5
:10240000DDCF41E46AE377E086E89DE41F910F9118
:10241000FF90EF900C94DA07EE24EA94F12C0FEF82
:1024200010E02FEF30E042E350E066E48CE69EE0FF
:10243000C7CF40E56AE377E081EB99E3E7CF0E94FD
:1024400058057C010E9458058C010E9458059C018A
:1024500042E350E065E5EACF42EC51E06FE587ECFE
:102460009FE682CF0E94710529E0E22E8C0120E6D2
:102470003AEE45E451E064E670E0FECEEF92FF9262
:102480000F931F9380916A08863009F475C018F580
:10249000823009F45AC058F4882309F440C08130CE
:1024A00009F448C01F910F91FF90EF900895843078
:1024B00009F45CC008F454C00E94710526E0E22EC5
:1024C0008C012BE236E14BED51E06AE070E08EEDDD
:1024D00097E0C6DBE7CF8A3009F46EC070F488302D
:1024E00009F464C008F453C06AE080EB9DE11F91D9
:1024F0000F91FF90EF900C9436068C3009F471C068
:1025000008F460C0843671F660E08FE79EE00E94B8
:10251000C62580E01F910F91FF90EF90E4CC46EB31
:1025200053E061E08BE097E71F910F91FF90EF90F0
:102530000C944D094BED51E062E084E892EB1F9161
:102540000F91FF90EF900C94C20946EB53E063E0CB
:102550008BE097E71F910F91FF90EF900C94760618
:1025600046EB53E064E089E79BE3DECF4BED51E0BF
:1025700065E08BE097E7E3CF47E06CE677E087EC38
:1025800090E61F910F91FF90EF900C94DA07EE24E4
:10259000EA94F12C0FEF10E02FEF30E04BE450E025
:1025A00068E089E79BE30E94DB067CCF48EB53E0C1
:1025B00069E089E79BE3CECF46EB53E06BE080EB2D
:1025C0009DE1C8CF0E9458057C010E9458058C01EE
:1025D0000E9458059C014BE450E06CE080EB9DE1CB
:1025E000E2CF64E68FEF9FEF1F910F91FF90EF9086
:1025F0000C94A505EF92FF920F931F9380916A08A8
:10260000833209F486C090F58F3009F471C088F4E4
:10261000853009F459C08A3009F461C0811121C0A4
:1026200065E08AE89EE51F910F91FF90EF900C9472
:102630003807893109F467C08E3109F468C08431E4
:1026400081F40E9458057C010E9458058C010E946B
:1026500058059C014BE450E069E186E09FE30E944D
:10266000DB061F910F91FF90EF900895873309F4D7
:1026700061C0A8F48D3209F450C0823309F451C00E
:10268000883279F70E9458057C010E9458058C0118
:102690000E9458059C014BE450E06DE2DECF863489
:1026A00009F44CC0843609F452C08C33D1F60E9430
:1026B00058057C010E9458058C010E9458059C0118
:1026C0004BE450E066E4C9CF44EF51E06AE086E0B5
:1026D0009FE31F910F91FF90EF900C944D096FE0D5
:1026E00086E09FE31F910F91FF90EF900C94660A94
:1026F00044EF51E064E186E09FE31F910F91FF906A
:10270000EF900C94760644EF51E06EE1E0CF63E287
:10271000E7CF44EF51E068E2EECF62E383E89FE168
:1027200082CF67E386E09FE31F910F91FF90EF90C8
:102730000C94360644EF51E06CE3DDCF64E680E1B3
:1027400097E21F910F91FF90EF900C942B0960E09E
:102750008FE79EE00E94C62580E01F910F91FF90B9
:10276000EF90C1CBBF92CF92DF92EF92FF920F9387
:102770001F93CF93DF9300D01F92CDB7DEB700E356
:1027800018E080E6E82E88E0F82E95E0C92E98E063
:10279000D92EBB24BA9420910801309109012C9DB7
:1027A000C0012D9D900D3C9D900D1124875E994C8C
:1027B0008C9D90018D9D300D9C9D300D1124275EC8
:1027C000394C3093090120930801230F2983BA82E1
:1027D000890F8B83B801CE0101960E9459260D5FA7
:1027E0001F4FE016F106B9F60F900F900F90DF9192
:1027F000CF911F910F91FF90EF90DF90CF90BF90FE
:1028000008950F931F93CF938C01C42F80916C0870
:1028100081110FC061E08FE79EE00E94C6251093F2
:10282000070100930601C0936B0881E080936C0858
:1028300099DF80E0ADDA8FE79EE0CF911F910F9195
:102840000C944705EF92FF920F931F93CF93DF9362
:1028500000D000D000D01F92CDB7DEB780916A08BB
:10286000863009F47CC018F5823009F44CC090F42D
:102870008823D9F1813009F43EC027960FB6F89429
:10288000DEBF0FBECDBFDF91CF911F910F91FF90A3
:10289000EF900895843009F45CC008F445C040ED21
:1028A00057E066E088E99AE30E947606E6CF893031
:1028B00009F468C058F4873009F45CC08830E9F640
:1028C00069E088E99AE30E943606D7CF8B3009F495
:1028D00065C008F45DC0843681F660E08FE79EE055
:1028E0000E94C62580E0FFDAC8CF42E060E088E8B9
:1028F00093E187DFC2CF42E060EA7FE088E99AE3B4
:102900000E94DA07BACF0E9458057C010E94580540
:102910008C010E9458059C0142E350E063E088E886
:1029200093E10E94DB06A9CF0E9471058C016AE247
:1029300071E0CE0101960E94483224E0A80160E3D4
:1029400075E7CE010196F5D8CE0101960E94DF31E0
:1029500094CF65E088E99AE30E9438078ECFEE2491
:10296000EA94F12C0FEF10E02FEF30E042E350E05B
:1029700067E0D5CF48EE53E068E088E99AE30E942B
:102980004D097BCF6AE080E197E20E94680B75CF2A
:102990006BE080E197E20E94660A6FCF44EF51E05E
:1029A00064E688E99AE30E94C20967CF9F92AF92DA
:1029B000BF92CF92DF92EF92FF920F931F93CF932C
:1029C000DF93FC01C080D18028B1B22E6894B2F8A8
:1029D00098B19B7F98B962858781062F081B802F4D
:1029E00007837785A281B3813585448556859924EF
:1029F0009394930E4F5F5F5FF680E084C185D3852B
:102A0000F6011181A12C0A2D2A2D3A2D3181112791
:102A100088943111380F08F43FEF8195889490FC29
:102A2000130F1795889491FC130F1795889492FCB7
:102A3000130F1795889493FC130F1795889494FCA3
:102A4000130F1795889495FC130F1795889496FC8F
:102A5000130F1795889497FC130F17958894032FDD
:102A60009110012F860F102F002CB8B800C017FF4F
:102A700098B930810027889400C000C0002C98B914
:102A800031113F0D00C0002CB8B800C016FF98B936
:102A900008F43FEFF194889400C000C0002C98B96E
:102AA00040FD030F00C0002CB8B800C015FF98B956
:102AB0000795889441FD030F00C000C0002C98B911
:102AC0000795889400C0002CB8B800C014FF98B9CE
:102AD00042FD030F0795889400C000C0002C98B9F0
:102AE00043FD030F00C0002CB8B800C013FF98B915
:102AF0000795889444FD030F00C000C0002C98B9CE
:102B00000795889400C0002CB8B800C012FF98B98F
:102B100045FD030F0795889400C000C0002C98B9AC
:102B200046FD030F00C0002CB8B800C011FF98B9D3
:102B30000795889447FD030F00C000C0002C98B98A
:102B40000795889400C0002CB8B800C010FF98B951
:102B5000132F4111102FFC0E00C000C0002C98B99B
:102B600000C000C0002CB8B800C017FF98B932816F
:102B70000027889400C000C0002C98B931113E0D88
:102B800000C0002CB8B800C016FF98B908F43FEF99
:102B9000E70FF11D00C000C0002C98B950FD030FD5
:102BA00000C0002CB8B800C015FF98B907958894EC
:102BB00051FD030F00C000C0002C98B90795889400
:102BC00000C0002CB8B800C014FF98B952FD030F24
:102BD0000795889400C000C0002C98B953FD030FDE
:102BE00000C0002CB8B800C013FF98B907958894AE
:102BF00054FD030F00C000C0002C98B907958894BD
:102C000000C0002CB8B800C012FF98B955FD030FE2
:102C10000795889400C000C0002C98B956FD030F9A
:102C200000C0002CB8B800C011FF98B9079588946F
:102C300057FD030F00C000C0002C98B90795889479
:102C400000C0002CB8B800C010FF98B9132F511164
:102C5000102FE19400C000C0002C98B9ED0E00C008
:102C600000C0B8B800C017FF98B931810027889418
:102C700000C000C0002C98B93111380F00C0002CE2
:102C8000B8B800C016FF98B908F43FEF8195889452
:102C900000C000C0002C98B990FC030F00C0002CAD
:102CA000B8B800C015FF98B90795889491FC030F38
:102CB00000C000C0002C98B90795889400C0002C73
:102CC000B8B800C014FF98B992FC030F0795889418
:102CD00000C000C0002C98B993FC030F00C0002C6A
:102CE000B8B800C013FF98B90795889494FC030FF7
:102CF00000C000C0002C98B90795889400C0002C33
:102D0000B8B800C012FF98B995FC030F07958894D6
:102D100000C000C0002C98B996FC030F00C0002C26
:102D2000B8B800C011FF98B90795889497FC030FB5
:102D300000C000C0002C98B90795889400C0002CF2
:102D4000B8B800C010FF98B9132F9110102F860F3C
:102D500000C000C0002C98B9119709F086CEDF9111
:102D6000CF911F910F91FF90EF90DF90CF90BF9088
:102D7000AF909F9008950F931F93CF93DF93EC0133
:102D80008B010E94162B2F853889621B730B6A30CA
:102D90007105B8F3F894C80109DEF8014281538146
:102DA00020EE31E0DA010E949834DC01CB01F4E03E
:102DB000B695A79597958795FA95D1F730E020E0DD
:102DC000B901EAE94E9F040E611D5E9F600D711D01
:102DD0001124650F711D860F971FA11DB11D893E1E
:102DE000F3E09F07A105B10508F434C0885E934065
:102DF000A109B10942E0B695A795979587954A959F
:102E0000D1F747E0849F080E211D949F200D311DAE
:102E10001124290F311D6091700E70E0860F971FED
:102E2000820F931F40918F0E5091900E6091910EE2
:102E30007091920E292F3327420F531F611D711D70
:102E400040938F0E5093900E6093910E7093920E5C
:102E50008093700E78940E94162B788B6F87DF9189
:102E6000CF911F910F9108950F931F93CF93DF93ED
:102E700020919A072F5F322F377030939A0720FFE7
:102E80002BC020E831FD2064347009F02062205FFF
:102E9000FC01EC01239600E011E06485662329F033
:102EA00070E0C8010E942F346F5F6187322F369F18
:102EB000030E30E0311D1124311110C0168266233B
:102EC00011F0615061873196EC17FD0731F7DF9102
:102ED000CF911F910F91089520E0D4CF31503683C8
:102EE000EECF0F931F93CF93DF93CDB7DEB76297EB
:102EF0000FB6F894DEBF0FBECDBF8C01F901DC0127
:102F00001C968C917A8369835C834B835E834D83AB
:102F100090819D8791819E8792819F878130E1F486
:102F2000CE010196A1DF188A1A8A198AD801ED917B
:102F3000FC910484F585E02DBE016F5F7F4FC801D1
:102F4000099562960FB6F894DEBF0FBECDBFDF9134
:102F5000CF911F910F9108951C861B861A861986A2
:102F600018861F82E0CF0F931F93CF93DF93CDB7C7
:102F7000DEB762970FB6F894DEBF0FBECDBF8C01EF
:102F8000F901DC011C968C917A8369835C834B8305
:102F90005E834D8390819D8791819E8792819F87DB
:102FA0008130E9F4CE0101965FDF83E0888B1A8AD5
:102FB000198AD801ED91FC910484F585E02DBE01BC
:102FC0006F5F7F4FC801099562960FB6F894DEBF18
:102FD0000FBECDBFDF91CF911F910F9108951C8639
:102FE0001B861A86198618861F82DFCF0FB6F894C3
:102FF00080918F0E9091900EA091910EB091920EB3
:103000000FBE90936608809365080E9458058093D0
:103010002D080E94580580932C080E945805809323
:103020002B0861EC73E08EED97E00E9448326CEB68
:1030300073E085EE97E00E9448326AEB73E08CEE15
:1030400097E00E94483267EB73E083EF97E00E94BD
:10305000483262EB73E08AEF97E00E9448326EEAF2
:1030600073E081E098E00E94483268EA73E088E00B
:1030700098E00E94483265EA73E08FE098E00E9491
:10308000483260EA73E086E198E00E9448326BE9DA
:1030900073E08DE198E00E94483266E973E084EBCA
:1030A00097E00E9448326FE873E08BEB97E00E9454
:1030B000483266E873E082EC97E00E94483262E8AA
:1030C00073E089EC97E00E9448326EE773E080ED90
:1030D00097E00E94483267E773E087ED97E00C9431
:1030E0004832CF93DF93CEEDD7E02797CE010E94F1
:1030F000DF3187E0C43BD807C1F7C4E2D8E02797A7
:10310000CE010E94DF3187E0CE3DD807C1F7DF91C5
:10311000CF9108958AE99EE00E94432D892BD9F032
:103120008AE99EE00E94762D80937A08682F8FE0CE
:103130009FE00E941B0560917A086F3F61F067FF76
:1031400011C06093790810927808109277088FE088
:103150009FE00E941B058AE99EE00E94432D892B77
:10316000C9F6089580917808811137C06093780876
:10317000609179088FE09FE00E94140568E371E098
:103180008FE09FE00E941305609178088FE09FE038
:103190000E94140568E371E08FE09FE00E94130530
:1031A000609177088FE09FE00E941B05809179086D
:1031B000893B89F680917808863169F68091770895
:1031C000882349F20E94730F6AE371E08FE09FE069
:1031D0000E94130560917708BACF8091770881111A
:1031E000C7CF60937708C4CF8F929F92AF92BF9260
:1031F000CF92DF92EF92FF920F931F93CF93809124
:103200006708882341F0609168088FE09FE00E9482
:103210001B051092670880916908882339F0809116
:1032200074088F5F80937408109269088091740805
:10323000882309F446C0C09176081092740888E289
:103240000E945E29BC01990F880B990B1F921F9257
:103250001F9228E72F93A12CB12C6501EE24EA944C
:1032600013E0F12E00E010E020E030E0A9010E9420
:10327000A0314B015C016C2F70E090E080E00E9477
:103280001D3323E333E343E35FE30E94A9336B0180
:103290007C01C501B4010E941D332AE939E949E9DD
:1032A0005EE30E94A9339B01AC01C701B6010E94F5
:1032B0008B320E94EF32609376080F900F900F9040
:1032C0000F9080917608873678F124DF80916D0821
:1032D000882371F085E080937F0E80917F08823093
:1032E000F1F090F48823B1F08130B1F010926D08C4
:1032F000CF911F910F91FF90EF90DF90CF90BF90F3
:10330000AF909F908F900895833061F0843071F773
:1033100071D9ECCF97DAEACF0E947310E7CF0E9401
:103320000E11E4CFABD8E2CF60E08FE79EE00E94C1
:10333000C6258FE79EE00E94470564EF71E080E0BC
:1033400090E00E94F62A85E080937F0E8FEF8093B5
:10335000800810928108109282088FE79EE00E94F8
:10336000470564EF71E080E090E0CF911F910F91ED
:10337000FF90EF90DF90CF90BF90AF909F908F9095
:103380000C94F62A90E080E0089508952F923F92E1
:103390004F925F926F927F928F929F92AF92BF9265
:1033A000CF92DF92EF92FF920F931F93CF93DF9311
:1033B00000D000D000D0CDB7DEB73C016A013E831B
:1033C0002D83FC82EB825801A41AB50AB7FE03C014
:1033D000B194A194B1088D809E80861A970A97FEB9
:1033E00003C09194819491088A149B045CF0902FFF
:1033F000812F0D811E819D838E839C2D8D2D6B01D0
:10340000692F782F0C151D055CF09D818E817E83C0
:103410006D83692F782F902F812F8601C92ED82E8A
:103420001601201A310A2B012D813E81421A530ABE
:1034300057FE03C0519441945108710137FE03C0F7
:103440003FEFE31AF30AF594E7948D819E81861786
:1034500097075CF5A1E0B0E0BA83A983C016D10656
:103460004CF1D301ED91FC910484F585E02D2B8185
:103470003C81A8016D817E818A149B041CF04D81E2
:103480005E81B801C3010995E418F508F7FE0AC08A
:103490002D813E8189819A81280F391F3E832D839A
:1034A000E20CF31C0F5F1F4FD9CF2FEF3FEF3A8392
:1034B0002983D4CF26960FB6F894DEBF0FBECDBFBA
:1034C000DF91CF911F910F91FF90EF90DF90CF9000
:1034D000BF90AF909F908F907F906F905F904F9034
:1034E0003F902F9008950895DC01ED91FC910084A8
:1034F000F185E02D09940F931F93DC01ED91FC9170
:10350000048CF58DE02D09951F910F9108950F936F
:103510001F93DC01ED91FC91068CF78DE02D099550
:103520001F910F910895EF92FF920F931F93DC016B
:10353000ED91FC9100A0F1A1E02D09951F910F9153
:10354000FF90EF9008958F929F92AF92BF92CF928B
:10355000DF92EF92FF920F931F93CF93DF93EC01D3
:103560005B014A0169017801E881F9810284F385F0
:10357000E02D0995C80CD91C860101501109E8817C
:10358000F9810488F589E02D9501A401B501CE01EA
:103590000995E881F9810688F789E02DCE01DF9150
:1035A000CF911F910F91FF90EF90DF90CF90BF9040
:1035B000AF909F908F9009948F929F92AF92BF92FD
:1035C000CF92DF92EF92FF920F931F93CF93DF93EF
:1035D000EC015B014A016901E881F9810284F3850C
:1035E000E02D099595012C0D3D1D21503109E881F3
:1035F000F9810488F589E02D78018401A401B501E1
:10360000CE010995E881F9810688F789E02DCE0180
:10361000DF91CF911F910F91FF90EF90DF90CF90AE
:10362000BF90AF909F908F9009944F925F926F924E
:103630007F928F929F92AF92BF92CF92DF92EF9242
:10364000FF920F931F93CF93DF936C012B015A01CD
:1036500039014801DC01ED91FC910284F385E02DF4
:103660000995E201640C751CD601ED91FC91C6151B
:10367000D7055CF40088F189E02D87019401A5014C
:10368000BE01C60109952196EFCF0688F789E02D86
:10369000C601DF91CF911F910F91FF90EF90DF90C6
:1036A000CF90BF90AF909F908F907F906F905F90E2
:1036B0004F900994EF92FF920F931F93DC0119969C
:1036C0000D911C911A9717962D913C911897ED9199
:1036D000FC9100A0F1A1E02D7B0150E040E070E002
:1036E00060E009951F910F91FF90EF9008956F9200
:1036F0007F928F929F92AF92BF92CF92DF92EF9282
:10370000FF920F931F93CF93DF93EC016B015A014C
:1037100039014801E881F9810284F385E02D09959A
:10372000E881F9810288F389E02D87019301A501E1
:10373000B601CE010995A501480D591D4150510909
:10374000E881F9810288F389E02D9301B601CE0169
:103750000995E881F9810088F189E02D9401A5019E
:10376000B601CE010995C60CD71CB601615071098E
:10377000E881F9810088F189E02D9401A501CE014D
:103780000995E881F9810688F789E02DCE01DF915E
:10379000CF911F910F91FF90EF90DF90CF90BF904E
:1037A000AF909F908F907F906F90099408956F9243
:1037B0007F928F929F92AF92BF92CF92DF92EF92C1
:1037C000FF920F931F93CF93DF935C01EB016A018C
:1037D000490138018701DC01ED91FC916217730703
:1037E00019F5641675062CF0962D872D3A01C92E11
:1037F000D82E9601261937092F5F3F4F048CF58D7F
:10380000E02DA301BE01C5010995DF91CF911F9164
:103810000F91FF90EF90DF90CF90BF90AF909F906F
:103820008F907F906F9008954615570591F4261755
:10383000370724F0892D4B01C22FD82F9E0128195C
:1038400039092F5F3F4F068CF78DE02DA601B4019B
:10385000DACF0284F385E02D0995D501ED91FC9135
:103860000488F589E02D83019401A601BE01C501FC
:103870000995D501ED91FC910688F789E02DC501E8
:10388000DF91CF911F910F91FF90EF90DF90CF903C
:10389000BF90AF909F908F907F906F900994FC01A4
:1038A0006370658B8381948125813681613039F025
:1038B000633029F090878783328721870895308786
:1038C0002783928781870895FC0112828FEB96E00F
:1038D0009183808374836383568345837087678372
:1038E00052874187158A148613861686158681E0CD
:1038F000848B838B2FEF3FEF328B218B308B27878D
:10390000868B178A118E108E08952F923F924F92B8
:103910005F926F927F928F929F92AF92BF92CF925F
:10392000DF92EF92FF920F931F93CF93DF93CDB768
:10393000DEB72E970FB6F894DEBF0FBECDBF5C0189
:103940002B015C834B833E872D87FE82ED8216011F
:1039500081E090E04C01821A930AC901919581950A
:1039600091099C01220F331F3A832983C7010196D5
:1039700098878F83F12CE12C66246394712C902F0F
:103980009170998702700A87DA011196BC87AB871C
:103990002D853E85E216F3060CF08DC0CD84DE84C5
:1039A00097FC0BC0690131E0C31AD10889819A8163
:1039B00002969A838983880E991E9FEFE91AF90A65
:1039C000A2E06A0E711C860C971CCE14DF04A4F1D1
:1039D000B985BB23B9F09601220F331F8F819885DB
:1039E000280F391FD501ED91FC910088F189E02D58
:1039F00081014B815C814C195D09B2016E0D7F1D07
:103A0000C5010995BA85BB23B9F09601220F331F72
:103A10008F819885280F391FD501ED91FC91008881
:103A2000F189E02D81014B815C814C195D09B20166
:103A30006E197F09C50109952D853E852C153D051B
:103A4000B9F139853323C1F09301225031098D81B9
:103A50009E81280F391FD501ED91FC910088F189D5
:103A6000E02D81014B855C854E195F096D857E8552
:103A7000640D751DC5010995BA85BB23C9F0930175
:103A8000225031098D819E81280F391FB201AD85E9
:103A9000BE856A1B7B0BD501ED91FC910088F189F5
:103AA000E02D81014B855C854E195F09C5010995A3
:103AB000DE86CD866DCF2E960FB6F894DEBF0FBE94
:103AC000CDBFDF91CF911F910F91FF90EF90DF90CD
:103AD000CF90BF90AF909F908F907F906F905F90AE
:103AE0004F903F902F9008956F927F928F929F9268
:103AF000AF92BF92CF92DF92EF92FF920F931F93FC
:103B0000CF93DF93EC014B013A0159016801E88141
:103B1000F9810284F385E02D09959501220F331F69
:103B20002F5F3F4FA3014A195B09E881F9810088A3
:103B3000F189E02DB401CE010995F12CE12C03E0CF
:103B40009501A301B401CE01E0DEE881F981068888
:103B5000F789E02DCE01DF91CF911F910F91FF905A
:103B6000EF90DF90CF90BF90AF909F908F907F901D
:103B70006F9009942F923F924F925F926F927F9233
:103B80008F929F92AF92BF92CF92DF92EF92FF926D
:103B90000F931F93CF93DF93CDB7DEB76A970FB61E
:103BA000F894DEBF0FBECDBF9A8F898F7A83698369
:103BB0004A01D22E18870F833701BC2CDC0158969E
:103BC0002D913C9159972115310509F015C1179692
:103BD0008D919C911897681779070CF0D7C11996A9
:103BE0008D919C91481759070CF0D0C14C2C512C49
:103BF000B6E0CB9E600D711D11247C876B87161675
:103C000017060CF0C3C1EA2DF0E0FA87E98793E0CC
:103C1000EE0FFF1F9A95E1F7F88BEF87CF01840F26
:103C2000951F181619060CF0B1C1A98DBA8D5796BB
:103C30008C91811104C0BFEABD1508F4D394A98DFD
:103C4000BA8DED91FC9111970284F385E02DCD01A1
:103C50000995B5E0DB9EC0011124E981FA81FC835E
:103C6000EB83312C212C9C0128563F4F388F2F8B12
:103C70004A2D50E05E8B4D8BEF89F88DE20DF31DE0
:103C800044919E828D82D12CC12C69817A81620DF2
:103C9000731D7A8B698B842F90E09C8B8B8BE98DC5
:103CA000FA8DA081B18140FF82C0F1E0BF126FC0E8
:103CB000AF126DC01C96ED91FC912F813885A40147
:103CC0004C0D5D1D69897A89898D9A8D0995EB89DD
:103CD000FC89F595E7954E2F5FEFC51AD50A6D81E2
:103CE0007E818D899E89680F791F7E836D8398E020
:103CF000C916D10481F6AFEF2A1A3A0AEB81FC818A
:103D0000E40DF51DFC83EB83F5E02F16310409F07B
:103D1000B3CF2F81388526153705B9F0A98DBA8D17
:103D2000ED91FC91B1E0BB1257C0AB1255C0698157
:103D30007A816B5F7F4F0088F189E02D830128E055
:103D400030E0A401898D9A8D0995A98DBA8DED91E8
:103D5000FC9111970688F789E02DCD016A960FB680
:103D6000F894DEBF0FBECDBFDF91CF911F910F91B1
:103D7000FF90EF90DF90CF90BF90AF909F908F908B
:103D80007F906F905F904F903F902F9009941E9678
:103D9000ED91FC91EF80F88409851A8592014D819F
:103DA0005E816B817C81898D9A8D099590CF2F8161
:103DB00038852615370509F48ACF31E0B31207C0DC
:103DC000A31205C01C96ED91FC91930178CF1E962D
:103DD000ED91FC917301E0CF6B857C8564197509C9
:103DE0000684F785E02D73010F8518899201A401DF
:103DF000898D9A8D0995A9CFF901349694913297BE
:103E000045915491D91AB7E0DB9E400D511D112404
:103E1000F901259134913C8B2B8BFA01259034903C
:103E2000FA013296749031963491398B32966490BF
:103E30003196449041E04C1518F04A1508F07FC0C7
:103E4000662D062C000C770B7C836B83842D042C51
:103E5000000C990B9E838D83A98DBA8DED91FC91F9
:103E600011970284F385E02DCD010995512CD12CB9
:103E7000C12CEA2DF0E0FA87E9872B2D30E03C8752
:103E80002B87A401440D511D47FC5A95588F4F8B29
:103E900069817A81660D711D67FC7A957E876D87D1
:103EA0007989C71608F051CF2C2D30E04D815E8105
:103EB000420F531FA985BA854A9FC0014B9F900DA1
:103EC0005A9F900D1124FC01E80DF91DF88BEF8726
:103ED000852D612C4F89588D420F531F5E8B4D8B62
:103EE000671408F050C044244394480E877041F48E
:103EF000C1010196EB89FC89E20DF31DD4901C01F0
:103F0000D7FE19C0A98DBA8DED91FC91662D70E098
:103F1000B1E0BB1219C0AB1217C02D853E85620FF0
:103F2000731F0484F585E02D2F8138854D895E89C6
:103F3000898D9A8D0995DD0C6394842DD1CF1E82D5
:103F40001D821C821B8288CF4B815C81640F751F90
:103F5000AB85BC856A9FC0016B9F900D7A9F900DC9
:103F6000112469817A81680F791F0684F785E02D15
:103F7000EF80F88409851A859D014F855889898DC0
:103F80009A8D0995D8CF570CC3948ACF6A960FB6ED
:103F9000F894DEBF0FBECDBFDF91CF911F910F917F
:103FA000FF90EF90DF90CF90BF90AF909F908F9059
:103FB0007F906F905F904F903F902F9008958F92D9
:103FC0009F92AF92CF92EF92FF920F931F93CF9356
:103FD000DF93EC01262F888D998D009709F050C052
:103FE0006A30D1F41C861B868C8948E0849F90013E
:103FF00011248D859E85820F931F9E878D8781E07A
:1040000090E0DF91CF911F910F91FF90EF90CF90B3
:10401000AF909F908F9008956D3089F3CB88AC88D6
:104020008E898823C1F08B859C8536E0C39E800DE8
:10403000911D11244F8158854817590764F44D8507
:104040005E851C861B8638E0A39EC0011124840F68
:10405000951F9E878D87E988FA880F8518894D8579
:104060005E856B857C85CE0185DD2B898B859C8566
:1040700046E0249F800D911D11249C878B87BFCF24
:104080006A3069F41C861B86FC013696E4912C8903
:104090008D859E85E29F800D911D1124AECF6D30E0
:1040A00009F4ADCFFC0134963491631708F4A7CF1F
:1040B0003196E491E61708F4A2CFFC013296859080
:1040C0009490462F431B342F47E0349F800C911C63
:1040D0001124F401329634913196E4913323A1F105
:1040E000EE2391F1CB88F4013596E491AC884E89AA
:1040F000442301F10E2E000CFF0BE30FF11DCE9EA9
:10410000A001CF9E500D11246B857C85460F571F53
:104110006F817885641775076CF44D855E851C8604
:104120001B86FC013696E491AE9E400D511D112474
:104130005E874D87E988FA880F8518894D855E85E9
:104140006B857C85CE0116DDF4013496E4912B89D4
:104150008B859C85E29F800D911D11248ECF61116E
:1041600001C061E0FC01638B411101C041E0FC0131
:10417000448B0895462FF3CFFF920F931F93CF9355
:10418000DF93EC01F02E10E000E020D08BEE96E003
:1041900099838883FE01E65EFE4FF082319610829D
:1041A000C45EDE4F1882DF91CF911F910F91FF9077
:1041B00008958D5D9E4FDC01ED91FC91309709F0E3
:1041C000099460917F0E8FE79EE0B8C3AF92BF92D3
:1041D000CF92DF92EF92FF920F931F93CF93DF93D3
:1041E000EC015B017A016901A901B7016DDB8EE485
:1041F00097E099838883FE01E35EFE4FF182E082BF
:104200003296D182C082329680E197E29183808398
:104210003696118210823A9610823C97B182A08223
:10422000329711830083399710823196108231962C
:104230001082C75DDE4FCE9CC001CF9C900DDE9CEE
:10424000900D1124B0E0A0E088839983AA83BB83FA
:10425000DF91CF911F910F91FF90EF90DF90CF9062
:10426000BF90AF900895CF93DF93EC0163E177E0C7
:104270008FE09FE00E940405FE01E35EFE4F408157
:10428000518170E060E020E08FE09FE00E94492FC4
:1042900062E377E08FE09FE00E940405FE01E15EAB
:1042A000FE4F4081518170E060E020E08FE09FE0B0
:1042B0000E94492F6CE377E08FE09FE00E940405A5
:1042C000C75DDE4F488159816A817B8120E08FE0A4
:1042D0009FE00E94492F8FE09FE0DF91CF910C94E7
:1042E0002F2FFC01EF2FFF27E695E695E695E85284
:1042F000FA4F2491FC0135E0F695E7953A95E1F700
:10430000EF73FF27E856FA4F64918F719927FC01EC
:10431000E852FA4FE49170E090E080E0982F872F08
:10432000762F6627822B6E2B08958F929F92AF92E5
:10433000BF92CF92DF92EF92FF92CF93DF93EC0187
:10434000CB01FE01EF5CFE4F2081222339F134972F
:1043500060817181828130E020E0C12CD12C760116
:10436000DE01A75DBE4FCB5DDE4F8D909D90AD9081
:10437000BC901397C814D904EA04FB0488F4E881BC
:10438000F981E20FF31F8083718362839FEFC91A63
:10439000D90AE90AF90A2D5F3F4FE7CFA2DFDBCF49
:1043A000DF91CF91FF90EF90DF90CF90BF90AF90D3
:1043B0009F908F9008956F927F929F92AF92BF923D
:1043C000CF92DF92EF92FF920F931F93CF93DF93E1
:1043D000EC01CB018A0177FD0CC057FD0AC02F818B
:1043E0003885621773072CF429853A8542175307DD
:1043F0009CF0C75DDE4F888199810197DF91CF9155
:104400001F910F91FF90EF90DF90CF90BF90AF90F2
:104410009F907F906F9008952D892230D9F023309E
:1044200051F1213041F42B813C8121503109241B71
:10443000350B8B01C901FE01E95DFE4F0190F08152
:10444000E02D309709F1B801099550E040E0840F64
:10445000951FD4CF2B813C8121503109A901461BE6
:10446000570BCA012D813E8121503109F901E01B12
:10447000F10B8F01E0CF2D813E8121503109261BA8
:10448000370BCA018901D7CFFE01E65EFE4FD0800F
:10449000FD2DF370CF2EFE01E55EFE4FB08050E0A3
:1044A00040E0BB2009F464C03296E080F180B7019F
:1044B0000E941B349B01982EA92E32966080718039
:1044C000C801B3010E941B34DB01582F492F892DED
:1044D0009A2D052F142FD5FE06C04B2D4150550B9C
:1044E000421B530B9A01D4FE09C0AE01445E5E4FDD
:1044F000FA0160816150770B6A1B7B0BD6FC11C0FF
:104500004B2D50E0B62FA72FB9012B2F3A2FD7FCF8
:104510000EC0249FD001259FB00D349FB00D1124F3
:1045200017C0DE01A45EBE4F4C9150E0F0CF20FFDB
:10453000F0CFAD2DA095A370CA2E2F5F3F4F249FC3
:10454000D001259FB00D349FB00D1124609570955A
:104550006A0F7B1FE69C9001E79C300DF69C300DA6
:104560001124269FA001279F500D369F500D112426
:1045700098016C2D627059F0FE01E35EFE4F608180
:10458000718161507109FB01E81BF90BCF01C0FE7D
:1045900009C0FE01E15EFE4F2081318121503109C9
:1045A000201B310BD2FC13C0C35EDE4F68817981C2
:1045B000F22FE32F9C018F2F9E2FD3FC0DC0869FDF
:1045C000F001879FF00D969FF00D112411C0C15E80
:1045D000DE4F68817981F1CF80FFF1CF0196869F10
:1045E000F001879FF00D969FF00D112420953095D6
:1045F000CF01820F931F2BCF9F92AF92BF92CF928A
:10460000DF92EF92FF920F931F93CF93DF93EC0112
:1046100077FD2BC057FD29C08F81988568177907D2
:1046200024F589859A8548175907FCF46A017B01AE
:10463000FE01EF5CFE4F8081882319F13497B08032
:10464000A1809280FE01EB5DFE4F00811181A601E9
:10465000B701CE01B0DEFC01EE0FFF1FE80FF91F1E
:10466000E00FF11F9082A182B282DF91CF911F9162
:104670000F91FF90EF90DF90CF90BF90AF909F9001
:104680000895C9012EDEB62EA72E982EDBCF895DA8
:104690009E4FFC017183608308950F931F93CF9306
:1046A000DF93FC01842F82958F704F70EB01A82F50
:1046B000AA0FA80FA60FB72FB11D442319F031E0A0
:1046C000012B09F430E06C9111965C9111971296D0
:1046D0009C911297332309F42AC08F3011F0ED0119
:1046E00023964295407F742F7095679F060E60E079
:1046F000611D3881349F030E30E0311D630F579FD9
:10470000050E50E0511D3981349F030E30E0311DFC
:10471000530F392F379F030E30E0311D9A81792FC7
:10472000749F070E70E0711D932F970F11242F3F78
:10473000C1F02223F9F02F5F662321F0629F060E5D
:1047400060E0611D552321F0529F050E50E0511D80
:10475000992331F0392F329F030E30E0311D932F12
:104760001124608351839283CF01DF91CF911F91F8
:104770000F91089590E050E060E0F3CF7F928F9228
:104780009F92AF92BF92CF92DF92EF92FF920F93E0
:104790001F93CF93DF93FC01690110821182128273
:1047A0006623B9F18A01C1E0D0E0862E912CB12CAC
:1047B000A12CD8012D918D01222339F17E01B1E088
:1047C000EB1AF108D601AE0DBF1D7C907720E9F001
:1047D00030E050E040E02F5F3F4F4F4F5F4FC5014B
:1047E000B4010E940C349B01AC01872D90E0B0E035
:1047F000A0E0BC01CD016F5F7F4F8F4F9F4F0E94A4
:104800000C34DF01AE0DBF1D8C932196C430D10551
:1048100081F6CF01DF91CF911F910F91FF90EF9023
:10482000DF90CF90BF90AF909F908F907F90089532
:10483000FC018FEF808312821182148613868FEF22
:104840009FEFDC0187839087A187B2870895CF937C
:10485000DF93C0917D0ED0917E0E209789F08A81E2
:104860009B81009749F02D853E85A901440F551F76
:10487000420F531F60E0D0D20C80DD81C02DEDCF00
:10488000DF91CF910895CF92DF92EF92FF92CF9375
:10489000DF93EC012091750E3091760EC9010196DF
:1048A0009093760E8093750E261737070CF43FC051
:1048B0000FB6F89420918F0E3091900E4091910E8A
:1048C0005091920E0FBEE8EEF3E08E9FB0018F9FE5
:1048D000700D9E9F700D1124072E000C880B990BF4
:1048E000C090710ED090720EE090730EF090740E26
:1048F0002C193D094E095F090E9442343A832983ED
:104900001092760E1092750E0FB6F89480918F0E5D
:104910009091900EA091910EB091920E0FBE809347
:10492000710E9093720EA093730EB093740EDF917C
:10493000CF91FF90EF90DF90CF9008958F929F924C
:10494000AF92BF92CF92DF92EF92FF920F931F939D
:10495000CF93DF9300D01F92CDB7DEB77C01D62E68
:10496000D70113960D911D912D913C91169701152C
:1049700011052105310591F059D68090770E909060
:10498000780EA090790EB0907A0E681979098A098C
:104990009B09601771078207930710F347D660934E
:1049A000770E7093780E8093790E90937A0ED701DC
:1049B0001B96ED91FC911C97309749F017964D91FD
:1049C0005D916D917C911A978D2D0995D82E00914E
:1049D0007D0E10917E0E0115110561F1F801C48460
:1049E000D70111968D919C918436910508F4148617
:1049F000D801ED91FC91A280B3809801275F3F4FD1
:104A0000A8014A5F5F4F6D2DCE010196B7DEF80118
:104A100045855685628173819E012F5F3F4FC80196
:104A2000F5010995D8011C96CC921C9714960D910E
:104A30001C91D1CF69E170E0C70125DF0F900F9085
:104A40000F90DF91CF911F910F91FF90EF90DF902A
:104A5000CF90BF90AF909F908F9008954F925F92AC
:104A60006F927F928F929F92AF92BF92CF92DF927E
:104A7000EF92FF920F931F93CF93DF9300D01F927B
:104A8000CDB7DEB77C015B01D42ED70113960D9113
:104A90001D912D913C9116970115110521053105A8
:104AA00091F0C4D54090770E5090780E6090790EBA
:104AB00070907A0E64197509860997096017710755
:104AC0008207930710F3B2D56093770E7093780E38
:104AD0008093790E90937A0ED7011B96ED91FC91FD
:104AE0001C97309749F017964D915D916D917C918F
:104AF0001A978D2D0995D82E00917D0E10917E0E5E
:104B00000115110559F1F801C484D70111968D9151
:104B10009C918436910508F41486D801ED91FC919E
:104B2000808091809801275F3F4FA8014A5F5F4FC7
:104B30006D2DCE01019622DEF801458556859E0138
:104B40002F5F3F4FB501C801F4010995D8011C96AC
:104B5000CC921C9714960D911C91D2CF69E170E014
:104B6000C70191DE0F900F900F90DF91CF911F91B1
:104B70000F91FF90EF90DF90CF90BF90AF909F90FC
:104B80008F907F906F905F904F9008950F931F9339
:104B9000CF93DF9300D01F92CDB7DEB78C01662391
:104BA00041F019821A821B8240E0BE016F5F7F4F85
:104BB00055DFC8014CDE0F900F900F90DF91CF9121
:104BC0001F910F910895CF93DF93EC014423F1F0EF
:104BD00061157105C1F09B0150E040E060E472E4B2
:104BE0008FE090E00E9464348B819C81AD81BE8116
:104BF00082179307A407B50710F4DA01C9018B8364
:104C00009C83AD83BE83DF91CF91089561157105BB
:104C100071F09B0150E040E060E472E48FE090E0CE
:104C20000E9464342B833C834D835E83ECCF1B82D4
:104C30001C821D821E82E7CFCF92DF92EF92FF92FD
:104C40000F931F93CF93DF93EC016B017A0110E078
:104C500000E01216130614F48A017901E881F98143
:104C60000480F581E02DCE010995C801880F991FB8
:104C7000080F191FC00ED11EDB82CA82ED86FE8688
:104C8000E881F9810284F385E02DCE01099541E0A8
:104C9000BC018FE79EE097DFCE01DF91CF911F919E
:104CA0000F91FF90EF90DF90CF9008958FE79EE0F7
:104CB000BFCD1F93DC01FB017C9111964C911197A4
:104CC00012961C91972F990F990F990F35E5292F5F
:104CD000239F020E20E0211D1124822F672F607474
:104CE000572F507277FD6FC061115BC0511105C025
:104CF000922F9095892F90E004C025E5280F90E031
:104D00008BEA4F3F09F424C0442309F47DC0882373
:104D100031F0382F349F030E30E0311D832F2223D2
:104D200021F0249F020E20E0211D992331F0392F1C
:104D3000349F030E30E0311D932F1124342F309512
:104D4000339F030E30E0311D1124830F230F930F87
:104D50001F3F09F421C030E0112321F0119F312DB4
:104D600009F03F5F332309F453C0882331F0482F03
:104D7000439F040E40E0411D842F222321F0239FF6
:104D8000020E20E0211D992331F0492F439F040E8C
:104D900040E0411D942F11248083218392831F9131
:104DA000089551110BC0392F2AEA329F030E30E0CB
:104DB000311D11249BEA931B280F9CCF90E0209576
:104DC000982F80E09ECF611112C051110CC0392F75
:104DD0002AEA329F030E30E0311D11242BEA231BF7
:104DE00095E5930FEECF922F909520E08ACF511149
:104DF00006C025E5280F9BEA981B822FF6CF2AEAEA
:104E0000280F90E0932FF8CF9FEF2FEF8FEFA0CFD9
:104E100090E020E080E0C0CFDC0140FF03C001C093
:104E20006D936D934250E0F75040D0F708950F9383
:104E30001F93CF93DF938230910510F482E090E0CE
:104E4000E091190FF0911A0F30E020E070E060E07F
:104E5000D0E0C0E0B0E0A0E0309799F42115310532
:104E600009F44AC0281B390B24303105D8F58A8152
:104E70009B816115710589F1FB0193838283FE019A
:104E800011C0408151810281138148175907E0F018
:104E90004817590799F4109761F012960C931297DE
:104EA00013961C933296CF01DF91CF911F910F91F2
:104EB00008950093190F10931A0FF4CF211531059F
:104EC00051F04217530738F0A901DB019A01BD01E7
:104ED000DF01F801C1CFEF01F9CF90931A0F809352
:104EE000190FCDCFFE01E20FF31F81939193225052
:104EF000310939832883D7CF20918C0E30918D0EC4
:104F0000232B41F420910C0130910D0130938D0E33
:104F100020938C0E20910A0130910B01211531054F
:104F200041F42DB73EB740910E0150910F01241B63
:104F3000350BE0918C0EF0918D0EE217F307A0F483
:104F40002E1B3F0B2817390778F0AC014E5F5F4FDF
:104F50002417350748F04E0F5F1F50938D0E409376
:104F60008C0E819391939FCFF0E0E0E09CCFCF93A4
:104F7000DF930097E9F0FC01329713821282A0912F
:104F8000190FB0911A0FED0130E020E01097A1F455
:104F900020813181820F931F20918C0E30918D0ED4
:104FA0002817390709F061C0F0938D0EE0938C0E3D
:104FB000DF91CF910895EA01CE17DF07E8F54A8126
:104FC0005B819E0141155105B1F7E901FB83EA833D
:104FD00049915991C40FD51FEC17FD0761F48081E9
:104FE00091810296840F951FE901998388838281BC
:104FF00093819B838A83F0E0E0E012968D919C91EF
:1050000013970097B9F52D913C911197CD01029618
:10501000820F931F20918C0E30918D0E2817390727
:1050200039F6309751F510921A0F1092190FB0936C
:105030008D0EA0938C0EBCCFD383C283408151814F
:10504000840F951FC817D90761F44E5F5F4F8881A1
:105050009981480F591F518340838A819B81938393
:1050600082832115310509F0B0CFF0931A0FE09338
:10507000190F9ECFFD01DC01C0CF13821282D7CF62
:105080004F925F926F927F928F929F92AF92BF9258
:10509000CF92DF92EF92FF920F931F93CF93DF9304
:1050A0008C01009791F4CB01DF91CF911F910F916B
:1050B000FF90EF90DF90CF90BF90AF909F908F9038
:1050C0007F906F905F904F90B2CEFC01E60FF71F7C
:1050D0009C0122503109E217F30708F4A5C0D90159
:1050E000CD91DC911197C617D70718F1C530D105BE
:1050F00070F0CE0104978617970748F0C61BD70BB0
:105100002297C193D1936D937C93CF0130DFC80177
:10511000DF91CF911F910F91FF90EF90DF90CF9093
:10512000BF90AF909F908F907F906F905F904F90C7
:1051300008955B01AC1ABD0A4C018C0E9D1EA09116
:10514000190FB0911A0F512C412CF12CE12C109712
:1051500001F580918C0E90918D0E8815990509F0BE
:1051600056C04616570608F052C08DB79EB74091FC
:105170000E0150910F01841B950BE817F90708F0F9
:1051800053C0F0938D0EE0938C0EF9017183608310
:10519000BECF8D919C91119712966C901297139699
:1051A0007C901397A815B90559F56C0142E0C40E1F
:1051B000D11CCA14DB0420F1AC014A195B09DA01E5
:1051C0001296159780F06282738251834083D901D1
:1051D0006D937C93E114F10471F0D7011396FC9365
:1051E000EE93129794CF22968C0F9D1FF901918315
:1051F0008083F301EFCFF0931A0FE093190F87CF5D
:105200004816590608F42C017D01D301A0CFCB012B
:105210000EDE7C01009741F0AE01B8010E944635D8
:10522000C801A5DE870173CF10E000E070CF1DBA82
:10523000109268001CBC10BE1FBA10927A00109227
:105240006E0010926F001092700010927100109218
:10525000C9001092BC0011B814B817B81AB81DB81C
:1052600010BA12B815B818B81BB81EB811BA0895FC
:10527000F894E1E6F0E020E82083108283E084BD2A
:1052800085BDEEE6F0E080818160808391E09093BF
:10529000800082E0809381009093B0008093B10001
:1052A000909390008093910086E880937A002093F9
:1052B0007B0010927E00D9D1789408959AED980FD2
:1052C000983010F1883060F490917E0021E030E059
:1052D000082E01C0220F0A94EAF7922B90937E00C9
:1052E0008F7190911001892B80937C0080917A00BE
:1052F000806480937A0080917A0086FDFCCF809153
:105300007800909179000895892FDECF8E3270F465
:10531000E8E3F6E0880FE80FF11D2591E491F0E055
:105320009FB7F8948181822B81839FBF0895EE32CD
:1053300050F4EE0FEC55F64D0994EE3220F4EE0FDA
:10534000E050F64D09940895589AB6C0599AD0C0C5
:105350005A9A08955B9A08955C9A08955D9A089503
:105360005E9A08955F9A0895709A0895719A0895C3
:10537000409A0895419A0895429A0895439A08954B
:10538000449AC8C0459AC0C0469AB8C0479A089582
:10539000769A0895779A0895289A0895299A0895F3
:1053A0002A9A08952B9A08952C9A9CC02D9A88C009
:1053B0002E9A8CC02F9A90C0109A0895119A089531
:1053C000129A0895139A0895149A0895159A0895B3
:1053D000169A0895179A0895749A0895759A0895DB
:1053E000889A0895899A08958A9A08958B9A0895BB
:1053F0008C9A08958D9A08958E9A08958F9A08959B
:1054000058985AC0599874C05A9808955B9808954E
:105410005C9808955D9808955E9808955F98089542
:105420007098089571980895409808954198089546
:10543000429808954398089544986CC0459864C074
:1054400046985CC04798089576980895779808958F
:1054500028980895299808952A9808952B980895D2
:105460002C9840C02D982CC02E9830C02F9834C056
:105470001098089511980895129808951398089512
:1054800014980895159808951698089517980895F2
:10549000749808957598089588980895899808953E
:1054A0008A9808958B9808958C9808958D980895FA
:1054B0008E9808958F980895E4B5EF7DE4BD089522
:1054C000E0918000EF77E09380000895E091800004
:1054D000EF7DE09380000895E0918000E77FE09306
:1054E00080000895E091B000EF77E093B000089558
:1054F000E091B000EF7DE093B0000895E09190005E
:10550000EF77E09390000895E0919000EF7DE093B5
:1055100090000895E0919000E77FE0939000089557
:10552000F89484B7877F84BF809160008061809306
:1055300060001092600080E29EE40197F1F781E044
:105540008093E00080E28093D80080E69AEE019795
:10555000F1F76DDE0C9400FEFFCFF89468DE80E674
:105560009AEE0197F1F70C940000FFCF8F938FB75D
:105570008F9380918E0E8D5F8D37D0F480938E0E39
:1055800080918F0E8F5F80938F0ED8F08091900E58
:105590008F4F8093900EA8F08091910E8F4F809343
:1055A000910E78F08091920E8F4F8093920E09C0E9
:1055B0008D5780938E0E80918F0E8E5F80938F0E0D
:1055C00028F78091930E8C5F8093930E58F0809112
:1055D000940E8F4F8093940E28F08091950E8F4FEC
:1055E0008093950E8F918FBF8F911895CF92DF92F8
:1055F000EF92FF926B017C0119D09B01C114D10481
:10560000E104F10429F4FF90EF90DF90CF9008952A
:105610000DD0621B730B683E734080F381E0C81AA3
:10562000D108E108F10828513C4FE8CF0FB6F894B3
:1056300066B515B27091930E8091940E9091950E6F
:105640000FBE10FE05C06F3F19F07C5F8F4F9F4F5C
:1056500011240024660F001C660F001C7029089599
:105660008091E80080FFFCCF08958091D80087FFEB
:1056700002C085FF1BC081E88093D70080EA809339
:10568000D80086E189BD09B400FEFDCF80E9809392
:10569000D8001092E00010921D0F10921C0F109273
:1056A0001B0F1092E1008DE08093E20008951F929D
:1056B0000F920FB60F9211240BB60F922F933F93B8
:1056C0004F935F936F937F938F939F93AF93BF930A
:1056D000EF93FF939091E1001092E10093FF11C0CE
:1056E0001092E90081E08093EB001092EC0082E2DE
:1056F0008093ED0088E08093F00010921D0F1092CF
:105700001B0F92FF1DC080911D0F8823C9F080914F
:10571000990E882359F081508093990E811106C00B
:1057200084E08093E9008AE38093E8008091980EFA
:10573000882331F081508093980E811101C0F0DEF2
:1057400090FF0CC080E18093E20010921D0F81E079
:1057500080931C0F80EA8093D80019BC80911C0FA5
:10576000882379F094FF0DC086E189BD09B400FE5D
:10577000FDCF80E98093D8008DE08093E200109205
:105780001C0FFF91EF91BF91AF919F918F917F91EE
:105790006F915F914F913F912F910F900BBE0F90A2
:1057A0000FBE0F901F9018951F920F920FB60F9279
:1057B00011240BB60F92EF92FF920F931F932F932A
:1057C0003F934F935F936F937F938F939F93AF9389
:1057D000BF93CF93DF93EF93FF931092E9008091F3
:1057E000E80083FF20C0D091F100C091F100E0906B
:1057F000F100F090F1000091F1001091F100209182
:10580000F1003091F10082EF8093E800C63009F09A
:105810005BC0E4E9F6E085919591E816F90639F068
:105820003596C150C1F781E28093EB002BC0859182
:1058300095910817190711F03396F3CF45915591BB
:1058400084912F3F310519F010F02FEF30E08217CF
:1058500008F4282F3EEF8091E800982F9570D9F337
:1058600082FD10C0822F213208F080E2982F911122
:1058700024C0922F981B892F3093E80091111BC0F0
:105880002032C8F4FF91EF91DF91CF91BF91AF919A
:105890009F918F917F916F915F914F913F912F9148
:1058A0001F910F91FF90EF900F900BBE0F900FBEC6
:1058B0000F901F901895282FCECFFA014591409355
:1058C000F100AF019150D3CFC53049F48EEF8093F2
:1058D000E800C6DE8E2D80688093E300D3CFC93008
:1058E00021F5D111A0CFE0921D0F10921B0F109245
:1058F000990E8EEF8093E80081E0E7E5F7E0809372
:10590000E90095919093EB00992331F09591909354
:10591000EC0095919093ED008F5F853081F78EE1DB
:105920008093EA001092EA00ADCFC83061F4D0381D
:1059300009F079CF95DE80911D0F8093F1008EEFF5
:105940008093E8009FCFC13279F4D13A09F06BCF50
:1059500087DEE1E1F1E080818093F100319681E022
:10596000E831F807C1F7EBCFC03209F047C0D132B8
:1059700009F059CF8091E80082FFFCCFE1E1F1E02E
:105980008091F1008083319691E0E831F907C1F709
:105990008BEF8093E8008EEF8093E8003091110147
:1059A00040911201809113012091140190E0B0E028
:1059B000A0E0DC0199278827942B832BB22B863813
:1059C0009105A105B10521F48FE08093980E5ACF7F
:1059D00086399105A105B10509F054CF84E0809383
:1059E000E9009FEF8091EE00837009F4B6DD90939B
:1059F000E8008091E80082FDFCCFF4CFC23239F498
:105A0000D13209F010CFE0921B0F2ADE98CFC332BB
:105A100021F4D13209F007CFF8CFC11111C020DE37
:105A2000D23849F40093E900C091EB00C5FBCC27C4
:105A3000C0F91092E900C093F1001092F1007FCFFD
:105A40008C2F8D7F813009F0EECED23009F0EBCE75
:105A5000EF2809F0E8CE0F778FEF800F863008F03F
:105A6000E2CE8EEF8093E8000093E900C33009F4A2
:105A7000DACE89E18093EB0081E090E001C0880FED
:105A80000A95EAF74DCF5091CE0E4091CD0E852F5D
:105A900090E0242F30E0541718F0821B930B0895E8
:105AA000805C9F4FFACF5091CE0E4091CD0E252FA6
:105AB00030E0842F90E0821B930B541710F08796F0
:105AC0000895019708958091CE0EE091CD0E8E1726
:105AD00051F0EF5FE03408F0E0E0F0E0E153F14F27
