:1000000035C400005DC400005BC4000059C400009A
:1000100057C4000055C4000053C4000051C4000080
:100020004FC400004DC400000C941C3C0C94993C3F
:1000300047C4000045C4000043C4000041C40000A0
:100040003FC400003DC400003BC4000039C40000B0
:1000500037C4000035C4000033C400000C947B3B5F
:100060002FC400000C94D73E0C94023F0C94333FF5
:1000700027C4000025C4000023C4000021C40000E0
:100080000C9498161DC400001BC4000019C4000085
:1000900017C4000015C4000000100000003000006C
:1000A0000050000000700000008000000080000090
:1000B00000800000198D1900339933004DA64D00C2
:1000C00066B3660080C0800099CC9900B3D9B300B4
:1000D000CCE6CC00E6F2E60000000000003E5B4FFC
:1000E0005B3E3E6B4F6B3E1C3E7C3E1C183C7E3C98
:1000F000181C577D571C1C5E7F5E1C00183C1800A6
:10010000FFE7C3E7FF0018241800FFE7DBE7FF3035
:10011000483A060E2629792926407F050507407FA3
:1001200005253F5A3CE73C5A7F3E1C1C08081C1C16
:100130003E7F14227F22145F5F005F5F06097F010C
:100140007F006689956A606060606094A2FFA294F7
:1001500008047E040810207E201008082A1C0808C5
:100160001C2A08081E101010100C1E0C1E0C303813
:100170003E3830060E3E0E06000000000000005F14
:1001800000000007000700147F147F14242A7F2A30
:1001900012231308646236495620500008070300F2
:1001A000001C2241000041221C002A1C7F1C2A083E
:1001B000083E0808008070300008080808080000A1
:1001C00060600020100804023E5149453E00427F15
:1001D000400072494949462141494D331814127F64
:1001E0001027454545393C4A494931412111090704
:1001F0003649494936464949291E00001400000085
:100200004034000000081422411414141414004156
:1002100022140802015909063E415D594E7C121113
:10022000127C7F494949363E414141227F4141414B
:100230003E7F494949417F090909013E41415173C6
:100240007F0808087F00417F41002040413F017F37
:10025000081422417F404040407F021C027F7F04FF
:1002600008107F3E4141413E7F090909063E415148
:10027000215E7F09192946264949493203017F0138
:10028000033F4040403F1F2040201F3F4038403F39
:10029000631408146303047804036159494D43004F
:1002A0007F4141410204081020004141417F040286
:1002B000010204404040404000030708002054541D
:1002C00078407F28444438384444442838444428FB
:1002D0007F385454541800087E090218A4A49C784E
:1002E0007F0804047800447D40002040403D007FAA
:1002F0001028440000417F40007C047804787C088A
:100300000404783844444438FC182424181824245D
:1003100018FC7C08040408485454542404043F4442
:10032000243C4040207C1C2040201C3C4030403C71
:1003300044281028444C9090907C4464544C4400D1
:100340000836410000007700000041360800020135
:100350000204023C2623263C1EA1A161123A404021
:10036000207A38545455592155557941225454789E
:1003700042215554784020545579400C1E52721237
:1003800039555555593954545459395554545800C0
:1003900000457C410002457D420001457C407D12C4
:1003A00011127DF0282528F07C5455450020545426
:1003B0007C547C0A097F4932494949323A444444D1
:1003C0003A324A4848303A4141217A3A424020780C
:1003D000009DA0A07D3D4242423D3D4040403D3C0D
:1003E00024FF2424487E4943662B2FFC2F2BFF0932
:1003F00029F620C0887E0903205454794100004426
:100400007D413048484A32384040227A007A0A0A10
:10041000727D0D19317D2629292F28262929292683
:1004200030484D4020380808080808080808382FC8
:1004300010C8ACBA2F102834FA00007B0000081452
:100440002A142222142A14085500550055AA55AA28
:1004500055AAFF55FF55FF000000FF00101010FFC8
:1004600000141414FF001010FF00FF1010F010F023
:10047000141414FC001414F700FF0000FF00FF1414
:1004800014F404FC141417101F10101F101F141460
:10049000141F00101010F0000000001F10101010AA
:1004A0001F10101010F010000000FF10101010109E
:1004B00010101010FF10000000FF140000FF00FFDC
:1004C00000001F10170000FC04F414141710171478
:1004D00014F404F40000FF00F7141414141414149A
:1004E000F700F7141414171410101F101F1414140D
:1004F000F4141010F010F000001F101F0000001F77
:1005000014000000FC140000F010F01010FF10FFA9
:10051000141414FF141010101F00000000F010FF3E
:10052000FFFFFFFFF0F0F0F0F0FFFFFF0000000022
:1005300000FFFF0F0F0F0F0F3844443844FC4A4AA6
:100540004A347E02020606027E027E02635549415B
:10055000633844443C04407E201E2006027E020292
:1005600099A5E7A5991C2A492A1C4C7201724C30A6
:100570004A4D4D303048784830BC625A463D3E497D
:100580004949007E0101017E2A2A2A2A2A44445F21
:10059000444440514A444040444A51400000FF0115
:1005A00003E080FF000008086B6B08361236243623
:1005B000060F090F06000018180000001010003088
:1005C00040FF0101001F01011E00191D1712003C10
:1005D0003C3C3C000000000000010203040506084A
:1005E000090A0B0D0E1012131517191B1D202225B9
:1005F000272A2D3033373A3E4145494D52565B5FED
:1006000064696E74797F858B91979DA4ABB2B9C0F4
:10061000C7CFD6DEE6EEF7FF000102030507090BA0
:100620000E1114181D22282E363D464F59646F7C3A
:100630008997A6B6C7D9EBFFAB0055007C008400B4
:100640004B00B5001B00E5000017E8000047B800AC
:100650000077AB0000ABAB000055AB000022DD0023
:100660000E00F2003E00C20071008F00A1005F008A
:10067000D0002F00F90700000000FF00000000007C
:100680000055AB000000000000ABAB000000000014
:1006900000FF00000000000055AB0000000000005B
:1006A000FF00000000000000AB005500000000004B
:1006B0005500AB00000000000000FF00002AD5003C
:1006C0000055AB00007FAB0000ABAB0000D556007F
:1006D00000FF00002AD5000055AB0000AA5600001C
:1006E000FF000000D5002A00AB00550081007F000C
:1006F0005500AB002B00D500FF0000008B00000070
:100700008B0000008B0000008B0000008B000000BD
:100710008B0000008B000000FF0000008B00000039
:10072000EBCE8700EBCE8700E6D8AD00FFFFFF00E1
:10073000E6D8AD00EBCE870001290229042908295B
:100740001029202940298029012C022C012602266B
:10075000042608261026202640268026402C802CA1
:100760000123022304230823102320234023802372
:10077000012002200420082010202020402080207A
:10078000102C202C012F022F042F082F102F202F88
:10079000402F802F000100004508120002000002D7
:1007A000084300030000FE070401030904E40718DE
:1007B00002030904CC071603030904BE070C0C034B
:1007C00031003200330034003500000016035500BC
:1007D0005300420020005300650072006900610070
:1007E0006C00000018035400650065006E00730083
:1007F00079006400750069006E006F00000004035A
:10080000090409024300020100C03209040000018A
:100810000202010005240010010524010001042446
:1008200002060524060001070582030800400904AA
:100830000100020A0000000705030240000007054E
:1008400084024000001201000202000020C0168352
:10085000047202010203010001C10201803601811C
:100860003600E127F736513F16425C2811241FBE9F
:10087000CFEFD0E2DEBFCDBF19E0A0E0B1E0E8E706
:10088000FCE800E00BBF02C007900D92A632B10752
:10089000D9F720E1A6E2B9E001C01D92AB3AB20758
:1008A000E1F714E0C5E3D4E004C02197FE010E9403
:1008B0004545C133D107C9F70E94623F0C943046C9
:1008C0009FCBFC01858596850895CF93DF9300D05B
:1008D00000D000D0CDB7DEB7AB011C821D821E82D6
:1008E000DC01ED91FC910190F081E02D19821A82DA
:1008F0001B829E012F5F3F4FBE016C5F7F4F0995AA
:1009000026960FB6F894DEBF0FBECDBFDF91CF9114
:1009100008956731710508F0EFC0FB01EE56FB4FFB
:100920000C944545A904B404BC04C904D404DB04F4
:10093000E204E904F304FD04070511051B05250580
:100940002F0537053F0546054D0554055E0568052D
:10095000720504978330910508F0CEC083559B4FF4
:10096000FC01808190E0089502978630910508F09F
:10097000C3C089559B4FF4CF01978331910508F08F
:10098000BBC0880F991FFC01EF57FB4F80819181FD
:10099000089501978531910508F0AEC0880F991F21
:1009A000FC01E95AFB4FF2CF8431910508F0A4C055
:1009B0008D5B9B4FD5CF8431910508F09DC0815D43
:1009C0009B4FCECF8F30910508F096C0805E9B4F35
:1009D000C7CF8F30910508F08FC0880F991FFC0199
:1009E000EE5FFB4FD3CF8F30910508F085C0880FA5
:1009F000991FFC01EC51FC4FC9CF8F30910508F0D5
:100A00007BC0880F991FFC01EA53FC4FBFCF8F308A
:100A1000910508F071C0880F991FFC01E855FC4F43
:100A2000B5CF8F30910508F067C0880F991FFC0182
:100A3000E657FC4FABCF8F30910508F05DC0880FB3
:100A4000991FFC01E459FC4FA1CF8F30910508F0AC
:100A500053C0880F991FFC01E25BFC4F97CF0197B1
:100A60008E30910508F048C0805C9C4F79CF02978A
:100A70008131910508F040C0815D9C4F71CF019795
:100A800082319105C8F5835E9C4F6ACF019783310F
:100A9000910590F5865F9C4F63CF01978431910556
:100AA00058F58A509D4F5CCF01978331910520F511
:100AB000880F991FFC01E053FD4F68CF02978730E4
:100AC0009105D0F4880F991FFC01EE53FD4F5ECFC6
:100AD00003978530910580F4880F991FFC01E85435
:100AE000FD4F54CF04978330910530F4880F991F40
:100AF000FC01EE54FD4F4ACF8CE291E0089580E96D
:100B000091E008953A9A0895FB0101900020E9F7D9
:100B10003197AF01461B570BDC01ED91FC91028030
:100B2000F381E02D0994F0CF462F50E070E060E0B3
:100B300020E00C940E400F931F93CF93DF93EC01B2
:100B4000F3DF8C01CE010E94F43F800F911FDF91F3
:100B5000CF911F910F9108950F931F93DC01AC016A
:100B6000405D5F4FFB0105911591259134912C93C8
:100B700011961C93119712960C9312976C5F7F4FEE
:100B80001396A417B50771F71F910F910895FC01F3
:100B900060810C943F35FC0140810C94CF35DC0121
:100BA000ED91FC9102A0F3A1E02D70E060E00994CA
:100BB00024E030E040E050E061E070E080E090E070
:100BC0000E9448426230710531F06330710531F0A6
:100BD00090E080E008958FE790E008958FEF90E037
:100BE000089527E030E040E050E061E070E080E010
:100BF00090E00E944842615071096730710540F4ED
:100C0000660F771FFB01EC55FD4F808191810895A0
:100C100090E080E0089529E030E040E050E061E0BD
:100C200070E080E090E00E944842615071096730B6
:100C3000710540F4660F771FFB01EA56FD4F808176
:100C40009181089590E080E008950F931F93CF93D2
:100C5000DF938C01C62F8091FC0981110EC061E0E9
:100C60008FE090E10E946736109307010093060120
:100C7000C093FB0981E08093FC098091B5099091B4
:100C8000B609892B49F494DF8093B90991DF8093E9
:100C9000B8098EDF8093B709C091B709D091B80920
:100CA0001091B90926E131E040E050E060E070E0E9
:100CB000CB010E944842FB01EE0FFF1FE60FF71F1A
:100CC000E05FF54F1083D183C28323E030E040E042
:100CD00050E060E070E0CB010E9448426130710555
:100CE0008105910599F426E131E040E050E060E0B3
:100CF00070E0CB010E944842FB01EE0FFF1FE60FA0
:100D0000F71FE05FF54F1082118212828FE090E1B1
:100D10003EDF8091020A9091030A88399A43F0F0ED
:100D20001092030A1092020A84E00E94233A0E9461
:100D300029428091B5099091B609019684309105B8
:100D400091F09093B6098093B50932DF8093B90989
:100D50002FDF8093B8092CDF8093B709DF91CF9103
:100D60001F910F91089581E090E0EBCFDF92EF9219
:100D7000FF920F931F93CF93DF937C01062FC42F15
:100D80008091FC0981110EC061E08FE090E10E942A
:100D90006736F0920701E0920601C093FB0981E0FB
:100DA0008093FC0960E08FE090E10E9467368FEF4E
:100DB00080930F10D0E0C0E010E0C017D107DCF442
:100DC000F7DEF82EF5DEE82EF3DED82E26E131E050
:100DD00040E050E060E070E0CB010E944842FB013F
:100DE000EE0FFF1FE60FF71FE05FF54FD082E182A5
:100DF000F2822196E2CF8FE090E1DF91CF911F91B7
:100E00000F91FF90EF90DF90C2CECF92DF92FF92D2
:100E10000F931F93CF93DF9300D01F92CDB7DEB710
:100E20006C01F62E8A018091FC09811112C061E0EB
:100E30008FE090E10E946736D0920701C0920601D0
:100E4000F092FB0981E08093FC091093030A009360
:100E5000020A8091020A9091030A8017910778F1A3
:100E60001092030A1092020AA3DE8093B909A0DE51
:100E70008093B8099DDE8093B7099091B9099111CB
:100E80000FC09091B80991110BC0811109C090DE7B
:100E90008093B9098DDE8093B8098ADE8093B70903
:100EA0008091B7099091B8092091B90929839A8353
:100EB0008B83BE016F5F7F4F8FE090E16CDE0F9000
:100EC0000F900F90DF91CF911F910F91FF90DF90C6
:100ED000CF900895AF92BF92CF92DF92EF92FF92A0
:100EE0000F931F93CF93DF9300D01F92CDB7DEB740
:100EF0005C01F62E6A01122F8091FC09811112C04B
:100F000061E08FE090E10E946736B0920701A09205
:100F10000601F092FB0981E08093FC09D092030A5C
:100F2000C092020A8091020A9091030A8C159D05D5
:100F300098F01092030A1092020A8091050A882301
:100F4000C9F019830A83EB82BE016F5F7F4F8FE088
:100F500090E121DE1092050A0F900F900F90DF9123
:100F6000CF911F910F91FF90EF90DF90CF90BF90A6
:100F7000AF90089519821A821B82BE016F5F7F4F66
:100F80008FE090E108DE81E08093050AE5CFEF92E3
:100F9000FF920F931F93CF938C01C62F8091FC0972
:100FA00081110EC061E08FE090E10E9467361093DE
:100FB000070100930601C093FB0981E08093FC09BF
:100FC0006091F3097091F4099B012F5F3F4F4091AD
:100FD000EE098091FE0F9091FF0F411152C03093A6
:100FE000F4092093F309273131051CF021E0209307
:100FF000EE099B012D5F3F4FDC01ED91FC9100A0BC
:10100000F1A1E02DE12C58EFF52E07E110E050E0C2
:1010100040E009958091FE0F9091FF0F6091F309D8
:101020007091F4099B012F5F3F4FDC01ED91FC9122
:1010300000A0F1A1E02DEE24EA94FE2C50E040E067
:1010400009958091FE0F9091FF0F6091F3097091C7
:10105000F4099B012250310965507109DC01ED91C1
:10106000FC9100A0F1A1E02DF12CE12C50E040E03A
:1010700009958FE090E1CF911F910F91FF90EF9034
:1010800086CD615071097093F4096093F3096E3F46
:10109000BFEF7B0714F41092EE09DC01ED91FC9197
:1010A00000A0F1A1E02DE12C48EFF42E07E110E0C3
:1010B00050E040E009958091FE0F9091FF0F609104
:1010C000F3097091F4099B012C5F3F4F6E5F7F4FD6
:1010D000C5CF8F929F92AF92BF92CF92DF92EF9245
:1010E000FF920F931F93CF93DF937C01EB01142F9B
:1010F0008091FC09811118C061E08FE090E10E94AD
:101100006736F0920701E09206011093FB0981E037
:101110008093FC0966DD90930E0A80930D0A61DDD1
:1011200090930C0A80930B0A1C161D06ACF4809158
:10113000020A9091030A8C179D0770F01092030A1F
:101140001092020A4EDD90930E0A80930D0A49DD3B
:1011500090930C0A80930B0A8091F3099091F40903
:1011600001968A3091050CF0FCC09093F4098093AD
:10117000F30960E08FE090E10E9467368091FE0FF6
:101180009091FF0F4091F3095091F409E0900D0AFE
:10119000F0900E0A9A01265F3F4F6AE0A62EB12C0E
:1011A000B501641B750BDC01ED91FC9104A0F5A168
:1011B000E02D06E110E050E040E009958091FE0F3F
:1011C0009091FF0F4091F3095091F409E0900B0AC0
:1011D000F0900C0A9A01255F3F4F7BE0872E912CFF
:1011E000B401641B750BDC01ED91FC9104A0F5A129
:1011F000E02D50E040E009958091FE0F9091FF0FA7
:101200004091F3095091F409E0900D0AF0900E0A14
:10121000E6E1CE2ED12C041B150B4F5F5F4FDC0196
:10122000ED91FC9104A0F5A1E02D25E130E070E006
:1012300060E009958091FE0F9091FF0F4091F309B6
:101240005091F409E0900B0AF0900C0AC5E1D0E04F
:101250008E01041B150BDC01ED91FC9104A0F5A19E
:10126000E02D25E130E070E060E009958091FE0F0F
:101270009091FF0F4091F3095091F409E0900D0A0D
:10128000F0900E0A8401041B150B455F5F4FDC01D3
:10129000ED91FC9104A0F5A1E02D25E130E070E096
:1012A00060E009958091FE0F9091FF0F4091F30946
:1012B0005091F409E0900B0AF0900C0A8501041B90
:1012C000150B465F5F4FDC01ED91FC9104A0F5A189
:1012D000E02D25E130E070E060E009958091FE0F9F
:1012E0009091FF0F6091F3097091F409E0900D0A5D
:1012F000F0900E0A9601261B370BDC01ED91FC9154
:1013000004A0F5A1E02D10E000E046E150E00995D1
:101310008091FE0F9091FF0F6091F3097091F40995
:10132000E0900B0AF0900C0A9E01261B370B6150CF
:101330007109DC01ED91FC9104A0F5A1E02D46E1DD
:1013400050E009958FE090E1DF91CF911F910F91CF
:10135000FF90EF90DF90CF90BF90AF909F908F90D5
:1013600016CC1092F4091092F30903CF462F70E0C7
:1013700060E0AFCE0F931F93CF938C01C62F809167
:10138000FC0981110EC061E08FE090E10E94673698
:101390001093070100930601C093FB0981E080933D
:1013A000FC0960E08FE090E10E9467368FE090E1F9
:1013B000CF911F910F91EBCB8F929F92AF92BF92E3
:1013C000CF92DF92EF92FF920F931F93CF93DF9311
:1013D0007C01162FEA018091FC09811112C061E0A5
:1013E0008FE090E10E946736F0920701E0920601DB
:1013F0001093FB0981E08093FC09D093030AC0930A
:10140000020A8091020A9091030A8C179D07E0F16D
:101410001092030A1092020AC091FE0FD091FF0FA2
:10142000FADB8C012AE030E040E050E063E070E05D
:1014300080E090E00E9448424B0126E130E040E02D
:1014400050E060E070E0CB010E9448426B0125E172
:1014500030E040E050E060E070E0CB010E944842A4
:101460009401A601CE010E94852D8FE090E1DF91CD
:10147000CF911F910F91FF90EF90DF90CF90BF9091
:10148000AF909F908F9083CBDF91CF911F910F9161
:10149000FF90EF90DF90CF90BF90AF909F908F9094
:1014A0000895CF92DF92EF92FF920F931F93CF9305
:1014B000DF936C01F62EEA018091FC09811112C0C4
:1014C00061E08FE090E10E946736D0920701C09200
:1014D0000601F092FB0981E08093FC09D093030A96
:1014E000C093020A8091020A9091030A8C179D070B
:1014F00008F472C01092030A1092020A25E130E04B
:1015000040E050E060E070E0CB010E944842C62F0E
:1015100025E130E040E050E060E070E0CB010E9467
:101520004842C62E5EDB90930E0A80930D0A60E05F
:101530008FE090E10E9467368091FE0F9091FF0F3F
:10154000D12CD0E0E0900D0AF0900E0A96012150C7
:101550003109BE0161507109DC01ED91FC9104A0DB
:10156000F5A1E02D06E110E050E040E00995809102
:10157000FE0F9091FF0FE0900D0AF0900E0ADC0133
:10158000ED91FC9104A0F5A1E02D960150E040E022
:10159000BE0109958091FE0F9091FF0FE0900D0A1A
:1015A000F0900E0A96012F5F3F4FBE016F5F7F4F95
:1015B000DC01ED91FC9104A0F5A1E02D50E040E0AC
:1015C00009958FE090E1DF91CF911F910F91FF90EE
:1015D000EF90DF90CF90DBCADF91CF911F910F91F9
:1015E000FF90EF90DF90CF900895CF92DF92EF922F
:1015F000FF920F931F93CF93DF938C01C62F80919F
:10160000FC0981110EC061E08FE090E10E94673615
:101610001093070100930601C093FB0981E08093BA
:10162000FC0960E08FE090E10E9467368091EC0950
:101630009091ED098230910509F459C07CF400972E
:1016400039F10197E1F18FE090E1DF91CF911F91A6
:101650000F91FF90EF90DF90CF9099CA8430910561
:1016600009F49AC00CF472C0059769F78091F309E8
:101670009091F40901979093F4098093F309181657
:1016800019060CF49DC01092ED091092EC0912C0DD
:101690008091F3099091F40901969093F409809355
:1016A000F3094A970CF461C081E090E09093ED0952
:1016B0008093EC091092F4091092F309C4CF809141
:1016C000F3099091F40901969093F4098093F3093A
:1016D0000C9714F182E090E09093ED098093EC096F
:1016E0008CE090E09093F4098093F309ACCF809163
:1016F000F3099091F40901979093F4098093F30909
:10170000181619064CF083E090E09093ED09809351
:10171000EC0989E190E0E6CFC091FE0FD091FF0F78
:10172000E881F981C4A0D5A05CDA4091F309509119
:10173000F40906E110E0041B150B7C0130E020E009
:1017400069E170E0CE01F60109957DCF8091F30942
:101750009091F40901979093F4098093F309181676
:1017600019061CF084E090E0A1CFC091FE0FD0914B
:10177000FF0FE881F981C4A0D5A033DA6091F309A5
:101780007091F40929E130E0261B370B7C0106E15A
:1017900010E050E040E0D6CF8091F3099091F40939
:1017A00001969093F4098093F3090B974CF085E030
:1017B00090E09093ED098093EC098AE090E092CF5D
:1017C000C091FE0FD091FF0FE881F981C4A0D5A090
:1017D00008DA4091F3095091F40906E110E0041B86
:1017E000150B7C0129E130E070E060E0ABCFCF92D7
:1017F000DF92EF92FF920F931F93CF93DF938C01B1
:10180000C62F8091FC0981110EC061E08FE090E14C
:101810000E9467361093070100930601C093FB09ED
:1018200081E08093FC0960E08FE090E10E946736E0
:101830008091EE09E091F309F091F409811108C15A
:10184000E930F10528F5E95DF34F0C944545300C7E
:10185000620C7B0C940CAD0CC60CDE0CF70C100D5E
:10186000CAEAD7E006E418E0E990F990A1D9D82EA9
:101870009FD9C82E9DD9F701EE0FFF1FEE0DFF1D5A
:10188000E05FF54F8083C182D2820C171D0761F79C
:101890008FE090E17CD98091F3099091F409019651
:1018A0009093F4098093F30909971CF081E08093E9
:1018B000EE09DF91CF911F910F91FF90EF90DF9094
:1018C000CF900895CEE1D7E00AEA17E0E990F990C9
:1018D0006FD9D82E6DD9C82E6BD9F701EE0FFF1F27
:1018E000EE0DFF1DE05FF54F8083C182D2820C17A1
:1018F0001D0761F7CDCFC2EBD6E00EE117E0E9900E
:10190000F99056D9D82E54D9C82E52D9F701EE0FD6
:10191000FF1FEE0DFF1DE05FF54F8083C182D28275
:101920000C171D0761F7B4CFC8E6D6E002EB16E04E
:10193000E990F9903DD9D82E3BD9C82E39D9F70175
:10194000EE0FFF1FEE0DFF1DE05FF54F8083C1829C
:10195000D2820C171D0761F79BCFC8E2D6E008E6DC
:1019600016E0E990F99024D9D82E22D9C82E20D992
:10197000F701EE0FFF1FEE0DFF1DE05FF54F8083B7
:10198000C182D2820C171D0761F782CFCCEED5E061
:10199000099119910DD9F82E0BD9E82E09D9F80122
:1019A000EE0FFF1FE00FF11FE05FF54F8083E18234
:1019B000F28286E0C832D80759F76ACFC6EBD5E085
:1019C0000CEE15E0E990F990F3D8D82EF1D8C82E96
:1019D000EFD8F701EE0FFF1FEE0DFF1DE05FF54F93
:1019E0008083C182D2820C171D0761F751CFC2E8F4
:1019F000D5E006EB15E0E990F990DAD8D82ED8D8E2
:101A0000C82ED6D8F701EE0FFF1FEE0DFF1DE05FC9
:101A1000F54F8083C182D2820C171D0761F738CF42
:101A2000C2E5D5E009911991C3D8F82EC1D8E82EA6
:101A3000BFD8F801EE0FFF1FE00FF11FE05FF54F79
:101A40008083E182F28285E0C238D80759F720CF3F
:101A5000E930F10520F5E15DF24F0C944545380D74
:101A6000620D7A0D920DAA0DC20DDA0DF50D100E54
:101A7000CAEAD7E0099119919BD8F82E99D8E82E97
:101A800097D8F801EE0FFF1FE00FF11FE05FF54F51
:101A90008083E182F28288E0C634D80759F78FE06C
:101AA00090E175D88091F3099091F4090197909392
:101AB000F4098093F309181619060CF4FACE109263
:101AC000EE09F7CECEE1D7E00991199171D8F82E41
:101AD0006FD8E82E6DD8F801EE0FFF1FE00FF11F51
:101AE000E05FF54F8083E182F28287E0CA3AD8074F
:101AF00059F7D5CFC2EBD6E00991199159D8F82EF4
:101B000057D8E82E55D8F801EE0FFF1FE00FF11F50
:101B1000E05FF54F8083E182F28287E0CE31D80723
:101B200059F7BDCFC8E6D6E00991199141D8F82EF2
:101B30003FD8E82E3DD8F801EE0FFF1FE00FF11F50
:101B4000E05FF54F8083E182F28286E0C23BD807F6
:101B500059F7A5CFC8E2D6E00991199129D8F82EF6
:101B600027D8E82E25D8F801EE0FFF1FE00FF11F50
:101B7000E05FF54F8083E182F28286E0C836D807C5
:101B800059F78DCFCCEED5E00991199111D8F82EE7
:101B90000FD8E82E0DD8F801EE0FFF1FE00FF11F50
:101BA000E05FF54F8083E182F28286E0C832D80799
:101BB00059F775CFC6EBD5E0099119910E94D80568
:101BC000F82E0E94D805E82E0E94D805F801EE0FE5
:101BD000FF1FE00FF11FE05FF54F8083E182F2828B
:101BE00085E0CC3ED80741F75ACFC2E8D5E009914D
:101BF00019910E94D805F82E0E94D805E82E0E945F
:101C0000D805F801EE0FFF1FE00FF11FE05FF54F61
:101C10008083E182F28285E0C63BD80741F73FCF5F
:101C2000C2E5D5E0099119910E94D805F82E0E94CD
:101C3000D805E82E0E94D805F801EE0FFF1FE00F2F
:101C4000F11FE05FF54F8083E182F28285E0C238C8
:101C5000D80741F724CFAF92BF92CF92DF92EF9295
:101C6000FF920F93CF93DF937C015B016A01E9013F
:101C70008091FC09811126C061E08FE090E10E9413
:101C80006736B0920701A09206010093FB0981E03C
:101C90008093FC09D092030AC092020A84E190E08A
:101CA0009093050180930401D70114962D913C91E6
:101CB00046E0429FC001439F900D11249093F0098C
:101CC0008093EF098091020A9091030A8C159D057B
:101CD00008F468C01092030A1092020A85E080930B
:101CE0000F108091FE0F9091FF0F0E94CF05809101
:101CF000FE0F9091FF0FFC01168A61E00E94CB302D
:101D00008091FE0F9091FF0FDC01ED91FC91008C12
:101D1000F18DE02D60E0099580910401909105011D
:101D2000019790930501809304012091EF09309170
:101D3000F0093195219531098217930734F484E134
:101D400090E090930501809304010E944E4380919E
:101D5000FE0F9091FF0F0E94CF05E091FE0FF091D2
:101D6000FF0F8091040190910501948783878DE096
:101D700090E096878587D28BC18BD08BC787B701C0
:101D8000CF010E949F3F8091FE0F9091FF0FDF9146
:101D9000CF910F91FF90EF90DF90CF90BF90AF90D9
:101DA0000C94EA30DF91CF910F91FF90EF90DF908C
:101DB000CF90BF90AF900895EF92FF920F931F9333
:101DC000CF93DF938C01C62F8091FC0981110EC047
:101DD00061E08FE090E10E94673610930701009365
:101DE0000601C093FB0981E08093FC098091020AFF
:101DF0009091030A843F914008F4B2C01092030A04
:101E00001092020A8FE080930F108091FE0F909144
:101E1000FF0F0E94CF058091FE0F9091FF0FDC0114
:101E200056961C9261E00E94CB308091FE0F9091FB
:101E3000FF0FDC01ED91FC91008CF18DE02D60E055
:101E400009950E944E438091FE0F9091FF0F0E94D2
:101E5000CF05C091FE0FD091FF0F1C861B8683E03B
:101E600090E09E878D870E94F1059A8B898B988BD5
:101E70008F8769E171E08091FE0F9091FF0F0E94C2
:101E80009305C091FE0FD091FF0F1C861B8688E042
:101E900090E09E878D870E94F1059A8B898B988BA5
:101EA0008F876BE171E08091FE0F9091FF0F0E9490
:101EB0009305C091FE0FD091FF0F84E090E09C87C6
:101EC0008B870DE010E01E870D870E94F1059A8B2D
:101ED000898B988B8F876BE171E08091FE0F9091D9
:101EE000FF0F0E949305C091FE0FD091FF0F89E074
:101EF00090E09C878B878EE0E82EF12CFE86ED86A5
:101F00000E94F1059A8B898B988B8F876DE171E028
:101F10008091FE0F9091FF0F0E949305C091FE0FDC
:101F2000D091FF0FFC86EB861E870D870E94F1057E
:101F30009A8B898B988B8F876BE471E08091FE0F71
:101F40009091FF0F0E9493058091FE0F9091FF0FDB
:101F5000DF91CF911F910F91FF90EF900C94EA3099
:101F6000DF91CF911F910F91FF90EF9008958F9285
:101F70009F92AF92BF92CF92DF92EF920F931F93F7
:101F8000CF93DF93EC015B016A0149018091FC0969
:101F9000811116C061E08FE090E10E946736909257
:101FA000070180920601E092FB0981E08093FC0921
:101FB0001092B4091092B309D092030AC092020A97
:101FC0008091020A9091030A8C159D0508F45BC06C
:101FD0001092030A1092020A8091B3099091B409F9
:101FE000A816B9060CF44FC085E080930F108091BD
:101FF000FE0F9091FF0F0E94CF058091FE0F9091F0
:10200000FF0FDC0156961C9261E00E94CB3080915C
:10201000FE0F9091FF0FDC01ED91FC91008CF18D92
:10202000E02D60E009950E944E43E091FE0FF09193
:10203000FF0F82E090E0948783878DE090E09687A1
:102040008587128B018B108B07878091B309909144
:10205000B40927E0289FB001299F700D11246C0F4F
:102060007D1FCF010E949F3F8091FE0F9091FF0F37
:102070000E94EA308091B3099091B409019690933F
:10208000B4098093B309DF91CF911F910F91EF9025
:10209000DF90CF90BF90AF909F908F900895BF92A8
:1020A000CF92DF92EF92FF920F931F93CF93DF9324
:1020B00000D01F92CDB7DEB70CEB19E08CEEE82E06
:1020C00089E0F82E95E0C92E98E0D92EBB24BA9469
:1020D00020910801309109012C9DC0012D9D900D8A
:1020E0003C9D900D1124875E994C8C9D90018D9D97
:1020F000300D9C9D300D1124275E394C3093090121
:1021000020930801230F2983BA82890F8B83B8019A
:10211000CE0101960E94FA360D5F1F4FE016F106C0
:10212000B9F60F900F900F90DF91CF911F910F9103
:10213000FF90EF90DF90CF90BF900895CF93DF9303
:1021400000D01F92CDB7DEB719821A821B82AE0172
:102150004F5F5F4F60E170E08CEB99E00E94D933F4
:10216000ECEBF9E08FEF808381838283848785871E
:102170008687808F818F828F84A385A386A30F900B
:102180000F900F90DF91CF9108951F93CF93DF931E
:10219000CDB7DEB7E6970FB6F894DEBF0FBECDBF62
:1021A00080EC89831FEF1A831B83BE016C5C7F4F19
:1021B000CE0101960E94FA3680E689831A831B833A
:1021C000BE016F5C7F4FCE0101960E94FA3659A97D
:1021D00059834AA94A833BA93B835C834D833E8351
:1021E0001F82188619861A861B861C862CA92D87A5
:1021F0009DA99E878EA98F87288B998B8A8B1B8A96
:102200001C8A1D8A1E8A1F8A188E598F4A8F3B8FFF
:102210005C8F4D8F3E8F1F8E18A219A21AA21BA28F
:102220001CA22DA39EA38FA328A799A78AA71BA6AC
:102230001CA61DA61EA61FA618AA40E350E0BE01BC
:102240006F5F7F4F8CEB99E00E94C637E6960FB622
:10225000F894DEBF0FBECDBFDF91CF911F910895DF
:10226000DF92EF92FF920F931F93CF93DF9300D0F3
:102270001F92CDB7DEB7D82E80E1E82E8AE0F82E87
:102280000091BA091091BB092FEF4D2D6CEB79E04D
:10229000CE0101960E94EE338981F70180838A8105
:1022A00081838B818283F3E0DF0E83E0E80EF11CF3
:1022B000E2E5EE16EDE0FE0619F70F900F900F9095
:1022C000DF91CF911F910F91FF90EF90DF900895D4
:1022D0000F931F93CF93DF938C01C62FD42F809140
:1022E000FC09811143C061E08FE090E10E946736F4
:1022F0001093070100930601D093FB0981E08093BE
:10230000FC09CC3008F032C0EC2FF0E0E657FE4E6E
:102310000C94454596119D11A411A711AF11B1114F
:10232000CE11D011D311D611D911DC1168EB76E0A2
:102330008CEB99E00E94AC050BC068E776E08CEB73
:1023400099E00E94AC050EC068E776E0F1CF1DDF92
:1023500081E090E09093BB098093BA0907C09FDEAB
:10236000F7CFECDE1092BB091092BA098091F30905
:102370009091F4090196893E23E0920704F5909329
:10238000F4098093F3098091F3096ADF8FE090E10B
:10239000DF91CF911F910F910C94C705CFDED8CF5D
:1023A00068EF76E0C5CF68E376E0C2CF62E175E022
:1023B000C6CF62E175E0BCCF68E970E0B9CF10929A
:1023C000F4091092F309DFCFDC016031710508F0E8
:1023D00052C0FB01E251FE4E0C9445453B12FE11EA
:1023E000FE1109120D121112151219121D122112CD
:1023F000251229122D122F123312351281E08C93DF
:1024000099E111969C93119712968C931297CD0196
:10241000089581E08C9398E2F4CF81E08C9390E56D
:10242000F0CF81E08C9398E7ECCF81E08C9396E934
:10243000E8CF81E08C9398ECE4CF85E08C939FEF1C
:10244000E0CF8AE08C9394EBDCCF8AE08C9390EA27
:10245000D8CF84E18C939CE8D4CF8EE1E3CF82E3A4
:102460008C9394E6CECF84E6E1CF84EB8C931196E7
:102470008C931197C9CF1C9211961C9211971296AA
:102480001C921297C4CFCF92DF92EF92FF920F93DC
:102490001F93CF93DF9300D01F92CDB7DEB77C019F
:1024A000162F8091FC0981111EC061E08FE090E140
:1024B0000E946736F0920701E09206011093FB0933
:1024C00081E08093FC091092F4091092F3098BE1EA
:1024D00090E09093F2098093F10984E690E0909364
:1024E000030A8093020A8091020A9091030A8436BB
:1024F000910508F4F8C31092030A1092020AE090C2
:10250000F309F090F40900E110E0F7FC1CC0015061
:1025100011090230110514F410E000E0C090FE0F24
:10252000D090FF0FB801CE0101964EDF9E012F5FC4
:102530003F4FA70170E060E0C6010E94A43381E034
:10254000E81AF108E2CF0091F3091091F40904515F
:10255000110970E1E72EF12C0C3E8FEF1807ECF01B
:1025600081E0E81AF10882E0E816F10414F4F12C95
:10257000E12CC090FE0FD090FF0FB701CE01019665
:1025800023DF9E012F5F3F4FA80162E070E0C6018C
:102590000E94A43301501109DFCF0091F30910917B
:1025A000F4090F50110960E1E62EF12C013F8FEF85
:1025B0001807ECF081E0E81AF10882E0E816F1046F
:1025C00014F4F12CE12CC090FE0FD090FF0FB70156
:1025D000CE010196F9DE9E012F5F3F4FA80164E016
:1025E00070E0C6010E94A43301501109DFCF0091B1
:1025F000F3091091F4090850110950E1E52EF12C6E
:10260000083F8FEF1807ECF081E0E81AF10882E04C
:10261000E816F10414F4F12CE12CC090FE0FD090D8
:10262000FF0FB701CE010196CFDE9E012F5F3F4F16
:10263000A80166E070E0C6010E94A43301501109B0
:10264000DFCFE090F309F090F40900E110E0F7FC2F
:102650001CC0015011090230110514F410E000E013
:10266000C090FE0FD090FF0FB801CE010196ACDEF6
:102670009E012F5F3F4FA70168E070E0C6010E94F6
:10268000A43381E0E81AF108E2CF0091F309109138
:10269000F4090E50110940E1E42EF12C023F8FEFB6
:1026A0001807ECF081E0E81AF10882E0E816F1047E
:1026B00014F4F12CE12CC090FE0FD090FF0FB70165
:1026C000CE01019681DE9E012F5F3F4FA8016AE097
:1026D00070E0C6010E94A43301501109DFCF0091C0
:1026E000F3091091F4090551110930E1E32EF12CA1
:1026F0000B3E8FEF1807ECF081E0E81AF10882E05A
:10270000E816F10414F4F12CE12CC090FE0FD090E7
:10271000FF0FB701CE01019657DE9E012F5F3F4F9D
:10272000A8016CE070E0C6010E94A43301501109B9
:10273000DFCF0091F3091091F4090950110920E14C
:10274000E22EF12C073F8FEF1807ECF081E0E81A3A
:10275000F10882E0E816F10414F4F12CE12CC090A9
:10276000FE0FD090FF0FB701CE0101962DDE9E0126
:102770002F5F3F4FA8016EE070E0C6010E94A433B6
:1027800001501109DFCF0091F3091091F4090150B4
:10279000110990E1E92EF12C0F3F8FEF1807ECF0B3
:1027A00081E0E81AF10882E0E816F10414F4F12C53
:1027B000E12CC090FE0FD090FF0FB701CE01019623
:1027C00003DE9E012F5F3F4FA80160E170E0C6016C
:1027D0000E94A43301501109DFCF0091F309109139
:1027E000F4090051110980E1E82EF12C003F8FEF30
:1027F0001807ECF081E0E81AF10882E0E816F1042D
:1028000014F4F12CE12CC090FE0FD090FF0FB70113
:10281000CE010196D9DD9E012F5F3F4FA80162E1F5
:1028200070E0C6010E94A43301501109DFCF00916E
:10283000F3091091F40907511109B0E1EB2EF12CC5
:10284000093E8FEF1807ECF081E0E81AF10882E00A
:10285000E816F10414F4F12CE12CC090FE0FD09096
:10286000FF0FB701CE010196AFDD9E012F5F3F4FF5
:10287000A80164E170E0C6010E94A433015011096F
:10288000DFCF0091F3091091F4090B501109A0E179
:10289000EA2EF12C053F8FEF1807ECF081E0E81AE3
:1028A000F10882E0E816F10414F4F12CE12CC09058
:1028B000FE0FD090FF0FB701CE01019685DD9E017E
:1028C0002F5F3F4FA80166E170E0C6010E94A4336C
:1028D00001501109DFCFE090F109F090F20900E119
:1028E00010E0F7FC1CC0015011090230110514F46E
:1028F00010E000E0C090FE0FD090FF0FB801CE01B5
:10290000019662DD9E012F5F3F4FA70170E060E0FE
:10291000C6010E94A43381E0E81AF108E2CF0091D9
:10292000F1091091F20904511109F0E1EF2EF12C97
:102930000C3E8FEF1807ECF081E0E81AF10882E016
:10294000E816F10414F4F12CE12CC090FE0FD090A5
:10295000FF0FB701CE01019637DD9E012F5F3F4F7C
:10296000A80161E070E0C6010E94A4330150110982
:10297000DFCF0091F1091091F2090F501109E0E148
:10298000EE2EF12C013F8FEF1807ECF081E0E81AF2
:10299000F10882E0E816F10414F4F12CE12CC09067
:1029A000FE0FD090FF0FB701CE0101960DDD9E0105
:1029B0002F5F3F4FA80163E070E0C6010E94A4337F
:1029C00001501109DFCF0091F1091091F20908506F
:1029D000110970E1E72EF12C083F8FEF1807ECF09A
:1029E00081E0E81AF10882E0E816F10414F4F12C11
:1029F000E12CC090FE0FD090FF0FB701CE010196E1
:102A0000E3DC9E012F5F3F4FA80165E070E0C60147
:102A10000E94A43301501109DFCFE090F109F0903A
:102A2000F20900E110E0F7FC1CC00150110902306E
:102A3000110514F410E000E0C090FE0FD090FF0FDD
:102A4000B801CE010196C0DC9E012F5F3F4FA70168
:102A500067E070E0C6010E94A43381E0E81AF10843
:102A6000E2CF0091F1091091F2090E50110960E1D5
:102A7000E62EF12C023F8FEF1807ECF081E0E81A08
:102A8000F10882E0E816F10414F4F12CE12CC09076
:102A9000FE0FD090FF0FB701CE01019695DC9E018D
:102AA0002F5F3F4FA80169E070E0C6010E94A43388
:102AB00001501109DFCF0091F1091091F209055180
:102AC000110950E1E52EF12C0B3E8FEF1807ECF0C9
:102AD00081E0E81AF10882E0E816F10414F4F12C20
:102AE000E12CC090FE0FD090FF0FB701CE010196F0
:102AF0006BDC9E012F5F3F4FA8016BE070E0C601C9
:102B00000E94A43301501109DFCF0091F109109107
:102B1000F2090950110940E1E42EF12C073F8FEF33
:102B20001807ECF081E0E81AF10882E0E816F104F9
:102B300014F4F12CE12CC090FE0FD090FF0FB701E0
:102B4000CE01019641DC9E012F5F3F4FA8016DE051
:102B500070E0C6010E94A43301501109DFCF00913B
:102B6000F1091091F2090150110930E1E32EF12C25
:102B70000F3F8FEF1807ECF081E0E81AF10882E0D0
:102B8000E816F10414F4F12CE12CC090FE0FD09063
:102B9000FF0FB701CE01019617DC9E012F5F3F4F5B
:102BA000A8016FE070E0C6010E94A4330150110932
:102BB000DFCF0091F1091091F2090051110920E1D4
:102BC000E22EF12C003F8FEF1807ECF081E0E81ABD
:102BD000F10882E0E816F10414F4F12CE12CC09025
:102BE000FE0FD090FF0FB701CE010196EDDB9E01E5
:102BF0002F5F3F4FA80161E170E0C6010E94A4333E
:102C000001501109DFCF0091F1091091F20907512C
:102C1000110990E1E92EF12C093E8FEF1807ECF035
:102C200081E0E81AF10882E0E816F10414F4F12CCE
:102C3000E12CC090FE0FD090FF0FB701CE0101969E
:102C4000C3DB9E012F5F3F4FA80163E170E0C60127
:102C50000E94A43301501109DFCF0091F1091091B6
:102C6000F2090B50110980E1E82EF12C053F8FEF9E
:102C70001807ECF081E0E81AF10882E0E816F104A8
:102C800014F4F12CE12CC090FE0FD090FF0FB7018F
:102C9000CE01019699DB9E012F5F3F4FA80165E1B0
:102CA00070E0C6010E94A43301501109DFCF8FE00C
:102CB00090E10E94C7058091F3099091F409019673
:102CC00089339105E4F49093F4098093F30980919A
:102CD000F1099091F209019689339105ACF4909332
:102CE000F2098093F1090F900F900F90DF91CF912F
:102CF0001F910F91FF90EF90DF90CF900895109269
:102D0000F4091092F309E3CF1092F2091092F1093D
:102D1000EACF109290008BE0809391008AE698E1D0
:102D2000909399008093980082E0809371000895B9
:102D30001F920F920FB60F9211242F933F938F93F0
:102D40009F938091020A9091030A49969093030AF7
:102D50008093020A8091FE099091FF094996909311
:102D6000FF098093FE098091000A9091010A49961B
:102D70009093010A8093000A91E09093FD098BB132
:102D800020E482278BB92091FE093091FF09283E6B
:102D9000334030F01092FF091092FE099093F90928
:102DA0002091000A3091010A80910601909107015B
:102DB00028173907C0F08091FB098093FA09109217
:102DC000030A1092020A1092010A1092000A10924D
:102DD000F4091092F30987E190E090930501809344
:102DE00004011092FC099F918F913F912F910F90B8
:102DF0000FBE0F901F9018951092030A1092020AAE
:102E00001092010A1092000A1092B6091092B509A8
:102E10001092B2091092B1091092B0091092F409FF
:102E20001092F30980930F0A1092FA091092FC098C
:102E30006FE171E08FE990E10E9484058FE990E1F4
:102E40000C94F43FAF92BF92CF92DF92EF92FF9239
:102E50000F931F93CF93DF9368EE73E080E090E0D1
:102E60000E94BB3B4FEF60E470E08AE290E10E9479
:102E70009E3E569A88E20E94233ABC01990F880B25
:102E8000990B1F921F921F9228E72F93A12CB12C10
:102E90006501EE24EA9413E0F12E00E010E020E05A
:102EA00030E0A9010E9465426093060A82E391E046
:102EB0000E94683FEC010AE027E130E046E150E083
:102EC00060E17AE00E94CD30D093FF0FC093FE0FF7
:102ED000809127090F900F900F900F9081114DC096
:102EE00087E299E00E94693F892B09F446C010925D
:102EF0003209109231098FEF80933509809336099A
:102F000080933709809338098093390980933A096F
:102F100081E080933B0910923D0910923C09109288
:102F200034091092330980910D1090910E10892B65
:102F300031F48FE299E090930E1080930D10E091A0
:102F40000B10F0910C10309721F08FE299E09583EF
:102F500084838FE299E090930C1080930B10109271
:102F60003F0910923E0984EB94E0909330098093DE
:102F70002F0987E299E00E94723F30E020E04AEF9B
:102F800051E060E17AE08FE299E00E94BD36FC01F9
:102F90008FEF868380EB878380EF80878091FE0FA1
:102FA0009091FF0F0E9444318091FE0F9091FF0F8E
:102FB0002FE020930F10FC01168A69E874E00E944C
:102FC000D333F894A6DE789468EB76E08CEB99E046
:102FD0000E94AC0581E090E09093BB098093BA0910
:102FE00080E0DF91CF911F910F91FF90EF90DF90E4
:102FF000CF90BF90AF9000CFEF92FF920F931F93AF
:10300000CF93DF9300D000D000D01F92CDB7DEB7B2
:103010008091FA09863009F47FC018F5823009F4EE
:103020004CC090F48823E1F1813009F43EC027962A
:103030000FB6F894DEBF0FBECDBFDF91CF911F91C9
:103040000F91FF90EF900895843009F45FC008F469
:1030500045C040ED57E066E088E99AE30E94050725
:10306000E6CF893009F46BC060F4873009F45FC0A3
:103070008830E9F649E065E088E99AE30E94B606FF
:10308000D6CF8B3009F467C008F45FC0843679F678
:1030900060E08FE090E10E94673680E0ADDEC7CF50
:1030A00061E080E69AEEEFD9C2CF42E060EA7FE0CD
:1030B00088E99AE30E946908BACF0E94D8057C018A
:1030C0000E94D8058C010E94D8059C0142E350E083
:1030D00063E088E893E10E946A07A9CF0E94F105A6
:1030E0007C0165E772E0CE0101960E940D4304E089
:1030F00097014AE550E060E375E7CE0101960E9432
:103100002B0ECE0101960E94A44291CF65E088E982
:103110009AE30E94C7078BCFEE24EA94F12C0FEFBD
:1031200010E02FEF30E042E350E067E0D2CF48EE0E
:1031300053E068E088E99AE30E94DC0978CF6AE00E
:1031400080E197E20E94F70B72CF6BE080E197E29B
:103150000E94F50A6CCF44EF51E064E688E99AE3F7
:103160000E94510A64CFEF92FF920F931F93CF9367
:10317000DF9300D000D000D01F92CDB7DEB7809192
:10318000FA09893109F485C038F5853009F46DC034
:1031900098F4882309F449C0823009F45EC0279668
:1031A0000FB6F894DEBF0FBECDBFDF91CF911F9158
:1031B0000F91FF90EF9008958F3009F45CC0843137
:1031C00009F45FC08A3059F749EA51E06FE082E8BC
:1031D00090E60E940507E3CF8D3209F474C070F4C5
:1031E000833209F45DC0883209F469C08E31B9F6C2
:1031F00063E28BE49EE60E942506D1CF873309F473
:1032000067C0843609F468C0823349F60E94D80545
:103210007C010E94D8058C010E94D8059C014BE4DA
:1032200050E067E386E297E347C00E94F1057C0126
:1032300060E371E0CE0101960E940D4302E0970128
:103240004BE450E06CE675E3CE0101960E942B0E34
:10325000CE0101960E94A442A2CF45E068EB71E046
:1032600083E99BE10E9469089ACF6AE08BE49EE6BD
:103270000E94C70794CF64E186E297E30E94B609F3
:103280008ECF49EA51E069E18BE49EE60E94510A43
:1032900086CF4EE165E080E395E70E94B6067FCFDA
:1032A000EE24EA94F12C0FEF10E02FEF30E04BE426
:1032B00050E068E289EC9DE00E946A0770CF49EA1D
:1032C00051E06DE284CF42E365E088EB92E5E5CF23
:1032D00064E68FEF9FEF8FCF60E08FE090E10E9478
:1032E000673680E089DD5BCFEF92FF920F931F93EB
:1032F000CF93DF9300D000D000D01F92CDB7DEB7C0
:103300008091FA09823309F4E9C008F049C0843198
:1033100009F4C6C010F5853009F4B4C098F48823C8
:1033200009F492C0813009F4A7C027960FB6F8942B
:10333000DEBF0FBECDBFDF91CF911F910F91FF90E8
:10334000EF9008958A3009F4A5C08F3071F764E1D9
:1033500087EE90E40E94BA09E8CF833209F4B6C040
:10336000B0F4893109F4ACC08E31F9F60E94D80569
:103370007C010E94D8058C010E94D8059C0142E383
:1033800050E063E286E397E00E946A07CECF88327E
:1033900009F4A2C08D3249F662E38BE792E3DACFFB
:1033A000863409F4B6C050F58A3309F4A4C098F401
:1033B000873309F498C0883309F0B7CF0E94D80545
:1033C0007C010E94D8058C010E94D8059C0142E333
:1033D00050E06AE3D7CF8C3309F493C0813409F00D
:1033E000A4CFEE24EA94F12C0FEF10E02FEF30E0A1
:1033F00042E350E066E48CE69EE0C6CF853509F4F2
:103400009DC098F48B3409F493C0803509F08DCFBA
:103410000E94D8057C010E94D8058C010E94D80525
:103420009C0142E350E065E5E6CF8F3509F48DC09D
:10343000843609F496C08A3509F077CF42EC51E022
:103440006FE587EC9FE623C00E94F1057C016DE4E7
:1034500071E0CE0101960E940D4301E0970144E620
:1034600050E06BE772E3CE0101960E942B0ECE0175
:1034700001960E94A44259CF65E089ED9CE10E942B
:10348000250653CF4DE953E06AE089ED9CE10E94A7
:10349000DC094BCF6FE082E693E70E94C70745CF78
:1034A0000E94F10559E1E52E8C0126E337E045E461
:1034B00051E066E070E080E499E00E94B70F35CFFC
:1034C00042EC51E06EE18BE792E3E1CF42EC51E058
:1034D00068E281EB99E3DBCF6DE2DDCF0E94F1057D
:1034E00047E3E42EE1CF42EC51E068E38BE792E35F
:1034F0000E94510A1ACF42EC51E06CE381EB99E350
:10350000F7CF41E46AE377E086E89DE40E9469082A
:103510000CCF0E94D8057C010E94D8058C010E9426
:10352000D8059C0142E350E06BE480E797E12CCFA3
:1035300040E56AE377E081EB99E3E8CF4AE565E0AF
:1035400082E693E70E94B606F0CE0E94F10529E0DC
:10355000E22E8C0120E63AEE45E451E064E670E0AC
:10356000AACF60E08FE090E10E94673680E044DC03
:10357000DCCEEF92FF920F931F93CF93DF9300D097
:1035800000D000D01F92CDB7DEB78091FA098E31FE
:1035900009F49FC0F0F58A3009F47DC060F58230EF
:1035A00009F469C0853009F46EC0811117C00E940A
:1035B000F1057C016EE571E0CE0101960E940D439C
:1035C00002E097014BE450E061E87EE2CE01019613
:1035D0000E942B0ECE0101960E94A44227960FB6A0
:1035E000F894DEBF0FBECDBFDF91CF911F910F9139
:1035F000FF90EF900895843109F455C0893109F4A2
:1036000058C08F3059F746EB53E064E189E79BE3FC
:1036100037C0823309F472C0B8F4883209F461C04B
:103620008D3209F464C08332C9F6EE24EA94F12C99
:103630000FEF10E02FEF30E04BE450E068E289E755
:103640009BE30E946A07CACF8C3309F45DC08436BD
:1036500009F460C0873311F60E94D8057C010E94EE
:10366000D8058C010E94D8059C014BE450E06CE326
:1036700080EB9DE1E6CF46EB53E065E082E794E620
:103680000E94DC09ABCF4BED51E06AE084E892EB9D
:103690000E94510AA3CF46EB53E06FE08BE097E71F
:1036A0000E9405079BCF4BED51E069E18BE097E766
:1036B000EFCF0E94F1052EE1E22E8C012BE236E1E4
:1036C0004BED51E06AE070E08AE699E00E94B70FA6
:1036D00085CF43E26CE677E087EC90E60E946908CC
:1036E0007DCF48EB53E06DE289E79BE3D9CF42E31E
:1036F00065E080EB9DE10E94B60670CF46EB53E09B
:1037000067E380EB9DE1CCCF64E68FEF9FEF0E94F3
:10371000250664CF60E08FE090E10E94673680E08C
:103720006BDB5CCFEF92FF920F931F93CF93DF93EE
:1037300000D000D000D01F92CDB7DEB78091FA093B
:103740008E3109F4AFC0A0F5853009F492C0B8F409
:10375000813009F487C008F46DC045E064E0823030
:1037600009F482C027960FB6F894DEBF0FBECDBF16
:10377000DF91CF911F910F91FF90EF9008958F30BF
:1037800009F47BC040F48A3069F76FE086E09FE37C
:103790000E94F50AE7CF843109F473C044EF51E089
:1037A0006EE18931F9F686E09FE30E94DC09DACF09
:1037B000873309F48FC0D0F4883209F478C050F40C
:1037C00044EF51E068E2833269F686E09FE30E94AD
:1037D0000507C8CF8D3209F477C0823319F647E365
:1037E00067E08DEF9EE30E94B606BCCF813409F4FA
:1037F00075C090F48C3309F0B5CF0E94D8057C01D8
:103800000E94D8058C010E94D8059C014BE450E031
:1038100061E484E49FE243C0863409F464C08436E2
:1038200009F0A0CF60E08FE090E10E94673680E071
:10383000E3DA98CF0E94F1057C0166E771E0CE01E2
:1038400001960E940D4301E097014BE450E06EE0C9
:103850007DE3CE0101960E942B0ECE0101960E94BF
:10386000A44280CF42E063E083E89FE10E946811B8
:1038700079CF44EF51E06AE096CF44EF51E064E144
:10388000A4CF0E94D8057C010E94D8058C010E941B
:10389000D8059C014BE450E069E186E09FE30E947B
:1038A0006A0760CF43E264E086E09FE3DFCF0E94D7
:1038B000D8057C010E94D8058C010E94D8059C0186
:1038C0004BE450E06DE2E9CF62E382E79FE10E94C2
:1038D000C70748CF44EF51E06CE377CF46E46CE094
:1038E00089EB9FE080CF64E680E197E20E94BA090D
:1038F00039CFEF92FF920F931F93CF93DF9300D0B6
:1039000000D000D01F92CDB7DEB78091FA09843184
:1039100009F475C048F5823009F45CC0A8F4882326
:1039200009F440C042E063E0813009F47BC027968F
:103930000FB6F894DEBF0FBECDBFDF91CF911F91C0
:103940000F91FF90EF9008958A3009F44AC08F30AC
:1039500009F44DC0853059F749EA51E06AE082EB3D
:103960009CE60E94DC09E3CF883209F462C060F46F
:103970008E3109F455C0833209F457C08931B9F644
:1039800049EA51E06EE1EBCF863409F461C0843638
:1039900009F464C08D3259F662E389E596E30E942A
:1039A000C707C5CF0E94F1057C016DE871E0CE012B
:1039B00001960E940D4301E097014BE450E063ED56
:1039C0007FE4CE0101960E942B0ECE0101960E944B
:1039D000A442ADCF45E064E082EB9CE60E94681112
:1039E000A6CF6FE082EB9CE60E94F50AA0CF49EAE1
:1039F00051E064E189E596E30E94050798CF0E94B3
:103A0000D8057C010E94D8058C010E94D8059C0134
:103A10004BE450E069E189E596E30E946A0787CFAD
:103A200043E264E089E596E3D9CF49EA51E068E2F0
:103A3000E1CF0E94D8057C010E94D8058C010E942C
:103A4000D8059C014BE450E06DE28FEE93E4E5CFA6
:103A500064E680E197E20E94BA0969CF60E08FE0F6
:103A600090E10E94673680E0C7D961CFEF92FF9264
:103A70000F931F93CF93DF9300D000D000D01F92FD
:103A8000CDB7DEB78091FA09893109F4DEC008F0BC
:103A900049C08C3009F4ADC040F5823009F49AC0B9
:103AA000A8F4882309F47EC042E067E0813009F47D
:103AB000D2C027960FB6F894DEBF0FBECDBFDF9100
:103AC000CF911F910F91FF90EF9008958A3009F4E4
:103AD00084C008F088C04DE052E06AE0853049F7C4
:103AE00086EA90E40E94DC09E4CF803109F48BC0BF
:103AF00058F48D3009F485C08F30D9F64DE052E08E
:103B000060E18CE19CE07AC0823109F491C008F454
:103B10008BC049E168E0843161F686EA90E40E9456
:103B20006811C7CF8D3209F4B7C0E8F4833209F4C5
:103B300095C060F48E3109F48CC04DE052E063E230
:103B4000823209F0B6CF83E590E258C0853209F49D
:103B500096C008F490C0883209F0ABCF4DE262E025
:103B600088EA98E4DCCF813309F4A4C068F48F328A
:103B700009F498C0803309F09CCF41E367E083E506
:103B800090E20E94B60695CF863409F497C0843639
:103B900009F498C0823309F08CCF46E46CE08AE3E4
:103BA00090E2EFCF0E94F1057C016BEA71E0CE015B
:103BB00001960E940D4301E097014BE450E069E754
:103BC0007EE2CE0101960E942B0ECE0101960E944C
:103BD000A4426FCF45E066E0A0CF6BE086E49EE1B3
:103BE0000E94F50A66CF6CE08EE096E00E94DC0E43
:103BF00060CF4DE052E06DE08FE09AE00E94050753
:103C000058CF6FE0F1CF0E94D8057C010E94D80503
:103C10008C010E94D8059C014BE450E061E183E5F2
:103C200090E20E946A0745CF4DE052E062E18BCFFF
:103C30000E94D8057C010E94D8058C010E94D805FD
:103C40009C014BE450E064E1EACF4DE052E06EE1CC
:103C500047CF42E264E083E590E261CF0E94D8055D
:103C60007C010E94D8058C010E94D8059C014BE480
:103C700050E064E2D4CF4DE052E065E264CF0E94B0
:103C8000D8057C010E94D8058C010E94D8059C01B2
:103C90004BE450E068E2C3CF6FE286EA90E40E9412
:103CA000C70707CF40E36DE072E083E590E20E9432
:103CB0006908FFCE42E36AEF70E0F7CF64E680E385
:103CC00095E794CF60E08FE090E10E94673680E056
:103CD00093D8EFCEEF92FF920F931F93CF93DF9382
:103CE00000D000D000D01F92CDB7DEB78091FA0986
:103CF0008E3109F4AFC0A0F5853009F492C0B8F454
:103D0000813009F487C008F46DC045E064E082307A
:103D100009F482C027960FB6F894DEBF0FBECDBF60
:103D2000DF91CF911F910F91FF90EF9008958F3009
:103D300009F47BC040F48A3069F76FE086E09FE3C6
:103D40000E94F50AE7CF843109F473C044EF51E0D3
:103D50006EE18931F9F686E09FE30E94DC09DACF53
:103D6000873309F48FC0D0F4883209F478C050F456
:103D700044EF51E068E2833269F686E09FE30E94F7
:103D80000507C8CF8D3209F477C0823319F647E3AF
:103D900067E08DEF9EE30E94B606BCCF813409F444
:103DA00075C090F48C3309F0B5CF0E94D8057C0122
:103DB0000E94D8058C010E94D8059C014BE450E07C
:103DC00061E484E49FE243C0863409F464C084362D
:103DD00009F0A0CF60E08FE090E10E94673680E0BC
:103DE0000BD898CF0E94F1057C0164EC71E0CE0104
:103DF00001960E940D4301E097014BE450E06EE014
:103E00007DE3CE0101960E942B0ECE0101960E9409
:103E1000A44280CF42E063E083E89FE10E94681102
:103E200079CF44EF51E06AE096CF44EF51E064E18E
:103E3000A4CF0E94D8057C010E94D8058C010E9465
:103E4000D8059C014BE450E069E186E09FE30E94C5
:103E50006A0760CF43E264E086E09FE3DFCF0E9421
:103E6000D8057C010E94D8058C010E94D8059C01D0
:103E70004BE450E06DE2E9CF62E382E79FE10E940C
:103E8000C70748CF44EF51E06CE377CF46E46CE0DE
:103E900089EB9FE080CF64E680E197E20E94BA0957
:103EA00039CFEF92FF920F931F93CF93DF9300D000
:103EB00000D000D01F92CDB7DEB78091FA098E31C5
:103EC00009F4B0C0A0F5853009F493C0B8F481308E
:103ED00009F488C008F46EC045E064E0823009F45B
:103EE00083C027960FB6F894DEBF0FBECDBFDF911B
:103EF000CF911F910F91FF90EF9008958F3009F4AB
:103F00007CC040F48A3069F76FE086E09FE30E944E
:103F1000F50AE7CF843109F474C044EF51E06EE153
:103F20008931F9F686E09FE30E94DC09DACF873316
:103F300009F490C0D0F4883209F479C050F444EF09
:103F400051E068E2833269F686E09FE30E9405074C
:103F5000C8CF8D3209F478C0823319F647E367E0A1
:103F60008DEF9EE30E94B606BCCF813409F476C083
:103F700090F48C3309F0B5CF0E94D8057C010E94E3
:103F8000D8058C010E94D8059C014BE450E061E407
:103F900084E49FE244C0863409F465C0843609F0A5
:103FA000A0CF60E08FE090E10E94673680E00E9441
:103FB000FC1697CF0E94F1057C016CED71E0CE01FB
:103FC00001960E940D4301E097014BE450E06EE042
:103FD0007DE3CE0101960E942B0ECE0101960E9438
:103FE000A4427FCF42E063E083E89FE10E94681132
:103FF00078CF44EF51E06AE095CF44EF51E064E1BF
:10400000A3CF0E94D8057C010E94D8058C010E9494
:10401000D8059C014BE450E069E186E09FE30E94F3
:104020006A075FCF43E264E086E09FE3DFCF0E9450
:10403000D8057C010E94D8058C010E94D8059C01FE
:104040004BE450E06DE2E9CF62E382E79FE10E943A
:10405000C70747CF44EF51E06CE376CF46E46CE00E
:1040600089EB9FE07FCF64E680E197E20E94BA0986
:1040700038CFEF92FF920F931F93CF93DF9300D02F
:1040800000D000D01F92CDB7DEB78091FA098E31F3
:1040900009F4B0C0A0F5853009F493C0B8F48130BC
:1040A00009F488C008F46EC045E064E0823009F489
:1040B00083C027960FB6F894DEBF0FBECDBFDF9149
:1040C000CF911F910F91FF90EF9008958F3009F4D9
:1040D0007CC040F48A3069F76FE086E09FE30E947D
:1040E000F50AE7CF843109F474C044EF51E06EE182
:1040F0008931F9F686E09FE30E94DC09DACF873345
:1041000009F490C0D0F4883209F479C050F444EF37
:1041100051E068E2833269F686E09FE30E9405077A
:10412000C8CF8D3209F478C0823319F647E367E0CF
:104130008DEF9EE30E94B606BCCF813409F476C0B1
:1041400090F48C3309F0B5CF0E94D8057C010E9411
:10415000D8058C010E94D8059C014BE450E061E435
:1041600084E49FE244C0863409F465C0843609F0D3
:10417000A0CF60E08FE090E10E94673680E00E946F
:10418000FC1697CF0E94F1057C0160EF71E0CE0133
:1041900001960E940D4301E097014BE450E06EE070
:1041A0007DE3CE0101960E942B0ECE0101960E9466
:1041B000A4427FCF42E063E083E89FE10E94681160
:1041C00078CF44EF51E06AE095CF44EF51E064E1ED
:1041D000A3CF0E94D8057C010E94D8058C010E94C3
:1041E000D8059C014BE450E069E186E09FE30E9422
:1041F0006A075FCF43E264E086E09FE3DFCF0E947F
:10420000D8057C010E94D8058C010E94D8059C012C
:104210004BE450E06DE2E9CF62E382E79FE10E9468
:10422000C70747CF44EF51E06CE376CF46E46CE03C
:1042300089EB9FE07FCF64E680E197E20E94BA09B4
:1042400038CFEF92FF920F931F93CF93DF9300D05D
:1042500000D000D01F92CDB7DEB78091FA098E3121
:1042600009F4B0C0A0F5853009F493C0B8F48130EA
:1042700009F488C008F46EC045E064E0823009F4B7
:1042800083C027960FB6F894DEBF0FBECDBFDF9177
:10429000CF911F910F91FF90EF9008958F3009F407
:1042A0007CC040F48A3069F76FE086E09FE30E94AB
:1042B000F50AE7CF843109F474C044EF51E06EE1B0
:1042C0008931F9F686E09FE30E94DC09DACF873373
:1042D00009F490C0D0F4883209F479C050F444EF66
:1042E00051E068E2833269F686E09FE30E940507A9
:1042F000C8CF8D3209F478C0823319F647E367E0FE
:104300008DEF9EE30E94B606BCCF813409F476C0DF
:1043100090F48C3309F0B5CF0E94D8057C010E943F
:10432000D8058C010E94D8059C014BE450E061E463
:1043300084E49FE244C0863409F465C0843609F001
:10434000A0CF60E08FE090E10E94673680E00E949D
:10435000FC1697CF0E94F1057C016EE072E0CE0161
:1043600001960E940D4301E097014BE450E06EE09E
:104370007DE3CE0101960E942B0ECE0101960E9494
:10438000A4427FCF42E063E083E89FE10E9468118E
:1043900078CF44EF51E06AE095CF44EF51E064E11B
:1043A000A3CF0E94D8057C010E94D8058C010E94F1
:1043B000D8059C014BE450E069E186E09FE30E9450
:1043C0006A075FCF43E264E086E09FE3DFCF0E94AD
:1043D000D8057C010E94D8058C010E94D8059C015B
:1043E0004BE450E06DE2E9CF62E382E79FE10E9497
:1043F000C70747CF44EF51E06CE376CF46E46CE06B
:1044000089EB9FE07FCF64E680E197E20E94BA09E2
:1044100038CFEF92FF920F931F93CF93DF9300D08B
:1044200000D000D01F92CDB7DEB78091FA098E314F
:1044300009F4B0C0A0F5853009F493C0B8F4813018
:1044400009F488C008F46EC045E064E0823009F4E5
:1044500083C027960FB6F894DEBF0FBECDBFDF91A5
:10446000CF911F910F91FF90EF9008958F3009F435
:104470007CC040F48A3069F76FE086E09FE30E94D9
:10448000F50AE7CF843109F474C044EF51E06EE1DE
:104490008931F9F686E09FE30E94DC09DACF8733A1
:1044A00009F490C0D0F4883209F479C050F444EF94
:1044B00051E068E2833269F686E09FE30E940507D7
:1044C000C8CF8D3209F478C0823319F647E367E02C
:1044D0008DEF9EE30E94B606BCCF813409F476C00E
:1044E00090F48C3309F0B5CF0E94D8057C010E946E
:1044F000D8058C010E94D8059C014BE450E061E492
:1045000084E49FE244C0863409F465C0843609F02F
:10451000A0CF60E08FE090E10E94673680E00E94CB
:10452000FC1697CF0E94F1057C0160E272E0CE019B
:1045300001960E940D4301E097014BE450E06EE0CC
:104540007DE3CE0101960E942B0ECE0101960E94C2
:10455000A4427FCF42E063E083E89FE10E946811BC
:1045600078CF44EF51E06AE095CF44EF51E064E149
:10457000A3CF0E94D8057C010E94D8058C010E941F
:10458000D8059C014BE450E069E186E09FE30E947E
:104590006A075FCF43E264E086E09FE3DFCF0E94DB
:1045A000D8057C010E94D8058C010E94D8059C0189
:1045B0004BE450E06DE2E9CF62E382E79FE10E94C5
:1045C000C70747CF44EF51E06CE376CF46E46CE099
:1045D00089EB9FE07FCF64E680E197E20E94BA0911
:1045E00038CFEF92FF920F931F93CF93DF9300D0BA
:1045F00000D000D01F92CDB7DEB78091FA098E317E
:1046000009F4B0C0A0F5853009F493C0B8F4813046
:1046100009F488C008F46EC045E064E0823009F413
:1046200083C027960FB6F894DEBF0FBECDBFDF91D3
:10463000CF911F910F91FF90EF9008958F3009F463
:104640007CC040F48A3069F76FE086E09FE30E9407
:10465000F50AE7CF843109F474C044EF51E06EE10C
:104660008931F9F686E09FE30E94DC09DACF8733CF
:1046700009F490C0D0F4883209F479C050F444EFC2
:1046800051E068E2833269F686E09FE30E94050705
:10469000C8CF8D3209F478C0823319F647E367E05A
:1046A0008DEF9EE30E94B606BCCF813409F476C03C
:1046B00090F48C3309F0B5CF0E94D8057C010E949C
:1046C000D8058C010E94D8059C014BE450E061E4C0
:1046D00084E49FE244C0863409F465C0843609F05E
:1046E000A0CF60E08FE090E10E94673680E00E94FA
:1046F000FC1697CF0E94F1057C0169E372E0CE01C0
:1047000001960E940D4301E097014BE450E06EE0FA
:104710007DE3CE0101960E942B0ECE0101960E94F0
:10472000A4427FCF42E063E083E89FE10E946811EA
:1047300078CF44EF51E06AE095CF44EF51E064E177
:10474000A3CF0E94D8057C010E94D8058C010E944D
:10475000D8059C014BE450E069E186E09FE30E94AC
:104760006A075FCF43E264E086E09FE3DFCF0E9409
:10477000D8057C010E94D8058C010E94D8059C01B7
:104780004BE450E06DE2E9CF62E382E79FE10E94F3
:10479000C70747CF44EF51E06CE376CF46E46CE0C7
:1047A00089EB9FE07FCF64E680E197E20E94BA093F
:1047B00038CFEF92FF920F931F93CF93DF9300D0E8
:1047C00000D000D01F92CDB7DEB78091FA098E31AC
:1047D00009F4B0C0A0F5853009F493C0B8F4813075
:1047E00009F488C008F46EC045E064E0823009F442
:1047F00083C027960FB6F894DEBF0FBECDBFDF9102
:10480000CF911F910F91FF90EF9008958F3009F491
:104810007CC040F48A3069F76FE086E09FE30E9435
:10482000F50AE7CF843109F474C044EF51E06EE13A
:104830008931F9F686E09FE30E94DC09DACF8733FD
:1048400009F490C0D0F4883209F479C050F444EFF0
:1048500051E068E2833269F686E09FE30E94050733
:10486000C8CF8D3209F478C0823319F647E367E088
:104870008DEF9EE30E94B606BCCF813409F476C06A
:1048800090F48C3309F0B5CF0E94D8057C010E94CA
:10489000D8058C010E94D8059C014BE450E061E4EE
:1048A00084E49FE244C0863409F465C0843609F08C
:1048B000A0CF60E08FE090E10E94673680E00E9428
:1048C000FC1697CF0E94F1057C016CE572E0CE01E9
:1048D00001960E940D4301E097014BE450E06EE029
:1048E0007DE3CE0101960E942B0ECE0101960E941F
:1048F000A4427FCF42E063E083E89FE10E94681119
:1049000078CF44EF51E06AE095CF44EF51E064E1A5
:10491000A3CF0E94D8057C010E94D8058C010E947B
:10492000D8059C014BE450E069E186E09FE30E94DA
:104930006A075FCF43E264E086E09FE3DFCF0E9437
:10494000D8057C010E94D8058C010E94D8059C01E5
:104950004BE450E06DE2E9CF62E382E79FE10E9421
:10496000C70747CF44EF51E06CE376CF46E46CE0F5
:1049700089EB9FE07FCF64E680E197E20E94BA096D
:1049800038CF9F92AF92BF92CF92DF92EF92FF9279
:104990000F931F93CF93DF93FC01C080D18028B188
:1049A000B22E6894B2F898B19B7F98B962858781DE
:1049B000062F081B802F07837785A281B381358559
:1049C0004485568599249394930E4F5F5F5FF680DC
:1049D000E084C185D385F6011181A12C0A2D2A2DF1
:1049E0003A2D3181112788943111380F08F43FEFA7
:1049F0008195889490FC130F1795889491FC130F60
:104A00001795889492FC130F1795889493FC130FB5
:104A10001795889494FC130F1795889495FC130FA1
:104A20001795889496FC130F1795889497FC130F8D
:104A300017958894032F9110012F860F102F002CAB
:104A4000B8B800C017FF98B930810027889400C01B
:104A500000C0002C98B931113F0D00C0002CB8B82F
:104A600000C016FF98B908F43FEFF194889400C095
:104A700000C0002C98B940FD030F00C0002CB8B84E
:104A800000C015FF98B90795889441FD030F00C039
:104A900000C0002C98B90795889400C0002CB8B8C5
:104AA00000C014FF98B942FD030F0795889400C019
:104AB00000C0002C98B943FD030F00C0002CB8B80B
:104AC00000C013FF98B90795889444FD030F00C0F8
:104AD00000C0002C98B90795889400C0002CB8B885
:104AE00000C012FF98B945FD030F0795889400C0D8
:104AF00000C0002C98B946FD030F00C0002CB8B8C8
:104B000000C011FF98B90795889447FD030F00C0B6
:104B100000C0002C98B90795889400C0002CB8B844
:104B200000C010FF98B9132F4111102FFC0E00C0C8
:104B300000C0002C98B900C000C0002CB8B800C05C
:104B400017FF98B932810027889400C000C0002C5C
:104B500098B931113E0D00C0002CB8B800C016FF46
:104B600098B908F43FEFE70FF11D00C000C0002C1A
:104B700098B950FD030F00C0002CB8B800C015FF55
:104B800098B90795889451FD030F00C000C0002C10
:104B900098B90795889400C0002CB8B800C014FFDD
:104BA00098B952FD030F0795889400C000C0002CEF
:104BB00098B953FD030F00C0002CB8B800C013FF14
:104BC00098B90795889454FD030F00C000C0002CCD
:104BD00098B90795889400C0002CB8B800C012FF9F
:104BE00098B955FD030F0795889400C000C0002CAC
:104BF00098B956FD030F00C0002CB8B800C011FFD3
:104C000098B90795889457FD030F00C000C0002C89
:104C100098B90795889400C0002CB8B800C010FF60
:104C200098B9132F5111102FE19400C000C0002C2F
:104C300098B9ED0E00C000C0B8B800C017FF98B911
:104C400031810027889400C000C0002C98B9311130
:104C5000380F00C0002CB8B800C016FF98B908F48F
:104C60003FEF8195889400C000C0002C98B990FC5B
:104C7000030F00C0002CB8B800C015FF98B9079505
:104C8000889491FC030F00C000C0002C98B90795D0
:104C9000889400C0002CB8B800C014FF98B992FCEA
:104CA000030F0795889400C000C0002C98B993FCAE
:104CB000030F00C0002CB8B800C013FF98B90795C7
:104CC000889494FC030F00C000C0002C98B907958D
:104CD000889400C0002CB8B800C012FF98B995FCA9
:104CE000030F0795889400C000C0002C98B996FC6B
:104CF000030F00C0002CB8B800C011FF98B9079589
:104D0000889497FC030F00C000C0002C98B9079549
:104D1000889400C0002CB8B800C010FF98B9132FB9
:104D20009110102F860F00C000C0002C98B9119769
:104D300009F086CEDF91CF911F910F91FF90EF90F8
:104D4000DF90CF90BF90AF909F9008950F931F93E7
:104D5000CF93DF93EC018B010E94DB3B2F853889D9
:104D6000621B730B6A307105B8F3F894C80109DE51
:104D7000F8014281538120EE31E0DA010E945D4565
:104D8000DC01CB01F4E0B695A79597958795FA9548
:104D9000D1F730E020E0B901EAE94E9F040E611D31
:104DA0005E9F600D711D1124650F711D860F971F89
:104DB000A11DB11D893EF3E09F07A105B10508F4CF
:104DC00034C0885E9340A109B10942E0B695A79529
:104DD000979587954A95D1F747E0849F080E211D46
:104DE000949F200D311D1124290F311D6091001059
:104DF00070E0860F971F820F931F40911F105091F4
:104E000020106091211070912210292F3327420F1A
:104E1000531F611D711D40931F105093201060930C
:104E20002110709322108093001078940E94DB3B35
:104E3000788B6F87DF91CF911F910F9108950F931A
:104E40001F93CF93DF93209126092F5F322F377066
:104E50003093260920FF2BC020E831FD20643470F8
:104E600009F02062205FFC01EC01239600E011E0D4
:104E70006485662329F070E0C8010E94F4446F5FE6
:104E80006187322F369F030E30E0311D112431111E
:104E900010C01682662311F0615061873196EC17BD
:104EA000FD0731F7DF91CF911F910F91089520E019
:104EB000D4CF31503683EECF0F931F93CF93DF9330
:104EC000CDB7DEB762970FB6F894DEBF0FBECDBF89
:104ED0008C01F901DC011C968C917A8369835C83D7
:104EE0004B835E834D8390819D8791819E879281C4
:104EF0009F878130E9F4CE010196A1DF83E0888BA2
:104F00001A8A198AD801ED91FC910484F585E02D67
:104F1000BE016F5F7F4FC801099562960FB6F89486
:104F2000DEBF0FBECDBFDF91CF911F910F910895CE
:104F30001C861B861A86198618861F82DFCF0F9360
:104F40001F93CF93DF93CDB7DEB762970FB6F89478
:104F5000DEBF0FBECDBF8C01F901DC011C968C9128
:104F60007A8369835C834B835E834D8390819D87C5
:104F700091819E8792819F878130E1F4CE010196D5
:104F80005EDF188A1A8A198AD801ED91FC9104848F
:104F9000F585E02DBE016F5F7F4FC80109956296D0
:104FA0000FB6F894DEBF0FBECDBFDF91CF911F913A
:104FB0000F9108951C861B861A86198618861F82F3
:104FC000E0CF0FB6F89480911F1090912010A0911F
:104FD0002110B09122100FBE9093F6098093F5092D
:104FE0000E94D8058093B9090E94D8058093B8091A
:104FF0000E94D8058093B7096CE075E08AE699E0D5
:105000000E940D4367E075E081E799E00E940D433F
:1050100065E075E088E799E00E940D4362E075E085
:105020008FE799E00E940D436DEF74E086E899E008
:105030000E940D4369EF74E08DE899E00E940D43F2
:1050400063EF74E084E999E00E940D4360EF74E03F
:105050008BE999E00E940D436BEE74E082EA99E0DF
:105060000E940D4366EE74E089EA99E00E940D43C8
:1050700061EE74E080E499E00E940D436AED74E013
:1050800087E499E00E940D4361ED74E08EE499E0BD
:105090000E940D436DEC74E085E599E00E940D439C
:1050A00069EC74E08CE599E00E940D4362EC74E0D9
:1050B00083E699E00C940D43CF93DF93CAE6D9E0E1
:1050C0002797CE010E94A44289E0C034D807C1F7D7
:1050D000C0EBD9E02797CE010E94A44289E0CA36EE
:1050E000D807C1F7DF91CF9108958AE290E10E943D
:1050F000083E892BD9F08AE290E10E943B3E8093E2
:105100000A0A682F8FE990E10E949B0560910A0AC4
:105110006F3F61F067FF11C06093090A1092080A9F
:105120001092070A8FE990E10E949B058AE290E1C4
:105130000E94083E892BC9F608958091080A8111C2
:1051400037C06093080A6091090A8FE990E10E94D4
:10515000940563E872E08FE990E10E949305609105
:10516000080A8FE990E10E94940563E872E08FE9F4
:1051700090E10E9493056091070A8FE990E10E94F7
:105180009B058091090A893B89F68091080A86313E
:1051900069F68091070A882349F20E94FC1665E8A7
:1051A00072E08FE990E10E9493056091070ABACFFF
:1051B0008091070A8111C7CF6093070AC4CF8F92ED
:1051C0009F92AF92BF92CF92DF92EF92FF920F9396
:1051D0001F93CF938091F709882341F06091F809DC
:1051E0008FE990E10E949B051092F7098091F909DF
:1051F000882339F08091040A8F5F8093040A10920B
:10520000F9098091040A882309F446C0C091060A6E
:105210001092040A88E20E94233ABC01990F880B7D
:10522000990B1F921F921F9228E72F93A12CB12C4C
:105230006501EE24EA9413E0F12E00E010E020E096
:1052400030E0A9010E9465424B015C016C2F70E0C7
:1052500090E080E00E94E24323E333E343E35FE333
:105260000E946E446B017C01C501B4010E94E243BF
:105270002AE939E949E95EE30E946E449B01AC01E9
:10528000C701B6010E9450430E94B4436093060ACE
:105290000F900F900F900F908091060A873608F4B8
:1052A00054C023DF8091FD098823F9F08FE08093BB
:1052B0000F10E0910F0AEF30B0F4F0E0EE59F64D28
:1052C0000C94454571298129842987298A298D29AA
:1052D00090299329962999299C299F29A129A329B5
:1052E000A3290E94FC171092FD09CF911F910F91E5
:1052F000FF90EF90DF90CF90BF90AF909F908F90F6
:1053000008950E94B318EFCF0E947419ECCF0E9449
:10531000B91AE9CF0E94921BE6CF0E94791CE3CF15
:105320000E94361DE0CF0E946A1EDDCF0E94511FF1
:10533000DACF0E943920D7CF0E942121D4CF69D85B
:10534000D2CF4FD9D0CF35DACECF60E08FE090E129
:105350000E9467368FE090E10E94C70564EF71E01C
:1053600080E090E00E94BB3B8FE080930F108FEFB6
:105370008093100A1092110A1092120A8FE090E1A5
:105380000E94C70564EF71E080E090E0CF911F912B
:105390000F91FF90EF90DF90CF90BF90AF909F90D4
:1053A0008F900C94BB3B90E080E0089508952F927D
:1053B0003F924F925F926F927F928F929F92AF92A5
:1053C000BF92CF92DF92EF92FF920F931F93CF93F2
:1053D000DF9300D000D000D0CDB7DEB73C016A012A
:1053E0003E832D83FC82EB825801A41AB50AB7FED6
:1053F00003C0B194A194B1088D809E80861A970A4B
:1054000097FE03C09194819491088A149B045CF0E8
:10541000902F812F0D811E819D838E839C2D8D2D3C
:105420006B01692F782F0C151D055CF09D818E8115
:105430007E836D83692F782F902F812F8601C92E4F
:10544000D82E1601201A310A2B012D813E81421AD5
:10545000530A57FE03C0519441945108710137FE1D
:1054600003C03FEFE31AF30AF594E7948D819E8120
:10547000861797075CF5A1E0B0E0BA83A983C01650
:10548000D1064CF1D301ED91FC910484F585E02D1A
:105490002B813C81A8016D817E818A149B041CF0C4
:1054A0004D815E81B801C3010995E418F508F7FE46
:1054B0000AC02D813E8189819A81280F391F3E8340
:1054C0002D83E20CF31C0F5F1F4FD9CF2FEF3FEF5F
:1054D0003A832983D4CF26960FB6F894DEBF0FBE49
:1054E000CDBFDF91CF911F910F91FF90EF90DF9093
:1054F000CF90BF90AF909F908F907F906F905F9074
:105500004F903F902F9008950895DC01ED91FC910C
:105510000084F185E02D09940F931F93DC01ED9138
:10552000FC91048CF58DE02D09951F910F91089544
:105530000F931F93DC01ED91FC91068CF78DE02D0C
:1055400009951F910F910895EF92FF920F931F936A
:10555000DC01ED91FC9100A0F1A1E02D09951F91D6
:105560000F91FF90EF9008958F929F92AF92BF920C
:10557000CF92DF92EF92FF920F931F93CF93DF931F
:10558000EC015B014A0169017801E881F98102843B
:10559000F385E02D0995C80CD91C8601015011092D
:1055A000E881F9810488F589E02D9501A401B50110
:1055B000CE010995E881F9810688F789E02DCE01B1
:1055C000DF91CF911F910F91FF90EF90DF90CF90DF
:1055D000BF90AF909F908F9009948F929F92AF92BF
:1055E000BF92CF92DF92EF92FF920F931F93CF93D0
:1055F000DF93EC015B014A016901E881F9810284D2
:10560000F385E02D099595012C0D3D1D21503109A3
:10561000E881F9810488F589E02D78018401A401ED
:10562000B501CE010995E881F9810688F789E02D59
:10563000CE01DF91CF911F910F91FF90EF90DF90FE
:10564000CF90BF90AF909F908F9009944F925F92B0
:105650006F927F928F929F92AF92BF92CF92DF9282
:10566000EF92FF920F931F93CF93DF936C012B0167
:105670005A0139014801DC01ED91FC910284F38566
:10568000E02D0995E201640C751CD601ED91FC91A9
:10569000C615D7055CF40088F189E02D87019401D7
:1056A000A501BE01C60109952196EFCF0688F789AD
:1056B000E02DC601DF91CF911F910F91FF90EF90E8
:1056C000DF90CF90BF90AF909F908F907F906F9022
:1056D0005F904F900994EF92FF920F931F93DC011C
:1056E00019960D911C911A9717962D913C91189728
:1056F000ED91FC9100A0F1A1E02D7B0150E040E094
:1057000070E060E009951F910F91FF90EF90089570
:105710006F927F928F929F92AF92BF92CF92DF92C1
:10572000EF92FF920F931F93CF93DF93EC016B01E6
:105730005A0139014801E881F9810284F385E02D9D
:105740000995E881F9810288F389E02D87019301A9
:10575000A501B601CE010995A501480D591D41507D
:105760005109E881F9810288F389E02D9301B6019E
:10577000CE010995E881F9810088F189E02D940135
:10578000A501B601CE010995C60CD71CB601615022
:105790007109E881F9810088F189E02D9401A50162
:1057A000CE010995E881F9810688F789E02DCE01BF
:1057B000DF91CF911F910F91FF90EF90DF90CF90ED
:1057C000BF90AF909F908F907F906F9009940895B5
:1057D0006F927F928F929F92AF92BF92CF92DF9201
:1057E000EF92FF920F931F93CF93DF935C01EB0136
:1057F0006A01490138018701DC01ED91FC916217D2
:10580000730719F5641675062CF0962D872D3A014D
:10581000C92ED82E9601261937092F5F3F4F048CC9
:10582000F58DE02DA301BE01C5010995DF91CF9152
:105830001F910F91FF90EF90DF90CF90BF90AF90AE
:105840009F908F907F906F9008954615570591F423
:105850002617370724F0892D4B01C22FD82F9E0120
:10586000281939092F5F3F4F068CF78DE02DA601CF
:10587000B401DACF0284F385E02D0995D501ED91CD
:10588000FC910488F589E02D83019401A601BE01F5
:10589000C5010995D501ED91FC910688F789E02DA8
:1058A000C501DF91CF911F910F91FF90EF90DF9095
:1058B000CF90BF90AF909F908F907F906F90099402
:1058C000FC016370658B8381948125813681613011
:1058D00039F0633029F090878783328721870895D4
:1058E00030872783928781870895FC0112828AE49A
:1058F00098E09183808374836383568345837087A4
:10590000678352874187158A148613861686158603
:1059100081E0848B838B2FEF3FEF328B218B308B99
:105920002787868B178A118E108E08952F923F92AB
:105930004F925F926F927F928F929F92AF92BF929F
:10594000CF92DF92EF92FF920F931F93CF93DF934B
:10595000CDB7DEB72E970FB6F894DEBF0FBECDBF22
:105960005C012B015C834B833E872D87FE82ED8299
:10597000160181E090E04C01821A930AC9019195C9
:10598000819591099C01220F331F3A832983C70116
:10599000019698878F83F12CE12C66246394712CF7
:1059A000902F9170998702700A87DA011196BC874F
:1059B000AB872D853E85E216F3060CF08DC0CD84B5
:1059C000DE8497FC0BC0690131E0C31AD1088981DC
:1059D0009A8102969A838983880E991E9FEFE91A0D
:1059E000F90AA2E06A0E711C860C971CCE14DF0423
:1059F000A4F1B985BB23B9F09601220F331F8F8123
:105A00009885280F391FD501ED91FC910088F18907
:105A1000E02D81014B815C814C195D09B2016E0D55
:105A20007F1DC5010995BA85BB23B9F09601220FE8
:105A3000331F8F819885280F391FD501ED91FC9177
:105A40000088F189E02D81014B815C814C195D0951
:105A5000B2016E197F09C50109952D853E852C156A
:105A60003D05B9F139853323C1F093012250310945
:105A70008D819E81280F391FD501ED91FC91008801
:105A8000F189E02D81014B855C854E195F096D859B
:105A90007E85640D751DC5010995BA85BB23C9F0C6
:105AA0009301225031098D819E81280F391FB20147
:105AB000AD85BE856A1B7B0BD501ED91FC910088FD
:105AC000F189E02D81014B855C854E195F09C50187
:105AD0000995DE86CD866DCF2E960FB6F894DEBF83
